:020000040800F2
:10000000D8A400200D02000861470008253600082A
:100010005D470008EF050008574C0008000000008D
:100020000000000000000000000000004D48000833
:10003000F305000800000000E947000861490008D6
:1000400027020008270200082702000827020008EC
:1000500027020008270200082702000827020008DC
:1000600027020008270200082702000827020008CC
:1000700027020008270200082702000827020008BC
:1000800027020008270200082702000827020008AC
:10009000270200082702000827020008270200089C
:1000A000270200082702000827020008270200088C
:1000B00027020008C5490008270200082702000897
:1000C000270200082702000827020008270200086C
:1000D00027020008654B00082702000827020008D5
:1000E000270200082702000827020008270200084C
:1000F000270200082702000827020008270200083C
:10010000270200082702000827020008270200082B
:1001100027020008270200084D4A000827020008AD
:10012000270200082702000827020008270200080B
:1001300000F002F800F05AF80AA090E8000C82449F
:100140008344AAF10107DA4501D100F04FF8AFF27C
:10015000090EBAE80F0013F0010F18BFFB1A43F0A5
:100160000103184780130100A01301000A444FF057
:10017000000C10F8013B13F0070408BF10F8014B06
:100180001D1108BF10F8015B641E05D010F8016B4B
:10019000641E01F8016BF9D113F0080F1EBF10F8AF
:1001A000014BAD1C0C1B09D16D1E58BF01F801CBD2
:1001B000FAD505E014F8016B01F8016B6D1EF9D555
:1001C0009142D6D37047000000230024002500266A
:1001D000103A28BF78C1FBD8520728BF30C148BFAA
:1001E0000B6070471FB51FBD10B510BD00F0A6F91C
:1001F0001146FFF7F7FF0AF0D1FB00F0C4F903B492
:10020000FFF7F2FF03BC0AF027FA00000948804715
:1002100009480047FEE7FEE7FEE7FEE7FEE7FEE7E8
:10022000FEE7FEE7FEE7FEE704480549054A064B00
:10023000704700006549000831010008D89A002085
:10024000D8A40020D89C0020D89C0020704740EA09
:10025000010310B59B070FD1042A0DD310C808C99C
:10026000121F9C42F8D020BA19BA884201D9012045
:1002700010BD4FF0FF3010BD1AB1D30703D0521C90
:1002800007E0002010BD10F8013B11F8014B1B1BCB
:1002900007D110F8013B11F8014B1B1B01D1921E35
:1002A000F1D1184610BD032A40F2308010F0030C43
:1002B00000F0158011F8013BBCF1020F624498BFB9
:1002C00011F801CB00F8013B38BF11F8013BA2F156
:1002D000040298BF00F801CB38BF00F8013B11F0D1
:1002E000030300F06780083AC0F0088051F8043B2F
:1002F000083A51F804CBA0E80810F5E7121D5CBFDE
:1003000051F8043B40F8043BAFF30080D20724BF10
:1003100011F8013B11F801CB48BF11F8012B24BFA4
:1003200000F8013B00F801CB48BF00F8012B7047F3
:10033000431A28BF9A427FF6B6AF032A10441144ED
:1003400040F2268010F0030F1EBF11F8013D521E2F
:1003500000F8013D10F0030F7FF4F6AF11F0030336
:1003600000F0A080083AC0F00B8051F8043D083A34
:1003700051F804CD40F8043D40F804CDFFF7F3BF39
:10038000121D5CBF51F8043D40F8043DAFF30080FE
:10039000D20724BF11F8013D11F801CD48BF11F873
:1003A000012C24BF00F8013D00F801CD48BF00F842
:1003B000012C704710B5203AC0F00B80B1E81850FE
:1003C000203AA0E81850B1E81850A0E81850BFF43F
:1003D000F5AF5FEA027C24BFB1E81850A0E81850DE
:1003E00044BF18C918C0BDE810405FEA827C24BF32
:1003F00051F8043B40F8043B08BF7047D20728BFC0
:1004000031F8023B48BF11F8012B28BF20F8023B0E
:1004100048BF00F8012B704702F0FF0343EA0322B4
:1004200042EA024200F06AB84FF0000200B51346FB
:1004300094469646203922BFA0E80C50A0E80C5004
:10044000B1F12001BFF4F7AF090728BFA0E80C50B5
:1004500048BF0CC05DF804EB890028BF40F8042BAE
:1004600008BF704748BF20F8022B11F0804F18BF1B
:1004700000F8012B70477047704770477047431A68
:1004800028BF9A427FF696AF104410F0030F114434
:100490001EBF11F8013D521E00F8013D10F0030F80
:1004A0007FF4F6AF103AC0F00A8010B531E9185069
:1004B000103A20E91850BFF4F9AFBDE810405307D7
:1004C00024BF31E9081020E9081044BF51F8043D69
:1004D00040F8043D12F0030F08BF7047D20728BF51
:1004E00031F8023D48BF11F8012C28BF20F8023D29
:1004F00048BF00F8012C70474FF000020429C0F0FB
:10050000128010F0030C3FF491AFCCF1040CBCF15D
:10051000020F18BF00F8012BA8BF20F8022BA1EB97
:100520000C01FFF783BF5FEAC17C24BF00F8012BF9
:1005300000F8012B48BF00F8012B7047754600F00A
:1005400029F8AE4605006946534620F00700854667
:1005500018B020B5FFF768FEBDE820404FF0000658
:100560004FF000074FF000084FF0000B21F007019B
:10057000AC46ACE8C009ACE8C009ACE8C009ACE8DE
:10058000C0098D4670470446AFF300802046FFF750
:1005900036FE000000487047789A002030B50446C7
:1005A0000D462A2005F054FEC4F30F2005F054FE3A
:1005B000E0B205F051FEC5F30F2005F04DFEE8B2A4
:1005C00005F04AFE2B2005F043FEC2F30F2005F094
:1005D00043FED0B205F040FEC3F30F2005F03CFE11
:1005E000D8B205F039FE2C2005F032FE30BD00BF38
:1005F000FEE7704770B505460C4616462346224670
:1006000029462846FFF7CAFF01490E8070BD000049
:100610000000026051B18200A2F1C042126842F0B3
:1006200001038200A2F1C042136009E08200A2F13E
:10063000C0421268034B1A408300A3F1C0431A6002
:1006400070470000FEFF0F00D0E901121143C2689D
:100650001143026911434269114382691143C2691E
:100660001143026A1143426A1143826A1143C26A0A
:100670001143026B114302689200A2F1C042116063
:10068000816808290BD101688900A1F1C04109687E
:1006900041F0400201688900A1F1C0410A60416B4C
:1006A0000968426B526841EA0211426B926841EA62
:1006B0000221426B928941EA0241426B128A41EA6D
:1006C0000251426B127D41EA0261426B9269114311
:1006D0000268521C9200A2F1C0421160C16AB1F5D9
:1006E000804F1BD1816B0968826B526841EA02110D
:1006F000826B926841EA0221826B128A41EA0251BE
:10070000826B127D41EA0261826B92691143026839
:100710009200A2F1C042C2F8041107E06FF07042EB
:1007200001688900A1F1C041C1F8042170470000AF
:100730002DE9F0430446C56887B0904689460020FD
:1007400001F0B8FE064625B1287910B146F0020046
:1007500001E026F0020001F0ADFE2069012558B14C
:10076000D4E902128DE82600039563882288046884
:1007700041464846A0471EE0124F134B21463868B9
:100780001B68427CE068984730B9E088012801D0B6
:10079000002001E03868806BA288E388A16800959A
:1007A000CDE90410CDE902320195638822884146E3
:1007B000484602F06DFF07B03046BDE8F04301F057
:1007C00079BE00007C000020740000202DE9FF4F5E
:1007D00043F6FF740F46664283B09B468146002174
:1007E0000BE000BF09EB8100B0F90200A04200DA83
:1007F0000446B04200DD0646491CB942F2DB6748B8
:100800000068406900280DD0B0F906101A46A1EB27
:100810000B01B14200DA0E46B0F90200801AA04284
:1008200000DD0446B4E0DFF878A100200546CAF8F0
:10083000000088E0781E854201DA6B1C00E000238E
:1008400009EB850C09EB8302BCF90200B2F9021036
:10085000A04244D1A14215D139F92330059A39F982
:10086000251003EB020C4D4A05981268084404EB6E
:100870000B01526E6045136801DA62462AE00246B7
:10088000604627E02846A4464FF000087A1E0BE099
:1008900008B1401E00E0781E09EB8003B3F9023076
:1008A000634504D108F101089045F1DB2346A342DA
:1008B00048D01A1B39F92500A1EB040C059B92EADC
:1008C0000C0F09D4354A184404EB0B011268526E20
:1008D00013680246984735E005F0C4FC32E0A142B7
:1008E00030D001DBA04203DDA0422BDBA14229DC9A
:1008F000E04688420ADC0346A04223DC0846A142C7
:1009000020DBB8F900C0B2F9001008E00B46A142A4
:1009100018DCA04216DBB2F900C0B8F90010E21AE8
:10092000A1EB0C0151430029A0EB030202DD01EB16
:10093000620102E0A1EB6201491CC01A91FBF0F0D8
:100940006044C9E76D1CBD42FFF674AF0598009086
:1009500004EB0B00019000208046054613E011498E
:10096000B8F1000F31F915A009D0009901EB0A0286
:1009700008440A490968496E0B680199984788F04C
:10098000010850466D1C064909688D42E7DB641C6E
:10099000B4427FF748AF07B0BDE8F08F7C0000207D
:1009A000F80000200899002010B5002001F078FD23
:1009B0006FF07F4001F076FD012001F0ADFD0020D9
:1009C00001F0B2FD002001F0B9FD002001F072FD40
:1009D0000448006801F070FDBDE81040002001F0FF
:1009E00077BD0000780000202DE9F0410246002587
:1009F0000026002000230024002791F803C00CF0FB
:100A00000F0591F803C00CF0100CBCF1000F03D0DF
:100A100091F802C04CEA050591F800C0BCF1000F46
:100A200031D0146800202BE04FF0010C0CFA00F3D9
:100A3000B1F800C00CEA03069E4220D183004FF0BB
:100A40000F0C0CFA03F7BC4305FA03FC4CEA040450
:100A500091F803C0BCF1280F06D14FF0010C0CFA3D
:100A600000FCC2F814C00AE091F803C0BCF1480FC2
:100A700005D14FF0010C0CFA00FCC2F810C0401C6C
:100A80000828D1D31460B1F800C0BCF1FF0F34DDE9
:100A9000546800202EE000F1080C4FF0010808FA1D
:100AA0000CF3B1F800C00CEA03069E4221D183008A
:100AB0004FF00F0C0CFA03F7BC4305FA03FC4CEAA9
:100AC000040491F803C0BCF1280F05D100F1080C13
:100AD00008FA0CF8C2F8148091F803C0BCF1480F72
:100AE00007D100F1080C4FF0010808FA0CF8C2F821
:100AF0001080401C0828CED35460BDE8F0814161CD
:100B000070470161704700002DE9F04FDFF828B110
:100B100091B04FF0FF35DBF80030B3F922100691A9
:100B2000DE69B3F924A0F469A189814206D8E2897B
:100B3000824203D3471AD4F8008012E0D4E901813D
:100B4000002970D00A8882426DD84D8885426AD3C8
:100B5000801A82B2486800EB8200B0F90070B0F9E8
:100B60000250781C5FD0307EA27C014600FB02F967
:100B7000207CCDE90710B3F92A60304603F036FA3D
:100B8000C0B20E90DBF8001007FB0980A37C8A6BD3
:100B90000127CDE90402CDE90273C869089AC17E34
:100BA000807ECDE90001DDE90603514602F070FDCB
:100BB000681C18D046F0020003F018FADBF80000B9
:100BC000A37C05FB0981826BCDE90273CDE9041298
:100BD000C069089AC17E807ECDE90001DDE9060387
:100BE000514602F055FDDBF800005D46C069417ECC
:100BF000007E814214D9022E12D086F0040003F048
:100C0000F5F92868C069027EC37E857E02FB03A1D8
:100C1000437E089A0698534402FB050202F0CCFE7C
:100C20000E9803F0E3F9DBF80000627C418C11447C
:100C3000418411B0BDE8F08F7C00002004480068BA
:100C4000C069C06909B1027C0A60407C704700003D
:100C50007C000020022008807047C06982898A4297
:100C600002D8C2898A4210D2806880B102888A4242
:100C70000DD843888B420AD3406800EB8100A0EB7B
:100C80008200B0F90000002801DB0120704700203D
:100C9000704700002DE9F0432F4C034687B02068D1
:100CA0001946B0F92A80C069C06900F082F80028AE
:100CB0004ED041680088181A01EBC0054046AE7856
:100CC00003F094F9814620686A680123816BCDE9BD
:100CD0000236CDE90421C169CB7E8A7ECDE90023AD
:100CE0000B7EB0F924102A78B0F9220002F0D0FC73
:100CF0002068C069477E067EB7421DD9C07E474343
:100D00004643B8F1020F17D000F03AFD804600F0DC
:100D10001FFD01F0C7FB21682A78CB69B1F92200D9
:100D2000B1F92410DB7E02FB0302CB19314402F03F
:100D300043FE404601F0B6FB484603F057F92068F1
:100D40006A78C369B0F922109B7E02FB03114184CB
:100D500007B0BDE8F08300007C00002030B50E4CE9
:100D600005460B4620682946C069C06900F021F895
:100D7000002810D04168008824682A1A0120E469FC
:100D800000EBC200085CA47E6043002B03D011F886
:100D900032106143196030BD7C00002001200880C2
:100DA000704700B5C06900F004F8002800D00120A9
:100DB00000BD06E002888A4202D842888A4202D2F6
:100DC00080680028F6D1704702490120096881F83F
:100DD000690070477C00002010B507F0C1FD044891
:100DE000016A04480068416600F10801416110BDD4
:100DF0002C0000207C0000202DE9FC471C461546F5
:100E00008846814604F098FD054404F0A3FD04449F
:100E1000002004F0CBFD00281FD0114E114F1221ED
:100E20003068407C57F820000190C068426A01A8F1
:100E300090475FEA000C06D02B4642464946009494
:100E40000198E04705E023462A464146484607F018
:100E500049FA04F051FD0028E1D1BDE8FC8700000B
:100E60007C000020940000202DE9F041224C054632
:100E70000E462068002788B920480068E06110B954
:100E800002F0C1FEE06100F093F8206080B31A49DF
:100E90001B4824310860084602F00AFB1948006824
:100EA000854200DA0546E169731B4A1E20469342DB
:100EB00001DD6E18761EAE4201DA2E460127124C75
:100EC0002268516E4B68836301620B490F4B3431CA
:100ED0000B60516602C880E8620005F0B9FA05F0BF
:100EE00077FA054821682C3048613846BDE8F08122
:100EF000FFE70127D2E700002C000020A800002017
:100F000031920008AC0000207C000020A17E000887
:100F10000249096881F8680005F05ABA7C0000208F
:100F2000002801D005F0F6B9704738B50546FFF73F
:100F3000F7FF040009D000F0B3F82A460021009022
:100F400002F0F8FA684600F0DBF8204638BD0000F1
:100F5000024A106021F00300506070477C98002026
:100F600010B5002814D004460A48006B10F834105D
:100F700000290DD002290BD2042101EBC4014158F4
:100F8000486805F08BF92046BDE8104008F088BAA3
:100F900010BD0000C0970020002805D0034A916BC7
:100FA000016001B14860906370470000C097002065
:100FB0002DE9F041044608F00DF82848E41C24F01F
:100FC0000305C16B2D1DA94200D90D46846B13E0AA
:100FD00054F8042CAA420ED184B1216809B1626888
:100FE0004A60616809B122680A60826BA24231D10D
:100FF000216881632EE02468002CE9D18046416B92
:1010000080680F1857F8040C3E1A306838B1002079
:1010100008F0B0FA57F8040C3E1A3068D0B970687E
:10102000A84217DB3044441B3046241D08F05AFA0E
:10103000D8F80810491BC8F80810D8F8101029442F
:10104000C8F810107068401B02D0314605F026F930
:1010500044F8045C2046BDE8F0810000C097002001
:1010600010B5002407F0B6FF0C490F2001EBC002B9
:10107000126C1AB101EBC000006C08E0401EF5D5FF
:1010800008E04168A14200D90C46806810B1806830
:101090000028F6D1A4F10C0010BD0000C09700207C
:1010A00005498A69521C8A61096B01EBC0010A7803
:1010B000521C0A7000F03CB8C097002010B5FFF732
:1010C000CFFF64220649B0F5800F04D990FBF2F0FF
:1010D000C969484310BDC9694143B1FBF2F010BD75
:1010E000C09700200549102805D94A68B0EB520F77
:1010F00002D3500800E01020886070477C980020E0
:101100000A4902680B6B52F8082C03EBC2021378F1
:10111000022B03D38B690BB15B1E8B611178491EC7
:10112000117000210160084670470000C097002040
:10113000002806D00349042202EBC000096B0858BE
:1011400008307047C0970020F0B52D271C68B0F11B
:10115000004F08D0002600280DDA651C1D6027709E
:101160004042012408E0651C01261D606FF000402C
:101170002770491E01E00024091BC9B22AB3491E89
:10118000C9B222E00C46491EC9B2944205D1124CA4
:1011900027781C68651C1D602770104C54F821507E
:1011A00090FBF5F4E4B20A2C11D804FB150011B938
:1011B0000EB1641CE4B20A2C02D10124491CC9B24C
:1011C0001D686F1C30341F602C700029DAD119683B
:1011D00000200870F0BD000070000020A812010877
:1011E00010B5002807DD0A682B24531C0B6014700F
:1011F000096800220A7010BD70B506460D461446F7
:10120000104600F0C5FA0300164804EB84010AD02A
:1012100050F8210041688068711A2A1ABDE87040B0
:10122000184601F053B900EB8104A268B24201D024
:10123000012200E00022E368AB4201D0012300E07C
:1012400000231A430CD0236943B150F82100816870
:1012500040686A1A311A184601F0F8F8C4E90265C4
:1012600070BD0000E499002010B5C2B2CBB2D21A12
:1012700000D5524293B25B43C0F30722C1F3072467
:10128000121B00D55242000C92B2A0EB114002FB9F
:10129000023200B2002801DA404200B280B200FB04
:1012A000002010BD10B50021084600F0BDFA43F63D
:1012B000FF725042BDE8104013460146AFF3008074
:1012C0002DE9FC4107461C4615460E46042002F057
:1012D0008DFE80461148C068C16C006D0F44064405
:1012E0000D440444ADF80070ADF80450ADF8026050
:1012F000ADF80640684604F059FB07E023462A464D
:101300003146384602F058FB04F0F6FA0028F5D1D1
:10131000404602F06BFEBDE8FC810000700000203A
:101320002DE9F0411C4616460D460746022B02DB0E
:101330000020BDE8F0811C20FFF73AFE0028F8D01D
:101340000DB105610AE0094A52F8241009B905E017
:1013500011460A68002AFBD109690161846186820D
:10136000002101604160C0E90217E2E7940000201B
:1013700070B51D46FFF7D4FF040009D000F00EF849
:10138000E068006820B90348006800EB85008465C8
:10139000204670BD7C000020FFF7FEBD70B590B305
:1013A0008269022A30DA1E4C54F8221019B944F826
:1013B000220032E019464B68002BFBD106E0CB68D7
:1013C000C5681B682D68AB4203DD09680029F6D1AA
:1013D0001AE0C1B1CB68C6681B683668B3420CD14D
:1013E000838A012B05D008E01946DB681B68AB42F5
:1013F00003DB0B68002BF7D129B14B6833B11860C0
:101400004A68426004E0FFE7012070BD44F8220012
:101410004860884200D100210160002070BD0000BA
:101420009400002008F0DEBC022801DB0020704799
:10143000054951F8200004E0C16809680029F6D088
:1014400000680028F8D170479400002070B5044669
:1014500001F00CFB051908E000F006F9052C01DD90
:10146000052000E0204601F0F3FA01F0FFFA2C1A03
:10147000002CF1DC70BD1FB503ABCDF80CD0FFF72D
:1014800063FE684600F028F81FBD002205F084BA0C
:1014900000B500F087F9044909688A8C10448884F3
:1014A000088C488400BD00007C0000207FB50C46FD
:1014B0001546CDF80CD003A9FFF792FE002801DDF8
:1014C000641EE4B203AB2A462146FFF73DFE6846A0
:1014D00000F002F87FBD00002DE9FC4706005BD05C
:1014E00000F060F93B4C81462068B0F9228000F0A2
:1014F00071F9216807468A8CD01B888441E000BFBF
:1015000047F6FF71304601F093FE824601463046B1
:1015100001F064FE2168054691F82C0000F00300FC
:1015200001283FD0022839D000204A8C101A488464
:10153000ADF800006A1E1044ADF80400888CADF8C8
:101540000200A9F101010844ADF806006A465146BF
:10155000304601F013FC2168BDF802008884514632
:10156000304601F055F9064430780A281CD00D2881
:101570001AD0BDF80000216828444884307818B19A
:10158000761C30780028BBD12068818C3944818456
:10159000818D21F003018185BDE8FC8705EBD570C5
:1015A0004010C2E72846C0E7206890F82C1001F0F0
:1015B000030101290BD0022909D0018C4184317823
:1015C0000A29DBD1828C02EB09018184D6E7A0F8DD
:1015D0002280F4E77C000020024B1B6859849A8427
:1015E000FFF77ABF7C0000202DE9F04107460A484A
:1015F00015460E460068B0F92C0040F0020000F0DD
:1016000093FF04462A4631463846FFF7E5FF204659
:10161000BDE8F04100F088BF7C0000207CB50646A4
:1016200010480068C36C006D5D1884183188681E0E
:101630000844ADF80400ADF800507188601E0844FD
:10164000ADF80600ADF80240684604F0AFF906E0D8
:10165000224629463046FFF76BF804F04DF9002882
:10166000F6D17CBD7C00002010B5002400E00124F0
:1016700000F004F80028FAD1204610BD064810B545
:101680000068002410B1804700B1012403F072FC0F
:1016900000B10124204610BD9C00002008B50B4677
:1016A000002805D0009281888268C08800F001F887
:1016B00008BD10B50828029C30D008DC04FB01F4FA
:1016C00001280AD0022813D0042804D11CE01028D5
:1016D00028D020282CD0002010BD04EBD30003F02C
:1016E0000701105CC1F10701C84000F0010010BD06
:1016F00004EB93000621105C01EA4301C1F10601ED
:10170000C84000F0030010BD04EB5300D907105C83
:1017100002D000F00F0010BD000910BD04FB013025
:10172000105C10BD481004FB003032F8100010BDF2
:10173000881004FB003052F8200010BD034951F816
:101740002000C1688A6A0821104700009400002028
:1017500010B502F0CBF9BDE8104002F099BA0000D4
:1017600002490968C9694A68002110477C000020C5
:10177000024A1268D2695268104700007C000020BB
:1017800010B502F0BBF9BDE8104002F081BA0000CC
:101790000021022802D2024951F820100846704761
:1017A000F001002002480068C069407E70470000D8
:1017B0007C00002070B514460D4602F00BFA00289C
:1017C00002D000202860206070BD01F04DBD01F006
:1017D0004DB900000A490020096891F82C2002F058
:1017E0000C02042A07D0082A01D00C2A02D1C869A9
:1017F000007E40087047C869007E401E70470000A8
:101800007C000020024951F8200000690068704700
:1018100094000020024951F8200000694068704798
:101820009400002007F00ABB70B50D4607F006FBD8
:101830000446284607F00AFB204370BD124810B545
:10184000016821F001010160104801218160104907
:10185000016000680F49884200D0FEE701F06EFA8F
:101860000D492E20087001F007F90C4807F064FBC1
:1018700008F0E0FF04460021084600F031FE03F0C6
:101880009DFD204610BD0000002000E00030024019
:10189000C2A507F4CDB5E8B57000002088980020F7
:1018A00010B5011E01DD024600E04A42064B012050
:1018B00053F82040944202D8401C0A28F8DB002943
:1018C00000DA401C10BD0000A812010808B500286D
:1018D0000CD0FFF7E5FB43F6FF7100908180C180DB
:1018E0004942018141816846FFF70AFC08BD0000BA
:1018F00038B5134800220068437C124850F8230092
:1019000001691148FFF70CFD040011D01820FFF702
:101910000CFB05000ED02846A560FFF7C1FB009028
:1019200004602846FFF7D2FF6846FFF7E9FB04E0B2
:10193000002038BD2046FFF72FFD284638BD0000A7
:101940007C00002094000020EC13010838B5044608
:101950000C480068006EA04201D100F085FD2046D1
:10196000FFF79EFB009005686846FFF7C9FB20461D
:10197000FFF7F6FA2846FFF755FD2846FFF70CFD5E
:1019800038BD00007C00002038B50C4600280FD080
:10199000002C0DD0FFF784FB009081882180C18846
:1019A00061800189A1804089E0806846FFF7A8FB3B
:1019B00038BD000038B5040014D003F03BFA0B4DDD
:1019C000286804662046FFF76BFB00900068FFF76D
:1019D000E5FC2968002048616846FFF791FB02F0AA
:1019E000E5FA38BD00F040FD38BD00007C00002065
:1019F0001CB520B90C480068006E002812D0FFF713
:101A00004FFB009044696846FFF77AFB002C09D031
:101A10002046FFF745FB019081688968884701A847
:101A2000FFF76EFB1CBD00007C00002001490A4648
:101A300000F002B801F0FFFF2DE9F04387B0154632
:101A40000C465FEA000842D0002000F033FD8146DA
:101A500020480068066E4046FFF722FB00900068B1
:101A6000806900F00BFD074640F6FF70001904D1B5
:101A70000098B0F90440B0F906500098611E028940
:101A8000ADF804401144ADF808104189681E0844BF
:101A9000ADF80650ADF80A0003F0E0F86846FFF72D
:101AA0002FFB01A803F082FF06E02A4621464046AC
:101AB00000F096FB03F020FF0028F6D1384600F036
:101AC000DDFC304600F0B2F9484600F0F3FC07B008
:101AD000BDE8F0837C0000200121017400207047E4
:101AE0002DE9FE4F834619488A46194900680C9E25
:101AF0009846407C9146002751F82040E1680968EB
:101B0000042903D02468002CF8D100E014B9FFF7B1
:101B10008BFC04460121E068C26A2046904705001C
:101B200011D02469A0688047401C02D1094C46F0BE
:101B300001060096CDE9015443464A4651465846AF
:101B400000F0F8F907463846BDE8FE8F7C0000201B
:101B5000940000204014010838B5040018D00D4846
:101B60000068006EA04201D100F07EFC2046FFF725
:101B700097FA0090406908B100F041FF00980068B2
:101B8000FFF70AFC6846FFF7BBFA2046FFF7E8F9C3
:101B900038BD00007C000020704700002DE9FF4F99
:101BA0000746464883B099460068DDF840B08A464B
:101BB000447C434800570128204606DD02F032F8F5
:101BC0008046204602F03AF805E002F019F8804617
:101BD000204602F01BF8044617B302A901A8FFF73C
:101BE000F4FDB7F90060002E00DA0026B7F90250C4
:101BF000002D00DA00250199B7F904004144491E7F
:101C000007F0CAFA804602980119B7F90600491E82
:101C100007F0C2FAA8EB0602441B521C641C02E047
:101C2000002635464246B9F1000F01D1C4F1000942
:101C3000002A01DD002C03DC002007B0BDE8F08F96
:101C40004B4629463046CDF800B0FFF749FF5FEA22
:101C5000000909D000F0B0F88046484600F0E6F8E8
:101C60000027DFF860B01FE0514605988847012043
:101C7000E3E7E11B414502DA484600F0C1F83FB115
:101C8000EA193146484600F0F3F84846FFF7B0FE3F
:101C9000514605988847DBF8001009B100208847B5
:101CA0004846FFF7C3FE4744A742E2DB4846FFF73A
:101CB00053FF002000F0BAF8BEE700007C000020CF
:101CC000B00000203C0100202DE9FF4F83B01646F4
:101CD0000D460446FFF70CFE5FEA000945D0FFF70A
:101CE00069FE01276F70217C04F1080891B12F7003
:101CF0000698B04721464846FFF746FE4846FFF79C
:101D0000E5FD002028700698B04741464846FFF799
:101D10003BFE1AE00698B04721464846FFF734FEDE
:101D200020880190A08800902146B4F802B0B4F851
:101D300006A04246084600F071FA019820810098FA
:101D4000A081A4F80AB0A4F80EA04846FFF7FEFD53
:101D50004FF0000885F801802F7043460097314608
:101D60002046069AFFF71AFF18B1012007B0BDE818
:101D7000F08F85F8008084F810800020F6E738B5F1
:101D8000002460B1FFF78CF900900068006980685A
:101D9000804702F017FB04466846FFF7B1F920467A
:101DA00038BD38B5FFF77CF900F11804009068469B
:101DB000FFF7A6F9204638BD38B5002418B9074802
:101DC0000068006E38B1FFF76BF90090B0F90A4077
:101DD0006846FFF795F9204638BD00007C000020DA
:101DE00070B505460024284604F03EFC641C18B17A
:101DF000BDE8704000F068B8052CF4DB70BD000051
:101E000038B50C4620B908480068006E00280AD092
:101E1000FFF746F90090B0F90A10A14200DD4481B5
:101E20006846FFF76DF938BD7C000020F8B50F4E0D
:101E300005003068046E16D00CB100F015FB02F0FE
:101E4000F9FF2846FFF72CF9009031680D6600680D
:101E5000FFF7A4FA6846FFF753F902F069F902F0B8
:101E6000A5F82046F8BD00F0FFFAFAE77C00002054
:101E70007CB515460C4620B912480068006E002853
:101E80001FD0FFF70DF92DB20090C58024B28480D9
:101E900002F08CF80098406980B1FFF701F9009AD0
:101EA0000190B2F908108180B2F90A20C28011B104
:101EB0000AB10480458001A8FFF722F96846FFF7C0
:101EC0001FF97CBD7C00002001490A4600F002B8E1
:101ED00001F0FFFF7FB515460C46060028D0FFF73E
:101EE000DFF840F6FF710190091903D1B0F9044001
:101EF000B0F906500289611E1144ADF80840ADF8F2
:101F00000C104189681E0844ADF80E00ADF80A5067
:101F100001A8FFF7F5F802A803F048FD06E02A46FD
:101F20002146304600F044F903F0E6FC0028F6D1E3
:101F30007FBD00002DE9FF4FDFF8E0B083B01C4605
:101F4000DBF80010DDE91060924600274B7C3A4632
:101F50001299FFF7E5F905005DD028698068804790
:101F600002F030FA81460AFB09F0C01D4FEAD008A2
:101F7000FFF7A4F8F10705D1C11700EB91708010AD
:101F800000EB4000002C06DC1838B0FBF8F064428F
:101F9000A04200DC0446F00707D10090DDE9030110
:101FA0002346524600F0B4FC0746002C03DC2846CA
:101FB000FFF7F2F92FE004FB08F01830F10702D028
:101FC000FEF7AEFF01E0FEF7B0FF06001CD0FFF702
:101FD00067F801900560039981800499C180A0F899
:101FE00008A04481C0F80C80C0E9049701A8FFF75D
:101FF00087F81298AE602861DBF80000407CA86189
:10200000304607B0BDE8F08F2846FFF7C5F917B195
:102010003846FEF7A5FF0020F3E700007C00002013
:102020002DE9F74F8EB0144689460E98FFF738F821
:102030000990B0F908B0B0F90A600068006940681A
:102040000C9009A8FFF75CF8564D574F2868407C64
:1020500057F82000C1688A6A08219047079018281D
:1020600001D3202007902868407C57F820000069A1
:10207000069003C80B904D48814201D0012000E03A
:1020800000200A90002000F0F8FC00287DD128688C
:1020900009EB0B01B0F90C20891A491E002902DD59
:1020A000ABEB010500E05D46B0F90810494505DDE0
:1020B000A1EB090189446D1A089101E00021089102
:1020C000002D6BDDB0F90E20A119891A491E0029D7
:1020D00002DDA6EB010800E0B046B0F90A00A0421C
:1020E00004DD061B3444A8EB060800E00026B8F126
:1020F000000F53DD089801900DA95F46DDF830A070
:102100000E980091FFF74DFE774300EB8701019891
:102110002B4601EB800200994846CDE900A12146FB
:1021200000F084FE0090002838D00A98E8B1DDE97C
:1021300006322946009800F04FFDB0B90698009F7E
:10214000DA46D0F810C0BCF1000F05D004235A467F
:1021500039463846E04708E00B993868884701C798
:10216000AAF101005FEA000AF6D100990020079A5F
:10217000CDE90301059001200090CDE9010221463F
:102180000346641C2A46484600E007E001F080FA56
:10219000A8F10100761C5FEA0008ABD111B0BDE8E0
:1021A000F08F00007C00002094000020AF3C00086D
:1021B000F8B515460E460746FEF772FF0090006818
:1021C0001621C068426A0020904704466846FEF720
:1021D00097FF002C03D02A4631463846A047F8BD69
:1021E000F8B515460E460746FEF75AFF00904469BB
:1021F0006846FEF785FF3846FFF7C1FD034608280D
:1022000000DD2CB12A463146384607F00BFEF8BDFA
:102210002A463146384607F0A5FFF8BD10B500281C
:1022200021D009B30AB3B1F90040B2F900309C42A1
:1022300000DA23460380B1F90240B2F902309C4231
:1022400000DA23464380B1F90440B2F904309C42DD
:1022500000DD23468380B1F90610B2F906209142D1
:1022600000DC1146C18010BD11460A680260496851
:10227000416010BD00280BD003880B440380838885
:1022800019448180418811444180C1881144C18032
:102290007047000070B50E4D0446D5E90001884234
:1022A00009D10C49884201D13C3000E00C3807C804
:1022B00084E8070006E090E80E0084E80E0006F0CF
:1022C000DBFD2860207A002800D0012070BD0000CE
:1022D000180200200C9A00200448D0E90010814226
:1022E00001D1012070470020704700001802002033
:1022F000054A10B50349116007F092FCBDE8104093
:1023000000F026B94D500008A000002070B5094C1F
:102310000020D4E900218A420AD0D2E900561046B2
:1023200006F0B4FD20603146284603F02BF9012069
:1023300070BD0000E40100202DE9FC41154DDDE9F0
:1023400008742D68B5F90860864200DD3046B5F99D
:102350000C60964200DA3246824219DBB5F90A6017
:102360008E4200DD3146B5F90E509D4200DA2B4613
:102370008B420DDB00E02C46E5682D6825B1042D6D
:1023800002D02568002DF6D1CDE9007401F0F8FCEB
:10239000BDE8FC817C000020B0F90220B1F90630D4
:1023A0009A4213DCB1F90220B0F906309A420DDCF2
:1023B000B0F90020B1F904309A4207DCB1F90010FD
:1023C000B0F90400814201DC012070470020704711
:1023D0000146024870220068FDF7ECBF7C00002037
:1023E0002DE9F0410D46064690461649184609F07B
:1023F000C9F8154908F09CFF09F05CF8074600F0A1
:10240000B7FC0446384601F05BF80246002014E0B1
:1024100005EB800335F92010B3F9023001FB04F716
:1024200003FB0277634301FB12313F1426F820704F
:10243000091406EB8003401C59804045E8DBBDE8E9
:10244000F081000000C82F48DA0F4940002801D071
:1024500007F030BA70470000024970220968FDF7A2
:10246000A9BF00007C00002010B501F055FD01F06F
:102470005FFEBDE8104002F0F1BB000070B50446FD
:102480000548022C0068457C02D24474FFF7ECFF3B
:1024900002480460284670BD7C00002048010020EE
:1024A00001F05ABD01F090BD0149886070470000FD
:1024B0007000002001F09ABD03490968CA6900B1A3
:1024C000C8611046704700007C00002001F0EEBD9E
:1024D000024909688A7E8876104670477C00002091
:1024E000094A30B41080094A1180094A1268537CA5
:1024F000084A52F82330DA68146A0A46A4460146AC
:1025000030BC184660470000B8000020BA00002028
:102510007C00002094000020024909680A7E0876A9
:10252000104670477C00002003490968B1F92C204F
:1025300088851046704700007C0000200349096828
:10254000B1F92A2048851046704700007C00002021
:1025500002480068002800D000477047F8010020BA
:1025600002498A6802B98860FFF7F2BFE4010020DF
:1025700010B5040009D006F0CFFF204607F00AFC92
:102580002046BDE81040FEF7EBBC10BD38B50C4648
:1025900060B1FEF785FD00908089204201D00124C2
:1025A00000E000246846FEF7ABFD00E00124204671
:1025B00038BD000038B5054600202860064804688C
:1025C00044B12046FEF76CFD009000692860684623
:1025D000FEF796FD204638BD2002002038B50400E5
:1025E0004FF000000D46086011D02046FEF758FD60
:1025F0000090846844B16846FEF782FD2046FEF7ED
:102600004FFD0090006928606846FEF779FD20467E
:1026100038BD00002DE9F0474D4D4E4E0024E869CD
:1026200050B9686834607460B46010F0060FF460EC
:1026300007F0B2F80120E8612878C8B100F0CEF8C0
:10264000A846286100F0C8F82969286A81420BDB96
:10265000D8F824204046914206DC836A42699A42B7
:1026600002DBC36A9A420DDD4FF0FF3001466AE09B
:1026700000F0B6F8686100F0B0F82878401C2870C7
:10268000BDE8F087326898F81800334F8D1A40077C
:102690003868407C02D401F0C5FA01E001F0CEFABE
:1026A000401E4543D6E90020B146801A95FBF0F65E
:1026B000D8F81420D9F8081098F81800551A4007CF
:1026C0003868407C02D401F0B9FA01E001F0AAFABE
:1026D000401E4543D9E90201081A95FBF0F598F828
:1026E000180040073868407C17D401F09BFA8146F7
:1026F0003868407C01F0A2FAD8F818200146D007CB
:1027000003D0A9EB0600401E00E03046920702D538
:10271000491B491E17E0294615E001F08FFA814652
:102720003868407C01F07EFAD8F81820D10703D031
:10273000A9EB0601491E00E03146920702D5401B75
:10274000401E00E0284607F097FA88F8004097E717
:10275000BC000020F89800207C000020074A0028D8
:1027600006DB002904DB01231372C2E9000101E04A
:1027700000201072014800F003B80000909900207A
:1027800010B504460C220849FDF761FD002809D068
:10279000054894E80E0080E80E002046BDE8104091
:1027A000FFF7A6BD10BD0000549A0020094B30B4BD
:1027B0001A68821A00D552425C680C1B00D564422C
:1027C0002244022A04DDC3E9000130BCFFF7C6BF82
:1027D00030BC70471C0100207047704700207047D4
:1027E000002070472DE9F041084E04460568306826
:1027F0000168284688470746306841682846884768
:10280000284420603846BDE8F081000080000020A8
:102810002DE9F0410C4606460025064F05E03868D4
:1028200041683046884706440544641EF7D228466E
:10283000BDE8F081800000202DE9F0411E46069C95
:102840001746884605463A46A8687F1C3346D0F8A6
:1028500004C041462846E047641EF4D1BDE8F0813B
:1028600070B5B0F90040091BB0F904408C422CDD72
:1028700000F11404B0F902500069521B02FB004041
:10288000CA1800EBE104521ED010B0EBE10501F0D4
:1028900007034FF0FF0102F0070221FA03F0C2F133
:1028A000070201FA02F1CEB221780FD001436D1E6A
:1028B00004F8011B002D05DDFF2229462046FDF707
:1028C000ABFD2C4420783043207070BD3040014374
:1028D000217070BD10B5B0F90030B0F90240C91ACE
:1028E00000F114030069121B02FB003000EBE10051
:1028F00001F0070302788021D9400A43027010BD1D
:10290000B0F90610026951431430FDF78DBD000087
:102910002DE9F843804602F10F000011470003FB48
:1029200007F01C46154689461430FEF7FEFA0600ED
:1029300013D0FEF7B5FB0090A0F80080A0F802903D
:102940008580C480064981600121818107616846D4
:10295000FEF7D6FB3046BDE8F8830020FBE7000019
:10296000CC14010870B5B0F90660B0F904400B68EA
:1029700000F1140596421BDD0069A34202FB0050E2
:1029800000EBE30214DA641EE010A0EBE30512F89A
:10299000010B03F00704A040C4B206E045B10833C0
:1029A00012F8014B23F007036D1E002CF6D004E053
:1029B000002070BD6006040E5B1C2006FAD5FF2CBB
:1029C00007D0184602E06406240E401C6606FAD4BE
:1029D00000E0D81DC443640705D006E012F8014B9F
:1029E000FF2C09D108306D1EF8D5C01A401C0B60B1
:1029F00070BD6206140E401C2206FAD4F5E738B505
:102A00000546FEF74DFB00908189491E0CB284817A
:102A10006846FEF775FB002C02D12846FEF7A0FAA7
:102A200038BD000010B54FF40C41002008F070F8DC
:102A300004464FF40C412046FEF78AFA8020FEF748
:102A400051FB0248FFF730FD10BD00005CDC0008C0
:102A5000044A1268111800BF024A12688A1A002A32
:102A6000FADC70470C000020704700000148006845
:102A7000704700000C00002070470EB508B102AA94
:102A800000E00022002301A9684600F059FB0EBDBA
:102A9000074910B5CC6818B10120C860801E03E05A
:102AA0000020C8606FF07F4000F0DCFD204610BDC4
:102AB000FC00002010B5082A0EDC0346012A18D0BD
:102AC000022A56D0042A76D010F8042B03F8012BE2
:102AD000491EF9D1012010BD102A08DC4FEA00027E
:102AE00030F8043B22F8023B491EF9D1F2E70020FE
:102AF00010BD10F8042BD207120E491E34D010F866
:102B0000044B491E04F0010442EA84122CD010F850
:102B1000044B491E04F0010442EA441224D010F888
:102B2000044B491E04F0010442EA04121CD010F8C0
:102B3000044B491E04F0010442EAC40214D010F808
:102B4000044B491E04F0010442EA84020CD010F840
:102B5000044B491E04F0010442EA440204D010F878
:102B6000044B04F00104224303F8012B0029C0D1D7
:102B7000B0E710F8042B9207120E491E15D010F87A
:102B8000044B491E04F0030442EA04120DD010F86D
:102B9000044B491E04F0030442EA840205D010F8F5
:102BA000044B04F003042243491E03F8012B0029BF
:102BB000DFD18FE7FFE710F8042B1207120E491E32
:102BC00005D010F8044B04F00F042243491E03F80B
:102BD000012B0029EFD17DE72DE9F0411E680D465C
:102BE0000446082A09DC0746012A1AD0022A5BD0CB
:102BF000042A7DD0082A13D18DE0102A07DCD3F8EF
:102C000010C00746BCF1000F04D0022389E0002069
:102C1000BDE8F08101CCB04727F8020B6D1EF9D159
:102C20008AE001CCB047C0074FEA10686D1E36D06D
:102C300001CCB04748EA801000F0FF086D1E2ED08E
:102C400001CCB04748EA401000F0FF086D1E26D0C6
:102C500001CCB04748EA001000F0FF086D1E1ED0FE
:102C600001CCB04748EAC00000F0FF086D1E16D046
:102C700001CCB04748EA800000F0FF086D1E0ED07E
:102C800001CCB04748EA400000F0FF086D1E06D0B6
:102C900001CCB04740EA080000F0FF086D1E07F8BD
:102CA000018B002DBDD147E001CCB04780074FEA32
:102CB00010686D1E16D001CCB04748EA001000F035
:102CC000FF086D1E0ED001CCB04748EA800000F02E
:102CD000FF086D1E06D001CCB04740EA080000F0A6
:102CE000FF086D1E07F8018B002DDDD124E0FFE702
:102CF00001CCB04700074FEA10686D1E06D001CC2A
:102D0000B04740EA080000F0FF086D1E07F8018B8D
:102D1000002DEDD110E0D3F810C0BCF1000F05D0AC
:102D200001230A4601463846E04705E001CCB0479A
:102D300007F8010B6D1EF9D1012069E70A4810B5AB
:102D4000816900290ED101218161FFF76BFE01F03D
:102D500001FA054905481C310860BDE810400846E5
:102D600000F0A6BB10BD00007000002079920008A2
:102D70000149084400F0A4BB905F01007CB5064601
:102D800028480D46006868B1002002F00FFE06E0FA
:102D90006A462946304603F06BFE02F0ADFD00287E
:102DA000F6D17CBD106800901F4C506801902268DD
:102DB000BDF8000032F84C1F0844ADF80000BDF823
:102DC000020091880844ADF80200BDF804001188A3
:102DD0000844ADF80400BDF8060091880844ADF839
:102DE0000600684602F0E2FD0EE000BF2068BDF874
:102DF00000106A464184BDF802108184294630469D
:102E000003F036FE02F078FD0028EFD1206830F89C
:102E1000221F428D891A01804188C28D891A418002
:102E20007CBD0000B40000207C0000202DE9FF4F95
:102E30008DB00020DDF86CA0164600901D460446BB
:102E40000246CAF8000008AB03A902A800F078F90E
:102E500018B1002011B0BDE8F08F0898854200DD60
:102E60000546614F0B9561493868407C51F8201048
:102E7000049109690691FEF761FC05903868407C71
:102E8000FEF7C8FC5A498146884204D05949894511
:102E900001D0012000E000200A9001CE1A99884755
:102EA0008346000E079077D0009870BB0D9800EB1A
:102EB00004084D480068B0F90800404503DDA0EB68
:102EC0000807804600E000270298049900EB840080
:102ED00000EB8700CDE900010B990D98421809928B
:102EE0000E9B40461946521EFFF726FA012000901D
:102EF000059818280ADA0298DDE9052300EB84001A
:102F000000EB8700E91B00F079F812E00A9880B125
:102F1000029800EB840000EB87070998A0EB0808F3
:102F200049463868884701C7A8F101005FEA0008F0
:102F3000F6D13148C06980B3DDE9020700EB8400B7
:102F400007EB8402CDE902022B4C361F3046E469C0
:102F50002B460299A047FF213068B1EB106F02D1D8
:102F60000298006804E0029A1268B1EB126F01D176
:102F7000039A1060029806F10406001D029003985F
:102F8000001D03906D1EE7D10397DAF8000040F0B2
:102F90000101CAF8001020E021E0FFE70798FF28B0
:102FA00011D0C0F1FF02029850F82410584600F0EA
:102FB00027FA039941F82400DAF8000040F00101F3
:102FC000CAF8001005E00298039950F8240041F86F
:102FD0002400641C6D1E7FF460AF03983AE70399E8
:102FE00041F824B0E8E700007C00002094000020B5
:102FF000AF3C0008AD3C0008A40100202DE9F05FC3
:103000000C1E16DD5E68014600EB8405082A12DC02
:10301000611E012A26D0022A47D0042A6AD0082A33
:1030200007D1071917F8010DB04745F8040D641EC4
:10303000F8D1BDE8F09F102AFBDC5F693FB1224662
:10304000BC46BDE8F04F02235DF804EB604701EB9E
:10305000440700BF37F8020DB04745F8040D641E61
:10306000F8D1E6E700EBE10001F0070710F801A94D
:103070008146802020FA07F8B5F104050AEA080025
:10308000C7F10701C840B04745F804093FB14FEA0E
:1030900048604FEA10687F1E641EEFD1C9E719F837
:1030A00001A907274FF00108F6E700EBA10001F0A6
:1030B000030710F801A981467900C02020FA01F821
:1030C0004FF0060BB5F104050AEA0800ABEB470127
:1030D000C840B04745F804093FB14FEA88604FEA5D
:1030E00010687F1E641EEFD1A3E7032719F801A91A
:1030F000B846F7E700EB6100012710F801A9A743E4
:103100008146B900F02020FA01F84FF0040B2D1F82
:103110000AEA0800ABEB8701C840B04745F804094C
:103120003FB14FEA08704FEA10687F1E641EEFD16E
:103130007FE719F801A901274FF00F08F6E7000013
:103140002DE9F047224C06461F46A0699046894665
:10315000002540B90120A06104F120011D4808604C
:10316000084600F0A5F9606930B91B480068606145
:1031700010B900F048FD606107B138604EB1A06839
:1031800030B960698000FDF713FFA06000B9012528
:103190003060B9F1000F0AD0E06830B96069800092
:1031A000FDF706FFE06000B90125C9F80000B8F19D
:1031B000000F0AD0206930B960698000FDF7F8FE81
:1031C000206100B90125C8F800002846BDE8F08755
:1031D000A4010020ED920008A800002073B5124A57
:1031E00001A900981268904700240090C8B10F49C7
:1031F00000250968C969496959B10A684AB1019944
:1032000090477CBD6846FFF7EDFA0546FEF7A8FA41
:1032100004440198401E0190F4D5284600F032F88D
:10322000044420467CBD0000E00100207C0000201A
:1032300073B50D460098002490B10A490968C96920
:10324000496959B14A684AB1294690477CBD6846E8
:10325000FFF7C8FA20B10A2802D0641CAC42F6DBA2
:1032600020467CBD7C000020044AB2F900200260A8
:103270000348B0F90000086070470000B800002063
:10328000BA00002038B5002469460094FEF770FAB1
:103290000099814200DD0C1A204638BDB0F900309B
:1032A000B1F90020934200DA0280B0F90230B1F99E
:1032B0000220934200DA4280B0F90430B1F90420D0
:1032C000934200DD8280B0F90620B1F906108A42EF
:1032D00000DDC180704770B5B1F90040B2F900302F
:1032E0009C4200DD23460380B1F90250B2F902404E
:1032F000A54200DD2C464480B1F90460B2F90450C7
:10330000AE4200DA35468580B1F90610B2F90620E2
:10331000914200DB1146C1809D4201DBA14201DAEE
:10332000002070BD012070BD014602480068407C4D
:1033300000F002B87C0000202DE9F8430126044685
:103340008946022857DADFF8B480080008F104053E
:1033500030D0012802D002294DD116E055F82400C2
:1033600088B92046FEF760F8009010B3C0680D21C0
:10337000426A6846904702003DD04946009890470F
:1033800055F824000026401C33E02046FEF74CF898
:10339000009070B1C0680D21426A684690470400F1
:1033A00029D0D8F8000000B1804749460098A047CE
:1033B000002620E055F82400012813D12046FEF70E
:1033C00033F8009070B1C0680D21426A684690479A
:1033D000070007D0D8F8000000B1804749460098A0
:1033E000B847002655F8240008B1012100E000216B
:1033F000401A45F824003046BDE8F883CC0100208F
:1034000070B5FF23B3EB116F29D0C3B200F47F4531
:1034100000F47F04060E5343554354435643C2F110
:10342000FF00CAB202FB003201F47F4303FB0053EA
:1034300001F47F0505FB0044090E01FB0065C2F3A2
:1034400007204FF47F4101EA1322090201EA142107
:103450004FF07F43104303EA05430843184370BD10
:103460002DE9F04F0646DDE90CB915460C46002063
:103470008046584519D20B9F4FF0FF0A01CE08CC69
:10348000AAEB106202FB09F2B2FBFAF1CAB21946CA
:10349000FFF7B6FF20F07F4001C57F1EEED10998EF
:1034A00004EB800408F10100E2E7BDE8F08F0000C2
:1034B00002494A694260486170470000700000207C
:1034C00030B5002803DA4FF0FF32404200E001221D
:1034D000154990FBF1F301FB13004910884202DD0E
:1034E00052424B421844114B984200DD081A4FF4E7
:1034F0007A7390FBF3F16FF07C044C4300EBC40053
:103500005A2902DB4FF480300AE0094C04EB8105B4
:1035100054F821106D686C1A4443B4FBF3F008446E
:10352000002A00DC404230BD407E0500905F010073
:103530003C11010810B502E000F8011B521E0AB14F
:103540008307F9D1930818D001EB014402F003027C
:1035500004EB042406E010C01B1F10C040F8084B09
:1035600040F8044C042BF6DA01E010C05B1E002B7F
:10357000FBD102E000F8011B521E002AFAD110BD57
:1035800010B5830702D520F8021B521E530811D034
:1035900001EB0144042B09DB10C01B1F10C0042BDE
:1035A00040F8084B40F8044CF6DA01E010C05B1E0E
:1035B000002BFBD1D20700D0018010BD30B50246F0
:1035C0000B462A2002F044FE101202F045FED0B253
:1035D00002F042FE101202F03FFED0B202F03CFEBA
:1035E0002B2002F035FE181202F036FED8B202F09F
:1035F00033FE181202F030FED8B202F02DFE2E205B
:1036000002F026FE064804880488058804F4784001
:1036100004F0FC0140EAC10040EAE524204630BD48
:103620000000026000BFFEE710B5FF230B4CB3EBB8
:10363000116F09D1514201EB01111A0602EB016130
:1036400001432068084010BD054B02EB0212D2B2C4
:103650001B6898472168084010BD00002801002021
:10366000A401002002490A68086010467047000063
:10367000280100200449054A0968497C52F82110B4
:1036800009690968084700007C00002094000020B8
:103690002DE9F04F05468DB07B48DDF860901A9C0F
:1036A00000681E4617464FF0000A78B11B9B199A16
:1036B000CDF808900593CDE90324DDE91623CDE983
:1036C0000023046833463A46284680E0DDE91602C6
:1036D00001EB060805EB070C1043A8F10108ACF15B
:1036E000010C012806D0C9F10800059000200291C4
:1036F0000990C6E065480268B2F90A30581A0028F5
:1037000006DD361A002E63DD1946199B00FB0344C3
:10371000B2F90E00A8EB0000002802DD361A002ED8
:1037200056DDB2F90C00ACEB0000002800DD3F1ABA
:10373000B2F908300020AB4235DD581B3F1A4B462A
:10374000B9F1080F26D006DC012B0BD0022B11D0CB
:10375000042B28D116E0102B1ED0182B1FD0202BA5
:1037600021D11CE020F0070304EBE0041D4400F02D
:10377000070018E020F0030304EBA0041D4400F050
:10378000030010E020F0010304EB60041D4400F08E
:10379000010008E0044404E004EB400401E004EB11
:1037A000800405440020002F12DD1B9BDDF864C05F
:1037B000CDE90403CDE90069CDE902C4527C344867
:1037C0003B4650F82200C26854680A462946A04782
:1037D0000DB0BDE8F08F1799029808440C902B4962
:1037E000401E00900A68B2F90A30834241DCB2F907
:1037F0000E10029881423CDB4FF0000BD846039537
:103800000A9434E0BBF1000F05D10A984FF0080B81
:1038100010F801AB0A900599ABEB090B3AFA01F0ED
:103820000AFA09F101F0FF0A04D118490968097C74
:10383000890716D415490968C96B0A680B921B9A47
:103840000AB152F82000086016990398009B4218AC
:10385000521E029900F0B0F80C490B980968C96B28
:1038600008600399169808F1010808440390B845C8
:10387000C8DB0998401C09900C98029019980444E0
:103880000998B042A7DBA3E7B40000207C00002029
:1038900094000020F0B40C4612490968B1F90A30CE
:1038A000A3421CDCB1F90E30A34218DBB1F9083099
:1038B000834200DD1846B1F90C30934200DA1A4613
:1038C00082420CDB4B7C084951F8235013462246B8
:1038D000E9688E6801462846B446F0BC6047F0BCF3
:1038E000704700007C000020940000200A46174921
:1038F00030B40968B1F90A30934225DCB1F90E30D1
:10390000934221DBB1F9083083421DDCB1F90C3060
:10391000834219DB0B7C0E4CDB0709D0497C54F841
:103920002130D968CC690146A44630BC18466047AE
:10393000CB6B497C1B6854F82140E1688D690146D6
:103940002046AC4630BC604730BC70477C0000204D
:103950009400002000B597B00121080200F046FF56
:103960000220019000200290052003900020049086
:10397000059006904FF08050079000200890099025
:1039800008200A9010200B9000200C900E900F90B1
:1039900010904FF4805011900020129013901490CA
:1039A00001A81590169008A8FCF74EFE01210020F2
:1039B000FCF730FE17B000BD38B5134C2468B4F9DD
:1039C0000850854200DD2846B4F90C50954200DAD3
:1039D0002A46824217DBB4F90A508D4200DD29469F
:1039E000B4F90E509D4200DA2B468B420BDB00935C
:1039F000647C064B53F82440E3681D6913460A466D
:103A000001462046A84738BD7C00002094000020D5
:103A100008B501217C2000F009FF10208DF803007B
:103A200003208DF802004FF40050ADF80000694605
:103A30002A48FCF7D9FF4FF48050ADF800006946E2
:103A40002648FCF7D1FF03208DF8020018208DF8DE
:103A500003004CF20370ADF8000069461F48FCF704
:103A6000C3FF4FF68070ADF8000069461C48FCF7B4
:103A7000BBFF1020ADF8000069461848FCF7B4FF02
:103A80002020ADF8000069461448FCF7ADFF802007
:103A9000ADF8000069461148FCF7A6FF4FF400603E
:103AA000ADF8000069460D48FCF79EFF4FF48051C9
:103AB0000A48FDF726F810210848FDF722F82021D2
:103AC0000648FDF71EF84FF400610448FDF719F8A9
:103AD00080210248FDF715F808BD000000140140E0
:103AE00000180140082105F0BDB800000248006838
:103AF000806B0068704700007C000020024800686E
:103B0000C06B0068704700007C000020024809215B
:103B10000068407C05F0A6B87C000020092105F073
:103B2000A1B870B500252C462046FDF77DFC00B1FC
:103B30006D1C641C022CF7DB284670BD024800682F
:103B4000407C00F003B800007C00002010B5FDF7B9
:103B50006BFC002805D0C168CA6ABDE8104002218C
:103B6000104710BD10B500F005F8BDE8104000F09A
:103B70008FB800002DE9FC41144E0546144F306803
:103B80000C46407C57F82000C1680A6B6946904794
:103B9000BDF90000A8420BDCBDF90400A84207DB18
:103BA000BDF90200A04203DCBDF90600A04202DA22
:103BB0000020BDE8FC8130682246407C57F8200098
:103BC000C1684B6929469847F3E700007C00002054
:103BD00094000020F8B515460E460124FDF724FC9C
:103BE000009058B1C0680421426A684690470300BB
:103BF00004D02A4631460098984700242046F8BD54
:103C0000032105F02FB8032005F097B8042105F033
:103C100029B80000024801210068407C05F022B864
:103C20007C000020012105F01DB80000024802219F
:103C30000068407C05F016B87C000020022105F0E9
:103C400011B800F001B800002DE9F041002809D0BA
:103C5000876837B10D4E716819B10468B4F5807F7B
:103C600002DD0020BDE8F0813068844200DD0446BA
:103C7000002507E057F82500FFF7FCFC716841F8C4
:103C800025006D1CA542F5DB7068EBE72C010020D8
:103C90000449054A0968497C52F8211009694968B4
:103CA000084700007C000020940000207047704707
:103CB00010B500F01F01074A074BC0F34514C0F3CD
:103CC000C4201B5D105C515C00EB032000EB014045
:103CD00010BD0000DC0E0108FC0E010810B50A4CF6
:103CE000606860B920688000FDF762F9606040B1EB
:103CF00004F10801054808600846FFF7D9FB0020D9
:103D000010BD012010BD00002C010020A59200086C
:103D10002DE9F041FFF705FF0746002528E028467A
:103D2000FDF782FB18B32846FEF7A8FB804628461D
:103D3000FFF7D8FE082817DC0F48104950F8250077
:103D40000069884210D02846FFF7E8FE06460024A6
:103D500008E0E0B2FFF79CFF0246E1B2284600F01F
:103D60004BF9641CB442F4DB4046FEF787FB6D1C44
:103D7000BD42D4DBBDE8F081940000202814010886
:103D80002DE9FF4F83B01646DDE910408B46C06831
:103D90004769426A7AB1012111A8904705000AD00B
:103DA0000698CDE9000433465A4603991198A8476E
:103DB00007B0BDE8F08F57480068407CFDF7BEFCB7
:103DC0008246082801DC012005E0BAF1100F01DC71
:103DD000022000E004208046002596E04046B8F12D
:103DE000010F05D0022871D0B8F1040F25D17CE075
:103DF000BAF1090F21D2DFE80AF08605213F3F59C9
:103E000059595900039815E001465A461198B84788
:103E1000C5F1070188404FF67F722178EA401140D2
:103E200001436D1C217004EBE50425F007000541FA
:103E300009F101008146B042E6DD64E0039817E035
:103E400001465A461198B8470621A1EB4501884022
:103E50006B004FF63F722178DA40114001436D1C30
:103E6000217004EBA50425F00300054109F10100D0
:103E70008146B042E4DD46E0039813E001465A462D
:103E80001198B8470421A1EB850188402178AB0047
:103E90000F229A401140014321702C4485F0010506
:103EA00009F101008146B042E8DD2CE0DDF80C901C
:103EB00007E001465A461198B847207009F10109F8
:103EC00044444846B145F4DD1DE0FFE7DDF80C90C1
:103ED00007E001465A461198B847208009F10109C8
:103EE00044444846B145F4DD0DE0DDF80C9007E0B0
:103EF00001465A461198B847206009F10109444427
:103F00004846B145F4DD0BF1010B06998B457FF76F
:103F100065AF4DE77C00002010B50D4C0D492068C1
:103F2000407C51F8200040B1C1680968042901D0E3
:103F30000068F8E708B1FDF775FA2068002101660E
:103F400000F108014161BDE8104000F02FB8000009
:103F50007C00002094000020014909684968084756
:103F600024010020044909680A7C520701D5C96B65
:103F700000E0896B086070477C0000207CB5094C2C
:103F800005462068417C084850F82100C1680A6B4A
:103F90006946904720686A4629460830FFF79BF932
:103FA0007CBD00007C0000209400002004480168D3
:103FB00004484A7C083150F82200C268126B10474E
:103FC0007C00002094000020014909680968084726
:103FD00024010020044909680A7C520701D5896B35
:103FE00000E0C96B086070477C0000200149096847
:103FF0008968084724010020F8B515460E460124BB
:10400000FDF712FA009058B1C0681021426A684664
:104010009047030004D02A46314600989847002470
:104020002046F8BD2DE9F04717000C46054636D06E
:104030001C490868B0F90A20A24230DCB0F90E2011
:10404000A2422CDBB0F90820AA4228DCB0F90C20EF
:10405000AA4224DB144E0F2F02D3C16B0B6813E06E
:10406000C06B88460068FFF713FE8146214628464C
:10407000FFF778FD01463A464846FFF7D5FAFFF7C5
:10408000F9FA0346D8F800002246407C56F8200092
:10409000C1688E692946B446BDE8F0476047BDE86F
:1040A000F08700007C00002094000020F8B5154641
:1040B0000E460124FDF7B8F9009058B1C0680321FD
:1040C000426A68469047030004D02A463146009869
:1040D000984700242046F8BDF8B515460E46012441
:1040E000FDF7A2F9009058B1C0680B21426A6846FA
:1040F0009047030004D02A46314600989847002490
:104100002046F8BDF8B515460E460124FDF78CF99A
:10411000009058B1C0680A21426A6846904703007F
:1041200004D02A4631460098984700242046F8BD1E
:1041300010B5074C2068006BFFF79CFAFFF74AFFA9
:104140002068406BFFF796FABDE81040FFF70ABF02
:104150007C00002000B59FB014211AA8FCF764F978
:1041600068216846FCF760F900231A4608490948A7
:10417000FDF7FEF8F0224FF4C8710020FFF7ACFF06
:10418000F0224FF4C8710020FFF7BCFF1FB000BD44
:1041900050D50008FCD4000810B503461446012988
:1041A00001D1002010BD4FF0FF3200BF00BF10460C
:1041B000F8E700002DE9FF4F8DB01746674ADDF89C
:1041C00070901E9E209812681D4600248AB11D9B87
:1041D0001F98CDE90293CDE90460DDE91A03CDE92A
:1041E000000314682B463A460D98A04711B0BDE86D
:1041F000F08F0D9A01EB050802EB070CDDE91A239D
:104200001A43A8F10108ACF1010C012A06D0C9F14A
:1042100008004FF0000B029105909CE0504A126894
:10422000B2F90A40631A002B06DDED1A002DDDDD20
:1042300021461D9C03FB0466B2F90E30A8EB030374
:10424000002B02DDED1A002DD0DDB2F90C30ACEB05
:104250000303002B00DDFF1A0D9B1C1AB2F9083076
:10426000A3420DDDA3EB040C0CEB0003181A20F0A5
:1042700007000444A7EB0C0706EBE30603F0070076
:10428000002FB3DDDDF874C01F9BCDE902C6CDE978
:104290000403CDE90059527C32483B4650F82200D5
:1042A000C26855680A462146A8479FE71B990298AD
:1042B00008440C902A49401E00900A68B2F90A305E
:1042C000834242DCB2F90E10029881423DDB4FF08E
:1042D000000A0D980A96D046039034E0BAF1000F18
:1042E00005D10A984FF0080A10F8014B0A90059979
:1042F000AAEB090A34FA01F004FA09F4E4B204D191
:1043000017490968097C890717D415490968C96BD9
:104310000A680B921F9A0AB152F8200008600399AC
:104320001A98009B0A18DDE90210521EFFF744FBA1
:104330000B490B980968C96B086003991A9808F132
:10434000010808440390B845C8DB0C9802901D98FA
:104350000BF1010B0644AB45A8DB47E7B400002096
:104360007C00002094000020002818D0410817D0BD
:10437000810817D0C10817D0010917D0410917D0FB
:10438000010A17D0410A17D0010B15D0C10B13D069
:10439000010C11D0810C11D0000E11D020207047DB
:1043A00001207047022070470320704704207047A7
:1043B0000520704708207047102070471220704772
:1043C0001820704700B50022FFF7CEFF012804D067
:1043D000811E062903D808220BE0012209E0A0F182
:1043E0000901072901D8102203E011380F2800D84D
:1043F0002022104600BD000010B54FF48051074840
:10440000FCF77DFB642006F0D3F94FF4805103489C
:10441000FCF777FB642006F0CBF910BD00140140D7
:1044200010B5FFF7F5FAFFF795FA322006F0C0F95C
:10443000FFF7E2FF2A2001F00BFF002001F00CFF44
:10444000002001F009FF002001F006FFEF2001F03D
:1044500003FF2B2001F0FCFE002001F0FDFE0020F8
:1044600001F0FAFE012001F0F7FE8F2001F0F4FECA
:10447000352001F0EDFE002001F0EEFEB12001F04C
:10448000E7FE112001F0E8FE0E2001F0E5FEB42069
:1044900001F0DEFE022001F0DFFEB62001F0D8FEC2
:1044A0001E2001F0D9FE022001F0D6FEC02001F04E
:1044B000CFFE102001F0D0FEC12001F0C9FE012086
:1044C00001F0CAFE0B2001F0C7FEC52001F0C0FEBE
:1044D000172001F0C1FE272001F0BEFEFA2001F0F6
:1044E000B7FE012001F0B8FEE02001F0B1FE00208F
:1044F00001F0B2FE082001F0AFFE112001F0ACFE89
:104500000D2001F0A9FE132001F0A6FE172001F0F6
:10451000A3FE1C2001F0A0FE7B2001F09DFE2D20BB
:1045200001F09AFE102001F097FE2F2001F094FE7A
:10453000292001F091FE122001F08EFE1C2001F0D6
:104540008BFE2F2001F088FEE12001F081FE2B2060
:1045500001F082FE2E2001F07FFE292001F07CFE7A
:104560000D2001F079FE162001F076FE152001F0F5
:1045700073FE292001F070FE572001F06DFE2F2000
:1045800001F06AFE092001F067FE1A2001F064FEC6
:10459000232001F061FE312001F05EFE372001F0A2
:1045A0005BFE3C2001F058FEE22001F051FE0020AD
:1045B00001F052FE082001F04FFE112001F04CFEE8
:1045C0000D2001F049FE132001F046FE172001F0F6
:1045D00043FE1C2001F040FE7B2001F03DFE2D201B
:1045E00001F03AFE102001F037FE2F2001F034FEDA
:1045F000292001F031FE122001F02EFE1C2001F0D6
:104600002BFE2F2001F028FEE32001F021FE2B20BD
:1046100001F022FE2E2001F01FFE292001F01CFED9
:104620000D2001F019FE162001F016FE152001F0F4
:1046300013FE292001F010FE572001F00DFE2F205F
:1046400001F00AFE092001F007FE1A2001F004FE25
:10465000232001F001FE312001F0FEFD372001F0A2
:10466000FBFD3C2001F0F8FDE42001F0F1FD00200D
:1046700001F0F2FD082001F0EFFD112001F0ECFD4A
:104680000D2001F0E9FD132001F0E6FD172001F0F7
:10469000E3FD1C2001F0E0FD7B2001F0DDFD2D207D
:1046A00001F0DAFD102001F0D7FD2F2001F0D4FD3C
:1046B000292001F0D1FD122001F0CEFD1C2001F0D7
:1046C000CBFD2F2001F0C8FDE52001F0C1FD2B201E
:1046D00001F0C2FD2E2001F0BFFD292001F0BCFD3C
:1046E0000D2001F0B9FD162001F0B6FD152001F0F6
:1046F000B3FD292001F0B0FD572001F0ADFD2F20C2
:1047000001F0AAFD092001F0A7FD1A2001F0A4FD87
:10471000232001F0A1FD312001F09EFD372001F0A2
:104720009BFD3C2001F098FD3A2001F091FD5520C1
:1047300001F092FD362001F08BFD602001F08CFD30
:10474000112001F085FD782006F032F8292001F0D3
:104750007FFD10BDFDF772F802F03EF800BFFEE7E6
:104760007047000070B5002100230F22C47804B305
:10477000154C246804F4E064C4F5E064210AC1F136
:104780000403CA40447804FA03F1847814402143B6
:1047900009010E4C0678A155047804F01F05012488
:1047A000AC4005786D11AD0005F1E025C5F800417C
:1047B00009E0047804F01F050124AC40044D06789C
:1047C000761145F8264070BD0CED00E000E400E0F5
:1047D00080E100E002490143024A11607047000095
:1047E0000000FA050CED00E07047000029B1064A10
:1047F00052690243044B5A6104E0034A52698243FE
:10480000014B5A61704700000010024029B1064A6E
:10481000D2690243044BDA6104E0034AD26982435D
:10482000014BDA61704700000010024029B1064ACE
:1048300092690243044B9A6104E0034A92698243FD
:10484000014B9A617047000000100240704710B59C
:1048500000F002F810BD00000CB50020019000909F
:104860003348006840F480303149086000BF304868
:10487000006800F4003000900198401C01900098FE
:1048800020B94FF6FF7101988842F0D1284800689E
:1048900000F4003010B10120009001E000200090F1
:1048A0000098012843D12348006840F010002149B6
:1048B00008600846006820F00300086008460068A9
:1048C00040F0020008601A484068194948600846EC
:1048D000406848600846406840F480604860084688
:1048E000406820F47C1048600846406840F4E810B6
:1048F00048600846006840F08070086000BF0C48BF
:10490000006800F000700028F9D00948406820F0E5
:104910000300074948600846406840F002004860CC
:1049200000BF0348406800F00C000828F9D10CBD16
:104930000010024000200240042808D14FF0E0217E
:10494000096941F004014FF0E022116107E04FF0E6
:10495000E021096921F004014FF0E0221161704764
:104960007047000010B51348006840F0010011497D
:10497000086008464068104908400E4948600846EB
:1049800000680E4908400B4908600846006820F49A
:10499000802008600846406820F4FE0048604FF41C
:1049A0001F008860FFF753FF4FF000600449086064
:1049B00010BD0000001002400000FFF8FFFFF6FEEF
:1049C00008ED00E010B50121064800F05EF820B1C6
:1049D00005480068401C044908600121014800F0B6
:1049E00045F810BD000400400C0000207FB50446CF
:1049F0000D4601210220FFF709FFADF80450002009
:104A0000ADF80600ADF80840ADF80A0001A90E485F
:104A100000F056F8012211460B4800F047F81D201F
:104A20008DF8000000208DF8010003208DF80200B1
:104A300001208DF803006846FFF794FE012102482B
:104A400000F017F87FBD00000004004010B5012100
:104A5000054800F01AF808B1FDF7DCFD0121024815
:104A600000F004F810BD000000100040CA430282AC
:104A7000704721B1028842F00102028004E00288FE
:104A80004FF6FE731A400280704730B50246002090
:104A900000230024158A05EA0103958905EA01042B
:104AA00013B10CB1012000E0002030BD1AB18389A0
:104AB0000B43838102E083898B438381704700002D
:104AC000002202881D4B98420ED01D4B98420BD0FD
:104AD000B0F1804F08D01B4B984205D01A4B98423A
:104AE00002D01A4B984204D14FF68F731A404B886C
:104AF0001A43174B984207D0164B984204D04FF6F2
:104B0000FF431A40CB881A4302808B8883850B8829
:104B100003850A4B98420BD0094B984208D00E4BA4
:104B2000984205D00D4B984202D00D4B984201D1CE
:104B30000B7A03860123838270470000002C01401A
:104B4000003401400004004000080040000C004018
:104B500000100040001400400040014000440140AB
:104B60000048014010B540F22551204800F044F8BB
:104B7000A8B31E4800F06AF8C4B21D48008800F4CB
:104B8000004058BB1A48008800F4804060B10A2CED
:104B900003D000201649088026E01548008840F41C
:104BA0000040134908801FE00D2C06D110480088F2
:104BB00040F480400E49088016E00D480088C0F39C
:104BC0000D000C490C540A480088401C0849088014
:104BD00008460088C72807DD0020088004E0FFE7BA
:104BE000024800F033F8C4B210BD000000380140A4
:104BF000080000203402002070B502460024002383
:104C00000025002040F66A16B14200D100BFC1F372
:104C1000421501F01F03012606FA03F3012D02D10C
:104C20009689334006E0022D02D1168A334001E016
:104C3000968A33400C12012606FA04F41688344092
:104C400013B10CB1012000E0002070BD014688883E
:104C5000C0F30800704700BFFEE7000002490120D2
:104C6000096881F8540070477C0000202DE9F0416C
:104C70008AB0040036D0FCF713FA0190D0E9001294
:104C8000CDE90412876A056A01A8FCF739FA2046C3
:104C900000F06EFE060025D0204600F0C4F98046E4
:104CA000B80704D52A46414604A800F0C7FF2046AD
:104CB000FCF7F6F901904046FCF7F2F90690304611
:104CC000FCF7EEF9039005620698019AC16911623A
:104CD000C46101A8FCF714FA06A8FCF711FA03A8AE
:104CE000FCF70EFA0AB0BDE8F08100002DE9FC5F88
:104CF000DFF834A10746DDE90C54DAF81400DDF8DA
:104D00003CB0984691460E4604434DB9BAF80200AD
:104D100048B346480AF140010068407C51F82050F1
:104D2000681C0ED0FDB12846FCF7BAF90190B0F925
:104D30000010B0F902200F441644B9F1000F02D060
:104D400006E000250FE0B0F90430591A01F101091D
:104D5000B8F1000F04D1B0F90600801A00F1010883
:104D600001A8FCF7CDF90BF12C00FCF7DEF85FEAA7
:104D7000000B56D0BAF80200401CAAF802005846B0
:104D8000FCF78EF90090078007EB09014680491E69
:104D9000818006EB0801491EC1800E990161244AF9
:104DA000816A2240114381626846FCF7A9F9DAF86A
:104DB0000C005E4650B1FCF7BBF907463046FCF7E5
:104DC000B7F90146786948617E6101E0CAF80CB024
:104DD0002946584600F062FEA00602D5584600F06B
:104DE00077FCE00704D0DAF82010491CCAF820103C
:104DF000600602D55846FFF739FFA0070DD5584683
:104E0000FCF74EF90090816A41F002018162684628
:104E1000FCF776F9584600F076FB0121584601F080
:104E200068F95846BDE8FC9F400100207C00002046
:104E30009F3F3F0003490020096881F85400FFF7B5
:104E4000B5B800007C00002010B50446C168D4E964
:104E50000020172A0DD004DC0E2A0CD0142A07D10A
:104E600004E0222A0CD0282A02D10CE000F01EFD1A
:104E70000020E06010BD2146BDE8104000F048BCB5
:104E80006FF07040F5E7BDE8104000F03CBB38B56E
:104E900004000BD0FCF704F900900068FDF768FBF4
:104EA0006846FCF72DF92046FCF75AF838BD00009B
:104EB000F8B505005BD000F02DFF002857D028463C
:104EC00000F068FD06460B21284601F012F928463D
:104ED00000F0B3FC2846FCF7E3F80090406A08B104
:104EE000FCF73AFE224C002104F158022163A0682D
:104EF00052F82030AB4201D142F820101C4A503207
:104F000052F82030AB4201D142F82010206904E071
:104F10004368AB4200D1416000680028F8D1072106
:104F2000284600F026FB009801F04CFC284600F0D3
:104F3000A9FC284601F05CF80098806AC10702D0FD
:104F4000216A491E2162800602D5A088401EA080E9
:104F50006846FCF7D5F86088401E60802846FBF75D
:104F6000FFFF0348403050F8260000F0B1FBF8BDC9
:104F7000400100202DE9F0411A4C0025E06A10B1F3
:104F8000804700E0012503F05FF90028FAD1164EB2
:104F9000306890F8540038B1A08828B1E069012742
:104FA00020B10068804704E0002702E00120FEF7FE
:104FB000BBF9306890F8540038B1A08828B102F0ED
:104FC000FDFFA08808B10125F3E73FB1E06910B10A
:104FD0004068804702E00020FEF7A6F92846BDE8B9
:104FE000F0810000400100207C00002003480449BB
:104FF0000068407C51F82000704700007C000020D1
:10500000800100200021022802D2024951F820101C
:10501000084670478001002010B5002802D0FCF738
:1050200087F8C06910BD10B5002802D0FCF780F8E1
:10503000806910BD10B501004FF0000004D0084693
:10504000FCF776F8B0F9000010BD00002DE9F04F34
:105050009BB04FF0000B5E46CDF820B0CDF824B0E9
:10506000CDF828B0FDF738F918B100201BB0BDE825
:10507000F08F6846FDF70EF90098C94DC94C401CE9
:1050800011D0009800281DDB019800281ADBC649C2
:105090000098B1F900100844C44900900198B1F992
:1050A000001008441DE00198401C0BD120689DF8B9
:1050B000081000EB400005EB8000007A884201D127
:1050C0005846D3E70098401C0CD10198401C09D1E8
:1050D000206800EB400055F8201005EB800000919F
:1050E0004068019005A800F071FB9DF809000228B6
:1050F00000D2206007AA12A92068FCF75BFB129976
:105100000098401A009007990198009A401A01905F
:10511000206800EB400055F8201091420AD105EBC1
:105120008000019A4168914204D1007A9DF80810EC
:1051300088427DD0DDE900019DF80920FCF75CF88C
:105140009B4F7A6812B100216846904799482168C0
:1051500050F8210018B9DDE9000100F0B3FA06901B
:10516000BA6812B10699684690478D4F2068383763
:1051700007EBC0014868069A824201D0012200E094
:1051800000220DF12009F8B1F2B1486800F076FD77
:10519000D0B1206807EBC000406800F064FD98B112
:1051A0009DE8070008AB83E807001220CDF8449083
:1051B0000E90206807EBC00040680EA900F0BFFF0A
:1051C000206807EBC0004660069800F057FD0028F5
:1051D0007DD00699206807EBC002516000EB4000CB
:1051E00005EB80009DF80810007ADFF8B4A1884232
:1051F0000AF1280A5ED00698C0B30698FBF750FF64
:105200009DF8081013908DF83410216801EB4101CE
:1052100005EB8101097A8DF83510B0F9002000996D
:10522000891A0B91B0F902000199081A0C9000E05C
:10523000B1E013A8FBF764FF0BA8119011200E90AA
:10524000206800EB400105EB810191E88C0004929D
:10525000CDE914379DF808200A729DF8281031B165
:105260000AEBC0014F68069A4A6001E022E000277D
:105270000AEBC000D0F8048006980EA900F018FFD1
:1052800021680AEBC1004368434501D0406806909D
:1052900001EB410005EB8003DDE91412049883E87B
:1052A00007003FB1384600F060F918B121680AEBF9
:1052B000C100476020689DF8081000EB400805EB2E
:1052C0008802137A0B434CD04FF4107300E056E081
:1052D0000AEBC0000E9343684FF0010B5746DDF810
:1052E00018C09C4515D043689BB109B1119608E0E0
:1052F00055F828100891516809918DF82860CDF86B
:10530000449040680EA900F01AFF206807EBC00027
:10531000466020689DF8081000EB400205EB820211
:105320001172069959B39DE80E000DF1200888E826
:105330000E009DF8281021B1069907EBC0004160CE
:1053400008E01D48007808B100F044F9206807EB38
:10535000C00046600698CDF844900EA900F0EFFE1C
:105360000DE0069858B1069800F07DFC38B19DE834
:10537000070008AB83E8070010200E90EAE72168D9
:105380009DE81C0001EB410005EB800080E81C005B
:10539000684600F013F905A800F014FE90E600003E
:1053A0009C99002048010020B8000020BA0000208D
:1053B0000C02002090010020A00100202DE9FF5FD9
:1053C0002C4D6878002853D100272B48EF602F63BD
:1053D0000068DFF8A8903C464764AF806F804FF0CC
:1053E000020A4FF0FF3B43F6FF7805F140062046E6
:1053F000FCF71AF898B1CDE90297CDE900BA00217F
:10540000424643460846FFF771FC1A4A46F8240014
:1054100048326FF0704142F8241000F074F8641CB8
:10542000022CE4DB164FDFF85C80DFF85C90002490
:1054300007EBC40000F0CAF908EBC40000F0C6F99D
:1054400009EBC40000F0C2F9641C022CF0DB3068E8
:1054500000F03EF9FFF702FC012006496870383180
:105460000A48086004B00846BDE8F05FFEF720B8BF
:10547000BDE8FF9F400100207C00002061A60008DD
:10548000B4990020C4990020D4990020B992000852
:1054900070B586B00D4606002CD0FBF701FE0090DB
:1054A000846AA10723D5D0E90010CDE90110E003FB
:1054B00002D5304600F048FB5DB12868039068686B
:1054C000049003A9009800F089F903A901A8FDF749
:1054D000E5FE314601A800F089F940B140F601002F
:1054E0000440012C08D001A9304600F029FB684691
:1054F000FBF706FE06B070BD0098026A816901A83C
:1055000000F09CFBF3E70021FFF7C2BFFEB5154694
:105510000E4604001CD0FBF7C3FD0246009090F835
:105520002800800711D5314601A8FDF7D4FE60B1EF
:105530006846FBF7E5FD2A4601A9204603F09EFDDB
:105540002046FFF769FD04460CE06846FBF7D8FDEE
:10555000FEBD2A4601A92046FFF7D8FF2046FBF7EB
:10556000E7FD046A002CF4D1FEBD00F0D3BB00F0CF
:10557000E3BB1FB5262203910092694600F0C8F8EC
:105580001FBD000010B50C4C0A4A034624680020D9
:1055900086B052F82420002A0AD00E200090CDE9CF
:1055A000043104A803906946104600F063FD012011
:1055B00006B010BD9801002048010020044A01EB0C
:1055C000410102EB81010DC881E80D007047000028
:1055D000609A002000F0E0BC70B5154606468AB01F
:1055E0000C4651EA05006BD0002E69D03046FBF71F
:1055F00057FD0590D0E90012CDE90212CDE906125F
:105600007CB1816A0A0607D5890505D4BDF8181052
:10561000091BADF8181004E0BDF81C102144ADF8CA
:105620001C107DB1816ACA0507D5490505D4BDF8AE
:105630001A10491BADF81A1004E0BDF81E102944D9
:10564000ADF81E10806AC00302D5304600F07CFA27
:1056500005AB93E80700C0E9001290F82800800726
:105660000AD506AA02A908A8FCF7D8FD0598026A7F
:10567000816908A800F0E2FABDF91E00BDF90E101C
:10568000401A0090BDF91C00BDF90C10431ABDF979
:105690001A00BDF90A10421ABDF91800BDF9081028
:1056A000411A059800F066FD059901F10800FDF723
:1056B000F5FD0521304600F01CFD05A8FBF720FD97
:1056C0000AB070BD0A460146002003F0E7BF0000A3
:1056D00070B50C4D04002868866C01D10A49CC686D
:1056E0008464204600F0BCFCFEF760FC2046FBF71B
:1056F0001FFD2968B0F90020CA64B0F902000865EE
:10570000304670BD7C0000204001002000F0DEBC6F
:1057100070B50C00054609D0FFF785FC002805D0C0
:105720002146A560BDE8704000F0A4BC70BD00003B
:1057300010B5FBF739F9024900200968486410BD2B
:105740007C000020F8B516460C46050018D0FBF783
:10575000A7FC0090B0F90410B0F90020891A641A6F
:10576000B0F90610B0F90200641E081A361A68462D
:10577000761EFBF7C5FC324621462846FFF72CFF74
:10578000F8BD00000EB50E48006890F8541009B13D
:105790000C4811E0806CFBF783FC0090D0E900100E
:1057A000CDE901106846FBF7ABFC0748416A11B12F
:1057B00001A800F01BF801A803F092FF0EBD000045
:1057C0007C000020289900204001002002490A683E
:1057D0000260086070470000500100200B46B0F9DD
:1057E0000220B0F900101846FCF744BD38B50C464D
:1057F00005462046FBF754FC0146009090F828002F
:10580000800703D46846FBF77BFC12E02846FDF7CF
:1058100045FD0098806920B104466846FBF770FC9E
:10582000E7E76846FBF76CFC204601F081F80028AA
:1058300001DA002038BD012038BDF8B505466846BC
:10584000FCF7B8FE1AE001212046FCF79FFE009904
:1058500081B178B10846FBF76BFC4068A84209D1DA
:1058600069462046009EFCF7B9FE04463046FFF725
:105870000EFB04E069462046FCF7B0FE0446002C0F
:10588000E1D1F8BD38B50446FBF70AFC0090816908
:1058900041B1026A00F0D2F9204600F0C1FB009944
:1058A000002088616846FBF72BFC38BD38B50C46F4
:1058B00000280AD0002C08D0FBF7F2FB214600900C
:1058C00000F004F86846FBF71BFC38BD00224A8054
:1058D0000A8082880388D21A8A80C2884088101A77
:1058E000C880704710B5FFF79EFB002802D0FBF779
:1058F0001FFCC06910BD00000D4810B5006890F88D
:105900005400002806D00B4C6069012803DD401EBE
:105910006061002010BD2069401C206102F078FE0B
:1059200018B1FFF72FFF012010BD6069EFE70000FD
:105930007C000020209900200548016891F869202A
:10594000C86C002A02D091F86810484370470000E4
:105950007C0000200548016891F86920086D002A44
:1059600002D091F868104843704700007C00002086
:1059700070B50546FFF7B6FF08E0AC4201D1002440
:1059800006E0FBF7D5FB006AA84201D00400F4D181
:10599000204670BD10B50446FBF7CAFB806900289D
:1059A000F9D12046BDE8104000F0C2BFF0B5384E36
:1059B000074687B0306890F8541041B1354C6169A2
:1059C000491C6161012905DD012007B0F0BDFFF729
:1059D000D9FEF9E7806CFBF763FB2F4D4FF0FF31E9
:1059E00000902161297821B181680291C0680390FB
:1059F00007E090F8281089073CD5D0E90010CDE9E0
:105A000002101FB1394602A8FDF748FC3068406C0F
:105A100078B3009804903068406C01680591406844
:105A20000690686A30B104A8FBF76AFB686AFBF766
:105A300037FB049005A90498FFF7D0FE05A902A83A
:105A4000FDF72CFC0DF11000FBF75AFB696A19B148
:105A500002A8FFF7CBFEB0B13068816C02A8FFF757
:105A6000C5FE80B1DDE90201C4E90001FFF744FF92
:105A7000ABE706E06069401E60616846FBF740FBEB
:105A800004E06846E0E76069401E606100209CE732
:105A90007C0000202099002040010020FEB50D0070
:105AA000044647D0FBF7FCFA0090002185610162B3
:105AB0002846FBF7F5FA00990290C56991F828107D
:105AC00001F008062DB12846FBF7EAFA019036B13D
:105AD00015E0C4616846FBF713FB02A828E090F8C4
