:020000040800F2
:10000000D8A400200D020008BB44000801340008F9
:10001000B74400089D050008AF4900080000000033
:10002000000000000000000000000000A5450008DE
:10003000A10500080000000041450008B94600087D
:1000400027020008270200082702000827020008EC
:1000500027020008270200082702000827020008DC
:1000600027020008270200082702000827020008CC
:1000700027020008270200082702000827020008BC
:1000800027020008270200082702000827020008AC
:10009000270200082702000827020008270200089C
:1000A000270200082702000827020008270200088C
:1000B000270200081D470008270200082702000841
:1000C000270200082702000827020008270200086C
:1000D00027020008BD480008270200082702000880
:1000E000270200082702000827020008270200084C
:1000F000270200082702000827020008270200083C
:10010000270200082702000827020008270200082B
:100110002702000827020008A54700082702000858
:10012000270200082702000827020008270200080B
:1001300000F002F800F05AF80AA090E8000C82449F
:100140008344AAF10107DA4501D100F04FF8AFF27C
:10015000090EBAE80F0013F0010F18BFFB1A43F0A5
:1001600001031847CCDD0000ECDD00000A444FF02D
:10017000000C10F8013B13F0070408BF10F8014B06
:100180001D1108BF10F8015B641E05D010F8016B4B
:10019000641E01F8016BF9D113F0080F1EBF10F8AF
:1001A000014BAD1C0C1B09D16D1E58BF01F801CBD2
:1001B000FAD505E014F8016B01F8016B6D1EF9D555
:1001C0009142D6D37047000000230024002500266A
:1001D000103A28BF78C1FBD8520728BF30C148BFAA
:1001E0000B6070471FB51FBD10B510BD00F0A6F91C
:1001F0001146FFF7F7FF0AF048F800F0C4F903B41E
:10020000FFF7F2FF03BC09F077FF000009488047C1
:1002100009480047FEE7FEE7FEE7FEE7FEE7FEE7E8
:10022000FEE7FEE7FEE7FEE704480549054A064B00
:1002300070470000BD46000831010008D89A002030
:10024000D8A40020D89C0020D89C0020704740EA09
:10025000010310B59B070FD1042A0DD310C808C99C
:10026000121F9C42F8D020BA19BA884201D9012045
:1002700010BD4FF0FF3010BD1AB1D30703D0521C90
:1002800007E0002010BD10F8013B11F8014B1B1BCB
:1002900007D110F8013B11F8014B1B1B01D1921E35
:1002A000F1D1184610BD032A40F2308010F0030C43
:1002B00000F0158011F8013BBCF1020F624498BFB9
:1002C00011F801CB00F8013B38BF11F8013BA2F156
:1002D000040298BF00F801CB38BF00F8013B11F0D1
:1002E000030300F06780083AC0F0088051F8043B2F
:1002F000083A51F804CBA0E80810F5E7121D5CBFDE
:1003000051F8043B40F8043BAFF30080D20724BF10
:1003100011F8013B11F801CB48BF11F8012B24BFA4
:1003200000F8013B00F801CB48BF00F8012B7047F3
:10033000431A28BF9A427FF6B6AF032A10441144ED
:1003400040F2268010F0030F1EBF11F8013D521E2F
:1003500000F8013D10F0030F7FF4F6AF11F0030336
:1003600000F0A080083AC0F00B8051F8043D083A34
:1003700051F804CD40F8043D40F804CDFFF7F3BF39
:10038000121D5CBF51F8043D40F8043DAFF30080FE
:10039000D20724BF11F8013D11F801CD48BF11F873
:1003A000012C24BF00F8013D00F801CD48BF00F842
:1003B000012C704710B5203AC0F00B80B1E81850FE
:1003C000203AA0E81850B1E81850A0E81850BFF43F
:1003D000F5AF5FEA027C24BFB1E81850A0E81850DE
:1003E00044BF18C918C0BDE810405FEA827C24BF32
:1003F00051F8043B40F8043B08BF7047D20728BFC0
:1004000031F8023B48BF11F8012B28BF20F8023B0E
:1004100048BF00F8012B704702F0FF0343EA0322B4
:1004200042EA024200F06AB84FF0000200B51346FB
:1004300094469646203922BFA0E80C50A0E80C5004
:10044000B1F12001BFF4F7AF090728BFA0E80C50B5
:1004500048BF0CC05DF804EB890028BF40F8042BAE
:1004600008BF704748BF20F8022B11F0804F18BF1B
:1004700000F8012B70477047704770477047431A68
:1004800028BF9A427FF696AF104410F0030F114434
:100490001EBF11F8013D521E00F8013D10F0030F80
:1004A0007FF4F6AF103AC0F00A8010B531E9185069
:1004B000103A20E91850BFF4F9AFBDE810405307D7
:1004C00024BF31E9081020E9081044BF51F8043D69
:1004D00040F8043D12F0030F08BF7047D20728BF51
:1004E00031F8023D48BF11F8012C28BF20F8023D29
:1004F00048BF00F8012C70474FF000020429C0F0FB
:10050000128010F0030C3FF491AFCCF1040CBCF15D
:10051000020F18BF00F8012BA8BF20F8022BA1EB97
:100520000C01FFF783BF5FEAC17C24BF00F8012BF9
:1005300000F8012B48BF00F8012B7047754600F00A
:1005400029F8AE4605006946534620F00700854667
:1005500018B020B5FFF768FEBDE820404FF0000658
:100560004FF000074FF000084FF0000B21F007019B
:10057000AC46ACE8C009ACE8C009ACE8C009ACE8DE
:10058000C0098D4670470446AFF300802046FFF750
:1005900036FE000000487047789A002000BFFEE752
:1005A0007047000051B18200A2F1C042126842F0CF
:1005B00001038200A2F1C042136009E08200A2F1AF
:1005C000C0421268034B1A408300A3F1C0431A6073
:1005D00070470000FEFF0F00D0E901121143C2680E
:1005E0001143026911434269114382691143C2698F
:1005F0001143026A1143426A1143826A1143C26A7B
:100600001143026B114302689200A2F1C0421160D3
:10061000816808290BD101688900A1F1C0410968EE
:1006200041F0400201688900A1F1C0410A60416BBC
:100630000968426B526841EA0211426B926841EAD2
:100640000221426B928941EA0241426B128A41EADD
:100650000251426B127D41EA0261426B9269114381
:100660000268521C9200A2F1C0421160C16AB1F549
:10067000804F1BD1816B0968826B526841EA02117D
:10068000826B926841EA0221826B128A41EA02512E
:10069000826B127D41EA0261826B926911430268AA
:1006A0009200A2F1C042C2F8041107E06FF070425C
:1006B00001688900A1F1C041C1F804217047000020
:1006C0002DE9FF4F43F6FF740F46664283B09B4609
:1006D000814600210BE000BF09EB8100B0F9020068
:1006E000A04200DA0446B04200DD0646491CB94289
:1006F000F2DB67480068406900280DD0B0F90610A9
:100700001A46A1EB0B01B14200DA0E46B0F9020025
:10071000801AA04200DD0446B4E0DFF878A1002092
:100720000546CAF8000088E0781E854201DA6B1C95
:1007300000E0002309EB850C09EB8302BCF9020001
:10074000B2F90210A04244D1A14215D139F92330A7
:10075000059A39F9251003EB020C4D4A05981268E9
:10076000084404EB0B01526E6045136801DA6246DF
:100770002AE00246604627E02846A4464FF00008DB
:100780007A1E0BE008B1401E00E0781E09EB8003E2
:10079000B3F90230634504D108F101089045F1DB5B
:1007A0002346A34248D01A1B39F92500A1EB040CBB
:1007B000059B92EA0C0F09D4354A184404EB0B014F
:1007C0001268526E13680246984735E005F0DAFB6E
:1007D00032E0A14230D001DBA04203DDA0422BDB9E
:1007E000A14229DCE04688420ADC0346A04223DC21
:1007F0000846A14220DBB8F900C0B2F9001008E0B9
:100800000B46A14218DCA04216DBB2F900C0B8F9D1
:100810000010E21AA1EB0C0151430029A0EB0302E6
:1008200002DD01EB620102E0A1EB6201491CC01A8A
:1008300091FBF0F06044C9E76D1CBD42FFF674AF58
:100840000598009004EB0B000190002080460546BF
:1008500013E01149B8F1000F31F915A009D0009942
:1008600001EB0A0208440A490968496E0B680199BC
:10087000984788F0010850466D1C064909688D426A
:10088000E7DB641CB4427FF748AF07B0BDE8F08FE8
:100890004000002080000020F898002010B50020C3
:1008A00001F020FD6FF07F4001F01EFD012001F0FE
:1008B00055FD002001F05AFD002001F061FD0020EF
:1008C00001F01AFD0448006801F018FDBDE8104071
:1008D000002001F01FBD00003C0000202DE9F04188
:1008E000024600250026002000230024002791F85E
:1008F00003C00CF00F0591F803C00CF0100CBCF114
:10090000000F03D091F802C04CEA050591F800C031
:10091000BCF1000F31D0146800202BE04FF0010C27
:100920000CFA00F3B1F800C00CEA03069E4220D195
:1009300083004FF00F0C0CFA03F7BC4305FA03FCDD
:100940004CEA040491F803C0BCF1280F06D14FF023
:10095000010C0CFA00FCC2F814C00AE091F803C0C4
:10096000BCF1480F05D14FF0010C0CFA00FCC2F8A5
:1009700010C0401C0828D1D31460B1F800C0BCF1ED
:10098000FF0F34DD546800202EE000F1080C4FF01A
:10099000010808FA0CF3B1F800C00CEA03069E4205
:1009A00021D183004FF00F0C0CFA03F7BC4305FA7A
:1009B00003FC4CEA040491F803C0BCF1280F05D1F4
:1009C00000F1080C08FA0CF8C2F8148091F803C082
:1009D000BCF1480F07D100F1080C4FF0010808FAEC
:1009E0000CF8C2F81080401C0828CED35460BDE833
:1009F000F081416170470161704770B50C46054652
:100A000000F02CF9A8682168C16261680163A168DF
:100A10004163490707D5D0E90021C0E90012D0E9B8
:100A20000221C0E90212A18981842169002903D031
:100A300001DC4FF00001016270BD2DE9F0411E465E
:100A400017468846054600F009F9AC686822414619
:100A500004F58670FFF7AEFC2846B8472846B04735
:100A6000286980688047A062BDE8F08110B504461F
:100A700000F0F4F8A0681149144AC0F8AC1010490D
:100A8000C0F8A8100F49C0F8B0100F49C0F8B8104E
:100A90000021C0F8BC101368C0F8B4300C4BC0E99A
:100AA00032315168C0F8C41030F8261F21F003011C
:100AB00020F82A1B0749416410BD0000B5910008C9
:100AC000999500087D9100080F8C0008D80000203F
:100AD000A98D0008F590000810B5044600F0BEF896
:100AE000A46810481021C4F8E4000F48C4F8E800D6
:100AF0000E48C4F8EC000E48C4F8F0000D48C4F8E5
:100B0000A0000D48C4F8A400D4F8C400C4F8FC0048
:100B1000D4F89420204690471020A06307486064D2
:100B200010BD000015720008097C00089D0B00082C
:100B3000CD0C0008718B0008AD98000850D9000852
:100B400070B50C46054600F089F80D48AA6824B136
:100B5000012C06D0022C08D10DE00A4901600A4997
:100B600002E00A4901600A494160016842F8B41F85
:100B70004068106170BD074901600749F4E7000053
:100B8000D80000208F8B0008938C0008B78B0008DA
:100B9000DF8C0008D78B00081F8D0008F8B584682B
:100BA00015460F4694F8260080074CD5D4F800313E
:100BB000204698470646D4F804312A46394620464E
:100BC0009847D4F8983005461BB1002201212046F1
:100BD00098472069B04201DD012000E00020A169B2
:100BE000B14201DA012100E0002108436169A94214
:100BF00001DD012100E000210843E169A94201DA99
:100C0000012100E0002108430AD060680022401E54
:100C100000902368D4F8A870114620465B1EB847A0
:100C2000D4F8AC302A46314620469847D4F8A01074
:100C300020468847D4F8983005466BB10122002140
:100C40002046984708E0D4F8AC3020469847D4F8BE
:100C5000A0102046884705462846F8BD70B50446D2
:100C60008068002812D14FF4BA75284600F024FAA3
:100C70002A460021A06002F07FFBA0680221C18407
:100C80000121046401620249C0F8081170BD00002E
:100C9000950C000810B590B0044620220A49684619
:100CA000FFF788FB08492022203108A8FFF782FBC4
:100CB000606B5DF82010C4F8001108A951F82000FD
:100CC000C4F8040110B010BD48AD00082DE9F84388
:100CD00084689846154694F826000F46800740D54C
:100CE000D4F80031204698470646D4F804312A4605
:100CF00039462046984705462069B04201DD01206B
:100D000000E00020A169B14201DA012100E00021E8
:100D100008436169A94201DD012100E00021084387
:100D2000E169A94201DA012100E0002108430AD06B
:100D300060680022401E00902368D4F8A870114615
:100D400020465B1EB847D4F8AC302A4631462046D0
:100D50009847D4F8A42001B041462046BDE8F043AE
:100D60001047D4F8AC30F2E72DE9F04FDFF828B1A6
:100D700091B04FF0FF35DBF80030B3F92210069147
:100D8000DE69B3F924A0F469A189814206D8E28919
:100D9000824203D3471AD4F8008012E0D4E90181DB
:100DA000002970D00A8882426DD84D8885426AD366
:100DB000801A82B2486800EB8200B0F90070B0F986
:100DC0000250781C5FD0307EA27C014600FB02F905
:100DD000207CCDE90710B3F92A60304602F09EFF6F
:100DE000C0B20E90DBF8001007FB0980A37C8A6B71
:100DF0000127CDE90402CDE90273C869089AC17ED2
:100E0000807ECDE90001DDE90603514602F010FBCA
:100E1000681C18D046F0020002F080FFDBF80000EA
:100E2000A37C05FB0981826BCDE90273CDE9041235
:100E3000C069089AC17E807ECDE90001DDE9060324
:100E4000514602F0F5FADBF800005D46C069417ECC
:100E5000007E814214D9022E12D086F0040002F0E6
:100E60005DFF2868C069027EC37E857E02FB03A108
:100E7000437E089A0698534402FB050202F06CFC7C
:100E80000E9802F04BFFDBF80000627C418C1144AD
:100E9000418411B0BDE8F08F400000200448006894
:100EA000C069C06909B1027C0A60407C70470000DB
:100EB00040000020022008807047C06982898A4271
:100EC00002D8C2898A4210D2806880B102888A42E0
:100ED0000DD843888B420AD3406800EB8100A0EB19
:100EE0008200B0F90000002801DB012070470020DB
:100EF000704700002DE9F0432F4C034687B020686F
:100F00001946B0F92A80C069C06900F082F800284B
:100F10004ED041680088181A01EBC0054046AE78F3
:100F200002F0FCFE814620686A680123816BCDE9EE
:100F30000236CDE90421C169CB7E8A7ECDE900234A
:100F40000B7EB0F924102A78B0F9220002F070FA72
:100F50002068C069477E067EB7421DD9C07E4743E0
:100F60004643B8F1020F17D000F038FC804600F07D
:100F70001DFC01F0B9F921682A78CB69B1F922008A
:100F8000B1F92410DB7E02FB0302CB19314402F0DD
:100F9000E3FB404601F0A8F9484602F0BFFE206896
:100FA0006A78C369B0F922109B7E02FB0311418469
:100FB00007B0BDE8F08300004000002030B50E4CC3
:100FC00005460B4620682946C069C06900F021F833
:100FD000002810D04168008824682A1A0120E4699A
:100FE00000EBC200085CA47E6043002B03D011F824
:100FF00032106143196030BD40000020012008809C
:10100000704700B5C06900F004F8002800D0012046
:1010100000BD06E002888A4202D842888A4202D293
:1010200080680028F6D17047002801D005F002B88A
:10103000704738B50546FFF7F7FF040009D000F008
:10104000B3F82A460021009002F096F9684600F0B5
:10105000DBF8204638BD0000024A106021F0030092
:10106000506070477C98002010B5002814D00446CA
:101070000A48006B10F8341000290DD002290BD259
:10108000042101EBC4014158486804F097FF204651
:10109000BDE8104007F058BD10BD0000C09700200B
:1010A000002805D0034A916B016001B1486090634C
:1010B00070470000C09700202DE9F041044607F07A
:1010C00015FB2848E41C24F00305C16B2D1DA94223
:1010D00000D90D46846B13E054F8042CAA420ED1BB
:1010E00084B1216809B162684A60616809B1226807
:1010F0000A60826BA24231D1216881632EE02468AC
:10110000002CE9D18046416B80680F1857F8040C19
:101110003E1A306838B1002007F0C0FE57F8040CC2
:101120003E1A3068D0B97068A84217DB3044441BBF
:101130003046241D07F06AFED8F80810491BC8F88D
:101140000810D8F810102944C8F810107068401B17
:1011500002D0314604F032FF44F8045C2046BDE87A
:10116000F0810000C097002010B5002407F0BEFAFF
:101170000C490F2001EBC002126C1AB101EBC00048
:10118000006C08E0401EF5D508E04168A14200D996
:101190000C46806810B180680028F6D1A4F10C00DC
:1011A00010BD0000C097002005498A69521C8A6161
:1011B000096B01EBC0010A78521C0A7000F03CB8C0
:1011C000C097002010B5FFF7CFFF64220649B0F5A5
:1011D000800F04D990FBF2F0C969484310BDC9697A
:1011E0004143B1FBF2F010BDC09700200549102823
:1011F00005D94A68B0EB520F02D3500800E0102026
:10120000886070477C9800200A4902680B6B52F88E
:10121000082C03EBC2021378022B03D38B690BB1AA
:101220005B1E8B611178491E117000210160084618
:1012300070470000C0970020002806D00349042210
:1012400002EBC000096B085808307047C0970020B7
:1012500070B506460D461446104600F0C7FA030066
:10126000164804EB84010AD050F8210041688068D8
:10127000711A2A1ABDE87040184601F049B800EB0F
:101280008104A268B24201D0012200E00022E3689A
:10129000AB4201D0012300E000231A430CD02369A4
:1012A00043B150F82100816840686A1A311A184623
:1012B00000F0EEFFC4E9026570BD0000E499002073
:1012C00010B5C2B2CBB2D21A00D5524293B25B4330
:1012D000C0F30722C1F30724121B00D55242000CB1
:1012E00092B2A0EB114002FB023200B2002801DAF8
:1012F000404200B280B200FB002010BD10B50021BA
:10130000084600F0BBFA43F6FF725042BDE81040B9
:1013100013460146AFF300802DE9FC4107461C4609
:1013200015460E46042002F0F9FC80461148C068BC
:10133000C16C006D0F4406440D440444ADF80070C8
:10134000ADF80450ADF80260ADF80640684604F010
:10135000BDF907E023462A463146384602F0FCF93B
:1013600004F076F90028F5D1404602F0D7FCBDE83C
:10137000FC810000340000202DE9F0411C46164697
:101380000D460746022B02DB0020BDE8F0811C2041
:10139000FFF792FE0028F8D00DB105610AE0094A76
:1013A00052F8241009B905E011460A68002AFBD159
:1013B0000969016184618682002101604160C0E9A0
:1013C0000217E2E75800002070B51D46FFF7D4FF72
:1013D000040009D000F00EF8E068006820B9034866
:1013E000006800EB85008465204670BD4000002049
:1013F000FFF756BE70B590B38269022A30DA1E4CF0
:1014000054F8221019B944F8220032E019464B680A
:10141000002BFBD106E0CB68C5681B682D68AB428A
:1014200003DD09680029F6D11AE0C1B1CB68C668AE
:101430001B683668B3420CD1838A012B05D008E0C3
:101440001946DB681B68AB4203DB0B68002BF7D146
:1014500029B14B6833B118604A68426004E0FFE785
:10146000012070BD44F822004860884200D100216C
:101470000160002070BD00005800002008F0FEB997
:10148000022801DB00207047054951F8200004E0E4
:10149000C16809680029F6D000680028F8D17047B3
:1014A0005800002070B5044601F002FA051908E062
:1014B00000F0B0F8052C01DD052000E0204601F029
:1014C000E9F901F0F5F92C1A002CF1DC70BD0000EF
:1014D0002DE9FC4706005BD000F092F93B4C8146B9
:1014E0002068B0F9228000F0A1F9216807468A8CB3
:1014F000D01B888441E000BF47F6FF71304601F001
:10150000B9FD82460146304601F08AFD2168054654
:1015100091F82C0000F0030001283FD0022839D0B8
:1015200000204A8C101A4884ADF800006A1E10444E
:10153000ADF80400888CADF80200A9F1010108445F
:10154000ADF806006A465146304601F039FB216885
:10155000BDF8020088845146304601F07BF806440D
:1015600030780A281CD00D281AD0BDF80000216858
:1015700028444884307818B1761C30780028BBD1D4
:101580002068818C39448184818D21F0030181851B
:10159000BDE8FC8705EBD5704010C2E72846C0E7E0
:1015A000206890F82C1001F0030101290BD00229CA
:1015B00009D0018C418431780A29DBD1828C02EB7D
:1015C00009018184D6E7A0F82280F4E740000020DA
:1015D000024B1B6859849A84FFF77ABF40000020B1
:1015E0002DE9F04107460A4815460E460068B0F955
:1015F0002C0040F0020000F0B9FE04462A463146B5
:101600003846FFF7E5FF2046BDE8F04100F0AEBEEA
:101610004000002010B5002400E0012400F004F890
:101620000028FAD1204610BD064810B500680024F5
:1016300010B1804700B1012403F048FB00B1012440
:10164000204610BD600000202DE9FC47164C814665
:1016500088462068C16C006D8E18C518002004F003
:1016600035F800281ED0114F20681121407C57F812
:1016700020000190C068426A01A890475FEA000C10
:1016800006D033464246494600950198E04705E0BA
:101690002B46324641464846FFF712F803F0D8FF82
:1016A0000028E1D1BDE8FC87400000205800002060
:1016B0002DE9FC410F4C2568EC6C2718286DA51806
:1016C0004618C418ADF80070ADF80450ADF80260CB
:1016D000ADF80640684603F0F9FF07E023462A46C6
:1016E0003146384602F038F803F0B2FF0028F5D151
:1016F000BDE8FC814000002008B50B46002805D05D
:10170000009281888268C08800F001F808BD10B599
:101710000828029C30D008DC04FB01F401280AD020
:10172000022813D0042804D11CE0102828D0202837
:101730002CD0002010BD04EBD30003F00701105C97
:10174000C1F10701C84000F0010010BD04EB930097
:101750000621105C01EA4301C1F10601C84000F016
:10176000030010BD04EB5300D907105C02D000F059
:101770000F0010BD000910BD04FB0130105C10BD4E
:10178000481004FB003032F8100010BD881004FB34
:10179000003052F8200010BD034951F82000C16804
:1017A0008A6A0821104700005800002010B502F096
:1017B0006DF8BDE8104002F003B900000249096865
:1017C000C9694A680021104740000020024A126897
:1017D000D2695268104700004000002010B502F0A6
:1017E0005DF8BDE8104002F0EBB8000000210228CF
:1017F00002D2024951F8201008467047D401002057
:1018000002480068C069407E704700004000002028
:1018100070B514460D4602F075F8002802D000207D
:101820002860206070BD01F041BC00000A49002022
:10183000096891F82C2002F00C02042A07D0082A2B
:1018400001D00C2A02D1C869007E40087047C869DF
:10185000007E401E7047000040000020024951F801
:10186000200000690068704758000020024951F8C4
:1018700020000069406870475800002070B50D4690
:1018800006F08CFE0446284606F090FE204370BD0C
:10189000124810B5016821F00101016010480121D2
:1018A00081601049016000680F49884200D0FEE75E
:1018B00001F066F90D492E20087000F0FFFF0C487A
:1018C00006F0DCFE08F098FC04460021084600F013
:1018D00029FD03F01FFC204610BD0000002000E0A1
:1018E00000300240C2A507F4CDB5E8B534000020B1
:1018F000889800201CB520B90C480068006E0028AC
:1019000012D0FFF751FC009044696846FFF77CFC59
:10191000002C09D02046FFF747FC019081688968B8
:10192000884701A8FFF770FC1CBD000040000020A4
:1019300001490A4600F002B801F0FFFF2DE9F0432B
:1019400087B015460C465FEA000842D0002000F040
:10195000D3FC814620480068066E4046FFF724FC11
:1019600000900068806900F0ABFC074640F6FF700D
:10197000001904D10098B0F90440B0F9065000985D
:10198000611E0289ADF804401144ADF80810418988
:10199000681E0844ADF80650ADF80A0003F00AF8D6
:1019A0006846FFF731FC01A803F090FE06E02A46E6
:1019B0002146404600F036FB03F04AFE0028F6D1EF
:1019C000384600F07DFC304600F052F9484600F001
:1019D00093FC07B0BDE8F083400000202DE9FE4FE6
:1019E000834619488A46194900680C9E9846407CEF
:1019F0009146002751F82040E1680968042903D086
:101A00002468002CF8D100E014B9FFF739FD044632
:101A10000121E068C26A20469047050011D0246980
:101A2000A0688047401C02D1094C46F00106009690
:101A3000CDE9015443464A465146584600F09CF9C8
:101A400007463846BDE8FE8F4000002058000020C1
:101A50008CDE000838B5040018D00D480068006E10
:101A6000A04201D100F022FC2046FFF79DFB009030
:101A7000406908B100F0E5FE00980068FFF7B8FC87
:101A80006846FFF7C1FB2046FFF7EEFA38BD0000BD
:101A9000400000202DE9FF4F0746464883B0994695
:101AA0000068DDF840B08A46447C4348005701286E
:101AB000204606DD01F04EFF8046204601F056FF2D
:101AC00005E001F035FF8046204601F037FF04466F
:101AD00017B302A901A8FFF7A6FEB7F90060002E10
:101AE00000DA0026B7F90250002D00DA002501992E
:101AF000B7F904004144491E06F0BDFE8046029835
:101B00000119B7F90600491E06F0B5FEA8EB06025A
:101B1000441B521C641C02E0002635464246B9F1C3
:101B2000000F01D1C4F10009002A01DD002C03DC03
:101B3000002007B0BDE8F08F4B4629463046CDF86F
:101B400000B0FFF74BFF5FEA000909D000F056F83C
:101B50008046484600F08CF80027DFF860B01FE0B0
:101B60005146059888470120E3E7E11B414502DA29
:101B7000484600F067F83FB1EA193146484600F0A0
:101B800099F84846FFF7B6FE514605988847DBF8B6
:101B9000001009B1002088474846FFF7C9FE4744B6
:101BA000A742E2DB4846FFF755FF002000F060F84F
:101BB000BEE700004000002074000020E400002088
:101BC00038B5002460B1FFF7EFFA009000680069B3
:101BD0008068804702F076FA04466846FFF714FBF7
:101BE000204638BD38B5FFF7DFFA00F11804009041
:101BF0006846FFF709FB204638BD000038B50024D1
:101C000018B907480068006E38B1FFF7CDFA0090A8
:101C1000B0F90A406846FFF7F7FA204638BD0000E1
:101C20004000002070B505460024284604F05AFB09
:101C3000641C18B1BDE8704000F068B8052CF4DBF6
:101C400070BD000038B50C4620B908480068006E29
:101C500000280AD0FFF7A8FA0090B0F90A10A142B4
:101C600000DD44816846FFF7CFFA38BD4000002010
:101C7000F8B50F4E05003068046E16D00CB100F0B8
:101C800015FB02F083FF2846FFF78EFA00903168BB
:101C90000D660068FFF7AEFB6846FFF7B5FA02F085
:101CA0009BF802F01BF82046F8BD00F0FFFAFAE7B7
:101CB000400000207CB515460C4620B9124800684B
:101CC000006E00281FD0FFF76FFA2DB20090C5807C
:101CD00024B2848002F002F80098406980B1FFF7D6
:101CE00063FA009A0190B2F908108180B2F90A20D3
:101CF000C28011B10AB10480458001A8FFF784FABF
:101D00006846FFF781FA7CBD4000002001490A4681
:101D100000F002B801F0FFFF7FB515460C46060043
:101D200028D0FFF741FA40F6FF710190091903D15D
:101D3000B0F90440B0F906500289611E1144ADF8B3
:101D40000840ADF80C104189681E0844ADF80E003B
:101D5000ADF80A5001A8FFF757FA02A803F0B6FC45
:101D600006E02A462146304600F044F903F070FCB4
:101D70000028F6D17FBD00002DE9FF4FDFF8E0B06D
:101D800083B01C46DBF80010DDE9106092460027A6
:101D90004B7C3A461299FFF7EFFA05005DD02869AF
:101DA0008068804702F08EF981460AFB09F0C01D69
:101DB0004FEAD008FFF706FAF10705D1C11700EB8B
:101DC0009170801000EB4000002C06DC1838B0FB4E
:101DD000F8F06442A04200DC0446F00707D100900E
:101DE000DDE903012346524600F0B4FC0746002C0F
:101DF00003DC2846FFF7FCFA2FE004FB08F018305C
:101E0000F10702D0FFF710F901E0FFF712F9060021
:101E10001CD0FFF7C9F901900560039981800499EE
:101E2000C180A0F808A04481C0F80C80C0E90497E4
:101E300001A8FFF7E9F91298AE602861DBF800000D
:101E4000407CA861304607B0BDE8F08F2846FFF718
:101E5000CFFA17B13846FFF707F90020F3E7000083
:101E6000400000202DE9F74F8EB0144689460E98A9
:101E7000FFF79AF90990B0F908B0B0F90A60006864
:101E8000006940680C9009A8FFF7BEF9564D574FFE
:101E90002868407C57F82000C1688A6A082190476A
:101EA0000790182801D3202007902868407C57F815
:101EB00020000069069003C80B904D48814201D074
:101EC000012000E000200A90002000F0F8FC00282B
:101ED0007DD1286809EB0B01B0F90C20891A491E45
:101EE000002902DDABEB010500E05D46B0F908100A
:101EF000494505DDA1EB090189446D1A089101E00E
:101F000000210891002D6BDDB0F90E20A119891A6E
:101F1000491E002902DDA6EB010800E0B046B0F939
:101F20000A00A04204DD061B3444A8EB060800E0CA
:101F30000026B8F1000F53DD089801900DA95F4607
:101F4000DDF830A00E980091FFF74CFE774300EBD0
:101F5000870101982B4601EB800200994846CDE9A4
:101F600000A1214600F084FE0090002838D00A9895
:101F7000E8B1DDE906322946009800F04FFDB0B91E
:101F80000698009FDA46D0F810C0BCF1000F05D0CB
:101F900004235A4639463846E04708E00B9938682A
:101FA000884701C7AAF101005FEA000AF6D100994B
:101FB0000020079ACDE90301059001200090CDE9AA
:101FC000010221460346641C2A46484600E007E019
:101FD00001F02EFAA8F10100761C5FEA0008ABD1EF
:101FE00011B0BDE8F08F0000400000205800002034
:101FF000DF390008F8B515460E460746FFF7D4F856
:10200000009000681621C068426A0020904704468C
:102010006846FFF7F9F8002C03D02A4631463846C7
:10202000A047F8BDF8B515460E460746FFF7BCF8C1
:10203000009044696846FFF7E7F83846FFF7C0FDAF
:102040000346082800DD2CB12A463146384607F001
:1020500043FCF8BD2A463146384607F0DDFDF8BDA1
:1020600010B5002821D009B30AB3B1F90040B2F984
:1020700000309C4200DA23460380B1F90240B2F9F5
:1020800002309C4200DA23464380B1F90440B2F9A1
:1020900004309C4200DD23468380B1F90610B2F97A
:1020A0000620914200DC1146C18010BD11460A682D
:1020B00002604968416010BD00280BD003880B44C2
:1020C0000380838819448180418811444180C188FC
:1020D0001144C1807047000070B50E4D0446D5E92B
:1020E0000001884209D10C49884201D13C3000E00E
:1020F0000C3807C884E8070006E090E80E0084E882
:102100000E0006F069FA2860207A002800D001202D
:1021100070BD0000000200200C9A00200448D0E9A5
:102120000010814201D1012070470020704700005B
:1021300000020020054A10B50349116007F0BCFAFF
:10214000BDE8104000F026B9A54D0008640000204D
:1021500070B5094C0020D4E900218A420AD0D2E9A6
:102160000056104606F042FA20603146284603F039
:10217000B5F8012070BD0000C80100202DE9FC4128
:10218000154DDDE908742D68B5F90860864200DD5B
:102190003046B5F90C60964200DA3246824219DBCD
:1021A000B5F90A608E4200DD3146B5F90E509D4208
:1021B00000DA2B468B420DDB00E02C46E5682D68EB
:1021C00025B1042D02D02568002DF6D1CDE900748B
:1021D00001F06EFCBDE8FC8140000020B0F9022057
:1021E000B1F906309A4213DCB1F90220B0F9063099
:1021F0009A420DDCB0F90020B1F904309A4207DCB4
:10220000B1F90010B0F90400814201DC01207047EF
:10221000002070470146024870220068FEF7CAB8E5
:10222000400000202DE9F0410D4606469046164933
:10223000184608F073FC154908F092FB08F052FCB0
:10224000074600F0B7FC0446384601F05BF802464A
:10225000002014E005EB800335F92010B3F90230BB
:1022600001FB04F703FB0277634301FB12313F14C8
:1022700026F82070091406EB8003401C5980404565
:10228000E8DBBDE8F081000000C82F48DA0F4940C4
:10229000002801D007F032B87047000002497022D0
:1022A0000968FEF787B800004000002010B501F073
:1022B000CBFC01F091FDBDE8104002F07BBB0000BB
:1022C00070B504460548022C0068457C02D244746F
:1022D000FFF7ECFF02480460284670BD4000002074
:1022E0002C01002001F0D0BC01F006BD014988603E
:1022F000704700003400002001F010BD0349096858
:10230000CA6900B1C8611046704700004000002053
:1023100001F020BD024909688A7E88761046704720
:1023200040000020094A30B41080094A1180094A4F
:102330001268537C084A52F82330DA68146A0A4655
:10234000A446014630BC1846604700007C000020CF
:102350007E0000204000002058000020024909684B
:102360000A7E08761046704740000020034909683D
:10237000B1F92C20888510467047000040000020ED
:1023800003490968B1F92A204885104670470000C2
:102390004000002002480068002800D00047704735
:1023A000DC01002002498A6802B98860FFF7F2BFA9
:1023B000C801002010B5040009D006F041FD2046F8
:1023C00007F034FA2046BDE81040FEF74DBE10BDC0
:1023D00038B50C4660B1FEF7E7FE009080892042D8
:1023E00001D0012400E000246846FEF70DFF00E064
:1023F0000124204638BD000038B50546002028607D
:102400000648046844B12046FEF7CEFE00900069FD
:1024100028606846FEF7F8FE204638BD0802002016
:1024200038B504004FF000000D46086011D020467A
:10243000FEF7BAFE0090846844B16846FEF7E4FEF9
:102440002046FEF7B1FE0090006928606846FEF75E
:10245000DBFE204638BD00002DE9F0474D4D4E4EC5
:102460000024E86950B9686834607460B46010F0A2
:10247000060FF46006F056FE0120E8612878C8B126
:1024800000F0CEF8A846286100F0C8F82969286A4B
:1024900081420BDBD8F824204046914206DC836A57
:1024A00042699A4202DBC36A9A420DDD4FF0FF3067
:1024B00001466AE000F0B6F8686100F0B0F82878EC
:1024C000401C2870BDE8F087326898F81800334F38
:1024D0008D1A40073868407C02D401F03BFA01E0D5
:1024E00001F044FA401E4543D6E90020B146801A67
:1024F00095FBF0F6D8F81420D9F8081098F81800D1
:10250000551A40073868407C02D401F02FFA01E0E8
:1025100001F020FA401E4543D9E90201081A95FB53
:10252000F0F598F8180040073868407C17D401F09F
:1025300011FA81463868407C01F018FAD8F8182062
:102540000146D00703D0A9EB0600401E00E030464C
:10255000920702D5491B491E17E0294615E001F0F4
:1025600005FA81463868407C01F0F4F9D8F8182063
:10257000D10703D0A9EB0601491E00E031469207BE
:1025800002D5401B401E00E0284607F0C1F888F83D
:10259000004097E7840000201099002040000020B0
:1025A000074A002806DB002904DB01231372C2E975
:1025B000000101E000201072014800F003B80000A3
:1025C0009099002010B504460C220849FDF73FFE03
:1025D000002809D0054894E80E0080E80E00204647
:1025E000BDE81040FFF7A6BD10BD0000549A0020C2
:1025F000094B30B41A68821A00D552425C680C1B31
:1026000000D564422244022A04DDC3E9000130BC43
:10261000FFF7C6BF30BC7047080100207047704705
:1026200000207047002070472DE9F041084E044615
:102630000568306801682846884707463068416861
:1026400028468847284420603846BDE8F0810000CD
:10265000440000202DE9F0410C4606460025064FB7
:1026600005E0386841683046884706440544641EE2
:10267000F7D22846BDE8F081440000202DE9F04162
:102680001E46069C1746884605463A46A8687F1CA3
:102690003346D0F804C041462846E047641EF4D1D2
:1026A000BDE8F08170B5B0F90040091BB0F90440F5
:1026B0008C422CDD00F11404B0F902500069521B69
:1026C00002FB0040CA1800EBE104521ED010B0EB30
:1026D000E10501F007034FF0FF0102F0070221FAC4
:1026E00003F0C2F1070201FA02F1CEB221780FD055
:1026F00001436D1E04F8011B002D05DDFF22294654
:102700002046FDF789FE2C4420783043207070BDB0
:1027100030400143217070BD10B5B0F90030B0F900
:102720000240C91A00F114030069121B02FB0030B9
:1027300000EBE10001F0070302788021D9400A4351
:10274000027010BDB0F90610026951431430FDF754
:102750006BBE00002DE9F843804602F10F00001126
:10276000470003FB07F01C46154689461430FEF768
:1027700060FC060013D0FEF717FD0090A0F8008063
:10278000A0F802908580C480064981600121818182
:1027900007616846FEF738FD3046BDE8F883002043
:1027A000FBE70000A4DE000870B5B0F90660B0F9E0
:1027B00004400B6800F1140596421BDD0069A3423A
:1027C00002FB005000EBE30214DA641EE010A0EB01
:1027D000E30512F8010B03F00704A040C4B206E0C1
:1027E00045B1083312F8014B23F007036D1E002C8E
:1027F000F6D004E0002070BD6006040E5B1C2006CD
:10280000FAD5FF2C07D0184602E06406240E401CBF
:102810006606FAD400E0D81DC443640705D006E07C
:1028200012F8014BFF2C09D108306D1EF8D5C01AE3
:10283000401C0B6070BD6206140E401C2206FAD4C8
:10284000F5E738B50546FEF7AFFC00908189491ED3
:102850000CB284816846FEF7D7FC002C02D12846D2
:10286000FEF702FC38BD000010B54FF40C4100200B
:1028700007F0B8FD04464FF40C412046FEF7ECFB90
:102880008020FEF7B3FC0248FFF730FD10BD0000CA
:102890007CB40008044A1268111800BF024A12688A
:1028A0008A1A002AFADC70470C00002070470000EA
:1028B00001480068704700000C00002070470EB50A
:1028C00008B102AA00E00022002301A9684600F036
:1028D00059FB0EBD074910B5CC6818B10120C8607E
:1028E000801E03E00020C8606FF07F4000F08AFD8A
:1028F000204610BDE800002010B5082A0EDC034673
:10290000012A18D0022A56D0042A76D010F8042BB7
:1029100003F8012B491EF9D1012010BD102A08DC53
:102920004FEA000230F8043B22F8023B491EF9D17D
:10293000F2E7002010BD10F8042BD207120E491E3A
:1029400034D010F8044B491E04F0010442EA84120A
:102950002CD010F8044B491E04F0010442EA441242
:1029600024D010F8044B491E04F0010442EA04127A
:102970001CD010F8044B491E04F0010442EAC402C2
:1029800014D010F8044B491E04F0010442EA8402FA
:102990000CD010F8044B491E04F0010442EA440232
:1029A00004D010F8044B04F00104224303F8012B77
:1029B0000029C0D1B0E710F8042B9207120E491E6F
:1029C00015D010F8044B491E04F0030442EA041227
:1029D0000DD010F8044B491E04F0030442EA8402AF
:1029E00005D010F8044B04F003042243491E03F8F9
:1029F000012B0029DFD18FE7FFE710F8042B120726
:102A0000120E491E05D010F8044B04F00F042243A7
:102A1000491E03F8012B0029EFD17DE72DE9F04194
:102A20001E680D460446082A09DC0746012A1AD00A
:102A3000022A5BD0042A7DD0082A13D18DE0102A07
:102A400007DCD3F810C00746BCF1000F04D0022306
:102A500089E00020BDE8F08101CCB04727F8020BE7
:102A60006D1EF9D18AE001CCB047C0074FEA10686B
:102A70006D1E36D001CCB04748EA801000F0FF0848
:102A80006D1E2ED001CCB04748EA401000F0FF0880
:102A90006D1E26D001CCB04748EA001000F0FF08B8
:102AA0006D1E1ED001CCB04748EAC00000F0FF0800
:102AB0006D1E16D001CCB04748EA800000F0FF0838
:102AC0006D1E0ED001CCB04748EA400000F0FF0870
:102AD0006D1E06D001CCB04740EA080000F0FF08A8
:102AE0006D1E07F8018B002DBDD147E001CCB0472A
:102AF00080074FEA10686D1E16D001CCB04748EA37
:102B0000001000F0FF086D1E0ED001CCB04748EA5F
:102B1000800000F0FF086D1E06D001CCB04740EAEF
:102B2000080000F0FF086D1E07F8018B002DDDD1B5
:102B300024E0FFE701CCB04700074FEA10686D1EA4
:102B400006D001CCB04740EA080000F0FF086D1E37
:102B500007F8018B002DEDD110E0D3F810C0BCF1C7
:102B6000000F05D001230A4601463846E04705E03C
:102B700001CCB04707F8010B6D1EF9D1012069E7C0
:102B80000A4810B5816900290ED101218161FFF742
:102B90006BFE01F033F9054905481C310860BDE8BA
:102BA0001040084600F0A6BB10BD00003400002015
:102BB000218900080149084400F0A4BB905F01008E
:102BC0007CB5064628480D46006868B1002002F032
:102BD0007DFD06E06A462946304603F0F1FC02F02E
:102BE00037FD0028F6D17CBD106800901F4C50685E
:102BF00001902268BDF8000032F84C1F0844ADF87F
:102C00000000BDF8020091880844ADF80200BDF84C
:102C1000040011880844ADF80400BDF8060091884E
:102C20000844ADF80600684602F050FD0EE000BF13
:102C30002068BDF800106A464184BDF80210818406
:102C40002946304603F0BCFC02F002FD0028EFD11B
:102C5000206830F8221F428D891A01804188C28D78
:102C6000891A41807CBD00007800002040000020CF
:102C70002DE9FF4F8DB00020DDF86CA016460090C6
:102C80001D4604460246CAF8000008AB03A902A884
:102C900000F078F918B1002011B0BDE8F08F089865
:102CA000854200DD0546614F0B9561493868407CDF
:102CB00051F82010049109690691FEF76DFD059009
:102CC0003868407CFEF7D2FD5A498146884204D0DC
:102CD0005949894501D0012000E000200A9001CE29
:102CE0001A9988478346000E079077D0009870BBEA
:102CF0000D9800EB04084D480068B0F90800404505
:102D000003DDA0EB0807804600E000270298049945
:102D100000EB840000EB8700CDE900010B990D98D2
:102D2000421809920E9B40461946521EFFF726FA9A
:102D300001200090059818280ADA0298DDE9052399
:102D400000EB840000EB8700E91B00F079F812E04B
:102D50000A9880B1029800EB840000EB870709987D
:102D6000A0EB080849463868884701C7A8F1010068
:102D70005FEA0008F6D13148C06980B3DDE9020797
:102D800000EB840007EB8402CDE902022B4C361FD6
:102D90003046E4692B460299A047FF213068B1EB29
:102DA000106F02D10298006804E0029A1268B1EB39
:102DB000126F01D1039A1060029806F10406001DFB
:102DC00002900398001D03906D1EE7D10397DAF877
:102DD000000040F00101CAF8001020E021E0FFE708
:102DE0000798FF2811D0C0F1FF02029850F8241074
:102DF000584600F027FA039941F82400DAF8000059
:102E000040F00101CAF8001005E00298039950F85B
:102E1000240041F82400641C6D1E7FF460AF039809
:102E20003AE7039941F824B0E8E7000040000020A9
:102E300058000020DF390008DD3900088801002033
:102E40002DE9F05F0C1E16DD5E68014600EB84057F
:102E5000082A12DC611E012A26D0022A47D0042A41
:102E60006AD0082A07D1071917F8010DB04745F8AD
:102E7000040D641EF8D1BDE8F09F102AFBDC5F69E9
:102E80003FB12246BC46BDE8F04F02235DF804EB9B
:102E9000604701EB440700BF37F8020DB04745F823
:102EA000040D641EF8D1E6E700EBE10001F007072E
:102EB00010F801A98146802020FA07F8B5F1040531
:102EC0000AEA0800C7F10701C840B04745F80409FD
:102ED0003FB14FEA48604FEA10687F1E641EEFD191
:102EE000C9E719F801A907274FF00108F6E700EB39
:102EF000A10001F0030710F801A981467900C02064
:102F000020FA01F84FF0060BB5F104050AEA0800B3
:102F1000ABEB4701C840B04745F804093FB14FEA61
:102F200088604FEA10687F1E641EEFD1A3E7032775
:102F300019F801A9B846F7E700EB6100012710F87E
:102F400001A9A7438146B900F02020FA01F84FF00B
:102F5000040B2D1F0AEA0800ABEB8701C840B047FD
:102F600045F804093FB14FEA08704FEA10687F1E28
:102F7000641EEFD17FE719F801A901274FF00F0870
:102F8000F6E700002DE9F047224C06461F46A069EF
:102F900090468946002540B90120A06104F1200136
:102FA0001D480860084600F0A5F9606930B91B4863
:102FB0000068606110B900F0BEFC606107B1386064
:102FC0004EB1A06830B960698000FEF775F8A06066
:102FD00000B901253060B9F1000F0AD0E06830B9BE
:102FE00060698000FEF768F8E06000B90125C9F863
:102FF0000000B8F1000F0AD0206930B96069800084
:10300000FEF75AF8206100B90125C8F800002846EB
:10301000BDE8F08788010020958900086C00002039
:1030200073B5124A01A900981268904700240090D5
:10303000C8B10F4900250968C969496959B10A68C9
:103040004AB1019990477CBD6846FFF7EDFA054605
:10305000FEF7B4FB04440198401E0190F4D52846C5
:1030600000F032F8044420467CBD0000C40100207A
:103070004000002073B50D460098002490B10A4925
:103080000968C969496959B14A684AB129469047EE
:103090007CBD6846FFF7C8FA20B10A2802D0641C3C
:1030A000AC42F6DB20467CBD40000020044AB2F969
:1030B000002002600348B0F900000860704700007B
:1030C0007C0000207E00002038B500246946009472
:1030D000FEF77CFB0099814200DD0C1A204638BDCA
:1030E000B0F90030B1F90020934200DA0280B0F963
:1030F0000230B1F90220934200DA4280B0F9043084
:10310000B1F90420934200DD8280B0F90620B1F9C4
:1031100006108A4200DDC180704770B5B1F90040E9
:10312000B2F900309C4200DD23460380B1F9025021
:10313000B2F90240A54200DD2C464480B1F904609A
:10314000B2F90450AE4200DA35468580B1F9061076
:10315000B2F90620914200DB1146C1809D4201DB9D
:10316000A14201DA002070BD012070BD0146024875
:103170000068407C00F002B8400000202DE9F843D0
:10318000012604468946022857DADFF8B480080091
:1031900008F1040530D0012802D002294DD116E0F3
:1031A00055F8240088B92046FEF76AF9009010B35C
:1031B000C0680D21426A6846904702003DD04946EA
:1031C0000098904755F824000026401C33E0204624
:1031D000FEF756F9009070B1C0680D21426A68464A
:1031E0009047040029D0D8F8000000B18047494634
:1031F0000098A047002620E055F82400012813D1AC
:103200002046FEF73DF9009070B1C0680D21426A7A
:1032100068469047070007D0D8F8000000B1804703
:1032200049460098B847002655F8240008B1012106
:1032300000E00021401A45F824003046BDE8F8833C
:10324000B001002070B5FF23B3EB116F29D0C3B2DA
:1032500000F47F4500F47F04060E53435543544366
:103260005643C2F1FF00CAB202FB003201F47F43B1
:1032700003FB005301F47F0505FB0044090E01FB2D
:103280000065C2F307204FF47F4101EA13220902CF
:1032900001EA14214FF07F43104303EA054308433A
:1032A000184370BD2DE9F04F0646DDE90CB915460F
:1032B0000C4600208046584519D20B9F4FF0FF0A5C
:1032C00001CE08CCAAEB106202FB09F2B2FBFAF1C4
:1032D000CAB21946FFF7B6FF20F07F4001C57F1E36
:1032E000EED1099804EB800408F10100E2E7BDE8A3
:1032F000F08F000002494A6942604861704700004F
:103300003400002030B5002803DA4FF0FF3240428D
:1033100000E00122154990FBF1F301FB1300491075
:10332000884202DD52424B421844114B984200DD64
:10333000081A4FF47A7390FBF3F16FF07C044C435E
:1033400000EBC4005A2902DB4FF480300AE0094C3C
:1033500004EB810554F821106D686C1A4443B4FBEA
:10336000F3F00844002A00DC404230BD407E0500F6
:10337000905F0100E4DB000810B502E000F8011BDB
:10338000521E0AB18307F9D1930818D001EB01440A
:1033900002F0030204EB042406E010C01B1F10C05F
:1033A00040F8084B40F8044C042BF6DA01E010C05A
:1033B0005B1E002BFBD102E000F8011B521E002A0D
:1033C000FAD110BD10B5830702D520F8021B521E9A
:1033D000530811D001EB0144042B09DB10C01B1F63
:1033E00010C0042B40F8084B40F8044CF6DA01E01A
:1033F00010C05B1E002BFBD1D20700D0018010BD96
:1034000000BFFEE702490A680860104670470000E6
:10341000E80100200449054A0968497C52F8211056
:103420000969096808470000400000205800002092
:103430002DE9F04F05468DB07B48DDF860901A9C71
:1034400000681E4617464FF0000A78B11B9B199A78
:10345000CDF808900593CDE90324DDE91623CDE9E5
:103460000023046833463A46284680E0DDE9160228
:1034700001EB060805EB070C1043A8F10108ACF1BD
:10348000010C012806D0C9F1080005900020029126
:103490000990C6E065480268B2F90A30581A002857
:1034A00006DD361A002E63DD1946199B00FB034426
:1034B000B2F90E00A8EB0000002802DD361A002E3B
:1034C00056DDB2F90C00ACEB0000002800DD3F1A1D
:1034D000B2F908300020AB4235DD581B3F1A4B468D
:1034E000B9F1080F26D006DC012B0BD0022B11D02E
:1034F000042B28D116E0102B1ED0182B1FD0202B08
:1035000021D11CE020F0070304EBE0041D4400F08F
:10351000070018E020F0030304EBA0041D4400F0B2
:10352000030010E020F0010304EB60041D4400F0F0
:10353000010008E0044404E004EB400401E004EB73
:10354000800405440020002F12DD1B9BDDF864C0C1
:10355000CDE90403CDE90069CDE902C4527C3448C9
:103560003B4650F82200C26854680A462946A047E4
:103570000DB0BDE8F08F1799029808440C902B49C4
:10358000401E00900A68B2F90A30834241DCB2F969
:103590000E10029881423CDB4FF0000BD846039599
:1035A0000A9434E0BBF1000F05D10A984FF0080BE4
:1035B00010F801AB0A900599ABEB090B3AFA01F050
:1035C0000AFA09F101F0FF0A04D118490968097CD7
:1035D000890716D415490968C96B0A680B921B9AAA
:1035E0000AB152F82000086016990398009B42180F
:1035F000521E029900F0B0F80C490B980968C96B8B
:1036000008600399169808F1010808440390B8452A
:10361000C8DB0998401C09900C9802901998044442
:103620000998B042A7DBA3E7780000204000002003
:1036300058000020F0B40C4612490968B1F90A306C
:10364000A3421CDCB1F90E30A34218DBB1F90830FB
:10365000834200DD1846B1F90C30934200DA1A4675
:1036600082420CDB4B7C084951F82350134622461A
:10367000E9688E6801462846B446F0BC6047F0BC55
:103680007047000040000020580000200A461749FB
:1036900030B40968B1F90A30934225DCB1F90E3033
:1036A000934221DBB1F9083083421DDCB1F90C30C3
:1036B000834219DB0B7C0E4CDB0709D0497C54F8A4
:1036C0002130D968CC690146A44630BC1846604711
:1036D000CB6B497C1B6854F82140E1688D69014639
:1036E0002046AC4630BC604730BC704740000020EC
:1036F0005800002000B597B00121080200F022FF19
:1037000002200190002002900520039000200490E8
:10371000059006904FF08050079000200890099087
:1037200008200A9010200B9000200C900E900F9013
:1037300010904FF48050119000201290139014902C
:1037400001A81590169008A8FCF746FF012100205B
:10375000FCF728FF17B000BD38B5134C2468B4F946
:103760000850854200DD2846B4F90C50954200DA35
:103770002A46824217DBB4F90A508D4200DD294601
:10378000B4F90E509D4200DA2B468B420BDB0093BE
:10379000647C064B53F82440E3681D6913460A46CF
:1037A00001462046A84738BD4000002058000020B0
:1037B00008B501217C2000F0E5FE10208DF8030003
:1037C00003208DF802004FF40050ADF80000694668
:1037D0002A48FDF783F84FF48050ADF800006946A1
:1037E0002648FDF77BF803208DF8020018208DF89D
:1037F00003004CF20370ADF8000069461F48FDF766
:103800006DF84FF68070ADF8000069461C48FDF772
:1038100065F81020ADF8000069461848FDF75EF81D
:103820002020ADF8000069461448FDF757F88020C5
:10383000ADF8000069461148FDF750F84FF40060FC
:10384000ADF8000069460D48FDF748F84FF4805187
:103850000A48FDF7D0F810210848FDF7CCF82021E0
:103860000648FDF7C8F84FF400610448FDF7C3F8B7
:1038700080210248FDF7BFF808BD00000014014098
:1038800000180140082104F083BD000002480068D0
:10389000806B00687047000040000020024800680C
:1038A000C06B0068704700004000002002480921FA
:1038B0000068407C04F06CBD40000020092104F049
:1038C00067BD70B500252C462046FDF7D9FD00B137
:1038D0006D1C641C022CF7DB284670BD0248006892
:1038E000407C00F003B800004000002010B5FDF758
:1038F000C7FD002805D0C168CA6ABDE81040022192
:10390000104710BDF8B515460E460124FDF7B8FD69
:10391000009058B1C0680421426A6846904703008D
:1039200004D02A4631460098984700242046F8BD26
:10393000032104F02DBD032004F0C5BD042104F0D3
:1039400027BD0000024801210068407C04F020BD32
:1039500040000020012104F01BBD000002480221AC
:103960000068407C04F014BD40000020022104F0F7
:103970000FBD00F001B800002DE9F041002809D08A
:10398000876837B10D4E716819B10468B4F5807F4E
:1039900002DD0020BDE8F0813068844200DD04468D
:1039A000002507E057F82500FFF734FD716841F85E
:1039B00025006D1CA542F5DB7068EBE714010020C3
:1039C0000449054A0968497C52F821100969496887
:1039D0000847000040000020580000207047704752
:1039E00010B500F01F01074A074BC0F34514C0F3A0
:1039F000C4201B5D105C515C00EB032000EB014018
:103A000010BD000084D90008A4D9000810B50A4CE4
:103A1000606860B920688000FDF74EFB606040B1CF
:103A200004F10801054808600846FFF763FC002020
:103A300010BD012010BD0000140100204D890008B8
:103A40002DE9F041FFF73DFF0746002528E0284615
:103A5000FDF716FD18B32846FEF732FC80462846CF
:103A6000FFF710FF082817DC0F48104950F8250011
:103A70000069884210D02846FFF720FF0646002440
:103A800008E0E0B2FFF79CFF0246E1B2284600F0F2
:103A90004BF9641CB442F4DB4046FEF711FC6D1C8C
:103AA000BD42D4DBBDE8F0815800002074DE000880
:103AB0002DE9FF4F83B01646DDE910408B46C06804
:103AC0004769426A7AB1012111A8904705000AD0DE
:103AD0000698CDE9000433465A4603991198A84741
:103AE00007B0BDE8F08F57480068407CFDF754FEF2
:103AF0008246082801DC012005E0BAF1100F01DC44
:103B0000022000E004208046002596E04046B8F1FF
:103B1000010F05D0022871D0B8F1040F25D17CE047
:103B2000BAF1090F21D2DFE80AF08605213F3F599B
:103B300059595900039815E001465A461198B8475B
:103B4000C5F1070188404FF67F722178EA401140A5
:103B500001436D1C217004EBE50425F007000541CD
:103B600009F101008146B042E6DD64E0039817E008
:103B700001465A461198B8470621A1EB45018840F5
:103B80006B004FF63F722178DA40114001436D1C03
:103B9000217004EBA50425F00300054109F10100A3
:103BA0008146B042E4DD46E0039813E001465A4600
:103BB0001198B8470421A1EB850188402178AB001A
:103BC0000F229A401140014321702C4485F00105D9
:103BD00009F101008146B042E8DD2CE0DDF80C90EF
:103BE00007E001465A461198B847207009F10109CB
:103BF00044444846B145F4DD1DE0FFE7DDF80C9094
:103C000007E001465A461198B847208009F101099A
:103C100044444846B145F4DD0DE0DDF80C9007E082
:103C200001465A461198B847206009F101094444F9
:103C30004846B145F4DD0BF1010B06998B457FF742
:103C400065AF4DE74000002010B50D4C0D492068D0
:103C5000407C51F8200040B1C1680968042901D0B6
:103C60000068F8E708B1FDF709FC2068002101664B
:103C700000F108014161BDE8104000F02FB80000DC
:103C800040000020580000200149096849680847A1
:103C900010010020044909680A7C520701D5C96B4C
:103CA00000E0896B08607047400000207CB5094C3B
:103CB00005462068417C084850F82100C1680A6B1D
:103CC0006946904720686A4629460830FFF725FA7A
:103CD0007CBD00004000002058000020044801681E
:103CE00004484A7C083150F82200C268126B104721
:103CF0004000002058000020014909680968084771
:103D000010010020044909680A7C520701D5896B1B
:103D100000E0C96B08607047400000200149096855
:103D20008968084710010020F8B515460E460124A1
:103D3000FDF7A6FB009058B1C0681021426A6846A2
:103D40009047030004D02A46314600989847002443
:103D50002046F8BDF8B515460E460124FDF790FB48
:103D6000009058B1C0680321426A6846904703003A
:103D700004D02A4631460098984700242046F8BDD2
:103D8000F8B515460E460124FDF77AFB009058B1B0
:103D9000C0680B21426A68469047030004D02A4657
:103DA00031460098984700242046F8BDF8B51546DE
:103DB0000E460124FDF764FB009058B1C0680A214B
:103DC000426A68469047030004D02A46314600986C
:103DD000984700242046F8BD10B5074C2068006BBA
:103DE000FFF718FBFFF78EFF2068406BFFF712FB11
:103DF000BDE81040FFF74EBF4000002010B5A0B056
:103E000014211BA8FCF710FB682101A8FCF70CFB90
:103E100000231A4616491748FDF7D6FA04464FF410
:103E2000C872F0210020FFF7ABFF4FF4C872F021F9
:103E30000020FFF7BBFF00201C901B9005201D9069
:103E40001BA92046FCF7D9FD02212046FCF778FE8D
:103E50000948099009480A9009480C9009481090AF
:103E6000094B0A4A01A92046FCF7E7FD20B010BD26
:103E7000FCAC000814AD00085D41000839410008A1
:103E80004541000821410008D90A00086D0A0008D0
:103E90002DE9F04106460C461746012C04D100F0EE
:103EA00061F90020BDE8F0814FF0FF3500BF00BF91
:103EB0002846F7E72DE9FF4F8DB01746674ADDF832
:103EC00070901E9E209812681D4600248AB11D9B8A
:103ED0001F98CDE90293CDE90460DDE91A03CDE92D
:103EE000000314682B463A460D98A04711B0BDE870
:103EF000F08F0D9A01EB050802EB070CDDE91A23A0
:103F00001A43A8F10108ACF1010C012A06D0C9F14D
:103F100008004FF0000B029105909CE0504A126897
:103F2000B2F90A40631A002B06DDED1A002DDDDD23
:103F300021461D9C03FB0466B2F90E30A8EB030377
:103F4000002B02DDED1A002DD0DDB2F90C30ACEB08
:103F50000303002B00DDFF1A0D9B1C1AB2F9083079
:103F6000A3420DDDA3EB040C0CEB0003181A20F0A8
:103F700007000444A7EB0C0706EBE30603F0070079
:103F8000002FB3DDDDF874C01F9BCDE902C6CDE97B
:103F90000403CDE90059527C32483B4650F82200D8
:103FA000C26855680A462146A8479FE71B990298B0
:103FB00008440C902A49401E00900A68B2F90A3061
:103FC000834242DCB2F90E10029881423DDB4FF091
:103FD000000A0D980A96D046039034E0BAF1000F1B
:103FE00005D10A984FF0080A10F8014B0A9005997C
:103FF000AAEB090A34FA01F004FA09F4E4B204D194
:1040000017490968097C890717D415490968C96BDC
:104010000A680B921F9A0AB152F8200008600399AF
:104020001A98009B0A18DDE90210521EFFF794FB54
:104030000B490B980968C96B086003991A9808F135
:10404000010808440390B845C8DB0C9802901D98FD
:104050000BF1010B0644AB45A8DB47E778000020D5
:104060004000002058000020002818D0410817D038
:10407000810817D0C10817D0010917D0410917D0FE
:10408000010A17D0410A17D0010B15D0C10B13D06C
:10409000010C11D0810C11D0000E11D020207047DE
:1040A00001207047022070470320704704207047AA
:1040B0000520704708207047102070471220704775
:1040C0001820704700B50022FFF7CEFF012804D06A
:1040D000811E062903D808220BE0012209E0A0F185
:1040E0000901072901D8102203E011380F2800D850
:1040F0002022104600BD000010B54FF48051074843
:10410000FCF777FC642006F035F84FF48051034843
:10411000FCF771FC642006F02DF810BD001401407E
:1041200003E0044A128820F8022B0A00A1F10101E1
:10413000F7D1704700000260014908807047000015
:104140000000026003E030F8022B034B1A800A00E3
:10415000A1F10101F7D17047000002604FF0C041AA
:104160000880704710B5FFF723FBFFF7C3FA322032
:1041700006F000F8FFF7C0FF2A2001F0F9FE00204A
:1041800001F0FAFE002001F0F7FE002001F0F4FE3D
:10419000EF2001F0F1FE2B2001F0EAFE002001F0FB
:1041A000EBFE002001F0E8FE012001F0E5FE8F208B
:1041B00001F0E2FE352001F0DBFE002001F0DCFE24
:1041C000B12001F0D5FE112001F0D6FE0E2001F045
:1041D000D3FEB42001F0CCFE022001F0CDFEB620CB
:1041E00001F0C6FE1E2001F0C7FE022001F0C4FE51
:1041F000C02001F0BDFE102001F0BEFEC12001F084
:10420000B7FE012001F0B8FE0B2001F0B5FEC5207D
:1042100001F0AEFE172001F0AFFE272001F0ACFE4A
:10422000FA2001F0A5FE012001F0A6FEE02001F039
:104230009FFE002001F0A0FE082001F09DFE11204D
:1042400001F09AFE0D2001F097FE132001F094FE7C
:10425000172001F091FE1C2001F08EFE7B2001F062
:104260008BFE2D2001F088FE102001F085FE2F200E
:1042700001F082FE292001F07FFE122001F07CFE79
:104280001C2001F079FE2F2001F076FEE12001F0E4
:104290006FFE2B2001F070FE2E2001F06DFE292014
:1042A00001F06AFE0D2001F067FE162001F064FEA9
:1042B000152001F061FE292001F05EFE572001F07B
:1042C0005BFE2F2001F058FE092001F055FE1A2058
:1042D00001F052FE232001F04FFE312001F04CFE90
:1042E000372001F049FE3C2001F046FEE22001F0BB
:1042F0003FFE002001F040FE082001F03DFE1120AD
:1043000001F03AFE0D2001F037FE132001F034FEDB
:10431000172001F031FE1C2001F02EFE7B2001F061
:104320002BFE2D2001F028FE102001F025FE2F206D
:1043300001F022FE292001F01FFE122001F01CFED8
:104340001C2001F019FE2F2001F016FEE32001F0E1
:104350000FFE2B2001F010FE2E2001F00DFE292073
:1043600001F00AFE0D2001F007FE162001F004FE08
:10437000152001F001FE292001F0FEFD572001F07B
:10438000FBFD2F2001F0F8FD092001F0F5FD1A20BA
:1043900001F0F2FD232001F0EFFD312001F0ECFDF2
:1043A000372001F0E9FD3C2001F0E6FDE42001F0BA
:1043B000DFFD002001F0E0FD082001F0DDFD11200F
:1043C00001F0DAFD0D2001F0D7FD132001F0D4FD3E
:1043D000172001F0D1FD1C2001F0CEFD7B2001F063
:1043E000CBFD2D2001F0C8FD102001F0C5FD2F20D0
:1043F00001F0C2FD292001F0BFFD122001F0BCFD3B
:104400001C2001F0B9FD2F2001F0B6FDE52001F0E0
:10441000AFFD2B2001F0B0FD2E2001F0ADFD2920D5
:1044200001F0AAFD0D2001F0A7FD162001F0A4FD6A
:10443000152001F0A1FD292001F09EFD572001F07B
:104440009BFD2F2001F098FD092001F095FD1A2019
:1044500001F092FD232001F08FFD312001F08CFD51
:10446000372001F089FD3C2001F086FD3A2001F063
:104470007FFD552001F080FD362001F079FD6020A0
:1044800001F07AFD112001F073FD782005F072FE35
:10449000292001F06DFD01200149086010BD0000D8
:1044A000B4812242FDF7F4F905F0EBFE02E064204E
:1044B000FCF7F8FFFBE700BFFEE7704770B500218F
:1044C00000230F22C47804B3154C246804F4E0647C
:1044D000C4F5E064210AC1F10403CA40447804FA37
:1044E00003F184781440214309010E4C0678A1554C
:1044F000047804F01F050124AC4005786D11AD006F
:1045000005F1E025C5F8004109E0047804F01F0535
:104510000124AC40044D0678761145F8264070BD64
:104520000CED00E000E400E080E100E0024901431E
:10453000024A1160704700000000FA050CED00E02F
:104540007047000029B1064A52690243044B5A6180
:1045500004E0034A52698243014B5A6170470000EC
:104560000010024029B1064AD2690243044BDA61C5
:1045700004E0034AD2698243014BDA6170470000CC
:104580000010024029B1064A92690243044B9A6125
:1045900004E0034A92698243014B9A61704700002C
:1045A00000100240704710B500F002F810BD000086
:1045B0000CB50020019000903348006840F4803032
:1045C0003149086000BF3048006800F400300090B6
:1045D0000198401C0190009820B94FF6FF71019896
:1045E0008842F0D12848006800F4003010B1012062
:1045F000009001E0002000900098012843D123485A
:10460000006840F01000214908600846006820F06A
:10461000030008600846006840F0020008601A487D
:104620004068194948600846406848600846406844
:1046300040F4806048600846406820F47C10486080
:104640000846406840F4E81048600846006840F0BA
:104650008070086000BF0C48006800F000700028FF
:10466000F9D00948406820F003000749486008462F
:10467000406840F00200486000BF0348406800F016
:104680000C000828F9D10CBD0010024000200240A7
:10469000042808D14FF0E021096941F004014FF0EE
:1046A000E022116107E04FF0E021096921F00401E7
:1046B0004FF0E022116170477047000010B51348B9
:1046C000006840F001001149086008464068104940
:1046D00008400E494860084600680E4908400B49EA
:1046E00008600846006820F480200860084640689A
:1046F00020F4FE0048604FF41F008860FFF753FF6E
:104700004FF000600449086010BD00000010024036
:104710000000FFF8FFFFF6FE08ED00E010B50121F4
:10472000064800F05EF820B105480068401C0449C6
:1047300008600121014800F045F810BD0004004068
:104740000C0000207FB504460D4601210220FFF732
:1047500009FFADF804500020ADF80600ADF80840A0
:10476000ADF80A0001A90E4800F056F801221146E2
:104770000B4800F047F81D208DF8000000208DF850
:10478000010003208DF8020001208DF80300684627
:10479000FFF794FE0121024800F017F87FBD0000EA
:1047A0000004004010B50121054800F01AF808B1D6
:1047B000FDF752FE0121024800F004F810BD000090
:1047C00000100040CA430282704721B1028842F0C3
:1047D0000102028004E002884FF6FE731A40028054
:1047E000704730B50246002000230024158A05EAF0
:1047F0000103958905EA010413B10CB1012000E021
:10480000002030BD1AB183890B43838102E0838984
:104810008B43838170470000002202881D4B984221
:104820000ED01D4B98420BD0B0F1804F08D01B4BDF
:10483000984205D01A4B984202D01A4B984204D1A4
:104840004FF68F731A404B881A43174B984207D084
:10485000164B984204D04FF6FF431A40CB881A43B8
:1048600002808B8883850B8803850A4B98420BD086
:10487000094B984208D00E4B984205D00D4B9842F8
:1048800002D00D4B984201D10B7A0386012383821B
:1048900070470000002C014000340140000400403B
:1048A00000080040000C00400010004000140040D0
:1048B00000400140004401400048014010B540F272
:1048C0002551204800F044F8A8B31E4800F06AF8CB
:1048D000C4B21D48008800F4004058BB1A48008844
:1048E00000F4804060B10A2C03D0002016490880F3
:1048F00026E01548008840F40040134908801FE076
:104900000D2C06D11048008840F480400E490880E4
:1049100016E00D480088C0F30D000C490C540A48FD
:104920000088401C0849088008460088C72807DD21
:104930000020088004E0FFE7024800F033F8C4B22A
:1049400010BD000000380140080000201C020020BB
:1049500070B50246002400230025002040F66A16A8
:10496000B14200D100BFC1F3421501F01F0301267F
:1049700006FA03F3012D02D19689334006E0022D99
:1049800002D1168A334001E0968A33400C12012688
:1049900006FA04F41688344013B10CB1012000E08B
:1049A000002070BD01468888C0F30800704700BF32
:1049B000FEE7000002490120096881F854007047B1
:1049C000400000202DE9F0418AB0040036D0FCF709
:1049D000EBFB0190D0E90012CDE90412876A056A69
:1049E00001A8FCF711FC204600F052FE060025D07D
:1049F000204600F0C4F98046B80704D52A4641464F
:104A000004A800F0ABFF2046FCF7CEFB0190404627
:104A1000FCF7CAFB06903046FCF7C6FB0390056224
:104A20000698019AC1691162C46101A8FCF7ECFB08
:104A300006A8FCF7E9FB03A8FCF7E6FB0AB0BDE813
:104A4000F08100002DE9FC5FDFF834A10746DDE9C5
:104A50000C54DAF81400DDF83CB0984691460E4646
:104A600004434DB9BAF8020048B346480AF1400180
:104A70000068407C51F82050681C0ED0FDB12846DB
:104A8000FCF792FB0190B0F90010B0F902200F443E
:104A90001644B9F1000F02D006E000250FE0B0F98E
:104AA0000430591A01F10109B8F1000F04D1B0F92D
:104AB0000600801A00F1010801A8FCF7A5FB0BF124
:104AC0002C00FCF7B6FA5FEA000B56D0BAF80200E9
:104AD000401CAAF802005846FCF766FB00900780CD
:104AE00007EB09014680491E818006EB0801491E3B
:104AF000C1800E990161244A816A2240114381627A
:104B00006846FCF781FBDAF80C005E4650B1FCF712
:104B100093FB07463046FCF78FFB014678694861F6
:104B20007E6101E0CAF80CB02946584600F046FE06
:104B3000A00602D5584600F077FCE00704D0DAF86A
:104B40002010491CCAF82010600602D55846FFF70D
:104B500039FFA0070DD55846FCF726FB0090816A67
:104B600041F0020181626846FCF74EFB584600F0B6
:104B700076FB0121584601F04CF95846BDE8FC9FF0
:104B800024010020400000209F3F3F0003490020F7
:104B9000096881F85400FFF7A1B800004000002028
:104BA00010B50446C168D4E90020172A0DD004DCF2
:104BB0000E2A0CD0142A07D104E0222A0CD0282A6D
:104BC00002D10CE000F01EFD0020E06010BD214687
:104BD000BDE8104000F048BC6FF07040F5E7BDE85C
:104BE000104000F03CBB38B504000BD0FCF7DCFAF9
:104BF00000900068FDF7DEFB6846FCF705FB2046E9
:104C0000FCF732FA38BD0000F8B505005BD000F0C3
:104C100011FF002857D0284600F04CFD06460B2116
:104C2000284601F0F6F8284600F0B3FC2846FCF7C9
:104C3000BBFA0090406A08B1FCF70CFF224C00213F
:104C400004F158022163A06852F82030AB4201D130
:104C500042F820101C4A503252F82030AB4201D1A9
:104C600042F82010206904E04368AB4200D1416063
:104C700000680028F8D10721284600F026FB00989C
:104C800001F0F8FB284600F0A9FC284601F040F8A6
:104C90000098806AC10702D0216A491E21628006FD
:104CA00002D5A088401EA0806846FCF7ADFA608857
:104CB000401E60802846FCF7D7F90348403050F882
:104CC000260000F0B1FBF8BD240100202DE9F041E1
:104CD0001A4C0025E06A10B1804700E0012502F07F
:104CE00053FF0028FAD1164E306890F8540038B1BE
:104CF000A08828B1E069012720B10068804704E05E
:104D0000002702E00120FEF731FA306890F85400E5
:104D100038B1A08828B102F0FFFDA08808B10125B4
:104D2000F3E73FB1E06910B14068804702E000203E
:104D3000FEF71CFA2846BDE8F0810000240100209F
:104D400040000020034804490068407C51F82000DE
:104D5000704700004000002064010020002102286C
:104D600002D2024951F82010084670476401002021
:104D700010B5002802D0FCF75FFAC06910BD10B56D
:104D8000002802D0FCF758FA806910BD10B5010068
:104D90004FF0000004D00846FCF74EFAB0F90000CE
:104DA00010BD00002DE9F04F9BB04FF0000B5E46A8
:104DB000CDF820B0CDF824B0CDF828B0FDF7AEF98D
:104DC00018B100201BB0BDE8F08F6846FDF784F9EC
:104DD0000098C94DC94C401C11D0009800281DDB1B
:104DE000019800281ADBC6490098B1F90010084460
:104DF000C44900900198B1F9001008441DE00198E1
:104E0000401C0BD120689DF8081000EB400005EB1A
:104E10008000007A884201D15846D3E70098401CB0
:104E20000CD10198401C09D1206800EB400055F8D6
:104E3000201005EB800000914068019005A800F06B
:104E400071FB9DF80900022800D2206007AA12A970
:104E50002068FCF7DDFC12990098401A0090079931
:104E60000198009A401A0190206800EB400055F824
:104E7000201091420AD105EB8000019A41689142CD
:104E800004D1007A9DF8081088427DD0DDE9000148
:104E90009DF80920FCF7DCF99B4F7A6812B10021DC
:104EA000684690479948216850F8210018B9DDE913
:104EB000000100F0B3FA0690BA6812B1069968468C
:104EC00090478D4F2068383707EBC0014868069A35
:104ED000824201D0012200E000220DF12009F8B148
:104EE000F2B1486800F05AFDD0B1206807EBC0006D
:104EF000406800F048FD98B19DE8070008AB83E8E2
:104F000007001220CDF844900E90206807EBC000F7
:104F100040680EA900F0A3FF206807EBC0004660C0
:104F2000069800F03BFD00287DD00699206807EB2D
:104F3000C002516000EB400005EB80009DF80810B6
:104F4000007ADFF8B4A188420AF1280A5ED00698F8
:104F5000C0B30698FCF728F99DF8081013908DF857
:104F60003410216801EB410105EB8101097A8DF8CC
:104F70003510B0F900200099891A0B91B0F90200A0
:104F80000199081A0C9000E0B1E013A8FCF73CF975
:104F90000BA8119011200E90206800EB400105EB4A
:104FA000810191E88C000492CDE914379DF8082026
:104FB0000A729DF8281031B10AEBC0014F68069AB9
:104FC0004A6001E022E000270AEBC000D0F804802C
:104FD00006980EA900F0FCFE21680AEBC1004368A8
:104FE000434501D04068069001EB410005EB80038A
:104FF000DDE91412049883E807003FB1384600F059
:1050000060F918B121680AEBC100476020689DF87B
:10501000081000EB400805EB8802137A0B434CD0D4
:105020004FF4107300E056E00AEBC0000E934368A3
:105030004FF0010B5746DDF818C09C4515D043686A
:105040009BB109B1119608E055F8281008915168F4
:1050500009918DF82860CDF8449040680EA900F0C1
:10506000FEFE206807EBC000466020689DF808102F
:1050700000EB400205EB82021172069959B39DE8DC
:105080000E000DF1200888E80E009DF8281021B1CF
:10509000069907EBC000416008E01D48007808B1A0
:1050A00000F044F9206807EBC00046600698CDF890
:1050B00044900EA900F0D3FE0DE0069858B1069872
:1050C00000F061FC38B19DE8070008AB83E80700F9
:1050D00010200E90EAE721689DE81C0001EB4100DA
:1050E00005EB800080E81C00684600F013F905A875
:1050F00000F0F8FD90E600009C9900202C010020B3
:105100007C0000207E000020F401002074010020BB
:10511000840100202DE9FF5F2C4D6878002853D1D1
:1051200000272B48EF602F630068DFF8A8903C460B
:105130004764AF806F804FF0020A4FF0FF3B43F6A9
:10514000FF7805F140062046FCF79AF998B1CDE9C1
:105150000297CDE900BA0021424643460846FFF7D0
:1051600071FC1A4A46F8240048326FF0704142F848
:10517000241000F074F8641C022CE4DB164FDFF8F6
:105180005C80DFF85C90002407EBC40000F0CAF9F3
:1051900008EBC40000F0C6F909EBC40000F0C2F946
:1051A000641C022CF0DB306800F03EF9FFF702FCD3
:1051B00001200649687038310A48086004B0084682
:1051C000BDE8F05FFEF796B8BDE8FF9F2401002020
:1051D0004000002001A10008B4990020C4990020DB
:1051E000D49900206189000870B586B00D4606008C
:1051F0002CD0FBF7D9FF0090846AA10723D5D0E912
:105200000010CDE90110E00302D5304600F02CFB80
:105210005DB1286803906868049003A9009800F0C5
:1052200089F903A901A8FDF75BFF314601A800F049
:1052300089F940B140F601000440012C08D001A9D1
:10524000304600F00DFB6846FBF7DEFF06B070BD90
:105250000098026A816901A800F080FBF3E7002151
:10526000FFF7C2BFFEB515460E4604001CD0FBF783
:105270009BFF0246009090F82800800711D5314628
:1052800001A8FDF74AFF60B16846FBF7BDFF2A465B
:1052900001A9204603F07EFA2046FFF769FD044687
:1052A0000CE06846FBF7B0FFFEBD2A4601A9204688
:1052B000FFF7D8FF2046FBF7BFFF046A002CF4D1AC
:1052C000FEBD00F0B7BB00F0C7BB1FB5262203919F
:1052D0000092694600F0C8F81FBD000010B50C4CE4
:1052E0000A4A03462468002086B052F82420002A87
:1052F0000AD00E200090CDE9043104A8039069463D
:10530000104600F047FD012006B010BD7C010020D2
:105310002C010020044A01EB410102EB81010DC880
:1053200081E80D0070470000609A002000F0C4BCC6
:1053300070B5154606468AB00C4651EA05006BD09A
:10534000002E69D03046FBF72FFF0590D0E9001200
:10535000CDE90212CDE906127CB1816A0A0607D5B1
:10536000890505D4BDF81810091BADF8181004E024
:10537000BDF81C102144ADF81C107DB1816ACA052E
:1053800007D5490505D4BDF81A10491BADF81A1008
:1053900004E0BDF81E102944ADF81E10806AC00359
:1053A00002D5304600F060FA05AB93E80700C0E98B
:1053B000001290F8280080070AD506AA02A908A8BA
:1053C000FCF74EFE0598026A816908A800F0C6FA4B
:1053D000BDF91E00BDF90E10401A0090BDF91C0069
:1053E000BDF90C10431ABDF91A00BDF90A10421A92
:1053F000BDF91800BDF90810411A059800F04AFDE2
:10540000059901F10800FDF76BFE0521304600F01B
:1054100000FD05A8FBF7F8FE0AB070BD0A4601467C
:10542000002003F0B9BD000070B50C4D04002868E1
:10543000866C01D10A49CC688464204600F0A0FC47
:10544000FEF74CFC2046FBF7F7FE2968B0F9002078
:10545000CA64B0F902000865304670BD4000002003
:105460002401002000F0C2BC70B50C00054609D034
:10547000FFF785FC002805D02146A560BDE87040F7
:1054800000F088BC70BD000010B5FBF707FA0249B8
:1054900000200968486410BD40000020F8B5164699
:1054A0000C46050018D0FBF77FFE0090B0F9041001
:1054B000B0F90020891A641AB0F90610B0F9020098
:1054C000641E081A361A6846761EFBF79DFE3246A1
:1054D00021462846FFF72CFFF8BD00000EB50E4808
:1054E000006890F8541009B10C4811E0806CFBF78B
:1054F0005BFE0090D0E90010CDE901106846FBF793
:1055000083FE0748416A11B101A800F01BF801A809
:1055100003F064FD0EBD000040000020289900202B
:105520002401002002490A680260086070470000F8
:10553000340100200B46B0F90220B0F900101846E3
:10554000FCF7BABD38B50C4605462046FBF72CFEE5
:105550000146009090F82800800703D46846FBF7C6
:1055600053FE12E02846FDF7BBFD0098806920B18C
:1055700004466846FBF748FEE7E76846FBF744FE4B
:10558000204601F00DF8002801DA002038BD012086
:1055900038BDF8B505466846FCF72EFF1AE0012134
:1055A0002046FCF715FF009981B178B10846FBF75A
:1055B00043FE4068A84209D169462046009EFCF798
:1055C0002FFF04463046FFF70EFB04E069462046F5
:1055D000FCF726FF0446002CE1D1F8BD38B504469F
:1055E000FBF7E2FD0090816941B1026A00F0B6F973
:1055F000204600F0A5FB0099002088616846FBF773
:1056000003FE38BD38B50C4600280AD0002C08D05F
:10561000FBF7CAFD2146009000F004F86846FBF74E
:10562000F3FD38BD00224A800A8082880388D21A9E
:105630008A80C2884088101AC880704710B5FFF76A
:105640009EFB002802D0FBF7F7FDC06910BD0000EB
:105650000D4810B5006890F85400002806D00B4C97
:105660006069012803DD401E6061002010BD2069D3
:10567000401C206102F0ECFB18B1FFF72FFF012066
:1056800010BD6069EFE70000400000202099002075
:1056900070B50546FFF7D2FF08E0AC4201D1002407
:1056A00006E0FBF7C9FD006AA84201D00400F4D16E
:1056B000204670BD10B50446FBF7BEFD806900288A
:1056C000F9D12046BDE8104000F06ABFF0B5384E71
:1056D000074687B0306890F8541041B1354C616985
:1056E000491C6161012905DD012007B0F0BDFFF70C
:1056F000F5FEF9E7806CFBF757FD2F4D4FF0FF31BA
:1057000000902161297821B181680291C0680390DD
:1057100007E090F8281089073CD5D0E90010CDE9C2
:1057200002101FB1394602A8FDF7DAFC3068406C60
:1057300078B3009804903068406C01680591406827
:105740000690686A30B104A8FBF75EFD686AFBF753
:105750002BFD049005A90498FFF7ECFE05A902A80B
:10576000FDF7BEFC0DF11000FBF74EFD696A19B1A3
:1057700002A8FFF7E7FEB0B13068816C02A8FFF71E
:10578000E1FE80B1DDE90201C4E90001FFF760FF3D
:10579000ABE706E06069401E60616846FBF734FDD8
:1057A00004E06846E0E76069401E606100209CE715
:1057B000400000202099002024010020FEB50D00AB
:1057C000044647D0FBF7F0FC0090002185610162A0
:1057D0002846FBF7E9FC00990290C56991F828106A
:1057E00001F008062DB12846FBF7DEFC019036B12A
:1057F00015E0C4616846FBF707FD02A828E090F8B1
:10580000280000070BD5009805620298C46168461D
:10581000FBF7FAFC02A8FBF7F7FC01A818E002A8C6
:10582000FBF7F2FC01A8FBF7EFFC2846FBF704FDB1
:1058300011E004620BE02846FBF7FEFC5EB990F82D
:105840002810090707D50198046200980562684688
:10585000FBF7DAFCFEBD0190056A002DEBD1E8E70D
:10586000202202F097BF000038B5040022D0FBF7D9
:105870009BFC009090F82810890718D5406A40B129
:105880000D49896AA14204D0FCF7E4F80099002090
:1058900048622046FFF76CFA044606E02046FFF710
:1058A000E3FF2046FBF7C8FC046A002CF6D16846EB
:1058B000FBF7AAFC38BD00002401002070B50646A5
:1058C00015460C460846FBF7B7FC806AC00302D5B4
:1058D0004FF4804300E020232A4621463046BDE8AD
:1058E0007040AFF300802DE9FF4198461646074609
:1058F0000D0031D00846FBF757FC0090846A024641
:10590000A00726D5394601A8FDF707FC08B340F6E5
:1059100001000440012C07D0424601A9284602F0AC
:1059200039FF0098C46912E000984346026A816911
:1059300001A8FFF7D8FFF4E7B4420AD0424601A914
:105940002046FFF78FFC2046FBF776FC046A002C0C
:10595000F2D16846FBF758FCBDE8FF812023FFF732
:10596000C2BF000070B50C46002550B14CB100BF5D
:10597000FBF762FC8069A04201D1012501E000280B
:10598000F6D1284670BD10B50124FBF755FC90F800
:105990002800C00600D50024204610BD70B506467C
:1059A00014480068002807DB134951F820103046DE
:1059B000FFF7D8FF00281AD0114D104C286804EBCF
:1059C000C00041683046FFF7CDFF296804EBC102F3
:1059D000516829B100215268B24203D1012202E08C
:1059E0000121F8E700220143114301D0012070BDDD
:1059F000002070BDF401002064010020B499002053
:105A00002C01002090F828309B0711D5B0F9003008
:105A10008B420DDCB0F904308B4209DBB0F9021087
:105A2000914205DCB0F90600904201DB012070478D
:105A30000020704710B504460648C06806E0A04242
:105A400001D1012010BDFBF7F7FB40690028F6D11A
:105A500010BD000024010020F0B58BB006004FF00F
:105A6000000015460C4604900590069007903ED025
:105A700054EA05003BD03046FBF796FB0090D0E996
:105A80000012CDE902122A462146FCF715FB0098C8
:105A90002A4621460830FCF70FFB0098C769684684
:105AA000FBF7B2FB2A462146384602F0E8FE3046B4
:105AB000FBF77AFB009090F8281089070AD58169D6
:105AC00041B1026AFFF7FAFE0098026A816902A8F2
:105AD000FFF7F4FE6846FBF797FB0320049007AA44
