:020000040800F2
:100000005092002015020008376100084550000892
:1000100033610008BF0A0008536E000800000000AA
:1000200000000000000000000000000083680008DD
:10003000ED0A000800000000BD6100089569000895
:100040002F0200082F0200082F0200082F020008CC
:100050002F0200082F0200082F0200082F020008BC
:100060002F0200082F0200082F0200082F020008AC
:100070002F0200082F0200082F0200082F0200089C
:100080002F0200082F0200082F0200082F0200088C
:100090002F0200082F0200082F0200082F0200087C
:1000A0002F0200082F0200082F0200082F0200086C
:1000B0002F020008C16B00082F0200082F02000861
:1000C0002F0200082F0200082F0200082F0200084C
:1000D0002F020008616D00082F0200082F0200089F
:1000E0002F0200082F0200082F0200082F0200082C
:1000F0002F0200082F0200082F0200082F0200081C
:100100002F0200082F0200082F0200082F0200080B
:100110002F0200082F020008496C00082F02000877
:100120002F0200082F0200082F0200082F020008EB
:1001300000F002F800F05EF80AA090E8000C82449B
:100140008344AAF10107DA4501D100F053F8AFF278
:10015000090EBAE80F0013F0010F18BFFB1A43F0A5
:1001600001031847B0390100D039010010F8013BF4
:100170000A4413F0030408BF10F8014B1D1108BF17
:1001800010F8015B641E05D010F8016B641E01F8C5
:10019000016BF9D1002D15D010F8014B03F00C03C1
:1001A0000C2BA1EB04040ABF10F8013BA4EB831451
:1001B000A4EB032405F1010314F8016B5B1E01F8A5
:1001C000016BF9D5914238BF10F8013BD1D370478C
:1001D0000023002400250026103A28BF78C1FBD850
:1001E000520728BF30C148BF0B6070471FB51FBD05
:1001F00010B510BD00F0E9F91146FFF7F7FF0EF05A
:10020000DAFC00F007FA03B4FFF7F2FF03BC0EF0CC
:1002100035FC00000948804709480047FEE7FEE733
:10022000FEE7FEE7FEE7FEE7FEE7FEE7FEE7FEE7A6
:1002300004480549054A064B7047000099690008C3
:10024000310100085088002050920020508A002080
:10025000508A0020704740EA010310B59B070FD178
:10026000042A0DD310C808C9121F9C42F8D020BA26
:1002700019BA884201D9012010BD4FF0FF3010BDDE
:100280001AB1D30703D0521C07E0002010BD10F8AC
:10029000013B11F8014B1B1B07D110F8013B11F872
:1002A000014B1B1B01D1921EF1D1184610BD40EA33
:1002B0000103024630B59B0710D14FF0013400E036
:1002C00008C208C91D1B9D4315EAC41FF8D013F0CE
:1002D000FF0102F8011B0DD01B0AF8E711F8013BE2
:1002E000002B02F8013B05D011F8013B002B02F86E
:1002F000013BF3D130BD10B5431C02E010F8011BE7
:1003000071B18107FAD14FF0013202C88C1A8C43C7
:1003100014EAC211F9D0C01A0A0603D0C01E10BDDB
:10032000C01A10BD0A0401D0801E10BD0902FCD005
:10033000401E10BD032A40F2308010F0030C00F084
:10034000158011F8013BBCF1020F624498BF11F80F
:1003500001CB00F8013B38BF11F8013BA2F10402C8
:1003600098BF00F801CB38BF00F8013B11F0030340
:1003700000F06780083AC0F0088051F8043B083A62
:1003800051F804CBA0E80810F5E7121D5CBF51F846
:10039000043B40F8043BAFF30080D20724BF11F8C0
:1003A000013B11F801CB48BF11F8012B24BF00F825
:1003B000013B00F801CB48BF00F8012B7047431AFE
:1003C00028BF9A427FF6B6AF032A1044114440F288
:1003D000268010F0030F1EBF11F8013D521E00F8D9
:1003E000013D10F0030F7FF4F6AF11F0030300F0AE
:1003F000A080083AC0F00B8051F8043D083A51F84B
:1004000004CD40F8043D40F804CDFFF7F3BF121DC2
:100410005CBF51F8043D40F8043DAFF30080D207C3
:1004200024BF11F8013D11F801CD48BF11F8012C8E
:1004300024BF00F8013D00F801CD48BF00F8012CB1
:10044000704710B5203AC0F00B80B1E81850203A40
:10045000A0E81850B1E81850A0E81850BFF4F5AF64
:100460005FEA027C24BFB1E81850A0E8185044BFEE
:1004700018C918C0BDE810405FEA827C24BF51F85B
:10048000043B40F8043B08BF7047D20728BF31F84F
:10049000023B48BF11F8012B28BF20F8023B48BFA0
:1004A00000F8012B704702F0FF0343EA032242EAFF
:1004B000024200F06AB84FF0000200B513469446BD
:1004C0009646203922BFA0E80C50A0E80C50B1F1AC
:1004D0002001BFF4F7AF090728BFA0E80C5048BFC0
:1004E0000CC05DF804EB890028BF40F8042B08BF5E
:1004F000704748BF20F8022B11F0804F18BF00F85A
:10050000012B70477047704770477047431A28BFE8
:100510009A427FF696AF104410F0030F11441EBFAD
:1005200011F8013D521E00F8013D10F0030F7FF459
:10053000F6AF103AC0F00A8010B531E91850103A01
:1005400020E91850BFF4F9AFBDE81040530724BFAD
:1005500031E9081020E9081044BF51F8043D40F883
:10056000043D12F0030F08BF7047D20728BF31F8CF
:10057000023D48BF11F8012C28BF20F8023D48BFBA
:1005800000F8012C70474FF000020429C0F01280DF
:1005900010F0030C3FF491AFCCF1040CBCF1020F4E
:1005A00018BF00F8012BA8BF20F8022BA1EB0C010B
:1005B000FFF783BF5FEAC17C24BF00F8012B00F87E
:1005C000012B48BF00F8012B7047754600F028F852
:1005D000AE4605006946534620F00700854618B030
:1005E00020B5FFF725FEBDE820404FF000064FF094
:1005F00000074FF000084FF0000B21F00701AC4658
:10060000ACE8C009ACE8C009ACE8C009ACE8C00976
:100610008D4670470446AFF300802046FFF7F3FD98
:1006200000487047EC87002038B54568044601460D
:10063000284606F02CFC00282BD02068304A1128D0
:100640000DD006DC0B2825D00E2833D00F2852D130
:1006500012E0282849D0B0F5107F4CD108E092680C
:10066000002A16D02146284601B0BDE83040104788
:10067000214628465268F7E7284601F0E9FD009038
:10068000406E0468684601F03BFE002C01D028460D
:10069000A04738BD284601F0DBFD0090683001F02E
:1006A0003BFD009803216C3001F03EFD684601F0EF
:1006B00027FE20E0E168486809680D2902D020295A
:1006C00013D105E0002810DD28460CF04EF906E0B5
:1006D000002804DD2846BDE838400CF046B928461D
:1006E000BDE8384002210CF056B9E06818B9002185
:1006F000284600F088F92046BDE8384006F078BE6C
:10070000CC000020F0B5044685B08069B4F90850EB
:10071000668A0027CDE90265CDE900170490B4F997
:100720000C00B4F91060C118B4F90A00B4F90E5005
:10073000104433462A4600F007F80546616800F089
:100740006BF905B02846F0BDF0B585B00C46DDE983
:100750000D51DFF854C04C31DDE90A67CDE902C123
:100760002146CDE9006706F095FD040018D001F0A0
:100770006FFD10222946049006F000FD04983022F7
:100780000A493430FFF75DFE084D04990C3D286896
:10079000486604A801F0B4FD2868416820468847EF
:1007A00005B02046F0BD000029060008D800002052
:1007B000F0B5044680688B4989B051F820506068D4
:1007C00000287DD0052804D006287AD0122879D1B7
:1007D000AEE0E86900284FD095E80E008DE80F00E4
:1007E00004F110010FC904F02DF8002655F8260079
:1007F00003F060F8A169E8690A1A21690144606997
:10080000304402F02DF9A169E8690A1A216901440E
:10081000E069801B02F024F9E169E8690A1A61695C
:1008200001442069304402F09FF9E169E8690A1A3D
:1008300061690144A069801B02F096F9761C022EC2
:10084000D4DBA86803F036F8E069E9696669431A01
:10085000206942183144801C521E02F0C7F9E16938
:10086000E869A2690B1A61690144101A401C921EC2
:1008700002F0BCF9EE6913E05FF0000655F82600BF
:1008800003F018F8E069831BA069821B6069811975
:100890002069304402F02AF9761C022EEEDB022693
:1008A000D5E90301CDE900016169E069084443101D
:1008B000A069891C821B2069304402F09DF802E087
:1008C00089E012E08AE0D5E90501CDE90001E3699C
:1008D00060690121184401EB6001A0699B1E821B25
:1008E0002069304402F088F878E0206801F0B0FC1C
:1008F0000490206807F06CFF40B1A06808B10020A8
:1009000008E00498006F28B1012003E00498406FCC
:1009100000B10220049901EB8000C56E04A801F02B
:10092000EFFC00231A462846216801F001FF55E03C
:10093000206801F08DFC0490866EEEB3B0F95C7017
:10094000A168D1B3032942D05FF0000100EB81011F
:10095000406D0C6C02F0B8FF204602F0ABFF05A81A
:1009600002F0E4F9BDF81410A88B0144ADF814109E
:10097000BDF81810081AADF81800BDF81600801C54
:10098000ADF81600BDF81A00801EADF81A000498E4
:10099000B0F96020B0F95E1005A802F0A4FE04A82A
:1009A00001F0AEFC022002F0D1FF304601F050FC15
:1009B0003A4605A9079001E00BE006E001F06CFF64
:1009C0000DF11C0001F09CFC08E00121BEE70221B2
:1009D000BCE704A8F6E7206807F0D4FB09B00020C4
:1009E000F0BD00009831010838B50D46040009D06B
:1009F00001F02EFC00904565684601F081FC204620
:100A000007F02DF938BD4FF480720029114601D04E
:100A100006F0CDBA06F01FBA2DE9FF410E460500DB
:100A20004FF001041CD001F013FC0190876E01A867
:100A3000009701F065FC3146684604F0D7F978B1BB
:100A400000980024B84208D0284601F001FC01902B
:100A50000099816601A801F053FC284607F0FFF8D1
:100A600004B02046BDE8F081F0B504460D461646B8
:100A70001F462A2008F094F9C4F30F2008F00AFA60
:100A8000E0B208F007FAC5F30F2008F003FAE8B265
:100A900008F000FA2B2008F083F9C6F30F2008F0C5
:100AA000F9F9F0B208F0F6F9C7F30F2008F0F2F9FF
:100AB000F8B208F0EFF92C2008F072F9F0BD00BF91
:100AC000FEE700007CB506F0A7FD0546002000907B
:100AD0002B46044A09210190034801F02BFD0446EE
:100AE00020467CBD1DE80008A4F50008704770B5DD
:100AF00005460C4616462346224629462846FFF759
:100B0000B3FFB0B208F0C6F970BD2DE9FC470E4640
:100B10005FEA000978D001F09BFB009090F85470D8
:100B2000D0F85880456BC46C684601F0E9FBB8F119
:100B3000000F04D0314648464246904761E0122EED
:100B400018D006DC082E43D0102E3CD0112E06D132
:100B500012E0132E21D01D2E43D01E2E3DD0202E6C
:100B60004FDB17B1484608F06AFEB1B248460BF0B9
:100B700035FD60B3611C27E04DB3284601F068FBEA
:100B800005462146019003F02FF94419204603F051
:100B9000EDF801462346012210E0C5B1284601F0D8
:100BA00057FB05462146019003F01EF944192046E3
:100BB00003F0DCF8014623464FF0FF32484608F0C8
:100BC0001DFC01A81BE0611E484600F03CFA18E03D
:100BD000BCB1611E484600F036FA484608F02FFEC8
:100BE0000FE0484601F034FB0090012F0ED00121A8
:100BF00080F854102146484600F025FA684601F076
:100C00007FFB484607F02BF8BDE8FC87002180F801
:100C10005410F3E77CB545680446284607F0D8FD34
:100C200006462146284606F032F9002844D02068BE
:100C30000F283DD004DC0B283FD00E2860D147E0C0
:100C4000A0F58070133804D0A0F580702D3857D1EE
:100C50001DE0284607F050F9284601F0F9FA009007
:100C600010F8561F81F004010170684601F048FB3E
:100C7000002128460CF07AF9284601F0E9FA0090A4
:100C8000D0F88400002107F01DF968461DE0E068F7
:100C900060B1017A29B10168284600F0BDF8012150
:100CA00000E00221284607F065F829E00321F9E772
:100CB000012128460CF05AF97CBD284601F0C8FAFB
:100CC0000190343001F028FA01A801F019FB17E077
:100CD000B6B1E0684168002912DD01681B290FD018
:100CE00006DC09290CD00A290AD00D2904D107E015
:100CF000212905D0222903D02846FFF706FF7CBD15
:100D0000204606F075FB7CBDF0B587B00DF1300EC6
:100D10009EE8F0104FF0000E8DE8F05000F002F861
:100D200007B0F0BDF0B585B00D46DDE90D640F9F4D
:100D3000DDE90AC141F48051DFF870E0CDE900C17E
:100D40006037CDE902E7294606F0A4FA05002AD06B
:100D500001F07EFA10223146049006F00FFA049852
:100D6000242213496030FFF76CFB0499012081F8BD
:100D70005500601C00D0012081F88800002C00DCA8
:100D8000082424B20C8700204887486304A8641C08
:100D900001F0B6FA214628460BF0E1FA18B92846C8
:100DA00006F05AFB002505B02846F0BD150C0008DA
:100DB000E80300200148806870470000E803002035
:100DC00038B5002430B101F043FA0090846C6846D5
:100DD00001F096FA204638BDF8B515460C460600D7
:100DE0000ED001F035FA009038B1032C05D200EB9B
:100DF00084008567304606F032FF684601F080FACD
:100E0000F8BD10B5040006D000F01DF92046BDE87D
:100E1000104006F024BF10BD2DE9F04186B00C460D
:100E2000060050D001F014FA0090406B98B301F026
:100E30000FFA03900098806E02F046FD804630461F
:100E400006F05AFC0746039801F09BFF0546009800
:100E500090F8601001F00301012916D002290DD08D
:100E6000416EC06A00680844241A641E039803F0A7
:100E700065FE0146002C0FDA002115E0781B401CAE
:100E800000EBD070A4EB6004F0E7406E791B081A09
:100E9000241A641CEAE713E0AC4205DC0246214652
:100EA000039803F0F5FD0146304600F0CCF803A8A6
:100EB00001F026FA404602F007FD304606F0CFFE6C
:100EC000684601F01DFA06B0BDE8F0812DE9F8434F
:100ED0001D46DDE9084916460F465FEA000840D086
:100EE00001F0B6F92049009081652049C1650021D3
:100EF000C0E91271E0E90F650121047280F81A90CF
:100F0000017690F84C70684601F0FAF987B12846EE
:100F10000AF0EEFF054630460AF0EAFF0CB1401C2D
:100F20006D1C854200DD28460146404600F02AF847
:100F300040460CF0D5FF404601F08AF9009000F0E1
:100F40006DF80B490978884205D10098C16C40467C
:100F5000491C00F078F8684601F0D2F9404606F0E6
:100F60007EFEBDE8F883000015900008E1DE000871
:100F70003400002000294FF0100101D006F017B80E
:100F800005F069BF7CB50C4606002ED001F060F973
:100F90000090B0F93810458FA14223D012DD406B8C
:100FA00080B101F055F9019003F0C8FDA04206DDC3
:100FB0002146019802F018FF019A0021115401A85E
:100FC00001F09EF9684601F09BF9611B3046491C0F
:100FD0000BF0C5F9304601F03BF90090048730462C
:100FE00006F03DFE684601F08BF97CBDF8B515466C
:100FF0000C4606000ED001F02BF9009038B1032CFE
:1010000005D200EB8400C566304606F028FE68462F
:1010100001F076F9F8BD00220CF058BE38B505464F
:10102000406B002468B101F013F900900446E96CAC
:1010300002F0DAFE204402F099FE0446684601F010
:101040005FF9204638BD1CB50C4601F001F900904F
:10105000406BF0B101F0FCF8019003F06FFD0099D6
:1010600091F8542002B10122002C00DA00248442BD
:1010700000DD0446B1F93800801AA04200DA0446C7
:10108000C86CA04200D0CC640020086501A801F023
:1010900037F9684601F034F91CBD2DE9F0470446E4
:1010A00040688EB00027804601F0D2F80090B0F87A
:1010B0007CA0D0F86890D0F88060D0F88850C06DDF
:1010C00000B10768684601F01BF905E06968204631
:1010D0008847002843D12D68002DF7D120681728B4
:1010E00053D00CDC0F283DD004DC0B2877D00D2822
:1010F00025D18BE0112810D0142820D13BE02628E0
:1011000046D004DC1E2851D0202818D18AE02A2895
:1011100016D0B0F5107F12D128E04046E56801F006
:1011200097F80290697A39B9297A012904D130F8FF
:101130007C1F41F48071018002A801F0E1F875E0A4
:10114000404601F085F80090E16811B1C0F88410C4
:1011500002E0D0F88400E060684601F0D1F80EB0FB
:10116000BDE8F087D7B34046B8475FE02146404628
:101170000BF064FDF3E705A9404600F081FBE06851
:101180000699016007994160E9E7C4F80C90E6E729
:10119000E0680228E3D1CDF83080E0680D90272088
:1011A0000A900AA9A06807F00DFDD8E7E0680128B9
:1011B00004D00021404600F0ADFAD0E7304606F0FA
:1011C000ACFD68B1304606F067FF304606F07EFCA5
:1011D00098B10121304605F0EAFE0EE026E02FE04E
:1011E000484606F0A7FF0646404601F031F8009059
:1011F000C0F88060684601F083F80121404600F0A5
:1012000089FA002EABD10020E060A8E75FEA0A70FF
:101210000CD4E068C06848B1007A38B1404606F0A6
:101220003BFF03E0214640460BF0FCFB21464046D5
:1012300005F02DFE002892D0204606F0D9F88EE762
:10124000404601F005F80090703000F065FF6846F8
:1012500073E7F0B587B0B0F908400DF10C0C0C9EA7
:10126000876945688CE8F000448A0025CDE90015BF
:101270000294B0F90C10B0F91050B0F90E40B0F96A
:101280000A00194410442B46224600F003F807B028
:10129000F0BD00002DE9F0478AB00DF14C0CDDE9FE
:1012A00017849CE86006129F45F48055DFF8BCC0A7
:1012B0006034CDE902C4CDE9007505F0EBFF040010
:1012C0004FD000F0C5FF30224946049005F056FF8C
:1012D0000498282226493430FFF7B3F80498244FA5
:1012E000C0F86480A0F87C600026C0F88060C66604
:1012F000083FC0F888607968C16504A801F000F86B
:1013000005A9204600F0BCFA1A4841F28271039602
:101310000094CDE90110BDF91E00BDF91A10BDF908
:101320001C20431ABDF918005B1C121A521C05F050
:10133000B1FF06467868416820468847204600F09D
:1013400087FF0490866604A800F0DAFF42F20400EA
:10135000054202D1204606F0F3F85146204600F03F
:101360000EFA0AB02046BDE8F08700009B10000886
:1013700010010020891B00082DE9F041044694B0BB
:10138000006800F0B7F908B1D94D01E0D84D2C350F
:10139000606815281ED00CDC0B281FD004DC002848
:1013A0007ED005287DD12FE10E287BD01228F9D1DF
:1013B00041E1162806D0172808D0182808D01C2884
:1013C000F0D109E0E86914B0BDE8F081286AFAE7D5
:1013D000686AF8E7A86AF6E76869F4E720680B909E
:1013E0001C200C90206800F033FF0390016D0BA8C7
:1013F0008847064603A800F083FF022E0FDB95E81E
:1014000007008DE80700D4E904023346A16903F020
:10141000E7F920698719A069A0EB06082CE0286885
:1014200002F048FA2169E8690A18521E606901F061
:1014300017FBA269E869111A491C606901F010FBE9
:10144000D4E904077F1C394601F030FB3946A06916
:1014500001F02CFB686802F02DFA20693946401C27
:1014600001F024FBA0693946401E01F01FFBA06972
:101470002769A0F10208BF1C286802F01BFA424647
:101480003946606901F0ECFA686802F013FA6069A5
:1014900042463946401C01F0E3FA686A022802E03D
:1014A00015E1B0E000E10BDDA86802F003FA616924
:1014B0006A6A881C8B180146424638465B1E27E044
:1014C000296AB14226DD6069022E074600F1020852
:1014D00001DB374401E007F10207206901DB3044FA
:1014E00001E000F1020022693B460A444146A2F1B4
:1014F000010201F07BFB022E02DBA069821B01E0EE
:10150000A269921EA069E9693B46401A4146401C07
:1015100001F06CFB022E02DB6069064401E06669A3
:10152000B61CE76928687F1E02F0C4F93A463146C6
:10153000206901F019FB3A463146A06901F014FB1D
:10154000E7696868BF1E02F0B5F920693A4631467E
:10155000401C01F009FBA0693A463146401E01F0EB
:1015600003FBE869022802DC286A022823DDA86A56
:10157000022802DDE1690F1A01E0E769BF1EA868D1
:1015800002F098F9E969022909DD20693B46421811
:1015900000F1020C31466046521E01F027FB286A1A
:1015A000022808DDA269E8693B46101A3146401C52
:1015B000921E01F01BFB286802F07CF9D4E906209A
:1015C000216901F04DFA686802F074F9D4E9062047
:1015D0002169401E491C521E01F042FAA86A0228E5
:1015E00011DDA1692669E469A1F10208271AA41E88
:1015F000B61C7F1CA86802F05DF9234642463946B6
:10160000304601F0F3FA71E0208A00B2ADF8140020
:10161000A18A09B2ADF81610228B12B2ADF81820CB
:10162000A38B1BB2ADF81A302C69ED68CDE90054DC
:1016300001F0E2F95AE0208A298B0844ADF8140041
:10164000A08AADF81600208B298B401AADF818003F
:10165000A08BADF81A00206800F0FAFD0390006F2F
:10166000F0B1022002F072F9039890F87C10C1F3F7
:10167000C00100EB8100006C02F01CF90398406B84
:1016800002F022F90398006F00F0E2FD039909903F
:10169000B1F95A2005A901F0FFF809A800F030FEC1
:1016A00003A800F02DFE21E0208AADF81400A08AE6
:1016B000ADF81600208BADF81800A08BADF81A001D
:1016C000A86802F0F7F805A801F0B4FA0EE0206867
:1016D00000F0BEFD039030F85A1F41F00C0101806C
:1016E00003A800F00DFE206806F04CFD00206AE61D
:1016F000BC02002038B5002450B100F0A9FD0090D4
:1017000090F87C00000700D50124684600F0F8FD41
:10171000204638BD002801D00BF018BF70472DE9D6
:10172000FC410D46070028D000F092FD0190C16DEC
:101730008C6800F00CF980460198456301A800F020
:10174000DFFD2268012138469047064622680321C2
:10175000384690470546226800213846904704469F
:10176000384600F0DAF92B463246414638460094B6
:1017700000F063F9384606F072FABDE8FC817CB5EA
:101780000D46040019D000F063FD0090006F019039
:10179000684600F0B5FD294601A803F027FB0028A4
:1017A0000BD0204600F054FD009001990167684677
:1017B00000F0A6FD204606F052FA7CBD38B50C4676
:1017C00005000ED000F044FD0090B0F95A10A1427F
:1017D00004D0A0F85A40284606F041FA684600F0C6
:1017E0008FFD38BD38B50C4605000FD000F030FD38
:1017F0000022009000EB8201521C0C64022AF9D3F3
:10180000684600F07DFD284606F029FA38BD2DE92E
:10181000FC470D465FEA00094FF000042DD000F0B0
:1018200017FD0190B0F95440A54223D000F08FF885
:10183000804601980121A0F85450C06D8568484643
:101840002A68904707462A6803214846904706467B
:101850002A680021484690470546484600F05DF951
:1018600033463A4641464846009500F0E6F8484679
:1018700006F0F5F901A800F043FD2046BDE8FC871D
:101880002DE9F34F85B000270C46B846059800F0C7
:10189000DFFC0090C06D0121856805982A6890479B
:1018A00082462A6803210598904704902A680221FD
:1018B0000598904703902A680021059890470646AE
:1018C000009806F003FE8346009806F006FE814667
:1018D000009890F83210890601D5B0F9588000F0D0
:1018E00036F805460098C06E10B105F016FF0746A1
:1018F00025806780A4F804A0049AABEB020006EBF5
:101900000802401E2A4420813A44E280039BA9EB4E
:101910000302521E6281A4F80CA020827019E68195
:10192000401E6082684600F0EBFCB4F90C000190A8
:10193000B4F91000029002AA01A9059800F03AF843
:101940000198A0810298208207B0BDE8F08F10B501
:101950000146002091F83220920607D5B1F95400D3
:10196000002803D1486B01F033FA801C10BD70B51C
:101970008AB00C46054600F06BFC0990C06D866885
:1019800009A800F0BDFC009534B1012C06D0022C52
:101990000BD0032C04D10AE0182000E0162001909F
:1019A0007168684688470AB070BD1520F7E71720B0
:1019B000F5E700002DE9FC4117468846044600F093
:1019C00047FC0090C16D056868468E6800F098FC81
:1019D00032680021204690470646204605F03AFE30
:1019E00027E000BF00F034FC0190B0F900102AB2EB
:1019F000B0F90430891A9A1AB0F90230A3EB2543E2
:101A0000B34210D190F82800000605D53868884206
:101A100009DB491E396006E0D8F80000904202DC7C
:101A2000521CC8F8002001A800F06AFC204605F00E
:101A30003DFE0400D6D1BDE8FC812DE9FF4F83B007
:101A40000E460746DDF8409000F002FC0190C16DA3
:101A50008D68FFF77CFF044601A800F051FC2A685E
:101A600001213846904783462A680321384690472B
:101A700082462A680021384690470546B44207D17D
:101A800005998B4504D106998A4501D14D4541D030
:101A9000A41B0026B046384605F0DCFD38E000F017
:101AA000D7FB0090806A010601D5800502E0810520
:101AB00028D50006002825DB24B1224611463846E9
:101AC00006F08AF9009890F8280000060AD50698D2
:101AD000A5EB0902A0EB0A0004FB16013846761CB0
:101AE00006F046F90098008D80050BD50599A5EB09
:101AF0000902ABEB010004FB080108F101083846BC
:101B000006F036F9684600F0FBFB384605F0CEFDDE
:101B10000700C4D107B0BDE8F08F70B586B00646A7
:101B200000F096FB0590D0E91A4505A800F0E8FB07
:101B300054EA050026D069463046FFF7A1FEACB155
:101B4000BDF90620BDF90410204606F0E8F8BDF9FD
:101B50000A00BDF90610421ABDF90800BDF90410CB
:101B6000521C411A2046491C06F02CFB002D09D0BE
:101B7000BDF90600BDF90210421ABDF9041028464D
:101B800006F0CDF806B070BD2DE9F043044640687C
:101B900089B0054605F091FD814600F059FB0290A1
:101BA000D0F84880D0F88070466E02A800F0A8FBFC
:101BB0002068172853D008DC0E283AD00F2811D0FF
:101BC00014284CD015283DD149E01E281ED01F28CE
:101BD0002AD0222840D0312834D10020E06009B03A
:101BE000BDE8F0836FF070414046884503D003F0B4
:101BF000A7FE00F057FC002EF1D0D4E902122068B5
:101C0000CDE90405CDE9061204A81FE0E06800282C
:101C1000E5D02FB1AF4203D0384606F03DFADEE7FB
:101C2000284606F087FADAE72146484605F02FF9FC
:101C3000D5E7E0684168002904DD00680928EFD095
:101C40000A2805D05EB12046C4F80490B047C6E724
:101C5000284606F077FAC2E7C4F80C80BFE72046B2
:101C600005F0C6FBBBE7000010B5002001F020FE28
:101C70006FF07F4001F01EFE012001F055FE0020B4
:101C800001F05AFE002001F061FE002001F01AFE72
:101C90000448006801F018FEBDE81040002001F083
:101CA0001FBE00003C0000202DE9F0410246002547
:101CB0000026002000230024002791F803C00CF028
:101CC0000F0591F803C00CF0100CBCF1000F03D00D
:101CD00091F802C04CEA050591F800C0BCF1000F74
:101CE00031D0146800202BE04FF0010C0CFA00F307
:101CF000B1F800C00CEA03069E4220D183004FF0E9
:101D00000F0C0CFA03F7BC4305FA03FC4CEA04047D
:101D100091F803C0BCF1280F06D14FF0010C0CFA6A
:101D200000FCC2F814C00AE091F803C0BCF1480FEF
:101D300005D14FF0010C0CFA00FCC2F810C0401C99
:101D40000828D1D31460B1F800C0BCF1FF0F34DD16
:101D5000546800202EE000F1080C4FF0010808FA4A
:101D60000CF3B1F800C00CEA03069E4221D18300B7
:101D70004FF00F0C0CFA03F7BC4305FA03FC4CEAD6
:101D8000040491F803C0BCF1280F05D100F1080C40
:101D900008FA0CF8C2F8148091F803C0BCF1480F9F
:101DA00007D100F1080C4FF0010808FA0CF8C2F84E
:101DB0001080401C0828CED35460BDE8F0814161FA
:101DC00070470161704700002DE9F04FDFF828B13E
:101DD00091B04FF0FF35DBF80030B3F922100691D7
:101DE000DE69B3F924A0F469A189814206D8E289A9
:101DF000824203D3471AD4F8008012E0D4E901816B
:101E0000002970D00A8882426DD84D8885426AD3F5
:101E1000801A82B2486800EB8200B0F90070B0F915
:101E20000250781C5FD0307EA27C014600FB02F994
:101E3000207CCDE90710B3F92A60304603F0D0FDCD
:101E4000C0B20E90DBF8001007FB0980A37C8A6B00
:101E50000127CDE90402CDE90273C869089AC17E61
:101E6000807ECDE90001DDE90603514603F02EF93D
:101E7000681C18D046F0020003F0B2FDDBF8000049
:101E8000A37C05FB0981826BCDE90273CDE90412C5
:101E9000C069089AC17E807ECDE90001DDE90603B4
:101EA000514603F013F9DBF800005D46C069417E3E
:101EB000007E814214D9022E12D086F0040003F075
:101EC0008FFD2868C069027EC37E857E02FB03A168
:101ED000437E089A0698534402FB050203F082FAF7
:101EE0000E9803F07DFDDBF80000627C418C11440C
:101EF000418411B0BDE8F08F400000200448006824
:101F0000C069C06909B1027C0A60407C704700006A
:101F100040000020022008807047C06982898A4200
:101F200002D8C2898A4210D2806880B102888A426F
:101F30000DD843888B420AD3406800EB8100A0EBA8
:101F40008200B0F90000002801DB0120704700206A
:101F5000704700002DE9F0432F4C034687B02068FE
:101F60001946B0F92A80C069C06900F082F80028DB
:101F70004ED041680088181A01EBC0054046AE7883
:101F800003F02EFD814620686A680123816BCDE94C
:101F90000236CDE90421C169CB7E8A7ECDE90023DA
:101FA0000B7EB0F924102A78B0F9220003F08EF8E5
:101FB0002068C069477E067EB7421DD9C07E474370
:101FC0004643B8F1020F17D000F0B5FE804600F08E
:101FD00095FE01F06FFC21682A78CB69B1F92200E7
:101FE000B1F92410DB7E02FB0302CB19314403F06C
:101FF000F9F9404601F05EFC484603F0F1FC206828
:102000006A78C369B0F922109B7E02FB03114184F8
:1020100007B0BDE8F08300004000002030B50E4C52
:1020200005460B4620682946C069C06900F021F8C2
:10203000002810D04168008824682A1A0120E46929
:1020400000EBC200085CA47E6043002B03D011F8B3
:1020500032106143196030BD40000020012008802B
:10206000704700B5C06900F004F8002800D00120D6
:1020700000BD06E002888A4202D842888A4202D223
:1020800080680028F6D17047002801D007F07CB89E
:10209000704738B50546FFF7F7FF040009D000F098
:1020A000D7F82A460021009002F011FF684600F0A0
:1020B00027F9204638BD0000024A106021F00300D5
:1020C000506070470086002010B5002814D00446E8
:1020D0000A48406B10F8341000290DD002290BD2A9
:1020E000042101EBC4014158486806F04BFF20462B
:1020F000BDE810400BF030B910BD00004085002055
:10210000002805D0034AD16B016001B14860D0635B
:10211000704700004085002010B504460068FFF7B6
:10212000D3FF0020206010BD70B50D460646002488
:1021300005E000BF06EB8400FFF7EEFF641CAC4235
:10214000F8DB70BD2DE9F04104460AF0F3F92848A8
:10215000E41C24F00305016C2D1DA94200D90D4695
:10216000C46B13E054F8042CAA420ED184B1216848
:1021700009B162684A60616809B122680A60C26B8D
:10218000A24231D12168C1632EE02468002CE9D13C
:102190008046816BC0680F1857F8040C3E1A3068EF
:1021A00038B100200BF042F957F8040C3E1A3068A1
:1021B000D0B97068A84217DB3044441B3046241D58
:1021C0000BF0ECF8D8F80C10491BC8F80C10D8F834
:1021D00014102944C8F814107068401B02D031460E
:1021E00006F0D0FE44F8045C2046BDE8F081000013
:1021F0004085002010B500240AF09CF90C490F20FE
:1022000001EBC002526C1AB101EBC000406C08E057
:10221000401EF5D508E04168A14200D90C4680680F
:1022200010B180680028F6D1A4F10C0010BD0000A8
:1022300040850020002138B10449042202EBC0008F
:10224000496B085841680C390846704740850020A2
:102250000549CA69521CCA61496B01EBC0010A7881
:10226000521C0A7000F064B8408500207CB5064618
:102270000C460846FFF708FF05001CD0DEB13046CB
:10228000FFF7D8FFA04200DA04462846FFF7E0FF38
:1022900000903046FFF7DCFF01460190224600988F
:1022A000FEF748F8684600F02BF801A800F028F87F
:1022B0003046FFF709FF28467CBD000010B5FFF748
:1022C00099FF64220649B0F5800F04D990FBF2F023
:1022D000096A484310BD096A4143B1FBF2F010BDE1
:1022E000408500200549102805D94A68B0EB520FF7
:1022F00002D3500800E0102088607047008600205C
:102300000A4902684B6B52F8082C03EBC20213789F
:10231000022B03D3CB690BB15B1ECB611178491E35
:1023200011700021016008467047000040850020C0
:10233000002806D00349042202EBC000496B08586C
:102340000830704740850020F0B52D271C68B0F19B
:10235000004F08D0002600280DDA651C1D6027708C
:102360004042012408E0651C01261D606FF000401A
:102370002770491E01E00024091BC9B22AB3491E77
:10238000C9B222E00C46491EC9B2944205D1124C92
:1023900027781C68651C1D602770104C54F821506C
:1023A00090FBF5F4E4B20A2C11D804FB150011B926
:1023B0000EB1641CE4B20A2C02D10124491CC9B23A
:1023C0001D686F1C30341F602C700029DAD1196829
:1023D00000200870F0BD000034000020AC3A010875
:1023E00010B5002807DD0A682B24531C0B601470FD
:1023F000096800220A7010BD70B506460D461446E5
:10240000104600F09FFC0300164804EB84010AD03C
:1024100050F8210041688068711A2A1ABDE870409E
:10242000184601F05BBA00EB8104A268B24201D009
:10243000012200E00022E368AB4201D0012300E06A
:1024400000231A430CD0236943B150F8210081685E
:1024500040686A1A311A184601F0FAF9C4E90265AF
:1024600070BD00006487002010B5C2B2CBB2D21A92
:1024700000D5524293B25B43C0F30722C1F3072455
:10248000121B00D55242000C92B2A0EB114002FB8D
:10249000023200B2002801DA404200B280B200FBF2
:1024A000002010BD10B50021084600F0A5FC43F641
:1024B000FF725042BDE8104013460146AFF3008062
:1024C0002DE9FC4107461C4615460E46042003F044
:1024D00087FA80461148C068C16C006D0F440644FD
:1024E0000D440444ADF80070ADF80450ADF802603E
:1024F000ADF80640684605F0F7FF07E023462A4698
:102500003146384602F06EFF05F0A2FF0028F5D1F3
:10251000404603F065FABDE8FC810000340000206D
:10252000B0F90630B0F90420B0F90210B0F900009B
:10253000FFF7C6BF2DE9F8431C00DDE908981646F1
:102540000F46054602D105F067F8044600962E684E
:1025500043464A4621462846B047061E35D005F078
:102560004FF88146698A304604F021FD304605F077
:1025700055FE484605F052FE4FF000080CE000BF43
:10258000CDF8008055F81CCF00231A46494628464E
:10259000E047E0B105F042FE7F1E002FF0DC1D2178
:1025A000484605F0CCFC601C0ED005F05BF830B15D
:1025B000FFF7BEFE8469B44201D02000F8D1B442D6
:1025C00002D0304605F0B6FD3046BDE8F88330460F
:1025D00004F042FF0020F8E72DE9F0411C461646C2
:1025E0000D460746022B02DB0020BDE8F0811C20CF
:1025F000FFF7A8FD0028F8D00DB105610AE0094AEF
:1026000052F8241009B905E011460A68002AFBD1E6
:102610000969016184618682002101604160C0E92D
:102620000217E2E75800002070B51D46FFF7D4FFFF
:10263000040009D000F00EF8E068006820B90348F3
:10264000006800EB85008465204670BD40000020D6
:10265000FFF756BD70B590B38269022A30DA1E4C7E
:1026600054F8221019B944F8220032E019464B6898
:10267000002BFBD106E0CB68C5681B682D68AB4218
:1026800003DD09680029F6D11AE0C1B1CB68C6683C
:102690001B683668B3420CD1838A012B05D008E051
:1026A0001946DB681B68AB4203DB0B68002BF7D1D4
:1026B00029B14B6833B118604A68426004E0FFE713
:1026C000012070BD44F822004860884200D10021FA
:1026D0000160002070BD0000580000200A4A816996
:1026E00052F82130834202D1036842F82130416818
:1026F00009B102680A60016809B142684A600021B4
:10270000016041607047000058000020022801DB92
:1027100000207047054951F8200004E0C1680968AD
:102720000029F6D000680028F8D170475800002032
:102730002DE9F8431D461646884604000CD0FFF7E5
:1027400087FD0090006807686846FFF7D9FD2B46B3
:10275000324641462046B847BDE8F88370B5044686
:1027600001F082FC051908E000F01EFA052C01DDDD
:10277000052000E0204601F069FC01F075FC2C1AF0
:10278000002CF1DC70BD00002DE9FC4706005BD099
:1027900000F0E2FA3B4C81462068B0F9228000F05C
:1027A000FDFA216807468A8CD01B888441E000BF6F
:1027B00047F6FF71304602F0A5F9824601463046E1
:1027C00002F076F92168054691F82C0000F003002C
:1027D00001283FD0022839D000204A8C101A4884A2
:1027E000ADF800006A1E1044ADF80400888CADF806
:1027F0000200A9F101010844ADF806006A465146FD
:10280000304601F00BFE2168BDF802008884514675
:10281000304601F0E9FA064430780A281CD00D2829
:102820001AD0BDF80000216828444884307818B1D7
:10283000761C30780028BBD12068818C3944818493
:10284000818D21F003018185BDE8FC8705EBD57002
:102850004010C2E72846C0E7206890F82C1001F02D
:10286000030101290BD0022909D0018C4184317860
:102870000A29DBD1828C02EB09018184D6E7A0F81A
:102880002280F4E740000020024B1B6859849A84A0
:10289000FFF77ABF4000002047F6FF73AFF30080D8
:1028A0002DE9FC411F46904606000D464FF00004FE
:1028B00016D065B1084605F0A5FC040007D0024615
:1028C0002946684602F08BF9684605F09BFC3B46BA
:1028D00042462946304601F0F9FD204605F092FCBB
:1028E000BDE8FC812DE9FF4F87B09046894607007F
:1028F00079D00C68D9F8045021B228B2401A401C93
:10290000029000F029FA064618F00C0F1ED0384647
:102910000A9A029901F071FB08F00C01042904D015
:10292000082902D00C2911D104E0291400FB16104B
:10293000401C09E02114C1EB254200FB1620401C7D
:1029400000EBD07001EB600060F31F44484605F0D7
:1029500059FC5FEA000B09D00246494604A8CDE9BC
:10296000044502F03CF904A805F04CFCA6F1010A6C
:1029700038460A9A029902F079FA03900AEB244049
:1029800060F31F45CDE900453846039902F090F801
:1029900018F003010ED0012928D002290ED1B9F96F
:1029A0000420B9F90010521A101A00EBD07001EB94
:1029B000600001E0B9F80000ADF800006A46384652
:1029C000039901F02BFD38460A9A029902F044FA65
:1029D000074406EB244060F31F4438780028C7D131
:1029E000584605F00FFC0BB0BDE8F08FB9F80410A5
:1029F000081A401CE0E700002DE9F04F164C87B0A4
:102A00002568DDE91098EC6C2718286DA518461884
:102A1000C418ADF81070ADF81450ADF81260ADF8F0
:102A2000164004A805F060FD002811D0DFF82CB096
:102A30004FF0010ACDE90098CDE902BA23462A46B3
:102A40003146384608F05EFA05F002FD0028F1D163
:102A500007B0BDE8F08F000040000020D152000810
:102A60002DE9FC41104F04463B68D86C4518196DA0
:102A7000ADF800500E198418ADF80440ADF80260AE
:102A8000ADF80660684605F02FFD08E0386822467C
:102A90003146406E03682846984705F0D9FC002867
:102AA000F4D1BDE8FC810000400000207CB50E4D53
:102AB0002A68D36C1E18106DADF804604418ADF888
:102AC0000060ADF80640ADF80240684605F00CFD28
:102AD00007E028682146406E42683046904705F07E
:102AE000B7FC0028F5D17CBD400000202DE9FC4159
:102AF0001C4C2468E66C94F818C03718206DACF1B3
:102B0000010C4518C418A7EB0C001644ADF80000E2
:102B100006EB0C00ADF80400A5EB0C00ADF80200CC
:102B200004EB0C00ADF80600684605F0DDFC15E08E
:102B300032462946384602F0CBFB3246214638461B
:102B400002F0C6FB621E691C384602F021FC621EC0
:102B5000691C304602F01CFC05F07AFC0028E7D125
:102B6000BDE8FC81400000207CB50E4B1B68DC6C8E
:102B70002618186DADF8006045188418ADF804608B
:102B8000ADF80250ADF80640684605F0ADFC06E031
:102B900022462946304602F0FBFB05F059FC00288E
:102BA000F6D17CBD4000002010B5002400E00124D7
:102BB00000F004F80028FAD1204610BD094810B5ED
:102BC0000068002410B1804700B1012404F0C4FC67
:102BD00000B101240448006810B1804700B101240D
:102BE000204610BD64000020600000202DE9FC415B
:102BF0000F4C2568EC6C2718286DA5184618C418CA
:102C0000ADF80070ADF80450ADF80260ADF80640C4
:102C1000684605F069FC07E023462A4631463846F7
:102C200002F0E0FB05F014FC0028F5D1BDE8FC81C2
:102C300040000020B0F90630B0F90420B0F90210CD
:102C4000B0F90000FFF7D2BF08B50B46002805D049
:102C5000009281888268C08800F001F808BD10B534
:102C60000828029C30D008DC04FB01F401280AD0BB
:102C7000022813D0042804D11CE0102828D02028D2
:102C80002CD0002010BD04EBD30003F00701105C32
:102C9000C1F10701C84000F0010010BD04EB930032
:102CA0000621105C01EA4301C1F10601C84000F0B1
:102CB000030010BD04EB5300D907105C02D000F0F4
:102CC0000F0010BD000910BD04FB0130105C10BDE9
:102CD000481004FB003032F8100010BD881004FBCF
:102CE000003052F8200010BD034951F82000C1689F
:102CF0008A6A0821104700005800002010B502F031
:102D00000BFCBDE8104002F0B1BC000002490968AC
:102D1000C9694A680021104740000020024A126831
:102D2000D26952681047000040000020002801D0FE
:102D300004F056BC704710B502F0F6FBBDE8104039
:102D400002F094BC0021022802D2024951F820105E
:102D500008467047CC01002002480068C069407EE8
:102D6000704700004000002070B514460D4602F088
:102D70000FFC002802D000202860206070BD01F008
:102D8000EBBE10B5044601F0D9FE01462046BDE871
:102D9000104001F08DBE01F067B900000A49002023
:102DA000096891F82C2002F00C02042A07D0082AA6
:102DB00001D00C2A02D1C869007E40087047C8695A
:102DC000007E401E7047000040000020407E70479B
:102DD000017EC07E48437047024951F820000069D7
:102DE0000068704758000020024951F8200000692F
:102DF000406870475800002070B50D4609F084FA0D
:102E00000446284609F088FA204370BD2DE9F041B8
:102E10001948016821F00101016018480125856009
:102E20001749016000681749884200D0FEE701F0A9
:102E300027FA154E2E20307001F01CF9134809F0C6
:102E40002BFB0BF073FE074602F0CAFB10B102F039
:102E5000DBFB38B902F0E1FB044602F0CAFB214675
:102E600002F0B8FD0021084600F042FD04F052FED9
:102E700075703846BDE8F081002000E00030024067
:102E8000C2A507F4CDB5E8B5340000200C860020BB
:102E90002DE9FC4107461C4615460E46012000F070
:102EA00011FD804611480068C16C006D0F44064456
:102EB0000D440444ADF80070ADF80450ADF8026064
:102EC000ADF80640684605F00FFB07E023462A46AA
:102ED0003146384602F086FA05F0BAFA0028F5D1F4
:102EE000404600F0EFFCBDE8FC81000040000020FF
:102EF0001CB520B90C480068006E002812D0FFF7FE
:102F0000A7F9009044696846FFF7FAF9002C09D048
:102F10002046FFF79DF9019081688968884701A8DC
:102F2000FFF7EEF91CBD00004000002001490A46F1
:102F300000F002B801F0FFFF2DE9F04387B015461D
:102F40000C465FEA000842D0002000F0BBFC81463E
:102F500020480068066E4046FFF77AF90090006846
:102F6000806900F08DFC074640F6FF70C44204D132
:102F70000098B0F90440B0F906500098611E02892B
:102F8000ADF804401144ADF808104189681E0844AA
:102F9000ADF80650ADF80A0004F008F96846FFF7EE
:102FA000AFF901A805F0A0FA06E02A4621464046FE
:102FB00000F04EFB05F04CFA0028F6D1384600F040
:102FC0005FFC304600F066F9484600F07BFC07B035
:102FD000BDE8F083400000202DE9FE4F83461A48EB
:102FE0008A461A4900680C9E9846407C9146002704
:102FF00051F82040E1680968042903D02468002CB6
:10300000F8D100E01CB9FFF781FB041E19D0E0687D
:103010000121C26A20469047050011D02469A068AA
:103020008047401C02D10A4C46F001060096CDE9CB
:10303000015443464A465146584600F0AFF9074608
:103040003846BDE8FE8F00004000002058000020F8
:10305000C031010838B5040018D00D480068006E72
:10306000A04201D100F002FC2046FFF7F1F80090E9
:10307000406908B100F0AFFF00980068FFF7E8FA78
:103080006846FFF73DF92046FFF71EF838BD0000FF
:10309000400000202DE9FF4FDFF83891074683B04C
:1030A000D9F800009A468B46447C4B4800570128CB
:1030B000204606DD02F09AFA0546204602F0AAFAFA
:1030C00005E002F07BFA0546204602F07DFA044650
:1030D0001FB302A901A8FFF752FEB7F900000028AC
:1030E00000DA0020B7F902608046002E00DA0026E0
:1030F00001984119B7F90400491E09F0A6FB0546DD
:1031000002980119B7F90600491E09F09EFBA5EBCC
:103110000802841B521C641C03E04FF00008464662
:103120002A46BAF1000F01D1C4F1000A002A4FDD8E
:10313000002C4DDD10980090534631464046FFF775
:103140004BFF5FEA000A10D000F06AF80746A04281
:1031500006D0D9F80000806C10B1322105F05EFD78
:10316000504600F097F8002521E059460598884719
:10317000012007B0BDE8F08F611BB94202DA50466A
:1031800000F072F83DB172194146504600F0A4F8C3
:103190005046FFF7ADFE5946059888470F4801682D
:1031A00009B1002088475046FFF7C0FE3D44A542C4
:1031B000E2DB5046FFF74EFF002000F06BF8A7421D
:1031C00006D0D9F80000806C10B1332105F026FD3F
:1031D0000020CEE7400000207800002014020020EC
:1031E00038B5002460B1FFF733F80090006800693B
:1031F0008068804702F0A2FD04466846FFF780F829
:10320000204638BD38B5002808D0FFF721F800F176
:10321000180400906846FFF773F8204638BD000098
:1032200038B5002418B907480068006E38B1FFF7B8
:103230000FF80090B0F90A406846FFF761F82046A1
:1032400038BD00004000002070B505460024284627
:1032500006F038FA641C18B1BDE8704000F068B898
:10326000052CF4DB70BD000038B50C4620B90848C9
:103270000068006E00280AD0FEF7EAFF0090B0F95F
:103280000A10A14200DD44816846FFF739F838BDD5
:1032900040000020F8B50F4E05003068046E16D0CF
:1032A0000CB100F0E3FA04F099F82846FEF7D0FFDD
:1032B000009031680D660068FFF7CCF96846FFF7AB
:1032C0001FF802F0EBFB02F065FB2046F8BD00F0B2
:1032D000CDFAFAE7400000207CB515460C4620B92F
:1032E00012480068006E00281FD0FEF7B1FF2DB213
:1032F0000090C58024B2848002F04CFB00984069A5
:1033000080B1FEF7A5FF009A0190B2F90810818004
:10331000B2F90A20C28011B10AB10480458001A827
:10332000FEF7EEFF6846FEF7EBFF7CBD4000002095
:1033300001490A4600F002B801F0FFFF7FB51546CB
:103340000C46060028D0FEF783FF40F6FF7101907F
:10335000CC4203D1B0F90440B0F906500289611E95
:103360001144ADF80840ADF80C104189681E0844BE
:10337000ADF80E00ADF80A5001A8FEF7C1FF02A893
:1033800005F0B2F806E02A462146304600F048F93A
:1033900005F05EF80028F6D17FBD00002DE9FF4F53
:1033A000DFF8E8B083B01C46DBF80010DDE9106000
:1033B00092464FF000084B7C42461299FFF70CF9F9
:1033C000050060D028698068804702F0B7FC81461C
:1033D0000AFB09F1C91DCF08FEF770FFF10705D1FF
:1033E000C11700EB9170801000EB4000002C09DC4D
:1033F0001FB11838B0FBF7F000E000206442A04293
:1034000000DC0446F00707D10090DDE90301234604
:10341000524600F069FD8046002C03DC2846FFF789
:1034200017F930E004FB07F01830F10702D0FEF77F
:103430002BFE01E0FEF72DFE06001CD0FEF708FF74
:1034400001900560039981800499C180A0F808A0CB
:103450004481C0F81480C0E9037901A8FEF750FF49
:103460001298AE602861DBF80000407CA86130460D
:1034700007B0BDE8F08F2846FFF7EAF8B8F1000082
:1034800001D0FEF721FE0020F2E7000040000020FE
:103490002DE9F74F8EB0144689460E98FEF7D8FEF8
:1034A0000990B0F908B0B0F90A6000680069406896
:1034B0000C9009A8FEF724FF564D574F2868407C12
:1034C00057F82000C1688A6A082190470790182899
:1034D00001D3202007902868407C57F8200000691D
:1034E000069003C80B904D48814201D0012000E0B6
:1034F00000200A90002000F0BEFD00287DD1286841
:1035000009EB0B01B0F90C20891A491E002902DDD4
:10351000ABEB010500E05D46B0F90810494505DD5B
:10352000A1EB090189446D1A089101E0002108917D
:10353000002D6BDDB0F90E20A119891A491E002952
:1035400002DDA6EB010800E0B046B0F90A00A04297
:1035500004DD061B3444A8EB060800E00026B8F1A1
:10356000000F53DD089801900DA95F46DDF830A0EB
:103570000E980091FFF746FE774300EB8701019814
:103580002B4601EB800200994846CDE900A1214677
:1035900001F03EF80090002838D00A98E8B1DDE943
:1035A00006322946009800F065FEB0B90698009FE3
:1035B000DA46D0F810C0BCF1000F05D004235A46FB
:1035C00039463846E04708E00B993868884701C714
:1035D000AAF101005FEA000AF6D100990020079ADB
:1035E000CDE90301059001200090CDE901022146BB
:1035F0000346641C2A46484600E007E001F066FDE9
:10360000A8F10100761C5FEA0008ABD111B0BDE85B
:10361000F08F000040000020580000208B5600086A
:10362000F8B515460E460746FEF712FE00900068F4
:103630001621C068426A0020904704466846FEF79B
:103640005FFE002C03D02A4631463846A047F8BD1D
:10365000F8B516460F46050012D0FEF7F9FD0090AA
:1036600044696846FEF74CFE2846FFF7B9FD03465D
:10367000082800DD2CB13246394628460AF0BAFC4B
:10368000F8BD3246394628460AF054FEF8BD10B55A
:10369000002821D009B30AB3B1F90040B2F90030D3
:1036A0009C4200DA23460380B1F90240B2F90230AD
:1036B0009C4200DA23464380B1F90440B2F9043059
:1036C0009C4200DD23468380B1F90610B2F9062042
:1036D000914200DC1146C18010BD11460A680260AB
:1036E0004968416010BD00280BD003880B4403805B
:1036F000838819448180418811444180C1881144E4
:10370000C180704770B50E4D0446D5E9000188426E
:1037100009D10C49884201D13C3000E00C3807C87F
:1037200084E8070006E090E80E0084E80E0008F048
:1037300009FE2860207A002800D0012070BD00001A
:10374000C80300208C8700200448D0E90010814283
:1037500001D101207047002070470000C8030020FD
:10376000054A10B5034911600AF0E0FABDE81040BF
:1037700000F0F6B83D7700086800002070B5094CED
:103780000020D4E900218A420AD0D2E9005610462E
:1037900008F0E2FD20603146284604F0F3FA0120EB
:1037A00070BD0000BC0100202DE9FC41154DDDE994
:1037B00008742D68B5F90860864200DD3046B5F919
:1037C0000C60964200DA3246824219DBB5F90A6093
:1037D0008E4200DD3146B5F90E509D4200DA2B468F
:1037E0008B420DDB00E02C46E5682D6825B1042DE9
:1037F00002D02568002DF6D1CDE9007401F0B4FFA8
:10380000BDE8FC8140000020B0F90220B1F906308B
:103810009A4213DCB1F90220B0F906309A420DDC6D
:10382000B0F90020B1F904309A4207DCB1F9001078
:10383000B0F90400814201DC01207047002070478C
:103840000146024870220068FCF7FBBD40000020E2
:10385000002801D009F0CABF704700000249702259
:103860000968FCF7EEBD00004000002010B502F032
:1038700047F802F013F9BDE8104003F097BC0000D0
:1038800070B5094D0446022C2868467C09D22046B2
:10389000FEF73CFF28B128684474FFF7E7FF0348B0
:1038A0000460304670BD000040000020440100204C
:1038B00002F046B802F07CB8014988607047000009
:1038C0003400002002F08CB803490968CA6900B1CD
:1038D000C8611046704700004000002002F09CB80C
:1038E000024909688A7E88761046704740000020A9
:1038F000094A30B41080094A1180094A1268537C81
:10390000084A52F82330DA68146A0A46A446014687
:1039100030BC184660470000800000208200002074
:103920004000002058000020024909680A7E0876FD
:10393000104670474000002003490968B1F92C2067
:103940008885104670470000400000200349096840
:10395000B1F92A2048851046704700004000002039
:1039600002480068002800D000477047F40100209A
:1039700002498A6802B98860FFF7F2BFBC010020E3
:103980002DE9FC410746984616460D461C20FEF7D9
:1039900080FB04002DD01B49194808602046FEF723
:1039A00057FC009015B9FFF7F6F905460098076037
:1039B000C0E90465A0F80C806846FEF7A1FC20462B
:1039C00008F0ECFE104DA86840B90120A86005F190
:1039D0000C010E480860084601F000FA2046FEF788
:1039E00037FC0190296839B181602C6001A8FEF78D
:1039F00087FC2046BDE8FC8100212C608160F5E752
:103A00002D3A000864000020D403002055CB0008A4
:103A100010B5040009D009F0DBFC20460AF038FAA2
:103A20002046BDE81040FEF74FBB10BD2DE9F04128
:103A3000184C88B00025676825E000BFFFF7ABF998
:103A400006466068FEF704FC01904169891B002965
:103A500015DC61680296049101690391466866600D
:103A6000D0F8008001A8FEF74BFC02A84146884729
:103A700066B160680125B84205D1002506E001A8BD
:103A8000FEF73EFC02E060680028D7D108B0284667
:103A9000BDE8F081D403002038B50C4660B1FEF7D4
:103AA000D7FB00908089204201D0012400E000244F
:103AB0006846FEF725FC00E00124204638BD38B5F5
:103AC000040012D0FEF7C4FB0090FFF764F9014632
:103AD00000988269114441616846FEF711FC204656
:103AE0000AF0D6F9204608F059FE38BD38B50C4624
:103AF000002806D0FEF7ACFB009084616846FEF714
:103B0000FFFB38BD38B5054600202860064804682C
:103B100044B12046FEF79CFB00900069286068468F
:103B2000FEF7EEFB204638BDD403002038B5040074
:103B30004FF000000D46086011D02046FEF788FBCC
:103B40000090846844B16846FEF7DAFB2046FEF731
:103B50007FFB0090006928606846FEF7D1FB204695
:103B600038BD000070B5174C06460D463268E16856
:103B700001208A421EDB2968236999421ADB6369A6
:103B80009A4217DCA269914214DC2946304600F0C3
:103B900093F800280ED133680022002B01DA32603E
:103BA00004E061688B4201DB491E31602B68002B09
:103BB00001DA2A6070BDA1688B42FBDB491E2960D7
:103BC00070BD0000D801002070B5254C86B060782B
:103BD000F8B100F0C1F8E06000F0BCF8E0680390D4
:103BE0002069049000F03EF88DF8090004A903A8AC
:103BF000FFF7B8FF0025B0B1A07870B360680090FF
:103C0000A06801908DF80850684600F031F8A57062
:103C100023E000F0A3F8206100F09DF86078401CDC
:103C2000607006B070BD039A6068111A00D54942F1
:103C3000049BA068181A00D54042A67816B1084423
:103C400002280ADD62600092A360012601938DF8CC
:103C50000860684600F00CF8A6706570E1E70000A7
:103C6000840000200148407A70470000108700203F
:103C70003EB504460C220E49FCF7EDFA002813D09D
:103C80000B4894E80E0080E80E000A48026862B112
:103C900094E80B008DE80B00684601A990470028C6
:103CA00002D16846FFF75CFD3EBD2046FAE7000002
:103CB000EC860020D40100202DE9F047054622487B
:103CC0000E460068E0B3D5F8008030680BF0EAFAE1
:103CD0001E4C814661680BF0FDFA074640460BF02A
:103CE000E1FA804621680BF0F5FA39460BF078FAD4
:103CF000A1680BF075FA0BF047FA154F00223B460E
:103D00000BF02CF80BF0D2F82860484621690BF034
:103D1000E1FA05464046E1680BF0DCFA29460BF073
:103D20005FFA61690BF05CFA0BF02EFA00223B4659
:103D30000BF014F80BF0BAF830600020BDE8F08703
:103D4000FFE70120FAE70000D8010020F8860020F4
:103D50000000E03F70477047002070470020704728
:103D6000014A1268D26810474400002001490968DE
:103D70000968084744000020014909684968084764
:103D80004400002001490968896808474400002070
:103D90002DE9F041084E0446056830680168284660
:103DA000884707463068416828468847284420608D
:103DB0003846BDE8F0810000440000202DE9F041C4
:103DC00000250E4680462C46064F06E0396808EB73
:103DD00004004968884704446D1CA642F6DC284666
:103DE000BDE8F081440000202DE9F0410C46064674
:103DF0000025064F05E0386841683046884706448C
:103E00000544641EF7D22846BDE8F0814400002036
:103E10002DE9F0411E46069C1746884605463A465F
:103E2000A8687F1C3346D0F804C041462846E047C6
:103E3000641EF4D1BDE8F08170B5B0F90040091BF3
:103E4000B0F904408C422CDD00F11404B0F90250AA
:103E50000069521B02FB0040CA1800EBE104521E2D
:103E6000D010B0EBE10501F007034FF0FF0102F0C5
:103E7000070221FA03F0C2F1070201FA02F1CEB201
:103E800021780FD001436D1E04F8011B002D05DDC4
:103E9000FF2229462046FCF706FB2C4420783043BD
:103EA000207070BD30400143217070BD10B5B0F975
:103EB0000030B0F90240C91A00F114030069121B66
:103EC00002FB003000EBE10001F0070302788021E3
:103ED000D9400A43027010BDB0F90610026951437F
:103EE0001430FCF7E8BA00002DE9F843804602F1EF
:103EF0000F000011470003FB07F01C4615468946DA
:103F00001430FEF7C6F8060013D0FEF7A1F90090B2
:103F1000A0F80080A0F802908580C48006498160E6
:103F20000121818107616846FEF7EAF93046BDE864
:103F3000F8830020FBE700004C3A010870B5B0F9A7
:103F40000660B0F904400B6800F1140596421BDDD1
:103F50000069A34202FB005000EBE30214DA641E86
:103F6000E010A0EBE30512F8010B03F00704A040FA
:103F7000C4B206E045B1083312F8014B23F0070341
:103F80006D1E002CF6D004E0002070BD6006040E0B
:103F90005B1C2006FAD5FF2C07D0184602E0640609
:103FA000240E401C6606FAD400E0D81DC443640702
:103FB00005D006E012F8014BFF2C09D108306D1E28
:103FC000F8D5C01A401C0B6070BD6206140E401C70
:103FD0002206FAD4F5E738B50546FEF739F9009020
:103FE0008189491E0CB284816846FEF789F9002C4C
:103FF00002D12846FEF768F838BD2DE9F041164693
:104000000F460546002432463946284600F024FF74
:10401000054408B1641CF6E72046BDE8F0810000C5
:1040200010B54FF4F04100200AF07AFE04464FF438
:10403000F0412046FEF740F88020FEF753F9024891
:10404000FFF73AFC10BD0000B4FD0008044A1268F6
:10405000111800BF024A12688A1A002AFADC704757
:104060000C00002070470000014800687047000005
:104070000C00002070470EB508B102AA00E0002233
:10408000002301A9684600F0ADFC0EBD074910B53C
:104090000C7818B101200870801E03E00020087021
:1040A0006FF07F4000F0FCFF204610BD7A0000203A
:1040B0002DE9F041984616460C4688B3FEF761FE9E
:1040C000074608F00300012825D0022817D0B4F9CC
:1040D000005000BFFEF740FE014608F00C00042827
:1040E0002BD00C281DD0B4F9020035807080EA195D
:1040F000521E0844B280401EF080BDE8F081B4F941
:104100000400B4F90010401AC01B401C00EBD07032
:1041100001EB6005DEE7B4F90400C51B6D1CD9E7AF
:1041200010E0B4F90600B4F90220801A401A401CCD
:1041300000EBD07002EB6000D7E7B4F90600401A3C
:10414000401CD2E72068306060687060D5E70000EE
:1041500010B5082A0EDC0346012A18D0022A56D0D0
:10416000042A76D010F8042B03F8012B491EF9D14C
:10417000012010BD102A08DC4FEA000230F8043B91
:1041800022F8023B491EF9D1F2E7002010BD10F8D9
:10419000042BD207120E491E34D010F8044B491ECE
:1041A00004F0010442EA84122CD010F8044B491E9A
:1041B00004F0010442EA441224D010F8044B491ED2
:1041C00004F0010442EA04121CD010F8044B491E0A
:1041D00004F0010442EAC40214D010F8044B491E52
:1041E00004F0010442EA84020CD010F8044B491E8A
:1041F00004F0010442EA440204D010F8044B04F035
:104200000104224303F8012B0029C0D1B0E710F8C4
:10421000042B9207120E491E15D010F8044B491EAC
:1042200004F0030442EA04120DD010F8044B491EB6
:1042300004F0030442EA840205D010F8044B04F0B1
:1042400003042243491E03F8012B0029DFD18FE725
:10425000FFE710F8042B1207120E491E05D010F8C4
:10426000044B04F00F042243491E03F8012B0029DC
:10427000EFD17DE738B50024009400F01BF838BD7D
:104280000A4810B5816900290ED101218161FFF72B
:10429000C7FE01F015FC054905481C310860BDE862
:1042A0001040084600F09ABD10BD00003400002008
:1042B000B9CA00082DE9F0410D460699044601B936
:1042C00001461F68082A09DC0E46012A1AD0022A74
:1042D0005BD0042A7DD0082A13D18DE0102A07DC98
:1042E000D3F810C00E46BCF1000F04D0022389E0C1
:1042F0000020BDE8F08101CCB84726F8020B6D1E06
:10430000F9D189E001CCB847C0074FEA10686D1EAB
:1043100036D001CCB84748EA801000F0FF086D1E87
:104320002ED001CCB84748EA401000F0FF086D1EBF
:1043300026D001CCB84748EA001000F0FF086D1EF7
:104340001ED001CCB84748EAC00000F0FF086D1E3F
:1043500016D001CCB84748EA800000F0FF086D1E77
:104360000ED001CCB84748EA400000F0FF086D1EAF
:1043700006D001CCB84740EA080000F0FF086D1EE7
:1043800006F8018B002DBDD146E001CCB84780076F
:104390004FEA10686D1E16D001CCB84748EA0010ED
:1043A00000F0FF086D1E0ED001CCB84748EA80002F
:1043B00000F0FF086D1E06D001CCB84740EA0800A7
:1043C00000F0FF086D1E06F8018B002DDDD123E003
:1043D000FFE701CCB84700074FEA10686D1E06D012
:1043E00001CCB84740EA080000F0FF086D1E06F84F
:1043F000018B002DEDD10FE0D3F810C0BCF1000F00
:1044000004D001232A462046E04705E001CCB84706
:1044100006F8010B6D1EF9D101206AE77CB506464E
:1044200028480D46006868B1002004F05DF806E0F9
:104430006A462946304605F043FA04F009F8002898
:10444000F6D17CBD106800901F4C50680190226826
:10445000BDF8000032F84C1F0844ADF80000BDF86C
:10446000020091880844ADF80200BDF804001188EC
:104470000844ADF80400BDF8060091880844ADF882
:104480000600684604F030F80EE000BF2068BDF872
:1044900000106A464184BDF80210818429463046E6
:1044A00005F00EFA03F0D4FF0028EFD1206830F8B1
:1044B000221F428D891A01804188C28D891A41804C
:1044C0007CBD00007C000020400000202DE9FF4F53
:1044D00085B09A4690460D46FEF73EFC4FF0000927
:1044E000DDF814B006464C4625B12868009068688F
:1044F000019002E06846FEF719FC18F00C0F02D09C
:104500005546002713E0BDF902402DE029467F1CE7
:10451000059800F0F7FA01466D1A0598FFF764FC5C
:1045200005990844059005A800F030FB08B9002D56
:10453000ECD108F00C00042804D0082802D00C2884
:1045400012D105E0BDF9060007FB1604641C0BE060
:10455000BDF90600BDF90210401A07FB1600401C09
:1045600000EBD07001EB60045546CDF814B043E089
:104570002946059800F0C6FA07460146ED1B059846
:1045800000F096FA18F003010ED0012939D0022963
:104590000DD1BDF90410BDF90020891A091A01EBEB
:1045A000D17102EB610101E0BDF900108946174AA3
:1045B000401E484412683946A2F822909484ADF80F
:1045C0000C00A019401EADF80890ADF80E00ADF833
:1045D0000A4002AA0598FFF721FF39460598FFF720
:1045E00003FC059908440590FEF7B6FB044405A8B2
:1045F00000F0CCFA002801D1002DB9D109B0BDE8F6
:10460000F08FBDF90410091A491CCFE740000020C3
:104610002DE9FF4F8DB00020DDF86CA0164600900C
:104620001D4604460246CAF8000008AB03A902A8CA
:1046300000F0D8F918B1002011B0BDE8F08F08984B
:10464000854200DD0546614F0B9561493868407C25
:1046500051F82010049109690691FEF745FB059079
:104660003868407CFEF7C0FB5A498146884204D036
:104670005949894501D0012000E000200A9001CE6F
:104680001A9988478346000E079077D0009870BB30
:104690000D9800EB04084D480068B0F9080040454B
:1046A00003DDA0EB0807804600E00027029804998C
:1046B00000EB840000EB8700CDE900010B990D9819
:1046C000421809920E9B40461946521EFFF76CF89D
:1046D00001200090059818280ADA0298DDE90523E0
:1046E00000EB840000EB8700E91B00F0D9F812E032
:1046F0000A9880B1029800EB840000EB87070998C4
:10470000A0EB080849463868884701C7A8F10100AE
:104710005FEA0008F6D13148C06980B3DDE90207DD
:1047200000EB840007EB8402CDE902022B4C361F1C
:104730003046E4692B460299A047FF213068B1EB6F
:10474000106F02D10298006804E0029A1268B1EB7F
:10475000126F01D1039A1060029806F10406001D41
:1047600002900398001D03906D1EE7D10397DAF8BD
:10477000000040F00101CAF8001020E021E0FFE74E
:104780000798FF2811D0C0F1FF02029850F82410BA
:10479000584600F0BFFA039941F82400DAF8000007
:1047A00040F00101CAF8001005E00298039950F8A2
:1047B000240041F82400641C6D1E7FF460AF039850
:1047C0003AE7039941F824B0E8E7000040000020F0
:1047D000580000208B56000889560008A0030020CE
:1047E0002DE9F0479A46164B86B01B68DDE90F8726
:1047F000DC6CDDF838902618186D65188418AAF15D
:104800000100ADF810502044ADF80C60ADF8120076
:10481000ADF80E4003A803F067FE0BE0CDF8009062
:10482000CDE90187534622462946304606F06EFC04
:1048300003F00EFE0028F1D106B0BDE8F0870000BD
:10484000400000202DE9F04F144C87B02568DDE9C9
:104850001298EC6CDDE910BA2718286DA5184618D7
:10486000C418ADF81070ADF81450ADF81260ADF882
:10487000164004A803F038FE0BE0CDE90298CDE91C
:1048800000BA23462A463146384606F0C3FC03F0F8
:10489000DFFD0028F1D107B0BDE8F08F4000002017
:1048A0002DE9F05F0C1E16DD5E68014600EB840505
:1048B000082A12DC611E012A26D0022A47D0042AC7
:1048C0006AD0082A07D1071917F8010DB04745F833
:1048D000040D641EF8D1BDE8F09F102AFBDC5F696F
:1048E0003FB12246BC46BDE8F04F02235DF804EB21
:1048F000604701EB440700BF37F8020DB04745F8A9
:10490000040D641EF8D1E6E700EBE10001F00707B3
:1049100010F801A98146802020FA07F8B5F10405B6
:104920000AEA0800C7F10701C840B04745F8040982
:104930003FB14FEA48604FEA10687F1E641EEFD116
:10494000C9E719F801A907274FF00108F6E700EBBE
:10495000A10001F0030710F801A981467900C020E9
:1049600020FA01F84FF0060BB5F104050AEA080039
:10497000ABEB4701C840B04745F804093FB14FEAE7
:1049800088604FEA10687F1E641EEFD1A3E70327FB
:1049900019F801A9B846F7E700EB6100012710F804
:1049A00001A9A7438146B900F02020FA01F84FF091
:1049B000040B2D1F0AEA0800ABEB8701C840B04783
:1049C00045F804093FB14FEA08704FEA10687F1EAE
:1049D000641EEFD17FE719F801A901274FF00F08F6
:1049E000F6E700002DE9F047224C06461F46A06975
:1049F00090468946002540B90120A06104F12001BC
:104A00001D480860084600F0E9F9606930B91B48A4
:104A10000068606110B900F0D4FD606107B13860D2
:104A20004EB1A06830B960698000FDF78BFBA060D3
:104A300000B901253060B9F1000F0AD0E06830B943
:104A400060698000FDF77EFBE06000B90125C9F8D0
:104A50000000B8F1000F0AD0206930B96069800009
:104A6000FDF770FB206100B90125C8F80000284659
:104A7000BDE8F087A00300202DCB000870000020C7
:104A800030B4024CA468A44630BC6047C404002083
:104A900013460A461946014B5B681847C4040020B8
:104AA00013460A461946014B1B681847C4040020E8
:104AB00073B5124A01A9009812689047002400902B
:104AC000C8B10F4900250968C969496959B10A681F
:104AD0004AB1019990477CBD6846FFF759F90546F0
:104AE000FEF714F904440198401E0190F4D52846BD
:104AF00000F040F8044420467CBD0000B8010020CE
:104B00004000002073B50D460098002490B10A497A
:104B10000968C969496959B14A684AB12946904743
:104B20007CBD6846FFF734F920B10A2802D0641C26
:104B3000AC42F6DB20467CBD4000002031B50024AD
:104B4000009808B905E0641C6846FFF721F90028C1
:104B5000F9D1204638BD0000044AB2F900200260B5
:104B60000348B0F900000860704700008000002092
:104B70008200002038B5002469460094FEF7CEF884
:104B80000099814200DD0C1A204638BD016811F8F9
:104B9000012B12B10A2A02D002E001207047016005
:104BA00000207047B0F90030B1F90020934200DADC
:104BB0000280B0F90230B1F90220934200DA42805B
:104BC000B0F90430B1F90420934200DD8280B0F9DD
:104BD0000620B1F906108A4200DDC180704770B529
:104BE000B1F90040B2F900309C4200DD2346038059
:104BF000B1F90250B2F90240A54200DD2C464480D2
:104C0000B1F90460B2F90450AE4200DA354685804D
:104C1000B1F90610B2F90620914200DB1146C180BD
:104C20009D4201DBA14201DA002070BD012070BD70
:104C3000014602480068407C00F002B840000020B5
:104C40002DE9F84301268946044602285DDA304FF3
:104C50007A6802B190472E4D5FEA090005F1100510
:104C600032D0012803D0B9F1020F4ED118E055F827
:104C7000240088B92046FDF749FD009018B3C068AC
:104C80000D21426A6846904702003ED0494600988E
:104C9000904755F824000026401C45F8240034E0D5
:104CA0002046FDF733FD009068B1C0680D21426ACF
:104CB00068469047040028D0386800B180474946CC
:104CC0000098A047002620E055F82400A8460128B7
:104CD00012D12046FDF71AFD009068B1C0680D2181
:104CE000426A68469047050006D0386800B18047A0
:104CF00049460098A847002658F8241009B1012217
:104D000000E00022891A48F824103046BDE8F883F4
:104D1000A001002070B5FF23B3EB116F29D0C3B2FF
:104D200000F47F4500F47F04060E5343554354437B
:104D30005643C2F1FF00CAB202FB003201F47F43C6
:104D400003FB005301F47F0505FB0044090E01FB42
:104D50000065C2F307204FF47F4101EA13220902E4
:104D600001EA14214FF07F43104303EA054308434F
:104D7000184370BD2DE9F04F0646DDE90CB9154624
:104D80000C4600208046584519D20B9F4FF0FF0A71
:104D900001CE08CCAAEB106202FB09F2B2FBFAF1D9
:104DA000CAB21946FFF7B6FF20F07F4001C57F1E4B
:104DB000EED1099804EB800408F10100E2E7BDE8B8
:104DC000F08F0B88134403808B889B1A83804B8859
:104DD00013444380C988891AC180704702494A69CF
:104DE0004260486170470000340000202DE9F8431C
:104DF0000768064688460025384600F0CBF840B3E1
:104E0000404600F0D7F8441C3846FDF713FA8442B8
:104E10000CD1F4B13846FDF71BFA2246414600900A
:104E2000FBF788FA6846FDF76BFA11E02046FDF7BC
:104E30002BF904000DD0FDF70BFA41460090FBF76B
:104E400036FA6846FDF75CFA3046FDF765F93460DE
:104E500001252846BDE8F88310B5044600F009F89E
:104E600001462046BDE81040FEF7BEBF002309F012
:104E7000A5B877B581B015460E466B46019809F086
:104E80009DF8044601460198FEF7AEFF01990844DB
:104E9000019001A8FEF77CFF0A2802D0012D02D064
:104EA00012E0641C10E020280ED1FDF72FFF05460C
:104EB00007E02844009001A8641CFEF769FF202841
:104EC00002D100988642F4DA04B0204670BD10B5D5
:104ED00002E000F8011B521E0AB18307F9D19308C2
:104EE00018D001EB014402F0030204EB042406E0B5
:104EF00010C01B1F10C040F8084B40F8044C042B96
:104F0000F6DA01E010C05B1E002BFBD102E000F8D6
:104F1000011B521E002AFAD110BD10B5830702D51D
:104F200020F8021B521E530811D001EB0144042B40
:104F300009DB10C01B1F10C0042B40F8084B40F8C1
:104F4000044CF6DA01E010C05B1E002BFBD1D20747
:104F500000D0018010BD024600204FF08041431870
:104F6000934201D8D21A581840088908F7D17047DF
:104F700000B907A021B906A102E03AB1401C491CC2
:104F800002780B789A42F8D00120704700207047D1
:104F90000000000038B50D46012448B1FDF758F96E
:104FA00029460090FFF7E4FF04466846FDF7A8F99C
:104FB000204638BD4FF0FF3128B100BF10F8012B5B
:104FC000491C002AFAD10846704700002DE9F0413B
:104FD00004460D462A2003F0E3FE201203F05AFF98
:104FE000E0B203F057FF201203F054FFE0B203F0E9
:104FF00051FF2B2003F0D4FE281203F04BFFE8B240
:1050000003F048FF281203F045FFE8B203F042FF27
:105010002E2003F0C5FE0A4806880688B0F80080F6
:10502000F7B24FF6FF7000EA0727F012C002B9127C
:1050300040EA411040EAE8263046BDE8F081000031
:105040000000026000BFFEE708B50121102001F05A
:10505000D7F84FF4E070ADF8000048208DF8030059
:1050600069460C48FCF720FE4FF46060ADF8000084
:1050700010208DF8030069460648FCF715FE012054
:10508000054908600549C1F8A801034908310860CD
:1050900008BD000000100140A4012242000022428D
:1050A00002490A680860104670470000D8040020D2
:1050B0000449054A0968497C52F8211009690968C0
:1050C0000847000040000020580000202DE9F04F64
:1050D00005468DB07B48DDF860901A9C00681E463E
:1050E00017464FF0000A78B11B9B199ACDF808902B
:1050F0000593CDE90324DDE91623CDE900230468F7
:1051000033463A46284680E0DDE9160201EB060800
:1051100005EB070C1043A8F10108ACF1010C0128C4
:1051200006D0C9F108000590002002910990C6E060
:1051300065480268B2F90A30581A002806DD361AA6
:10514000002E63DD1946199B00FB0344B2F90E00E3
:10515000A8EB0000002802DD361A002E56DDB2F959
:105160000C00ACEB0000002800DD3F1AB2F908305B
:105170000020AB4235DD581B3F1A4B46B9F1080FF2
:1051800026D006DC012B0BD0022B11D0042B28D10A
:1051900016E0102B1ED0182B1FD0202B21D11CE085
:1051A00020F0070304EBE0041D4400F0070018E0C2
:1051B00020F0030304EBA0041D4400F0030010E002
:1051C00020F0010304EB60041D4400F0010008E03E
:1051D000044404E004EB400401E004EB80040544D3
:1051E0000020002F12DD1B9BDDF864C0CDE9040315
:1051F000CDE90069CDE902C4527C34483B4650F801
:105200002200C26854680A462946A0470DB0BDE88E
:10521000F08F1799029808440C902B49401E00907B
:105220000A68B2F90A30834241DCB2F90E100298E2
:1052300081423CDB4FF0000BD84603950A9434E0E2
:10524000BBF1000F05D10A984FF0080B10F801AB25
:105250000A900599ABEB090B3AFA01F00AFA09F149
:1052600001F0FF0A04D118490968097C890716D49E
:1052700015490968C96B0A680B921B9A0AB152F862
:105280002000086016990398009B4218521E02994C
:1052900000F0A8F80C490B980968C96B08600399DD
:1052A000169808F1010808440390B845C8DB09982E
:1052B000401C09900C980290199804440998B04237
:1052C000A7DBA3E77C00002040000020580000205E
:1052D000F0B40C4612490968B1F90A30A3421CDC4B
:1052E000B1F90E30A34218DBB1F90830834200DD7A
:1052F0001846B1F90C30934200DA1A4682420CDBB0
:105300004B7C084951F8235013462246E9688E68C1
:1053100001462846B446F0BC6047F0BC7047000028
:1053200040000020580000200A46174930B40968A0
:10533000B1F90A30934225DCB1F90E30934221DBFA
:10534000B1F9083083421DDCB1F90C30834219DB1E
:105350000B7C0E4CDB0709D0497C54F82130D9680E
:10536000CC690146A44630BC18466047CB6B497CEB
:105370001B6854F82140E1688D6901462046AC461F
:1053800030BC604730BC704740000020580000200F
:10539000124B30B41B68B3F9084084421CDCB3F9EB
:1053A0000C40844218DBB3F90A408C4200DD2146F0
:1053B000B3F90E40944200DA22468A420CDB5C7C50
:1053C000074B53F82440E368DD6813460A4601465C
:1053D0002046AC4630BC604730BC704740000020DF
:1053E0005800002038B5134C2468B4F908508542A1
:1053F00000DD2846B4F90C50954200DA2A46824274
:1054000017DBB4F90A508D4200DD2946B4F90E507D
:105410009D4200DA2B468B420BDB0093647C064BEB
:1054200053F82440E3681D6913460A4601462046A6
:10543000A84738BD400000205800002008B50121D1
:105440007C2000F0DDFE10208DF8030003208DF895
:1054500002004FF40050ADF8000069462A48FCF7FE
:1054600023FC4FF48050ADF8000069462648FCF755
:105470001BFC03208DF8020010208DF803004CF275
:105480000370ADF8000069461F48FCF70DFC4FF6AD
:105490008070ADF8000069461C48FCF705FC102040
:1054A000ADF8000069461848FCF7FEFB2020ADF877
:1054B000000069461448FCF7F7FB8020ADF80000B7
:1054C00069461148FCF7F0FB4FF40060ADF80000AE
:1054D00069460D48FCF7E8FB4FF480510A48FCF799
:1054E00070FC10210848FCF76CFC20210648FCF7F2
:1054F00068FC4FF400610448FCF763FC802102481B
:10550000FCF75FFC08BD00000014014000180140DA
:10551000082106F07DBD000002480068806B00682D
:10552000704700004000002002480068C06B00681F
:105530007047000040000020024809210068407CBC
:1055400006F066BD40000020092106F061BD70B57F
:1055500000252C462046FDF7D9F800B16D1C641CCF
:10556000022CF7DB284670BD02480068407C00F042
:1055700003B800004000002010B5FDF7C7F8002870
:1055800005D0C168CA6ABDE810400221104710BDAD
:10559000F8B515460E460124FDF7B8F8009058B14D
:1055A000C0680421426A68469047030004D02A4636
:1055B00031460098984700242046F8BD032106F0A4
:1055C00027BD032006F0B1BD042106F021BD000077
:1055D000024801210068407C06F01ABD400000200E
:1055E0000148006870470000C4000020012106F057
:1055F0000FBD012006F099BD024802210068407CE1
:1056000006F006BD400000200148406870470000D9
:10561000C4000020022106F0FBBC022006F085BD7C
:10562000AFF300802DE9F041002809D0876837B139
:105630000D4E716819B10468B4F5807F02DD002059
:10564000BDE8F0813068844200DD0446002507E0B3
:1056500057F82500FFF72CFD716841F825006D1CF7
:10566000A542F5DB7068EBE7040200200449054A17
:105670000968497C52F82110096949680847000007
:1056800040000020580000207047704710B500F01F
:105690001F01074A074BC0F34514C0F3C4201B5D2C
:1056A000105C515C00EB032000EB014010BD0000DA
:1056B000A8250108C825010810B50A4C606860B922
:1056C00020688000FCF73EFD606040B104F10801F5
:1056D000054808600846FFF781FB002010BD012047
:1056E00010BD00000402002019CB00082DE9F0478E
:1056F000FFF72DFF07460024DFF860802AE02046F0
:10570000FDF704F828B3D8F8000090F8119044741D
:105710002046FFF7FDFE082817DC1148114950F814
:1057200024000069884210D02046FFF70DFF06468E
:10573000002508E0E8B2FFF799FF0246E9B22046EB
:1057400000F054F96D1CB542F4DBD8F8001081F874
:105750001190641CBC42D2DBBDE8F0874000002001
:1057600058000020A83101082DE9FF4F83B01646EC
:10577000DDE910408B46C0684769426A7AB1012171
:1057800011A8904705000AD00698CDE900043346D9
:105790005A4603991198A84707B0BDE8F08F5748BB
:1057A0000068407CFDF7A0FA8246082801DC012051
:1057B00005E0BAF1100F01DC022000E00420804671
:1057C000002596E04046B8F1010F05D0022871D0BF
:1057D000B8F1040F25D17CE0BAF1090F21D2DFE83E
:1057E0000AF08605213F3F5959595900039815E0A1
:1057F00001465A461198B847C5F1070188404FF64F
:105800007F722178EA40114001436D1C217004EB46
:10581000E50425F00700054109F101008146B04289
:10582000E6DD64E0039817E001465A461198B84750
:105830000621A1EB450188406B004FF63F722178AD
:10584000DA40114001436D1C217004EBA50425F0E2
:105850000300054109F101008146B042E4DD46E064
:10586000039813E001465A461198B8470421A1EB6A
:10587000850188402178AB000F229A4011400143F6
:1058800021702C4485F0010509F101008146B042E8
:10589000E8DD2CE0DDF80C9007E001465A4611984F
:1058A000B847207009F1010944444846B145F4DD88
:1058B0001DE0FFE7DDF80C9007E001465A4611981D
:1058C000B847208009F1010944444846B145F4DD58
:1058D0000DE0DDF80C9007E001465A461198B847F4
:1058E000206009F1010944444846B145F4DD0BF15B
:1058F000010B06998B457FF765AF4DE7400000200F
:1059000010B50D4C0D492068407C51F8200048B17D
:10591000C16811B10968042901D00068F7E708B12E
:10592000FCF7DCFE20680021016600F108014161FE
:10593000BDE8104000F02EB84000002058000020C4
:1059400001490968496808470002002004490968BC
:105950000A7C520701D5C96B00E0896B086070476B
:10596000400000207CB5094C05462068417C084871
:1059700050F82100C1680A6B6946904720686A4662
:1059800029460830FFF72BF97CBD000040000020BD
:10599000580000200448016804484A7C083150F847
:1059A0002200C268126B10474000002058000020FF
:1059B000014909680968084700020020044909688C
:1059C0000A7C520701D5896B00E0C96B08607047FB
:1059D00040000020014AC2E900017047C4000020D5
:1059E000014909688968084700020020F8B5154692
:1059F0000E460124FCF78AFE009058B1C0681021C1
:105A0000426A68469047030004D02A46314600980F
:105A1000984700242046F8BDF8B515460E460124E7
:105A2000FCF774FE009058B1C0680321426A6846D2
:105A30009047030004D02A46314600989847002436
:105A40002046F8BDF8B515460E460124FCF75EFE6B
:105A5000009058B1C0680B21426A68469047030025
:105A600004D02A4631460098984700242046F8BDC5
:105A7000F8B515460E460124FCF748FE009058B1D3
:105A8000C0680A21426A68469047030004D02A464B
:105A900031460098984700242046F8BD10B5074CC1
:105AA0002068006BFFF704FBFFF788FF2068406B5E
:105AB000FFF7FEFABDE81040FFF748BF40000020A6
:105AC00010B5A0B014211BA8FAF7F5FC682101A8B5
:105AD000FAF7F1FC00231A4609490A48FCF7A4FD2D
