:020000040800F2
:10000000D89600200D020008198F0008D170000852
:10001000158F0008D30B0008D3B0000800000000C3
:10002000000000000000000000000000ABAA000873
:1000300091140008000000003D940008BDAB0008CA
:1000400027020008270200082702000827020008EC
:1000500027020008270200082702000827020008DC
:1000600027020008270200082702000827020008CC
:1000700027020008270200082702000827020008BC
:1000800027020008270200082702000827020008AC
:10009000270200082702000827020008270200089C
:1000A000270200082702000827020008270200088C
:1000B0002702000841AE00082702000827020008B6
:1000C000270200082702000827020008270200086C
:1000D00027020008E1AF00082702000827020008F5
:1000E000270200082702000827020008270200084C
:1000F000270200082702000827020008270200083C
:10010000270200082702000827020008270200082B
:100110002702000827020008C9AE000827020008CD
:10012000270200082702000827020008270200080B
:1001300000F002F800F05AF80AA090E8000C82449F
:100140008344AAF10107DA4501D100F04FF8AFF27C
:10015000090EBAE80F0013F0010F18BFFB1A43F0A5
:1001600001031847C4670300E46703000A444FF023
:10017000000C10F8013B13F0070408BF10F8014B06
:100180001D1108BF10F8015B641E05D010F8016B4B
:10019000641E01F8016BF9D113F0080F1EBF10F8AF
:1001A000014BAD1C0C1B09D16D1E58BF01F801CBD2
:1001B000FAD505E014F8016B01F8016B6D1EF9D555
:1001C0009142D6D37047000000230024002500266A
:1001D000103A28BF78C1FBD8520728BF30C148BFAA
:1001E0000B6070471FB51FBD10B510BD00F0EEF9D4
:1001F0001146FFF7F7FF1BF0B5F900F00CFA03B456
:10020000FFF7F2FF03BC1BF055F9000009488047D7
:1002100009480047FEE7FEE7FEE7FEE7FEE7FEE7E8
:10022000FEE7FEE7FEE7FEE704480549054A064B00
:1002300070470000C1AB000831010008D88C0020D5
:10024000D8960020D88E0020D88E0020704740EA33
:10025000010310B59B070FD1042A0DD310C808C99C
:10026000121F9C42F8D020BA19BA884201D9012045
:1002700010BD4FF0FF3010BD1AB1D30703D0521C90
:1002800007E0002010BD10F8013B11F8014B1B1BCB
:1002900007D110F8013B11F8014B1B1B01D1921E35
:1002A000F1D1184610BD40EA0103024630B59B0764
:1002B00010D14FF0013400E008C208C91D1B9D4356
:1002C00015EAC41FF8D013F0FF0102F8011B0DD08E
:1002D0001B0AF8E711F8013B002B02F8013B05D09F
:1002E00011F8013B002B02F8013BF3D130BD10B5F2
:1002F000431C02E010F8011B71B18107FAD14FF0E5
:10030000013202C88C1A8C4314EAC211F9D0C01A07
:100310000A0603D0C01E10BDC01A10BD0A0401D0C9
:10032000801E10BD0902FCD0401E10BD032A40F201
:10033000308010F0030C00F0158011F8013BBCF187
:10034000020F624498BF11F801CB00F8013B38BF9F
:1003500011F8013BA2F1040298BF00F801CB38BFAD
:1003600000F8013B11F0030300F06780083AC0F089
:10037000088051F8043B083A51F804CBA0E8081073
:10038000F5E7121D5CBF51F8043B40F8043BAFF3A6
:100390000080D20724BF11F8013B11F801CB48BF00
:1003A00011F8012B24BF00F8013B00F801CB48BF36
:1003B00000F8012B7047431A28BF9A427FF6B6AF68
:1003C000032A1044114440F2268010F0030F1EBF90
:1003D00011F8013D521E00F8013D10F0030F7FF4AB
:1003E000F6AF11F0030300F0A080083AC0F00B80D4
:1003F00051F8043D083A51F804CD40F8043D40F866
:1004000004CDFFF7F3BF121D5CBF51F8043D40F867
:10041000043DAFF30080D20724BF11F8013D11F86D
:1004200001CD48BF11F8012C24BF00F8013D00F8B0
:1004300001CD48BF00F8012C704710B5203AC0F03C
:100440000B80B1E81850203AA0E81850B1E81850D5
:10045000A0E81850BFF4F5AF5FEA027C24BFB1E812
:100460001850A0E8185044BF18C918C0BDE8104083
:100470005FEA827C24BF51F8043B40F8043B08BF8C
:100480007047D20728BF31F8023B48BF11F8012B53
:1004900028BF20F8023B48BF00F8012B704702F04C
:1004A000FF0343EA032242EA024200F06AB84FF037
:1004B000000200B5134694469646203922BFA0E8B4
:1004C0000C50A0E80C50B1F12001BFF4F7AF0907C0
:1004D00028BFA0E80C5048BF0CC05DF804EB8900B1
:1004E00028BF40F8042B08BF704748BF20F8022BF4
:1004F00011F0804F18BF00F8012B7047704770470C
:1005000070477047431A28BF9A427FF696AF10444F
:1005100010F0030F11441EBF11F8013D521E00F8E8
:10052000013D10F0030F7FF4F6AF103AC0F00A80DF
:1005300010B531E91850103A20E91850BFF4F9AF5E
:10054000BDE81040530724BF31E9081020E9081026
:1005500044BF51F8043D40F8043D12F0030F08BFBA
:100560007047D20728BF31F8023D48BF11F8012C6F
:1005700028BF20F8023D48BF00F8012C70474FF01B
:1005800000020429C0F0128010F0030C3FF491AF78
:10059000CCF1040CBCF1020F18BF00F8012BA8BF6E
:1005A00020F8022BA1EB0C01FFF783BF5FEAC17CAF
:1005B00024BF00F8012B00F8012B48BF00F8012BE5
:1005C0007047000000487047748C00207546FFF7A4
:1005D000F9FFAE4605006946534620F00700854600
:1005E00018B020B5FFF720FEBDE820404FF0000610
:1005F0004FF000074FF000084FF0000B21F007010B
:10060000AC46ACE8C009ACE8C009ACE8C009ACE84D
:10061000C0098D4670470446AFF300802046FFF7BF
:10062000EEFD002800DC40427047000038B5456808
:100630000446014628460AF06FFD00282BD02068AA
:10064000304A11280DD006DC0B2825D00E2833D0D7
:100650000F2852D112E0282849D0B0F5107F4CD194
:1006600008E09268002A16D02146284601B0BDE86D
:1006700030401047214628465268F7E7284603F0E5
:1006800053F90090406E0468684603F0B7F9002CF7
:1006900001D02846A04738BD284603F045F9009010
:1006A000683003F08DF8009803216C3003F096F861
:1006B000684603F0A3F920E0E168486809680D295D
:1006C00002D0202913D105E0002810DD284612F0C1
:1006D00057FE06E0002804DD2846BDE8384012F049
:1006E0004FBE2846BDE83840022112F05FBEE068E8
:1006F00018B90021284600F0C7F92046BDE8384067
:100700000BF092B9400200202DE9FF410AAF97E8B3
:100710007000002703958DE8D00000F003F804B0C6
:10072000BDE8F081F0B585B00DF1280C9CE8F00033
:100730004FF0000C8DE8F01000F024F805B0F0BD8B
:10074000F0B5044685B08069B4F90850668A002780
:10075000CDE90265CDE900170490B4F90C00B4F9B5
:100760001060C118B4F90A00B4F90E5010443346B1
:100770002A4600F007F80546616800F0B3F905B0B5
:100780002846F0BD2DE9F04F85B01F46DDE911B4D4
:10079000DDE90E5690468946824604F057FA16481F
:1007A0004C34CDE90204CDE900563B464246494669
:1007B00050460BF081F8040018D003F0B5F8102271
:1007C000594604900AF09CFE049830220B493430BC
:1007D000FFF733FE094D04990C3D2868486604A8CC
:1007E00003F00CF9286841682046884705F07EFB35
:1007F00005B02046BDE8F08F2D0600084C02002011
:10080000F0B5044680688B4989B051F82050606883
:1008100000287DD0052804D006287AD0122879D166
:10082000AEE0E86900284FD095E80E008DE80F0093
:1008300004F110010FC905F0A9FF002655F82600A4
:1008400004F0F7FEA169E8690A1A216901446069A8
:10085000304403F005FFA169E8690A1A21690144DF
:10086000E069801B03F0FCFEE169E8690A1A61692E
:1008700001442069304403F0A9FFE169E8690A1ADC
:1008800061690144A069801B03F0A0FF761C022E61
:10089000D4DBA86804F0CDFEE069E9696669431A13
:1008A000206942183144801C521E04F00BF8E169A3
:1008B000E869A2690B1A61690144101A401C921E72
:1008C00004F000F8EE6913E05FF0000655F826002A
:1008D00004F0AFFEE069831BA069821B6069811987
:1008E0002069304403F032FF761C022EEEDB022634
:1008F000D5E90301CDE900016169E06908444310CD
:10090000A069891C821B2069304403F06DFE02E05F
:1009100089E012E08AE0D5E90501CDE90001E3694B
:1009200060690121184401EB6001A0699B1E821BD4
:100930002069304403F058FE78E0206802F0F4FFAC
:10094000049020680CF050FD40B1A06808B1002070
:1009500008E00498006F28B1012003E00498406F7C
:1009600000B10220049901EB8000C56E04A803F0D9
:1009700045F800231A462846216803F091FB55E00C
:10098000206802F0D1FF0490866EEEB3B0F95C707F
:10099000A168D1B3032942D05FF0000100EB8101CF
:1009A000406D0C6C04F074FE204604F042FE05A875
:1009B00004F04AF8BDF81410A88B0144ADF81410E7
:1009C000BDF81810081AADF81800BDF81600801C04
:1009D000ADF81600BDF81A00801EADF81A00049894
:1009E000B0F96020B0F95E1005A804F0FEFC04A880
:1009F00003F004F8022004F0B7FE304602F094FF42
:100A00003A4605A9079001E00BE006E003F034FC4C
:100A10000DF11C0002F0F2FF08E00121BEE7022107
:100A2000BCE704A8F6E720680CF004F909B0002040
:100A3000F0BD0000CCD80208042905D2034A52F8C0
:100A400021102022FFF7F9BC70470000CCD8020823
:100A500000294FF0100101D00AF0F2BB0AF03BBBB5
:100A600038B50D4604000ED004F0F0F8204602F030
:100A70005BFF00904565684602F0C0FF20460BF022
:100A80006FFD05F033FA38BD4FF48072002911462E
:100A900001D00AF0D5BB0AF01EBB08B500230093B5
:100AA00000F001F808BD70B516460C46054619461B
:100AB0003046049A03F0D6FA024621462846BDE89D
:100AC000704000F03CB80000042907D2044A52F8F4
:100AD0002130014620221846FFF7AFBC70470000C6
:100AE000CCD802082DE9FF410E4605004FF0010465
:100AF00021D004F0ABF8284602F016FF0190876E73
:100B000001A8009702F07AFF3146684606F05EF9C8
:100B100078B100980024B84208D0284602F004FFBB
:100B200001900099816601A802F068FF28460BF049
:100B300017FD05F0DBF904B02046BDE8F081F8B5FB
:100B400015460C46060018D004F080F8304602F036
:100B5000EBFE0090032C0BD200EB84006C3002F013
:100B60002FFE009800EB8400C56630460BF0F8FCC1
:100B7000684602F043FF05F0B9F9F8BDF0B5044648
:100B80000D4616461F462A200CF034FFC4F30F20F2
:100B90000CF03AFFE0B20CF037FFC5F30F200CF079
:100BA00033FFE8B20CF030FF2B200CF023FFC6F32C
:100BB0000F200CF029FFF0B20CF026FFC7F30F2036
:100BC0000CF022FFF8B20CF01FFF2C200CF012FFEB
:100BD000F0BD00BFFEE700B589B0012101A8FFF715
:100BE0002BFF4FF47F40019000200290FF200390E4
:100BF0000690FF21079104900591012101A8FFF7BC
:100C000063FF09B000BDF8B54468054601462046BB
:100C10000AF082FA002836D028680B2839D00E282E
:100C200005D00F2821D0B0F5107F3CD12CE0204614
:100C300002F07AFE009010F8746F4778684602F070
:100C4000DDFE20460CF0D0FB10B3E86841680029B7
:100C500029DD0068202826D17F1CB7FBF6F006FBB3
:100C60001071204600F045F91DE02546204602F0AF
:100C70005BFE0090006F0468684602F0BFFE002C27
:100C800001D02846A047F8BD2946204612F0A8FE0C
:100C900009E0204602F048FE0090783002F090FD16
:100CA000684602F0ABFE2846BDE8F8400AF0BCBE3C
:100CB000F0B585B0B0F90850468A84690296CDE94E
:100CC00003540027CDE90017B0F90C10B0F910500B
:100CD000B0F90E40B0F90A00194410442B462246E0
:100CE00000F002F805B0F0BD2DE9F04F85B01D46CB
:100CF000DDE90E9716468A468346DDF8488003F004
:100D0000A5FF254C0EB135B10AE020688068006867
:100D100080470646F7E720688068006880470546F8
:100D20001D486FF07041001DC068884201D147F036
:100D3000010708F15400194ACDE90220CDE90097D6
:100D40002B463246514658460AF0B6FD05001CD0E7
:100D500002F0EAFD1022049011990AF0D1FB0E492D
:100D600004983C22091D3430FFF767FB0498216882
:100D70000167022180F874100F21C16704A802F0F6
:100D80003DFE206841682846884705F0AFF805B069
:100D90002846BDE8F08F000014060020070C00086C
:100DA0002DE9FF470446006810B10CF01DFB68B147
:100DB0000022314850F8221060680A2841D007DC30
:100DC000F0B306280DD0072854D106E00122F0E741
:100DD00012280AD019284DD137E020460DF0AEFE7A
:100DE00048E020460FF0CCFA44E0206802F09CFD79
:100DF0000290B0F9548090F85650476C466B02A8A8
:100E000002F0FCFD206800F039F8814668460AF0DF
:100E100051FFBDF8001009EB05000844ADF80000D3
:100E2000246A304604F034FC022004F09DFC38466D
:100E300004F0FFFB42466946204603F01DFA19E024
:100E400007E020460FF02BFC14E0886904B0BDE8F1
:100E5000F08720680BF0EEFE206802F065FD03903D
:100E6000B0F90610B0F90220891A491CC16703A81D
:100E700002F0C4FD0020E9E7B865030838B5044670
:100E800003F0E4FE204602F04FFD0090C46F684678
:100E900002F0B4FD05F02AF8204638BD38B505004B
:100EA0004FF000040CD003F0D1FE284602F03CFDC8
:100EB000009090F87540684602F0A0FD05F016F825
:100EC000204638BD38B50C46050011D003F0BEFEF3
:100ED000284602F029FD0090416BA14203D04463F3
:100EE00028460BF03DFB684602F088FD04F0FEFF4B
:100EF00038BD38B50C4605001BD003F0A7FE2846C8
:100F000002F012FD009090F87410A1420CD980F804
:100F10007540684602F072FD28460BF021FB052162
:100F200028460BF0ECFB02E0684602F067FD04F097
:100F3000DDFF38BDFEB50D46040022D0002D20D0C7
:100F400003F084FE204602F0EFFC0190866F01A8BA
:100F5000009602F053FD2946684605F037FF70B150
:100F60000098B04208D0204602F0DEFC01900099C3
:100F7000816701A802F042FD20460BF0F1FA04F06F
:100F8000B5FFFEBD38B50C46050011D003F05EFE7E
:100F9000284602F0C9FC0090416CA14203D0446491
:100FA00028460BF0DDFA684602F028FD04F09EFFAB
:100FB00038BD000000B589B024216846FFF777FAF4
:100FC0001920019003480068806841686846884796
:100FD00009B000BD140600207CB50AF099FE054654
:100FE000002000902B46044A09210190034802F09A
:100FF00029FF044620467CBD858A0108F84802087E
:101000007CB50AF085FE0546002000902B46044A78
:1010100005210190034802F015FF044620467CBDDF
:101020009D750108584302087CB50AF071FE05461B
:10103000002000902B46044A07210190034802F04B
:1010400001FF044620467CBD4D730108944202080E
:101050007CB50AF05DFE0546002000902B46064A4E
:1010600007210190054802F0EDFE044620460AF0F3
:1010700044FE044620467CBD398C0108F449020830
:101080007CB50AF045FE0546002000902B46044A38
:1010900002210190034802F0D5FE044620467CBDA3
:1010A00069950108244C02087CB50AF031FE05461A
:1010B000002000902B46044A02210190034802F0D0
:1010C000C1FE044620467CBDA99B0108004E0208D3
:1010D0007CB50AF01DFE0546002000902B46044A10
:1010E00002210190034802F0ADFE044620467CBD7B
:1010F000E18F0108B84A02087CB50AF009FE0646ED
:10110000002000903346064A07210190054802F06E
:1011100099FE044620460AF0F0FD054628467CBDAF
:1011200065B00108EC3E02087CB50AF0F1FD054609
:10113000002000902B46044A07210190034802F04A
:1011400081FE044620467CBD59640108283E020801
:101150007CB50AF0DDFD0546002000902B46064ACE
:1011600007210190054802F06DFE044620460AF072
:10117000C4FD044620467CBDCDAD0108985202084E
:101180007CB50AF0C5FD0546002000902B46044AB8
:101190000A210190034802F055FE044620467CBD1A
:1011A000897F0108784502087CB50AF0B1FD054643
:1011B000002000902B46064A09210190054802F0C4
:1011C00041FE044620460AF098FD044620467CBDB8
:1011D00045770108E44302087CB50AF099FD05460D
:1011E000002000902B46044A09210190034802F098
:1011F00029FE044620467CBDA5840108C447020898
:101200007CB50AF085FD0546002000902B46044A77
:101210000B210190034802F015FE044620467CBDD8
:1012200001820108904602087CB50AF071FD05466E
:10123000002000902B46044A02210190034802F04E
:1012400001FE044620467CBD997B0108404502080A
:101250007CB50AF05DFD0546002000902B46044A4F
:1012600002210190034802F0EDFD044620467CBDBA
:10127000A5A00108344F02087CB50AF049FD0546D7
:10128000002000902B46044A06210190034802F0FA
:10129000D9FD044620467CBDE9A301086C4F020835
:1012A0007CB50AF035FD0546002000902B46044A27
:1012B0000F210190034802F0C5FD044620467CBD85
:1012C0005D9801085C4C02087CB50AF021FD0546DA
:1012D000002000902B46044A09210190034802F0A7
:1012E000B1FD044620467CBD796E0108D440020859
:1012F0007CB50AF00DFD0546002000902B46044AFF
:101300000B210190034802F09DFD044620467CBD60
:10131000B1920108F04A02087CB50AF0F9FC0546D2
:10132000002000902B46044A09210190034802F056
:1013300089FD044620467CBDED9E0108384E02081A
:101340007CB50AF0E5FC0546002000902B46064AD5
:1013500007210190054802F075FD044620460AF079
:10136000CCFC044620467CBD45AB0108D4510208A4
:101370007CB50AF0CDFC0546002000902B46044ABF
:1013800007210190034802F05DFD044620467CBD24
:10139000FD700108D04102087CB50AF0B9FC054691
:1013A000002000902B46044A02210190034802F0DD
:1013B00049FD044620467CBDADA50108A0500208A9
:1013C0007CB50AF0A5FC0546002000902B46044A97
:1013D00005210190034802F035FD044620467CBDFE
:1013E000F5A40108145002087CB50AF091FC0546EA
:1013F000002000902B46044A09210190034802F086
:1014000021FD044620467CBDF1A80108D850020801
:101410007CB50AF07DFC0546002000902B46054A6D
:1014200006210190044802F00DFD044603480460C3
:1014300020467CBDD56C01082C400208D800002055
:101440007CB50AF065FC0546002000902B46044A56
:1014500002210190034802F0F5FC044620467CBDC1
:101460002D860108C04802087CB50AF051FC0546EB
:10147000002000902B46044A02210190034802F00C
:10148000E1FC044620467CBD01680108F43F0208E7
:101490007047000070B506460D4614462B462A4696
:1014A00031463046FFF76AFBA0B205F01BFF044649
:1014B0000148048070BD0000000002602DE9FC4777
:1014C0000E465FEA00097FD003F0C0FB484602F0F9
:1014D0002BFA009090F85470D0F85880456BC46C8B
:1014E000684602F08BFAB8F1000F04D03146484646
:1014F0004246904761E0122E18D006DC082E43D0F9
:10150000102E3CD0112E06D112E0132E21D01D2E0C
:1015100043D01E2E3DD0202E4FDB17B148460DF094
:101520009AF8B1B2484611F059FC60B3611C27E04B
:101530004DB3284602F0F8F905462146019004F023
:10154000C3FB4419204604F06DFB014623460122EB
:1015500010E0C5B1284602F0E7F9054621460190A2
:1015600004F0B2FB4419204604F05CFB014623461C
:101570004FF0FF3248460CF0DEFD01A81BE0611E73
:10158000484600F08AFA18E0BCB1611E484600F0F7
:1015900084FA48460DF05FF80FE0484602F0C4F9BF
:1015A0000090012F12D0012180F8541021464846A6
:1015B00000F073FA684602F021FA48460AF0D0FFBC
:1015C00000E001E004F092FCBDE8FC87002180F817
:1015D0005410EFE77CB54568044628460BF004FF3D
:1015E00006462146284609F097FD002844D0206889
:1015F0000F283DD004DC0B283FD00E2860D147E0F7
:10160000A0F58070133804D0A0F580702D3857D124
:101610001DE028460BF054F9284602F085F90090A9
:1016200010F8561F81F004010170684602F0E6F9D7
:101630000021284612F088FC284602F075F9009037
:10164000D0F8840000210BF012F968461DE0E06834
:1016500060B1017A29B10168284600F0DBF8012168
:1016600000E0022128460BF04AF829E00321F9E7BF
:101670000121284612F068FC7CBD284602F054F98E
:101680000190343002F09CF801A802F0B7F917E09D
:10169000B6B1E0684168002912DD01681B290FD04E
:1016A00006DC09290CD00A290AD00D2904D107E04B
:1016B000212905D0222903D02846FFF7FFFE7CBD53
:1016C00020460AF0B1F97CBDF0B587B00DF1300EBF
:1016D0009EE8F0104FF0000E8DE8F05000F002F898
:1016E00007B0F0BD2DE9F04F85B01F46DDE912547B
:1016F000DDE90E6A90468946834603F0A7FA0DF1AC
:10170000040C4AF480501F49603400968CE81300A2
:101710003B464246494658460AF0CEF804002AD0D5
:1017200002F002F910220490119909F0E9FE0498E0
:10173000242215496030FEF780FE049A012082F8C9
:101740005500681C00D0012082F88800002D00DCC4
:1017500008252DB2158700205087506304A86D1C02
:1017600002F04CF92946204611F001FA18B920463A
:101770000AF092F9002404F0B9FB05B02046BDE858
:10178000F08F0000D515000854060020014880683D
:10179000704700005406002038B505004FF00004E3
:1017A0000BD003F053FA284602F0BEF80090846C88
:1017B000684602F023F904F099FB204638BDF8B5DD
:1017C00015460C46060013D003F040FA304602F0EE
:1017D000ABF8009038B1032C05D200EB840085678C
:1017E00030460AF0BDFE684602F008F904F07EFBC0
:1017F000F8BD70B50D46044603F028FA34B1294609
:10180000204600F04AF920460AF0AAFEBDE87040E2
:1018100004F06CBB2DE9F04186B00C46060055D0B3
:1018200003F014FA304602F07FF80090406B98B352
:1018300002F07AF803900098806E03F029FF80464A
:1018400030460AF0B4FB0746039803F07CF90546DE
:10185000009890F8601001F00301012916D00229C8
:101860000DD0416EC06A00680844241A641E0398B3
:1018700005F054F90146002C0FDA002115E0781B21
:10188000401C00EBD070A4EB6004F0E7406E791BC5
:10189000081A241A641CEAE713E0AC4205DC02468D
:1018A0002146039805F0DAF80146304600F0F5F8D5
:1018B00003A802F0A3F8404603F0EAFE30460AF01F
:1018C0004FFE684602F09AF804F010FB06B0BDE83F
:1018D000F08100002DE9F8431C46DDE908569046EA
:1018E0000F46814603F0B2F9B9F1000044D002F08E
:1018F0001BF82349009081652249C1650021C0E998
:101900001271E0E90F84012105728676017690F864
:101910004C70684602F072F8AFB12946204610F0CC
:10192000EFFC04462946404610F0EAFC0DB1401C8D
:10193000641CF10700D0641C844200DD204601468F
:10194000484600F03FF8484613F076FF484601F05D
:10195000EBFF009000F08CF80B490978884205D124
:101960000098C16C4846491C00F097F8684602F0A0
:1019700045F848460AF0F4FD04F0B8FABDE8F883EB
:10198000D5DB0008395801088401002000294FF0F8
:10199000100101D009F054BC09F09DBB38B50D46CB
:1019A00004000ED003F052F9204601F0BDFF009074
:1019B000856620460AF0D4FD684602F01FF804F060
:1019C00095FA38BD7CB50C46060033D003F03EF9DD
:1019D000304601F0A9FF0090B0F93810458FA142C0
:1019E00023D012DD406B80B101F09EFF019005F025
:1019F00095F8A04206DD2146019804F065F9019AA8
:101A00000021115401A801F0F9FF684601F0F6FF2A
:101A1000611B3046491C11F0AAF8304601F084FFE2
:101A20000090048730460AF09BFD684601F0E6FF0F
:101A300004F05CFA7CBDF8B515460C46060013D0E0
:101A400003F004F9304601F06FFF009038B1032C29
:101A500005D200EB8400C56630460AF081FD684679
:101A600001F0CCFF04F042FAF8BD002213F09ABC5A
:101A700038B50546406B002468B101F055FF009071
:101A80000446E96C04F020F9204404F0CBF8044645
:101A9000684601F0B3FF204638BD1CB50C4601F086
:101AA00043FF0090406BF0B101F03EFF019005F064
:101AB00035F8009991F8542002B10122002C00DA87
:101AC0000024844200DD0446B1F93800801AA042A7
:101AD00000DA0446C86CA04200D0CC64002008653F
:101AE00001A801F08BFF684601F088FF1CBD0000D3
:101AF0002DE9F04100250026002700242848007821
:101B000030B928480068264908700020BDE8F081F7
:101B10002448006830B10027002023494870084657
:101B20004078F3E7012019F0EBFC1E48006830B163
:101B3000002700201C49487008464078E6E719480D
:101B4000001F0068C6B205E01648001F0068C5B255
:101B50000127641C1348006810B914488442F3D369
:101B6000104800680E490870BFB11048844214D272
:101B700000272EB9012D03D102200B49487009E03E
:101B8000012E04D11DB901200749487002E0002050
:101B90000549487004484078B8E70020B6E70000DF
:101BA00031000020180123422C00002020A1070052
:101BB0002DE9F04100250026002700242848007860
:101BC00030B928480068264908700020BDE8F08137
:101BD0002448006830B1002700202349C870084617
:101BE000C078F3E7012019F08BFC1E48006830B183
:101BF000002700201C49C8700846C078E6E719484D
:101C0000001F0068C6B205E01648001F0068C5B294
:101C10000127641C1348006810B914488442F3D3A8
:101C2000104800680E490870BFB11048844214D2B1
:101C300000272EB9012D03D106200B49C87009E0F9
:101C4000012E04D11DB905200749C87002E000200B
:101C50000549C8700448C078B8E70020B6E700001E
:101C600033000020080123422C00002020A107009F
:101C70002DE9F0410025002600270024284800789F
:101C800030B928480068264908700020BDE8F08176
:101C90002448006830B10027002023498870084696
:101CA0008078F3E7012019F02BFC1E48006830B162
:101CB000002700201C49887008468078E6E719480C
:101CC000001F0068C6B205E01648001F0068C5B2D4
:101CD0000127641C1348006810B914488442F3D3E8
:101CE000104800680E490870BFB11048844214D2F1
:101CF00000272EB9012D03D104200B49887009E07B
:101D0000012E04D11DB903200749887002E000208C
:101D10000549887004488078B8E70020B6E70000DD
:101D200032000020100123422C00002020A10700D7
:101D300008B50121402007F001FE03208DF80200C4
:101D40007E20ADF8000048208DF803006946024867
:101D500001F07AFA08BD00000018014010B5FEF746
:101D60003AFF034808F03AFA07F0BAF810BD00004D
:101D7000990D01082DE9F04389B0984615460F46A4
:101D800006004FF000042CD000F0A8FB04463046BB
:101D900000F08BFB814602F059FF03A9304600F0AA
:101DA00094FCF80706D0BDF91C008221001B401BE3
:101DB000401C08E0B807BDF91800284402D540F2DD
:101DC000022100E002210096CDE9018123461A4656
:101DD0004946FEF799FC04460021FEF739FE04F05F
:101DE00085F809B02046BDE8F083000010B5052352
:101DF000FFF7C0FF0446054A0021FEF74EFE0449E6
:101E000020460AF0AEFD204610BD000019E800088B
:101E1000456401082DE9F047044640688EB000276C
:101E2000804601F081FD0090B0F87CA0D0F8689069
:101E3000D0F88060D0F88850C06D00B1076868465F
:101E400001F0DCFD05E0696820468847002843D1A1
:101E50002D68002DF7D12068172853D00CDC0F28EF
:101E60003DD004DC0B2877D00D2825D18BE011283C
:101E700010D0142820D13BE0262846D004DC1E28B0
:101E800051D0202818D18AE02A2816D0B0F5107F2A
:101E900012D128E04046E56801F046FD0290697ADB
:101EA00039B9297A012904D130F87C1F41F48071B5
:101EB000018002A801F0A2FD75E0404601F034FD6A
:101EC0000090E16811B1C0F8841002E0D0F88400FD
:101ED000E060684601F092FD0EB0BDE8F087D7B330
:101EE0004046B8475FE02146404611F08DFCF3E7DD
:101EF00005A9404600F0E9FBE068069901600799F2
:101F00004160E9E7C4F80C90E6E7E0680228E3D115
:101F1000CDF83080E0680D9027200A900AA9A068CB
:101F20000BF072FCD8E7E068012804D0002140469D
:101F300000F0F1FAD0E730460AF08AFB68B130468B
:101F40000AF0F2FD30460AF037FA98B10121304626
:101F500009F076F90EE026E02FE048460AF038FE58
:101F60000646404601F0E0FC0090C0F880606846FC
:101F700001F044FD0121404600F0CDFA002EABD126
:101F80000020E060A8E75FEA0A700CD4E068C0684F
:101F900048B1007A38B140460AF0C6FD03E0214658
:101FA000404611F04AFA2146404609F0B5F80028AB
:101FB00092D0204609F038FD8EE7404601F0B4FC8F
:101FC0000090703001F0FCFB684673E7F0B587B015
:101FD000B0F908400DF10C0C0C9E876945688CE83F
:101FE000F000448A0025CDE900150294B0F90C10E8
:101FF000B0F91050B0F90E40B0F90A00194410447D
:102000002B46224600F002F807B0F0BD2DE9F04F54
:102010008BB09846DDE9155691468A468346149F53
:102020001A9C02F013FE3348603445F48055CDE924
:102030000204CDE9007543464A465146584609F028
:102040003BFC04004FD001F06FFC30220490179944
:1020500009F056FA0498282227493430FEF7EDF9A2
:1020600004981999244F4166A0F87C600026C0F8B6
:102070008060C666083FC0F888607968C16504A8BA
:1020800001F0BCFC05A9204600F01FFB1B4841F2F3
:10209000827103960094CDE90110BDF91E00BDF9CF
:1020A0001A10BDF91C20431ABDF918005B1C121A46
:1020B000521C09F001FC06467868416820468847B2
:1020C000204601F031FC0490866604A801F096FCDD
:1020D00042F20400054202D1204609F078FD204674
:1020E000189900F05DFA03F001FF0BB02046BDE83F
:1020F000F08F0000151E000804030020D1290008FD
:102100002DE9F041044694B0006800F0B7F908B139
:10211000D94D01E0D84D2C35606815281ED00CDC57
:102120000B281FD004DC00287ED005287DD12FE1AC
:102130000E287BD01228F9D141E1162806D01728A5
:1021400008D0182808D01C28F0D109E0E86914B09C
:10215000BDE8F081286AFAE7686AF8E7A86AF6E756
:102160006869F4E720680B901C200C90206801F04F
:10217000DBFB0390016D0BA88847064603A801F01E
:102180003DFC022E0FDB95E807008DE80700D4E93F
:1021900004023346A16904F0BFFA20698719A069D7
:1021A000A0EB06082CE0286803F043FA2169E869EF
:1021B0000A18521E606902F053FAA269E869111AFE
:1021C000491C606902F04CFAD4E904077F1C3946C7
:1021D00002F096FA3946A06902F092FA686803F0B4
:1021E00028FA20693946401C02F08AFAA06939466B
:1021F000401E02F085FAA0692769A0F10208BF1C01
:10220000286803F016FA42463946606902F028FA57
:10221000686803F00EFA606942463946401C02F0D5
:102220001FFA686A022802E015E1B0E000E10BDD68
:10223000A86803F0FEF961696A6A881C8B18014678
:10224000424638465B1E27E0296AB14226DD6069B6
:10225000022E074600F1020801DB374401E007F1D6
:102260000207206901DB304401E000F1020022692D
:102270003B460A444146A2F1010202F023FB022E32
:1022800002DBA069821B01E0A269921EA069E969D4
:102290003B46401A4146401C02F014FB022E02DB72
:1022A0006069064401E06669B61CE76928687F1E1C
:1022B00003F0BFF93A463146206902F087FA3A4600
:1022C0003146A06902F082FAE7696868BF1E03F030
:1022D000B0F920693A463146401C02F077FAA0690D
:1022E0003A463146401E02F071FAE869022802DCE3
:1022F000286A022823DDA86A022802DDE1690F1A94
:1023000001E0E769BF1EA86803F093F9E9690229B3
:1023100009DD20693B46421800F1020C3146604657
:10232000521E02F0CFFA286A022808DDA269E86985
:102330003B46101A3146401C921E02F0C3FA286830
:1023400003F077F9D4E90620216902F089F9686879
:1023500003F06FF9D4E906202169401E491C521E82
:1023600002F07EF9A86A022811DDA1692669E469F4
:10237000A1F10208271AA41EB61C7F1CA86803F04E
:1023800058F9234642463946304602F09BFA71E03E
:10239000208A00B2ADF81400A18A09B2ADF8161077
:1023A000228B12B2ADF81820A38B1BB2ADF81A30F5
:1023B0002C69ED68CDE9005402F016F95AE0208A44
:1023C000298B0844ADF81400A08AADF81600208BC4
:1023D000298B401AADF81800A08BADF81A002068C0
:1023E00001F0A2FA0390006FF0B1022003F0BCF9F3
:1023F000039890F87C10C1F3C00100EB8100006CE1
:1024000003F017F90398406B03F042F90398006F4B
:1024100001F08AFA03990990B1F95A2005A901F04F
:102420002BFF09A801F0EAFA03A801F0E7FA21E07E
:10243000208AADF81400A08AADF81600208BADF804
:102440001800A08BADF81A00A86803F0F2F805A8F0
:1024500002F064FA0EE0206801F066FA039030F8AA
:102460005A1F41F00C01018003A801F0C7FA20684F
:102470000AF0E0FB00206AE62C03002038B50500D6
:102480004FF000040FD002F0E1FB284601F04CFAB7
:10249000009090F87C00000700D50124684601F008
:1024A000ADFA03F023FD204638BD38B505004FF0E6
:1024B000000411D002F0CAFB284601F035FA009062
:1024C000C06D00218068026828469047044668462F
:1024D00001F094FA03F00AFD204638BD30B587B00C
:1024E00005004FF0000413D002F0B0FB01A928460C
:1024F00000F0EBF8284601F017FA0090B0F95440CC
:10250000684601F07BFA0CB9BDF9044003F0EEFC1B
:1025100007B0204630BD70B50D46040009D002F06A
:1025200095FB2946204612F0D5FABDE8704003F02D
:10253000DDBC70BD2DE9FC410D46804602F086FBF6
:10254000B8F1000028D001F0EFF90190C16D8C685E
:1025500000F022F907460198456301A801F04EFA00
:1025600022680121404690470646226803214046E2
:102570009047054622680021404690470446404661
:1025800000F0EFF92B46324639464046009400F001
:1025900078F9404609F0E4FF03F0A8FCBDE8FC81AF
:1025A0007CB50D4604001DD002F050FB204601F022
:1025B000BBF90090006F0190684601F01FFA2946B0
:1025C00001A804F003FC58B1204601F0ADF90090D9
:1025D00001990167684601F011FA204609F0C0FF31
:1025E00003F084FC7CBD38B50C46050013D002F026
:1025F0002DFB284601F098F90090B0F95A10A1423D
:1026000004D0A0F85A40284609F0AAFF684601F015
:10261000F5F903F06BFC38BD38B50C46050015D054
:1026200002F014FB284601F07FF90022CDF80000EB
:1026300000EB8201521C0C64022AF9D3684601F0B7
:10264000DDF9284609F08CFF03F050FC38BD2DE978
:10265000FC470D465FEA00094FF0000432D002F05B
:10266000F5FA484601F060F90190B0F95440A542EE
:1026700023D000F091F8804601980121A0F8545031
:10268000C06D856848462A68904707462A68032136
:102690004846904706462A68002148469047054626
:1026A000484600F05EF933463A46414648460095B2
:1026B00000F0E7F8484609F053FF01A801F09EF941
:1026C00003F014FC2046BDE8FC872DE9F34F85B0EC
:1026D00000270C46B846059801F026F90090C06D19
:1026E0000121856805982A68904782462A68032157
:1026F0000598904704902A68022105989047039016
:102700002A68002105989047064600980AF0EAFCDE
:10271000834600980AF0EDFC8146009890F832104C
:10272000890601D5B0F9588000F036F805460098C2
:10273000C06E10B109F052FC074625806780A4F8EE
:1027400004A0049AABEB020006EB0802401E2A44E8
:1027500020813A44E280039BA9EB0302521E62816E
:10276000A4F80CA020827019E681401E60826846A1
:1027700001F044F9B4F90C000190B4F91000029092
:1027800002AA01A9059800F039F80198A0810298E1
:10279000208207B0BDE8F08F10B50146002091F807
:1027A0003220920607D5B1F95400002803D1486BB6
:1027B00002F0F6F9801C10BD70B58AB00C460546D3
:1027C00001F0B2F80990C06D866809A801F016F909
:1027D000009534B1012C06D0022C0BD0032C04D16F
:1027E0000AE0182000E016200190716868468847CA
:1027F0000AB070BD1520F7E71720F5E72DE9FC4179
:1028000017468846044601F08FF80090C16D0568B0
:1028100068468E6801F0F2F8326800212046904741
:102820000646204609F09BFA27E000BF01F07CF83D
:102830000190B0F900102AB2B0F90430891A9A1A3E
:10284000B0F90230A3EB2543B34210D190F8280031
:10285000000605D53868884209DB491E396006E064
:10286000D8F80000904202DC521CC8F8002001A8F1
:1028700001F0C4F8204609F01FFB0400D6D1BDE8E2
:10288000FC812DE9FF4F83B00E460746DDF84090EE
:1028900001F04AF80190C16D8D68FFF77DFF044695
:1028A00001A801F0ABF82A68012138469047834619
:1028B0002A6803213846904782462A680021384614
:1028C00090470546B44207D105998B4504D1069936
:1028D0008A4501D14D4541D0A41B0026B04638465B
:1028E00009F03DFA38E001F01FF80090806A010617
:1028F00001D5800502E0810528D50006002825DBEA
:1029000024B122461146384609F037FF009890F866
:10291000280000060AD50698A5EB0902A0EB0A00DC
:1029200004FB16013846761C09F0DAFE0098008D8B
:1029300080050BD50599A5EB0902ABEB010004FB63
:10294000080108F10108384609F0CAFE684601F09E
:1029500055F8384609F0B0FA0700C4D107B0BDE811
:10296000F08F70B586B0064600F0DEFF0590D0E926
:102970001A4505A801F042F854EA050026D0694638
:102980003046FFF7A2FEACB1BDF90620BDF9041038
:10299000204609F069FEBDF90A00BDF90610421A89
:1029A000BDF90800BDF90410521C411A2046491C0B
:1029B0000AF095F9002D09D0BDF90600BDF9021005
:1029C000421ABDF90410284609F04EFE06B070BD4B
:1029D0002DE9F0430446406889B0054609F079FACC
:1029E000814600F0A1FF0290D0F84880D0F88070B6
:1029F000466E02A801F002F82068172853D008DCC0
:102A00000E283AD00F2811D014284CD015283DD1CB
:102A100049E01E281ED01F282AD0222840D0312865
:102A200034D10020E06009B0BDE8F0836FF0704160
:102A30004046884503D005F063F901F0B7F9002E50
:102A4000F1D0D4E902122068CDE90405CDE90612DF
:102A500004A81FE0E0680028E5D02FB1AF4203D002
:102A600038460AF061F8DEE728460AF0B1F8DAE7FE
:102A70002146484608F050FBD5E7E0684168002948
:102A800004DD00680928EFD00A2805D05EB1204691
:102A9000C4F80490B047C6E728460AF0A8F8C2E791
:102AA000C4F80C80BFE7204608F0BEFFBBE700007B
:102AB00051B18200A2F1C042126842F001038200CB
:102AC000A2F1C042136009E08200A2F1C042126884
:102AD000034B1A408300A3F1C0431A607047000003
:102AE000FEFF0F00D0E901121143C26811430269D1
:102AF00011434269114382691143C2691143026A59
:102B00001143426A1143826A1143C26A1143026B44
:102B1000114302689200A2F1C04211608168082945
:102B20000BD101688900A1F1C041096841F0400260
:102B300001688900A1F1C0410A60416B0968426BDC
:102B4000526841EA0211426B926841EA0221426BEB
:102B5000928941EA0241426B128A41EA0251426B78
:102B6000127D41EA0261426B926911430268521C74
:102B70009200A2F1C0421160C16AB1F5804F1BD131
:102B8000816B0968826B526841EA0211826B92681C
:102B900041EA0221826B128A41EA0251826B127D64
:102BA00041EA0261826B9269114302689200A2F1CC
:102BB000C042C2F8041107E06FF07042016889005A
:102BC000A1F1C041C1F80421704700002DE9F04394
:102BD0000446C56887B090468946002002F04CFD47
:102BE000064625B1287910B146F0020001E026F032
:102BF000020002F041FD2069012558B1D4E902121A
:102C00008DE826000395638822880468414648467B
:102C1000A0471EE0124F134B214638681B68427CC8
:102C2000E068984730B9E088012801D0002001E031
:102C30003868806BA288E388A1680095CDE904100C
:102C4000CDE902320195638822884146484604F066
:102C500059FB07B03046BDE8F04302F00DBD00005F
:102C600090010020880100201CB50024019401ACD3
:102C7000009400F0E7F81CBD2DE9FF4F83B08146BA
:102C800006988A46A0EB0A08109E00200090A2EB4E
:102C900009043568934654EA080018D02046FDF729
:102CA000C0FC07464046FDF7BCFC87420BDA2046D5
:102CB000444680464846D14682465846DDF818B01C
:102CC000069001200090002C07DD204606E007B0AA
:102CD0004846BDE8F04F00F03BB96042A0420AD040
:102CE0004846D9466442C8F1000883464FF0FF3792
:102CF000DDF818A000E001275148B8F1000F11D00D
:102D000004EBD4714FEA610B01DACBF1000B4C48B4
:102D10000068807E88B3002F02DA3068204430607B
:102D200000257BE000990029016821D0897E11B13E
:102D30000027804615E007B05A4649465046BDE890
:102D4000F04F04F041BC28466D1C11F0B1FF38B9BA
:102D5000D8F8000009EB0701406E426850469047E2
:102D60007F1CA742EFDD6D1E356007B0BDE8F08F18
:102D70008A7E1AB10027804617E019E0486E5A464D
:102D80005146036807B04846BDE8F04F184728464B
:102D90006D1C11F08DFF38B9D8F8001009EB070051
:102DA000496E4A68514690477F1CA742EFDDDAE73B
:102DB00000250FE008FB05B090FBF4F101EB0A00E1
:102DC000009951B11E4A09EB05011268526E526812
:102DD00090476D1CA542EDDDC7E7194909EB0503D6
:102DE0000968496E4A6801461846F1E708FB05B0D4
:102DF00090FBF4F101EB0A00019030683844306038
:102E000011F056FF48B9009890B10D4809EB050143
:102E10000068406E4268019890476D1CA542E5DD50
:102E20003068002F01DA20443060C01B30609CE71E
:102E3000034909EB05000968496E4A680199EBE707
:102E4000900100202DE9FF470F4640491646804675
:102E500009680C981D460A7E012A1CD0A8EB0600C2
:102E6000791B50EA01031CD0A2F1010913F080FA8A
:102E700000F58060824604F098F800FB09F45046A3
:102E800004F098F800FB09F1002C0CDAC4F500708E
:102E9000801240420AE00090324639464046FFF731
:102EA000EBFEBDE8FF8704F50074A012002904DAE8
:102EB000C1F5007189124C4202E001F500718C12DB
:102EC000002804DD411C01EBD171491003E000EB47
:102ED000D0714910401E00EBD0704210002C04DD70
:102EE000601C00EBD070401003E004EBD470401085
:102EF000641E04EBD47308EB0104ADF800403C18E9
:102F0000ADF80240A8EB02045B10B21AADF8044021
:102F1000ADF808203144FC1AEA1AADF80C10284428
:102F2000ADF80A20ADF80E000023ADF806401A46B1
:102F30000421684600F07AF8394640460DF07CFEE0
:102F4000294630460DF078FEABE7000090010020E6
:102F5000064A13681A7E012A05D0521E02EBD2726D
:102F6000521000F005B85A6E5268104790010020C8
:102F70002DE9F05F0646884640F2C32002FB00F1CF
:102F80004FF47A7091FBF0F702FB02F102EBD27082
:102F900001EB600B1446B118234A301B7F1C1268EA
:102FA000526E13680A4641469847012538E000BF33
:102FB00005FB05F004FB040159451CDDBC4219DD8D
:102FC000194B06EB050AA6EB05091B68AAF10102DD
:102FD00008EB04015B6E09F101001B689847124B76
:102FE000AAF10102A8EB04011B6809F101005B6E64
:102FF0001B689847641E0C4B3219301B1B689246A5
:1030000008EB05015B6E81461B689847064B5246EC
:10301000A8EB05011B6848465B6E1B6898476D1C52
:10302000BD42C5DDBDE8F09F900100202DE9FF4FB6
:1030300043F6FF740F46664283B09B4681460021EB
:103040000BE000BF09EB8100B0F90200A04200DAFA
:103050000446B04200DD0646491CB942F2DB67482F
:103060000068406900280DD0B0F906101A46A1EB9F
:103070000B01B14200DA0E46B0F90200801AA042FC
:1030800000DD0446B4E0DFF878A100200546CAF868
:10309000000088E0781E854201DA6B1C00E0002306
:1030A00009EB850C09EB8302BCF90200B2F90210AE
:1030B000A04244D1A14215D139F92330059A39F9FA
:1030C000251003EB020C4D4A05981268084404EBE6
:1030D0000B01526E6045136801DA62462AE002462F
:1030E000604627E02846A4464FF000087A1E0BE011
:1030F00008B1401E00E0781E09EB8003B3F90230EE
:10310000634504D108F101089045F1DB2346A34251
:1031100048D01A1B39F92500A1EB040C059B92EA53
:103120000C0F09D4354A184404EB0B011268526E97
:1031300013680246984735E00AF072FC32E0A1427B
:1031400030D001DBA04203DDA0422BDBA14229DC11
:10315000E04688420ADC0346A04223DC0846A1423E
:1031600020DBB8F900C0B2F9001008E00B46A1421C
:1031700018DCA04216DBB2F900C0B8F90010E21A60
:10318000A1EB0C0151430029A0EB030202DD01EB8E
:10319000620102E0A1EB6201491CC01A91FBF0F050
:1031A0006044C9E76D1CBD42FFF674AF05980090FE
:1031B00004EB0B00019000208046054613E0114906
:1031C000B8F1000F31F915A009D0009901EB0A02FE
:1031D00008440A490968496E0B680199984788F0C4
:1031E000010850466D1C064909688D42E7DB641CE6
:1031F000B4427FF748AF07B0BDE8F08F90010020E0
:10320000E4010020EC8A002010B5002002F006FA4C
:103210006FF07F4002F00DFA012002F087FA0020E3
:1032200002F092FA002002F09FFA002002F024FA45
:103230000448006802F02CFABDE81040002002F0BB
:1032400047BA00008C0100202DE9F041024600251C
:103250000026002000230024002791F803C00CF072
:103260000F0591F803C00CF0100CBCF1000F03D057
:1032700091F802C04CEA050591F800C0BCF1000FBE
:1032800031D0146800202BE04FF0010C0CFA00F351
:10329000B1F800C00CEA03069E4220D183004FF033
:1032A0000F0C0CFA03F7BC4305FA03FC4CEA0404C8
:1032B00091F803C0BCF1280F06D14FF0010C0CFAB5
:1032C00000FCC2F814C00AE091F803C0BCF1480F3A
:1032D00005D14FF0010C0CFA00FCC2F810C0401CE4
:1032E0000828D1D31460B1F800C0BCF1FF0F34DD61
:1032F000546800202EE000F1080C4FF0010808FA95
:103300000CF3B1F800C00CEA03069E4221D1830001
:103310004FF00F0C0CFA03F7BC4305FA03FC4CEA20
:10332000040491F803C0BCF1280F05D100F1080C8A
:1033300008FA0CF8C2F8148091F803C0BCF1480FE9
:1033400007D100F1080C4FF0010808FA0CF8C2F898
:103350001080401C0828CED35460BDE8F081416144
:1033600070470161704700002DE9F04FDFF828B188
:1033700091B04FF0FF35DBF80030B3F92210069121
:10338000DE69B3F924A0F469A189814206D8E289F3
:10339000824203D3471AD4F8008012E0D4E90181B5
:1033A000002970D00A8882426DD84D8885426AD340
:1033B000801A82B2486800EB8200B0F90070B0F960
:1033C0000250781C5FD0307EA27C014600FB02F9DF
:1033D000207CCDE90710B3F92A60304604F0E0FC08
:1033E000C0B20E90DBF8001007FB0980A37C8A6B4B
:1033F0000127CDE90402CDE90273C869089AC17EAC
:10340000807ECDE90001DDE90603514603F07AFF35
:10341000681C18D046F0020004F0C2FCDBF8000083
:10342000A37C05FB0981826BCDE90273CDE904120F
:10343000C069089AC17E807ECDE90001DDE90603FE
:10344000514603F05FFFDBF800005D46C069417E36
:10345000007E814214D9022E12D086F0040004F0BE
:103460009FFC2868C069027EC37E857E02FB03A1A3
:10347000437E089A0698534402FB050204F004F9BF
:103480000E9804F08DFCDBF80000627C418C114446
:10349000418411B0BDE8F08F90010020044800681D
:1034A000C069C06909B1027C0A60407C70470000B5
:1034B00090010020022008807047C06982898A42FA
:1034C00002D8C2898A4210D2806880B102888A42BA
:1034D0000DD843888B420AD3406800EB8100A0EBF3
:1034E0008200B0F90000002801DB012070470020B5
:1034F000704700002DE9F0432F4C034687B0206849
:103500001946B0F92A80C069C06900F082F8002825
:103510004ED041680088181A01EBC0054046AE78CD
:1035200004F03EFC814620686A680123816BCDE986
:103530000236CDE90421C169CB7E8A7ECDE9002324
:103540000B7EB0F924102A78B0F9220003F0DAFEDD
:103550002068C069477E067EB7421DD9C07E4743BA
:103560004643B8F1020F17D001F073FA804601F01C
:1035700039FA02F05EF821682A78CB69B1F92200A5
:10358000B1F92410DB7E02FB0302CB19314404F0B5
:103590007BF8404602F04DF8484604F001FC2068F4
:1035A0006A78C369B0F922109B7E02FB0311418443
:1035B00007B0BDE8F08300009001002030B50E4C4C
:1035C00005460B4620682946C069C06900F021F80D
:1035D000002810D04168008824682A1A0120E46974
:1035E00000EBC200085CA47E6043002B03D011F8FE
:1035F00032106143196030BD900100200120088025
:10360000704700B5C06900F004F8002800D0012020
:1036100000BD06E002888A4202D842888A4202D26D
:1036200080680028F6D170472DE9F0410025154E3D
:10363000154C18E02069C5EB051700EBC700702298
:10364000001D3168FCF7F9FE2069002140F83710B1
:1036500000EBC70000F10C018161011D0A1DC0E9EA
:103660000F126D1C4164A0688542E3DB0FF030F956
:103670002169C0EB001001EBC000001D3060BDE807
:10368000F0810000900100207805002070B50F49FE
:103690000D480860084603F091FB0C4C143CA068F0
:1036A000C0EB0010C500284600F0A6F82A4600210D
:1036B000206103F0FCFB4FF0FF30206002F063FC60
:1036C000BDE870400FF004B9713501088C05002089
:1036D000F8B50C0005460FD001F0B8FA204600F00E
:1036E00017F8060010D000F01FF9224600902DB107
:1036F0002946FCF71BFE04E00020F8BD002103F082
:10370000D6FB684600F07AF902F0F0FB3046F8BDCF
:1037100010B5040009D001F099FA20460AF014FB14
:10372000044602F0E3FB204610BD002010BD38B572
:10373000054601F08BFA2846FFF7EAFF040009D09E
:1037400000F0F2F82A460021009003F0B0FB684632
:1037500000F054F902F0CAFB204638BD024A10605E
:1037600021F0030050607047708A002010B50400FB
:1037700016D001F06BFA0B48406B10F8341059B1B9
:10378000022909D2042101EBC401415848680AF01A
:1037900063F9204611F0A4F8BDE8104002F0A6BB82
:1037A00010BD0000B0890020002805D0034AD16B6D
:1037B000016001B14860D06370470000B08900200B
:1037C00010B5044601F042FA2068FFF7CFFF002051
:1037D0002060BDE8104002F089BB000070B50D46C6
:1037E0000646002405E000BF06EB8400FFF7E8FF73
:1037F000641CAC42F8DB70BD2DE9F04104460FF0CB
:10380000A3FA2848E41C24F00305016C2D1DA942ED
:1038100000D90D46C46B13E054F8042CAA420ED113
:1038200084B1216809B162684A60616809B122689F
:103830000A60C26BA24231D12168C1632EE02468C4
:10384000002CE9D18046816BC0680F1857F8040C32
:103850003E1A306838B1002011F0ACF857F8040C6B
:103860003E1A3068D0B97068A84217DB3044441B58
:103870003046241D11F056F8D8F80C10491BC8F832
:103880000C10D8F814102944C8F814107068401BA4
:1038900002D031460AF0E0F844F8045C2046BDE866
:1038A000F0810000B089002010B500240FF04CFA20
:1038B0000C490F2001EBC002526C1AB101EBC000A1
:1038C000406C08E0401EF5D508E04168A14200D9EF
:1038D0000C46806810B180680028F6D1A4F10C0075
:1038E00010BD0000B0890020034800680C38002893
:1038F00000DC002070470000B0890020002138B1B2
:103900000449042202EBC000496B085841680C3995
:1039100008467047B089002002488169491C8161CE
:1039200070470000B08900200549CA69521CCA616D
:10393000496B01EBC0010A78521C0A7000F076B89E
:10394000B08900207CB506460C460846FFF7E0FE2D
:10395000050020D0FEB13046FFF7D0FFA04200DACC
:10396000044601F073F92846FFF7DEFF0090304669
:10397000FFF7DAFF0146019022460098FCF7D6FCDB
:10398000684600F03BF801A800F038F83046FFF731
:10399000EDFE02F0ABFA28467CBD000010B501F048
:1039A00055F9FFF781FF64220849B0F5800F04D96B
:1039B00090FBF2F4086A444303E0096A4143B1FB17
:1039C000F2F402F093FA204610BD0000B089002006
:1039D0000549102805D94A68B0EB520F02D35008A8
:1039E00000E0102088607047708A002002488169DA
:1039F000491E816170470000B08900200A490268B1
:103A00004B6B52F8082C03EBC2021378022B03D342
:103A1000CB690BB15B1ECB611178491E117000217F
:103A20000160084670470000B0890020002806D0D9
:103A30000349042202EBC000496B08580830704764
:103A4000B08900202DE9FC414FF000060B465FEAEB
:103A5000000834462BD032B111461846FFF738FE25
:103A6000060000D101244046FFF75EFF0090078862
:103A700045686846FFF7C2FFCCB9B9002846091D62
:103A8000FFF760FF050015D0FFF74EFF019040F8EB
:103A9000276001A8FFF7B2FF4046FFF745FF0090FF
:103AA00045600188491C01806846FFF7A7FF204652
:103AB000BDE8FC813046FFF759FE0124F7E70820F6
:103AC000FFF735BE7CB5050023D0FFF72DFF009032
:103AD0004068C0B1FFF728FF0024019005E001987D
:103AE00000EB8400FFF76CFE641C00980088A04285
:103AF000F5DC01A8FFF782FF0098001DFFF760FECC
:103B00000099002008806846FFF778FF2846FFF7F5
:103B10002DFE7CBD38B5002430B1FFF705FF0090C5
:103B200004886846FFF76AFF204638BD38B50D4661
:103B3000002448B1FFF7F8FE2946009000F05BF83A
:103B400004466846FFF75AFF204638BD38B50D4693
:103B5000002448B1FFF7E8FE2946009000F05DF828
:103B600004466846FFF74AFF204638BD2DE9FE436C
:103B7000984691460D460024D0B3FFF7D5FE01903C
:103B80000788466801A8FFF739FFBD4230D27EB3EF
:103B90003046FFF7C9FE009050F825406846FFF711
:103BA0002DFF24B12046FFF7A9FE404511D0404625
:103BB000FFF7BDFD04000CD03046FFF7B5FE00EB6B
:103BC000850500902846FFF7FBFD68462C60FFF74F
:103BD00015FFB9F1000F0BD054B12046FFF7A4FE3A
:103BE000424649460290FCF7A1FB02A8FFF706FFF8
:103BF0002046BDE8FE8338B50D4601880024A94261
:103C000009D9406838B1FFF78FFE009050F8254081
:103C10006846FFF7F3FE204638BD10B50024FFF7D5
:103C2000EAFF10B1FFF780FE0446204610BD70B5D4
:103C30000C46054601F040F8C1B223462846BDE8CF
:103C400070400022AFF30080F0B52D271C68B0F162
:103C5000004F08D0002600280DDA651C1D60277073
:103C60004042012408E0651C01261D606FF0004001
:103C70002770491E01E00024091BC9B22AB3491E5E
:103C8000C9B222E00C46491EC9B2944205D1124C79
:103C900027781C68651C1D602770104C54F8215053
:103CA00090FBF5F4E4B20A2C11D804FB150011B90D
:103CB0000EB1641CE4B20A2C02D10124491CC9B221
:103CC0001D686F1C30341F602C700029DAD1196810
:103CD00000200870F0BD0000840100203CDB0208D9
:103CE00010B5002807DD0A682B24531C0B601470E4
:103CF000096800220A7010BD70B514460D460646CC
:103D000000F0A4FF204600F0B1FE0300174804EBCA
:103D1000840109D050F8210041688068711A2A1A7C
:103D2000184601F0C5FC1CE000EB8104A268B24219
:103D300001D0012200E00022E368AB4201D0012360
:103D400000E000231A430CD0236943B150F821004E
:103D5000816840686A1A311A184601F00DFCC4E9FE
:103D60000265BDE8704002F0C1B80000EC8B002095
:103D700010B5C2B2CBB2D21A00D5524293B25B4355
:103D8000C0F30722C1F30724121B00D55242000CD6
:103D900092B2A0EB114002FB023200B2002801DA1D
:103DA000404200B280B200FB002010BD10B50021DF
:103DB000084600F009FF43F6FF725042BDE810408C
:103DC00013460146AFF300802DE9FC411C46154621
:103DD0000E46074600F03AFF042003F0E1FF80465C
:103DE0001248C068C16C006D0F4406440D44044481
:103DF000ADF80070ADF80450ADF80260ADF80640C3
:103E0000684609F07DF907E023462A4631463846E0
:103E100003F03AFC09F028F90028F5D1404603F0F8
:103E2000BFFF02F063F8BDE8FC81000084010020C0
:103E3000B0F90630B0F90420B0F90210B0F9000072
:103E4000FFF7C2BF2DE9F8431C00DDE908981646CC
:103E50000F46054602D107F05BFF044600962E6828
:103E600043464A4621462846B047061E39D007F049
:103E700044FF8146698A304607F0E2F9304608F08F
:103E8000BCFF484608F0B9FF4FF000080CE000BF47
:103E9000CDF8008055F81CCF00231A464946284625
:103EA000E04700B308F0A9FF7F1E002FF0DC1D21C2
:103EB000484608F036FD601C12D000F0C7FE07F03F
:103EC0006BFF30B1FFF7B2FD8469B44201D020002E
:103ED000F8D1B44202D0304608F07AFE02F006F87B
:103EE0003046BDE8F883304607F0D6FD0020F8E7FD
:103EF0002DE9F0411C4616460D460746022B02DB13
:103F00000020BDE8F0811C20FFF776FC0028F8D0E7
:103F10000DB105610AE0094A52F8241009B905E01B
:103F200011460A68002AFBD1096901618461868211
:103F3000002101604160C0E90217E2E7B001002002
:103F400070B51D46FFF7D4FF040009D000F00EF84D
:103F5000E068006820B90348006800EB85008465CC
:103F6000204670BD90010020FFF71EBC70B590B3D5
:103F70008269022A30DA1E4C54F8221019B944F82A
:103F8000220032E019464B68002BFBD106E0CB68DB
:103F9000C5681B682D68AB4203DD09680029F6D1AE
:103FA0001AE0C1B1CB68C6681B683668B3420CD151
:103FB000838A012B05D008E01946DB681B68AB42F9
:103FC00003DB0B68002BF7D129B14B6833B11860C4
:103FD0004A68426004E0FFE7012070BD44F8220017
:103FE0004860884200D100210160002070BD0000BF
:103FF000B001002010B503E00468FFF7B7FF2046CA
:104000000028F9D110BD000010B50B4B81690022CA
:1040100053F82140844204D1046843F821400168E8
:104020004A60416809B103680B60016809B14368DF
:104030004B600260426010BDB0010020002070475C
:10404000022801DB00207047054951F8200004E0F8
:10405000C16809680029F6D000680028F8D17047C7
:10406000B0010020F8B5074615460E460C20FFF7B4
:104070005EFB04000FD000F0E9FD2046FFF754FC82
:1040800006490090C0E90017068145816846FFF7A0
:10409000B5FC01F02BFF2046F8BD0000C065030809
:1040A0002DE9F8431D461646884604000CD0FFF75C
:1040B0003BFC0090006807686846FFF79FFC2B46B2
:1040C000324641462046B847BDE8F8832DE9F04125
:1040D000044601F051FF06191EE000BF00F0B0FBDE
:1040E000052F00DD052700F0B1FD11480568FFF739
:1040F00013FC2C0017D000BF01F0F8FE641EFBD1AA
:10410000384601F029FF1DB100F0A0FD6D1EFBD166
:10411000FFF76CFC01F0EAFE01F02EFF371A002FCA
:10412000DCDCBDE8F081384601F016FFF0E7000066
:10413000840500201FB503A9CDF80CD0FFF777FD4B
:10414000684600F001F81FBD2DE9FC4706005FD06E
:1041500000F07CFD00F0A2FC3C4C81462068B0F9E8
:10416000228000F0FDFC216807468A8CD01B8884E1
:1041700041E000BF47F6FF71304602F0B3FC8246D3
:104180000146304602F084FC2168054691F82C0077
:1041900000F00300012841D002283BD000204A8CC7
:1041A000101A4884ADF800006A1E1044ADF80400EF
:1041B000888CADF80200A9F101010844ADF80600B1
:1041C0006A465146304602F0B7F82168BDF8020051
:1041D00088845146304601F077FD064430780A283D
:1041E0001ED00D281CD0BDF800002168284448844A
:1041F000307818B1761C30780028BBD12068818CCB
:1042000039448184818D21F00301818501F06EFEA6
:10421000BDE8FC8705EBD5704010C0E72846BEE737
:10422000206890F82C1001F0030101290BD002291D
:1042300009D0018C418431780A29D9D1828C02EBD2
:1042400009018184D4E7A0F82280F4E790010020DE
:1042500070B514460D46064600F0F8FC05480068A7
:10426000458484843046FFF76FFFBDE8704001F05D
:104270003DBE00009001002047F6FF73AFF30080C1
:104280002DE9FC411F4690460D4606004FF0000404
:104290001AD000F0DBFC65B1284608F045FD0400AB
:1042A00007D002462946684602F089FC684608F0B5
:1042B0003BFD3B4642462946304602F095F82046F3
:1042C00008F032FD01F012FEBDE8FC812DE9FF4F40
:1042D00087B09046894607007ED000F0B7FCD9F839
:1042E0000040D9F8045021B228B2401A401C029074
:1042F00000F0D4FB064618F00C0F1ED038460A9A80
:10430000029901F0FDFD08F00C01042904D00829F0
:1043100002D00C2911D104E0291400FB1610401C16
:1043200009E02114C1EB254200FB1620401C00EBE4
:10433000D07001EB600060F31F44484608F0F4FCC5
:104340005FEA000B09D00246494604A8CDE90445BE
:1043500002F035FC04A808F0E7FCA6F1010A384693
:104360000A9A029902F072FD03900AEB244060F36E
:104370001F45CDE900453846039902F089FB18F046
:1043800003010FD001292DD002290FD1B9F9042042
:10439000B9F90010521A101A401C00EBD07001EB52
:1043A000600001E0B9F80000ADF800006A46384648
:1043B000039901F0C1FF38460A9A029902F03CFDC8
:1043C000074406EB244060F31F4438780028C6D128
:1043D000584608F0A9FC00E001E001F087FD0BB0B1
:1043E000BDE8F08FB9F80410081A401CDCE70000A3
:1043F0007CB514460D46064600F028FC11480068BE
:10440000C16C006D0D4404443188681E0844ADF849
:104410000400ADF800507188601E0844ADF8060035
:10442000ADF80240684608F06BFE06E022462946D9
:104430003046FEF7CBFB08F017FE0028F6D101F05E
:1044400055FD7CBD900100201CB50A46014668461A
:1044500002F0A7FC00F0FAFB2548BDF80010006848
:1044600030F84C2F1144ADF80010BDF802108288CE
:104470001144ADF80210BDF8041002881144ADF8E3
:104480000410BDF8061080880844ADF806006846A0
:1044900008F036FE27E000BFBDF900400BE000BF8A
:1044A000BDF90210204603F05BF8BDF90610204666
:1044B00003F056F8A41CBDF90400A042F0DABDF9DF
:1044C00002400AE0BDF90000214603F049F8BDF9B9
:1044D0000400214603F044F8A41CBDF90600A042E4
:1044E000F0DA08F0C1FD0028D6D101F0FFFC1CBDB8
:1044F000900100202DE9F04F87B09B46DDE9109830
:1045000092460C46054600F0A1FB16480168C86CAF
:10451000096D47190E1900EB0A0501EB0B04ADF804
:104520001070ADF81450ADF81260ADF8164004A844
:1045300008F0E6FD88B1DFF830B04FF0000ACDE9B1
:104540000098CDE902BA2B462246394630460CF097
:10455000D3F908F089FD0028F1D101F0C7FC07B0BC
:10456000BDE8F08F90010020C97500082DE9FF4FCC
:1045700087B09346DDE915980C460546DDF850A056
:1045800000F064FB16480168C86C096D471900EB20
:104590000B050A980E190C18ADF81470ADF81850E8
:1045A000ADF81660ADF81A4005A808F0A9FD90B165
:1045B0004FF0010B0B49CDE900A9CDE9028123465B
:1045C0002A46CDF810B0314638460CF03FFA08F0D4
:1045D0004BFD0028EED101F089FC0BB0BDE8F08F57
:1045E00090010020097500082DE9F04F87B09B4627
:1045F000DDE9109892460C46054600F027FB164868
:104600000168C86C096D47190E1900EB0A0501EB2A
:104610000B04ADF81070ADF81450ADF81260ADF8A1
:10462000164004A808F06CFD88B1DFF830B04FF0F8
:10463000010ACDE90098CDE902BA23462A4631465F
:1046400038460CF059F908F00FFD0028F1D101F0BF
:104650004DFC07B0BDE8F08F9001002009750008FF
:104660002DE9FC4114460D46064600F0EFFA114FC5
:104670003968C86C096D054404440E44ADF8005017
:10468000ADF80440ADF80260ADF80660684608F089
:1046900037FD08E0386822463146406E03682846F8
:1046A000984708F0E1FC0028F4D101F01FFCBDE8B8
:1046B000FC810000900100202DE9F0411C461546C8
:1046C0000E46074600F0C2FA0C480168C86C096D36
:1046D000074405440E440C44002008F011FD07E097
:1046E00023462A4631463846FEF7BEFA08F0BCFC9F
:1046F0000028F5D1BDE8F04101F0F8BB90010020A1
:104700007CB50C46064600F0A1FA0F4D2868C16C36
:10471000006D0E440444ADF80460ADF80060ADF8DF
:104720000640ADF80240684608F0EAFC07E0286859
:104730002146406E42683046904708F095FC0028BC
:10474000F5D101F0D3FB7CBD900100202DE9FC41A7
:104750001C4616460D46074600F078FA1A480168CE
:10476000087ECA6C096D17440D440C44401E391A6A
:104770001644ADF800103118ADF80410291A204481
:10478000ADF80600ADF80210684608F0B9FC15E077
:1047900032462946384602F0B7FE324621463846B0
:1047A00002F0B2FE621E691C384602F00DFF621E66
:1047B000691C304602F008FF08F056FC0028E7D1DB
:1047C00001F094FBBDE8FC81900100207CB514460B
:1047D0000D46064600F03AFA0F480068C16C006DBD
:1047E0000E4405440444ADF80060ADF80460ADF833
:1047F0000250ADF80640684608F082FC06E022460A
:104800002946304602F0E0FE08F02EFC0028F6D1E2
:1048100001F06CFB7CBD00009001002070B50C46DF
:10482000054600F02DF910B10121C0E9001400F097
:104830000DFA284608F09AFBBDE8704001F056BB1F
:1048400010B5002400E0012400F004F80028FAD19B
:10485000204610BD094810B50068002410B18047FB
:1048600000B1012407F0C6F900B101240448006832
:1048700010B1804700B10124204610BD9C010020EA
:10488000B801002070B516460C46054600F0DEF96A
:104890000B480068C16C006D0D440444002008F012
:1048A0002FFC06E0324621462846FEF761FB08F061
:1048B000DBFB0028F6D1BDE8704001F017BB00001B
:1048C000900100202DE9FC411C4615460E46074686
:1048D00000F0BCF910480068C16C006D0F4406443C
:1048E0000D440444ADF80070ADF80450ADF802601A
:1048F000ADF80640684608F003FC07E023462A4668
:104900003146384602F0C0FE08F0AEFB0028F5D173
:1049100001F0ECFABDE8FC8190010020B0F906300E
:10492000B0F90420B0F90210B0F90000FFF7CABFD7
:1049300008B50B46002805D0009281888268C0889F
:1049400000F001F808BD10B50828029C30D008DC42
:1049500004FB01F401280AD0022813D0042804D152
:104960001CE0102828D020282CD0002010BD04EBFB
:10497000D30003F00701105CC1F10701C84000F04B
:10498000010010BD04EB93000621105C01EA430115
:10499000C1F10601C84000F0030010BD04EB530054
:1049A000D907105C02D000F00F0010BD000910BD47
:1049B00004FB0130105C10BD481004FB003032F8DD
:1049C000100010BD881004FB003052F8200010BD0C
:1049D000034951F82000C1688A6A08211047000085
:1049E000B001002010B500F031F902F0F7FE02F03E
:1049F000D7FF044601F07AFA204610BD10B50446F0
:104A000000F024F9054800210068C069426820468A
:104A10009047044601F06AFA204610BD900100203C
:104A200070B50C46054600F011F9064821460068AD
:104A3000C069426828469047044601F057FA20466C
:104A400070BD000090010020002801D007F032B9AD
:104A5000704710B500F0FAF802F0C8FE02F0A0FFAF
:104A6000044601F043FA204610BD00000021022850
:104A700002D2024951F82010084670477005002004
:104A80001FB500210191029103912A2100916946ED
:104A900007F038FF039804B010BD000010B500F017
:104AA000D5F804480068C069447E01F01FFA20462A
:104AB00010BD00009001002070B50D46044600F0C6
:104AC000C5F814B909480068C469294694F820005B
:104AD000A87094F82200287194F82100E870A26868
:104AE00020469047BDE8704001F000BA90010020D8
:104AF00010B500F0ABF801F0C1FF044601F0F6F983
:104B0000204610BD70B515460E46044600F09EF8CE
:104B10002A463146204602F0D5FE040002D000208D
:104B20003060286001F0E2F9204670BD70B50C4697
:104B3000054600F08BF82146284601F0FDFFBDE850
:104B4000704001F0D3B910B5044601F0E7FF01460B
:104B50002046BDE8104001F09BBF01F00DBA0000F7
:104B600010B5002400F072F80B48006890F82C1083
:104B700001F00C01042904D0082906D00C2907D122
:104B800003E0C069047E641E02E0C069007E440840
:104B900001F0ACF9204610BD90010020407E704726
:104BA000017EC07E48437047024951F820000069E9
:104BB00000687047B0010020024951F820000069E8
:104BC00040687047B001002070B50D46044600F003
:104BD0003DF820460DF040FF044628460DF044FF06
:104BE000044301F083F9204670BD000070B501F068
:104BF000D3FA144D2E20287001F0C4F912480EF09B
:104C000055F802F0F3FE064602F084FE10B102F001
:104C100095FE38B902F09BFE044602F084FE214660
:104C200003F0B8F80021084600F060FD07F0EEFB45
:104C3000FEF7FAFC286900B1804701206870304611
:104C400070BD0000840100207C8A002070B5184CE3
:104C5000E06820B101F08DF96168884204D001F06C
:104C600093F901F086F96060E068401CE06001287B
:104C70001CD10DF02DFE05462068854216D0002877
:104C800013DBFFF7DBF901462068C0EB0012206957
:104C900000EBC2025167C5EB0511064A00EBC100EB
:104CA000011D1160406FFFF7A5F9256070BD000080
:104CB000780500209001002010B5011E01DD02469C
:104CC00000E04A42064B012053F82040944202D8AB
:104CD000401C0A28F8DB002900DA401C10BD000047
:104CE0003CDB02081CB5040004D10E480068046EC9
:104CF000002C16D0FFF7AAFF2046FEF715FE009005
:104D000044696846FEF77AFE4CB12046FEF70CFE79
:104D1000019081688968884701A8FEF76FFE01F05D
:104D2000E5F81CBD9001002001490A4600F002B8D8
:104D300001F0FFFF2DE9F04387B015460C465FEA0E
:104D4000000846D0FFF782FF002000F095FC814666
:104D500021480068066E4046FEF7E6FD00900068B8
:104D6000806900F031FC074640F6FF70C44204D170
:104D70000098B0F90440B0F906500098611E02890D
:104D8000ADF804401144ADF808104189681E08448C
:104D9000ADF80650ADF80A0006F0B8FC6846FEF71C
:104DA0002DFE01A808F0ACF906E02A46214640464F
:104DB00000F0D0FA08F058F90028F6D1384600F093
:104DC00003FC304600F090F9484600F055FC01F035
:104DD0008DF807B0BDE8F083900100202DE9FE4F6B
:104DE000984691468A46834600270C9EFFF72EFF81
:104DF000184819490068407C51F82040E16809686A
:104E0000042903D02468002CF8D100E01CB9FFF776
:104E100017F9041E1BD0E0680121C26A20469047A2
:104E2000050011D02469A0688047401C02D10B4CBA
:104E300046F001060096CDE9015443464A465146E4
:104E4000584600F0E5F9074601F050F83846BDE84D
:104E5000FE8F000090010020B0010020AC5C030830
:104E600038B504001CD0FFF7F1FE0E480068006E54
:104E7000A04201D100F09AFB2046FEF755FD0090BC
:104E8000406908B101F01BF800980068FFF76CF862
:104E90006846FEF7B3FD2046FEF768FC01F026F8F1
:104EA00038BD0000900100202DE9FF4F83B09A46E5
:104EB0008B460746FFF7CAFEDFF83891D9F80000A5
:104EC000447C4D4800570128204606DD02F028FDAD
:104ED0000546204602F038FD05E002F009FD0546D2
:104EE000204602F00BFD04461FB302A901A8FFF7FC
:104EF0001DFEB7F90000002800DA0020B7F90260B3
:104F00008046002E00DA002601984119B7F9040006
:104F1000491E0EF029F9054602980119B7F9060055
:104F2000491E0EF021F9A5EB0802841B521C641CDB
:104F300003E04FF0000846462A46BAF1000F01D1BF
:104F4000C4F1000A002A51DD002C4FDD10980090BA
:104F5000534631464046FFF741FF5FEA000A10D052
:104F600000F07CF80746A04206D0D9F80000806C1B
:104F700010B1322108F074FC504600F0B5F800255D
:104F800023E059460598884700F0B0FF012007B09C
:104F9000BDE8F08F611BB94202DA504600F088F894
:104FA0003DB172194146504600F0C6F85046FFF731
:104FB00099FE5946059888471048016809B10020B4
:104FC00088475046FFF7B0FE3D44A542E2DB50461D
:104FD000FFF746FF002000F087F8A74206D0D9F877
:104FE0000000806C10B1332108F03AFC00F07EFF25
:104FF0000020CCE790010020CC010020000600201A
:1050000038B505004FF0000411D0FFF71FFE284609
:10501000FEF78AFC0090006800698068804703F012
:1050200093F804466846FEF7E9FC00F05FFF20466F
:1050300038BD38B504000ED0FFF708FE2046FEF755
:1050400073FC00F1180400906846FEF7D7FC00F0EE
:105050004DFF204638BD002038BD000038B504465D
:105060000025FFF7F3FD1CB908480068046E44B141
:105070002046FEF759FC0090B0F90A506846FEF74A
:10508000BDFC00F033FF284638BD00009001002031
:1050900070B505460024284609F020FA641C18B1B2
:1050A000BDE8704000F07AB8052CF4DB70BD00005C
:1050B00038B50C46050004D10A480068056E002D7D
:1050C0000FD0FFF7C3FD2846FEF72EFC0090B0F985
:1050D0000A10A14200DD44816846FEF78FFC00F013
:1050E00005FF38BD90010020F8B50546FFF7AEFD7D
:1050F000104E3068046ECDB10CB100F057FA06F0D6
:1051000083FC2846FEF710FC009031680D660068AD
:10511000FEF72CFF6846FEF771FC02F0C5FE02F0B8
:1051200019FE00BF00F0E2FE2046F8BD00F03EFA96
:10513000F8E70000900100207CB515460E460400FB
:1051400004D115480068046E002C24D0FFF77EFDC2
:105150002046FEF7E9FB2DB20090C58034B2848072
:1051600002F0F8FD0098406980B1FEF7DDFB009A7F
:105170000190B2F908108180B2F90A20C28011B101
:105180000AB10480458001A8FEF738FC6846FEF7A6
:1051900035FC00F0ABFE7CBD9001002001490A46C1
:1051A00000F002B801F0FFFF7FB515460C4606007F
:1051B0002DD0FFF74BFD3046FEF7B6FB40F6FF71F2
:1051C0000190CC4203D1B0F90440B0F906500289F5
:1051D000611E1144ADF80840ADF80C104189681EFD
:1051E0000844ADF80E00ADF80A5001A8FEF706FC21
:1051F00002A807F085FF06E02A462146304600F067
:1052000091F807F031FF0028F6D100F06FFE7FBD66
:105210002DE9FF4FDFF8E8B083B01C46DBF8001043
:10522000DDE9106092464FF000084B7C424612992F
:10523000FEF75EFE050060D028698068804702F0B6
:1052400083FF81460AFB09F1C91DCF08FEF7A6FBC3
:10525000F10705D1C11700EB9170801000EB400001
:10526000002C09DC1FB11838B0FBF7F000E000207B
:105270006442A04200DC0446F00707D10090DDE95B
:1052800003012346524600F09FFD8046002C03DCBC
:105290002846FEF769FE30E004FB07F01830F107FE
:1052A00002D0FEF735FA01E0FEF741FA06001CD005
:1052B000FEF73AFB01900560039981800499C18053
:1052C000A0F808A04481C0F81480C0E9037901A8BF
:1052D000FEF794FB1298AE602861DBF80000407C7A
:1052E000A861304607B0BDE8F08F2846FEF73CFEC7
:1052F000B8F1000001D0FEF739FA0020F2E7000013
:1053000090010020054B30B41B68054C5B7C54F8C1
:1053100023301B6930BC10F07FBB000090010020DF
:10532000B0010020F8B515460E460746FEF7FCFA18
:10533000009000681621C068426A00209047044629
:105340006846FEF75BFB002C03D02A463146384600
:10535000A047F8BDF8B516460F46050012D0FEF777
:10536000E3FA009044696846FEF748FB2846FFF7D9
:1053700047FE0346082800DD2CB132463946284650
:1053800010F00AFCF8BD32463946284610F0A4FD5C
:10539000F8BD10B5002821D009B30AB3B1F9004017
:1053A000B2F900309C4200DA23460380B1F9024092
:1053B000B2F902309C4200DA23464380B1F904403E
:1053C000B2F904309C4200DD23468380B1F9061017
:1053D000B2F90620914200DC1146C18010BD114691
:1053E0000A6802604968416010BD00280BD003883C
:1053F0000B44038083881944818041881144418093
:10540000C1881144C180704770B50E4D0446D5E97E
:105410000001884209D10C49884201D13C3000E0AA
:105420000C3807C884E8070006E090E80E0084E81E
:105430000E000DF08FFB2860207A002800D001209C
:1054400070BD0000E0070020148C00200448D0E963
:105450000010814201D101207047002070470000F8
:10546000E007002010B509490446086820B908483B
:105470000860084601F0A2FC07490648086020467B
:1054800010F0CCF8BDE8104000F07EB9EC07002029
:10549000A93501080DC00008BC01002070B5002529
:1054A000FFF7D4FB094CD4E9002082420AD0D2E9AC
:1054B000005610460DF058FB20603146284607F094
:1054C00027F9012500F012FD284670BDE8010020F3
:1054D0002DE9FC41154DDDE908742D68B5F908602A
:1054E000864200DD3046B5F90C60964200DA32465D
:1054F000824219DBB5F90A608E4200DD3146B5F90A
:105500000E509D4200DA2B468B420DDB00E02C460C
:10551000E5682D6825B1042D02D02568002DF6D14F
:10552000CDE9007402F000FBBDE8FC819001002091
:10553000B0F90220B1F906309A4213DCB1F9022029
:10554000B0F906309A420DDCB0F90020B1F9043010
:105550009A4207DCB1F90010B0F90400814201DC85
:105560000120704700207047014602487022006801
:10557000FAF763BF9001002070B515460E4604008F
:105580000AD0FFF763FB2A46314620460FF05EFC47
:10559000BDE8704000F0AABC70BD00000249702256
:1055A0000968FAF74ABF00009001002010B5FFF724
:1055B0004DFB02F085FB02F077FC06F0A7F8BDE892
:1055C000104000F093BC000070B50B4D04462868F5
:1055D000467CFFF73BFB022C09D22046FEF730FD4C
:1055E00028B128684474FFF7E1FF0448046000F024
:1055F0007DFC304670BD000090010020CC040020EE
:1056000070B50C46054607F083F8002805D1214601
:105610002846BDE8704000F0C7B870BD10B504461C
:10562000FFF714FB204602F06BFBBDE8104000F0D2
:105630005DBC10B50446FFF709FB204602F098FB5D
:10564000BDE8104000F052BC10B50446FFF7FEFA6A
:1056500005496FF0704009680863204602F08EFB30
:10566000BDE8104000F042BC900100200149886074
:10567000704700008401002010B50446FFF7E6FAE9
:10568000204602F08DFB044600F030FC204610BDA1
:1056900070B50446FFF7DAFA04480068C56904B13A
:1056A000C46100F023FC284670BD0000900100207A
:1056B00070B514460D460646FFF7C8FA224629463D
:1056C000304602F0AFFB044600F010FC204670BDEF
:1056D00070B50546FFF7BAFA03480068847E857600
:1056E00000F004FC204670BD9001002070B50C460F
:1056F0000546FFF7ABFA09482246058008480480B2
:1057000008480068417C084850F82100C1680B6ACD
:1057100029469847BDE8704000F0E8BBD40100205E
:10572000D601002090010020B001002070B5054690
:10573000FFF78CFA03480068047E057600F0D6FB7C
:10574000204670BD9001002070B50446FFF77EFA38
:1057500004480068B0F92C50848500F0C7FB284647
:1057600070BD00009001002070B50446FFF76EFA8E
:1057700004480068B0F92A50448500F0B7FB284679
:1057800070BD00009001002002480068002800D091
:1057900000477047C805002002498A6802B988603E
:1057A000FFF7F2BFE80100207CB50A4C0546CDE9C1
:1057B00000016068019A6E46C0E9005221680DF050
:1057C000BBF96060E16809B130468847A560FFF722
:1057D000DBFF7CBDE80100202DE9FC419846164620
:1057E0000D460746FFF732FA1C20FDF7A0FF040024
:1057F0002DD01C491A4808602046FEF795F8009005
:1058000015B9FFF7AAF9054600980760C0E90465D5
:10581000A0F80C806846FEF7F1F820460DF0FAFB80
:10582000114DA86840B90120A86005F10C010F488E
:105830000860084601F0C2FA2046FEF775F80190AC
:10584000296849B181602C6001A8FEF7D7F800F003
:105850004DFB2046BDE8FC8100212C608160F3E710
:10586000995800089C010020940500208535010806
:1058700010B504000ED0FFF7E9F920460FF06CF8E0
:1058800020460FF0B1FF2046FDF770FFBDE8104045
:1058900000F02CBB10BD00002DE9F04188B00025C0
:1058A000FFF7D4F9184C676825E000BFFFF755F9FA
:1058B00006466068FEF738F801904169891B0029A7
:1058C00015DC61680296049101690391466866607F
:1058D000D0F8008001A8FEF791F802A84146884759
:1058E00066B160680125B84205D1002506E001A82F
:1058F000FEF784F802E060680028D7D100F0F6FADD
:1059000008B02846BDE8F0819405002038B50C4663
:10591000050011D0FFF79AF92846FEF705F8009028
:105920008089204201D0012400E000246846FEF76F
:1059300065F800F0DBFA00E00124204638BD38B5F8
:10594000040017D0FFF782F92046FDF7EDFF009025
:10595000FFF703F9014600988269114441616846E6
:10596000FEF74CF820460FF03FFF20460DF052FBAB
:1059700000F0BCFA38BD38B50C4605000BD0FFF777
:1059800065F92846FDF7D0FF009084616846FEF770
:1059900035F800F0ABFA38BD38B505460020286070
:1059A0000648046844B12046FDF7BEFF0090006938
:1059B00028606846FEF722F8204638BD940500208E
:1059C00038B504004FF000000D46086011D02046A5
:1059D000FDF7AAFF0090846844B16846FEF70EF810
:1059E0002046FDF7A1FF0090006928606846FEF799
:1059F00005F8204638BD000070B5174C06460D4628
:105A00003268E16801208A421EDB296823699942D5
:105A10001ADB63699A4217DCA269914214DC2946B9
:105A2000304600F099F800280ED133680022002B90
:105A300001DA326004E061688B4201DB491E3160AB
:105A40002B68002B01DA2A6070BDA1688B42FBDB5A
:105A5000491E296070BD0000AC05002070B5254CC2
:105A600086B06078F8B100F0C7F8E06000F0C2F8E6
:105A7000E06803902069049000F03EF88DF809007A
:105A800004A903A8FFF7B8FF0025B0B1A07870B350
:105A900060680090A06801908DF80850684600F09A
:105AA00031F8A57023E000F0A9F8206100F0A3F818
:105AB0006078401C607006B070BD039A6068111A6F
:105AC00000D54942049BA068181A00D54042A67828
:105AD00016B1084402280ADD62600092A360012624
