:020000040800F2
:10000000A89000200D0200083D5600080F4200088D
:1000100039560008F30A00081F5D000800000000C0
:100020000000000000000000000000002957000848
:100030004D0B000800000000C55600083D580008A0
:1000400027020008270200082702000827020008EC
:1000500027020008270200082702000827020008DC
:1000600027020008270200082702000827020008CC
:1000700027020008270200082702000827020008BC
:1000800027020008270200082702000827020008AC
:10009000270200082702000827020008270200089C
:1000A000270200082702000827020008270200088C
:1000B000270200088D5A00082702000827020008BE
:1000C000270200082702000827020008270200086C
:1000D000270200082D5C00082702000827020008FC
:1000E000270200082702000827020008270200084C
:1000F000270200082702000827020008270200083C
:10010000270200082702000827020008270200082B
:100110002702000827020008155B000827020008D4
:10012000270200082702000827020008270200080B
:1001300000F002F800F05AF80AA090E8000C82449F
:100140008344AAF10107DA4501D100F04FF8AFF27C
:10015000090EBAE80F0013F0010F18BFFB1A43F0A5
:100160000103184774950100949501000A444FF06B
:10017000000C10F8013B13F0070408BF10F8014B06
:100180001D1108BF10F8015B641E05D010F8016B4B
:10019000641E01F8016BF9D113F0080F1EBF10F8AF
:1001A000014BAD1C0C1B09D16D1E58BF01F801CBD2
:1001B000FAD505E014F8016B01F8016B6D1EF9D555
:1001C0009142D6D37047000000230024002500266A
:1001D000103A28BF78C1FBD8520728BF30C148BFAA
:1001E0000B6070471FB51FBD10B510BD00F0E9F9D9
:1001F0001146FFF7F7FF0CF0CAFC00F007FA03B452
:10020000FFF7F2FF03BC0CF025FC00000948804713
:1002100009480047FEE7FEE7FEE7FEE7FEE7FEE7E8
:10022000FEE7FEE7FEE7FEE704480549054A064B00
:10023000704700004158000831010008A8860020DE
:10024000A8900020A8880020A8880020704740EAD5
:10025000010310B59B070FD1042A0DD310C808C99C
:10026000121F9C42F8D020BA19BA884201D9012045
:1002700010BD4FF0FF3010BD1AB1D30703D0521C90
:1002800007E0002010BD10F8013B11F8014B1B1BCB
:1002900007D110F8013B11F8014B1B1B01D1921E35
:1002A000F1D1184610BD40EA0103024630B59B0764
:1002B00010D14FF0013400E008C208C91D1B9D4356
:1002C00015EAC41FF8D013F0FF0102F8011B0DD08E
:1002D0001B0AF8E711F8013B002B02F8013B05D09F
:1002E00011F8013B002B02F8013BF3D130BD10B5F2
:1002F000431C02E010F8011B71B18107FAD14FF0E5
:10030000013202C88C1A8C4314EAC211F9D0C01A07
:100310000A0603D0C01E10BDC01A10BD0A0401D0C9
:10032000801E10BD0902FCD0401E10BD032A40F201
:10033000308010F0030C00F0158011F8013BBCF187
:10034000020F624498BF11F801CB00F8013B38BF9F
:1003500011F8013BA2F1040298BF00F801CB38BFAD
:1003600000F8013B11F0030300F06780083AC0F089
:10037000088051F8043B083A51F804CBA0E8081073
:10038000F5E7121D5CBF51F8043B40F8043BAFF3A6
:100390000080D20724BF11F8013B11F801CB48BF00
:1003A00011F8012B24BF00F8013B00F801CB48BF36
:1003B00000F8012B7047431A28BF9A427FF6B6AF68
:1003C000032A1044114440F2268010F0030F1EBF90
:1003D00011F8013D521E00F8013D10F0030F7FF4AB
:1003E000F6AF11F0030300F0A080083AC0F00B80D4
:1003F00051F8043D083A51F804CD40F8043D40F866
:1004000004CDFFF7F3BF121D5CBF51F8043D40F867
:10041000043DAFF30080D20724BF11F8013D11F86D
:1004200001CD48BF11F8012C24BF00F8013D00F8B0
:1004300001CD48BF00F8012C704710B5203AC0F03C
:100440000B80B1E81850203AA0E81850B1E81850D5
:10045000A0E81850BFF4F5AF5FEA027C24BFB1E812
:100460001850A0E8185044BF18C918C0BDE8104083
:100470005FEA827C24BF51F8043B40F8043B08BF8C
:100480007047D20728BF31F8023B48BF11F8012B53
:1004900028BF20F8023B48BF00F8012B704702F04C
:1004A000FF0343EA032242EA024200F06AB84FF037
:1004B000000200B5134694469646203922BFA0E8B4
:1004C0000C50A0E80C50B1F12001BFF4F7AF0907C0
:1004D00028BFA0E80C5048BF0CC05DF804EB8900B1
:1004E00028BF40F8042B08BF704748BF20F8022BF4
:1004F00011F0804F18BF00F8012B7047704770470C
:1005000070477047431A28BF9A427FF696AF10444F
:1005100010F0030F11441EBF11F8013D521E00F8E8
:10052000013D10F0030F7FF4F6AF103AC0F00A80DF
:1005300010B531E91850103A20E91850BFF4F9AF5E
:10054000BDE81040530724BF31E9081020E9081026
:1005500044BF51F8043D40F8043D12F0030F08BFBA
:100560007047D20728BF31F8023D48BF11F8012C6F
:1005700028BF20F8023D48BF00F8012C70474FF01B
:1005800000020429C0F0128010F0030C3FF491AF78
:10059000CCF1040CBCF1020F18BF00F8012BA8BF6E
:1005A00020F8022BA1EB0C01FFF783BF5FEAC17CAF
:1005B00024BF00F8012B00F8012B48BF00F8012BE5
:1005C0007047754600F028F8AE4605006946534668
:1005D00020F00700854618B020B5FFF725FEBDE8DE
:1005E00020404FF000064FF000074FF000084FF09A
:1005F000000B21F00701AC46ACE8C009ACE8C0092B
:10060000ACE8C009ACE8C0098D4670470446AFF3BA
:1006100000802046FFF7F3FD004870474486002025
:10062000002800DC4042704738B545680446014662
:10063000284605F08AFB00282BD02068304A112874
:100640000DD006DC0B2825D00E2833D00F2852D130
:1006500012E0282849D0B0F5107F4CD108E092680C
:10066000002A16D02146284601B0BDE83040104788
:10067000214628465268F7E7284601F0EBF800903B
:10068000406E0468684601F015F9002C01D0284638
:10069000A04738BD284601F0DDF80090683001F031
:1006A0003DF8009803216C3001F040F8684601F0F5
:1006B00001F920E0E168486809680D2902D0202985
:1006C00013D105E0002810DD28460AF04BFC06E0B7
:1006D000002804DD2846BDE838400AF043BC28461F
:1006E000BDE8384002210AF053BCE06818B9002187
:1006F000284600F094F92046BDE8384005F0BABD20
:1007000000010020F0B5044685B08069B4F90850B6
:10071000668A0027CDE90265CDE900170490B4F997
:100720000C00B4F91060C118B4F90A00B4F90E5005
:10073000104433462A4600F007F80546616800F089
:1007400085F905B02846F0BDF0B585B00C46DDE969
:100750000D51DFF854C04C31DDE90A67CDE902C123
:100760002146CDE9006705F0D7FC040018D001F060
:1007700071F810222946049005F0AAFB0498302253
:100780000A493430FFF759FE084D04990C3D28689A
:10079000486604A801F08EF828684168204688471A
:1007A00005B02046F0BD0000290600080C0100201D
:1007B000F0B5044680688B4989B051F820506068D4
:1007C00000287DD0052804D006287AD0122879D1B7
:1007D000AEE0E86900284FD095E80E008DE80F00E4
:1007E00004F110010FC903F00BF9002655F826009B
:1007F00002F06CFAA169E8690A1A2169014460698A
:10080000304401F077FBA169E8690A1A21690144C3
:10081000E069801B01F06EFBE169E8690A1A616911
:1008200001442069304401F0E5FBE169E8690A1AF6
:1008300061690144A069801B01F0DCFB761C022E7B
:10084000D4DBA86802F042FAE069E9696669431AF4
:10085000206942183144801C521E01F01BFCE169E2
:10086000E869A2690B1A61690144101A401C921EC2
:1008700001F010FCEE6913E05FF0000655F8260069
:1008800002F024FAE069831BA069821B6069811968
:100890002069304401F070FB761C022EEEDB02264C
:1008A000D5E90301CDE900016169E069084443101D
:1008B000A069891C821B2069304401F0E7FA02E03C
:1008C00089E012E08AE0D5E90501CDE90001E3699C
:1008D00060690121184401EB6001A0699B1E821B25
:1008E0002069304401F0D2FA78E0206800F0B2FFCD
:1008F0000490206806F0A4FD40B1A06808B1002073
:1009000008E00498006F28B1012003E00498406FCC
:1009100000B10220049901EB8000C56E04A800F02C
:10092000C9FF00231A462846216801F079F955E0ED
:10093000206800F08FFF0490866EEEB3B0F95C7013
:10094000A168D1B3032942D05FF0000100EB81011F
:10095000406D0C6C02F0CEF9204602F0B7F905A804
:1009600001F02EFCBDF81410A88B0144ADF8141052
:10097000BDF81810081AADF81800BDF81600801C54
:10098000ADF81600BDF81A00801EADF81A000498E4
:10099000B0F96020B0F95E1005A802F0A2F804A832
:1009A00000F088FF022002F0E7F9304600F052FF25
:1009B0003A4605A9079001E00BE006E001F05BF97B
:1009C0000DF11C0000F076FF08E00121BEE70221D6
:1009D000BCE704A8F6E7206806F00CFA09B000208E
:1009E000F0BD0000E4810108042905D2034A52F851
:1009F00021102022FFF721BD70470000E48101088B
:100A000038B50D46040009D000F024FF009045657C
:100A1000684600F04FFF204606F01FF838BD4FF43F
:100A200080720029114601D005F01FBA05F079B98E
:100A3000042907D2044A52F82130014620221846E0
:100A4000FFF7FBBC70470000E48101082DE9FF417E
:100A50000E4605004FF001041CD000F0FBFE019093
:100A6000876E01A8009700F025FF3146684603F025
:100A700075FA78B100980024B84208D0284600F0F2
:100A8000E9FE01900099816601A800F013FF284655
:100A900005F0E3FF04B02046BDE8F081F0B5044660
:100AA0000D4616461F462A2006F0A8FFC4F30F2065
:100AB00007F01EF8E0B207F01BF8C5F30F2007F0AF
:100AC00017F8E8B207F014F82B2006F097FFC6F3EA
:100AD0000F2007F00DF8F0B207F00AF8C7F30F2067
:100AE00007F006F8F8B207F003F82C2006F086FFAE
:100AF000F0BD00BFFEE7000030B58BB0012103A8B8
:100B0000FFF772FF4FF47F40039000200490FF2016
:100B100005900890FF21099106900791012103A8F3
:100B2000FFF786FF05F0AEFC0546002000902B463F
:100B3000044A08210190044800F074FF044620464E
:100B40000BB030BDCDC70008D8520108704770B552
:100B500005460C4616462346224629462846FFF7F8
:100B60009DFFB0B206F0C4FF70BD000022480068CF
:100B700058B12148001F006838B100201F49087093
:100B80001F49C8700846C07870471B48001F00689E
:100B90001C49087007E01848001F00681A490870CF
:100BA000012016490870144800680028F3D0134843
:100BB0000078F0B10020114908701248007838B967
:100BC00011480078012803D102200D49C8700DE0BA
:100BD0000C480078012806D10B48007818B901208C
:100BE0000749C87002E000200549C8700448C07871
:100BF000CAE700BFC8E70000080123422000002028
:100C0000130000201F0000201E00002008B5012155
:100C1000402004F079FD7E20ADF8000048208DF8DA
:100C200003006946014800F041FB08BD001801407F
:100C30002DE9F0430446C56887B0904689460020F8
:100C400002F056F8064625B1287910B146F00200A8
:100C500001E026F0020002F04BF82069012558B1AE
:100C6000D4E902128DE8260003956388228804687F
:100C700041464846A0471EE0124F134B21463868B4
:100C80001B68427CE068984730B9E088012801D0B1
:100C9000002001E03868806BA288E388A168009595
:100CA000CDE90410CDE902320195638822884146DE
:100CB000484603F079FB07B03046BDE8F04302F048
:100CC00017B8000058000020500000201CB5002478
:100CD000019401AC009400F0E7F81CBD2DE9FF4F32
:100CE00083B0814606988A46A0EB0A08109E002031
:100CF0000090A2EB09043568934654EA080018D026
:100D00002046FFF78DFC07464046FFF789FC8742E7
:100D10000BDA2046444680464846D146824658462D
:100D2000DDF818B0069001200090002C07DD204669
:100D300006E007B04846BDE8F04F00F03BB960421E
:100D4000A0420AD04846D9466442C8F1000883460A
:100D50004FF0FF37DDF818A000E001275148B8F147
:100D6000000F11D004EBD4714FEA610B01DACBF123
:100D7000000B4C480068807E88B3002F02DA306890
:100D80002044306000257BE000990029016821D0D3
:100D9000897E11B10027804615E007B05A464946C2
:100DA0005046BDE8F04F03F061BC28466D1C0AF0C8
:100DB0008BFC38B9D8F8000009EB0701406E426897
:100DC000504690477F1CA742EFDD6D1E356007B08F
:100DD000BDE8F08F8A7E1AB10027804617E019E03F
:100DE000486E5A465146036807B04846BDE8F04F82
:100DF000184728466D1C0AF067FC38B9D8F800106F
:100E000009EB0700496E4A68514690477F1CA7428C
:100E1000EFDDDAE700250FE008FB05B090FBF4F109
:100E200001EB0A00009951B11E4A09EB0501126855
:100E3000526E526890476D1CA542EDDDC7E7194917
:100E400009EB05030968496E4A6801461846F1E74F
:100E500008FB05B090FBF4F101EB0A00019030684B
:100E6000384430600AF030FC48B9009890B10D4821
:100E700009EB05010068406E4268019890476D1CBF
:100E8000A542E5DD3068002F01DA20443060C01B48
:100E900030609CE7034909EB05000968496E4A6820
:100EA0000199EBE7580000202DE9FF470F46404924
:100EB0001646804609680C981D460A7E012A1CD0F9
:100EC000A8EB0600791B50EA01031CD0A2F101092E
:100ED0000BF012FC00F58060824603F02EF900FB57
:100EE00009F4504603F02EF900FB09F1002C0CDA4E
:100EF000C4F50070801240420AE000903246394644
:100F00004046FFF7EBFEBDE8FF8704F50074A01232
:100F1000002904DAC1F5007189124C4202E001F5A2
:100F200000718C12002804DD411C01EBD1714910C5
:100F300003E000EBD0714910401E00EBD07042106E
:100F4000002C04DD601C00EBD070401003E004EBCB
:100F5000D4704010641E04EBD47308EB0104ADF8A8
:100F600000403C18ADF80240A8EB02045B10B21A36
:100F7000ADF80440ADF808203144FC1AEA1AADF887
:100F80000C102844ADF80A20ADF80E000023ADF88F
:100F900006401A460421684600F07AF83946404671
:100FA00008F0CCFE2946304608F0C8FEABE700004A
:100FB00058000020064A13681A7E012A05D0521EE6
:100FC00002EBD272521000F005B85A6E5268104708
:100FD000580000202DE9F05F0646884640F2C32005
:100FE00002FB00F14FF47A7091FBF0F702FB02F183
:100FF00002EBD27001EB600B1446B118234A301B90
:101000007F1C1268526E13680A46414698470125B4
:1010100038E000BF05FB05F004FB040159451CDD69
:10102000BC4219DD194B06EB050AA6EB05091B6846
:10103000AAF1010208EB04015B6E09F101001B68D3
:101040009847124BAAF10102A8EB04011B6809F1B1
:1010500001005B6E1B689847641E0C4B3219301BF5
:101060001B68924608EB05015B6E81461B6898473A
:10107000064B5246A8EB05011B6848465B6E1B6891
:1010800098476D1CBD42C5DDBDE8F09F58000020AB
:101090002DE9FF4F43F6FF740F46664283B09B462F
:1010A000814600210BE000BF09EB8100B0F902008E
:1010B000A04200DA0446B04200DD0646491CB942AF
:1010C000F2DB67480068406900280DD0B0F90610CF
:1010D0001A46A1EB0B01B14200DA0E46B0F902004C
:1010E000801AA04200DD0446B4E0DFF878A10020B9
:1010F0000546CAF8000088E0781E854201DA6B1CBC
:1011000000E0002309EB850C09EB8302BCF9020027
:10111000B2F90210A04244D1A14215D139F92330CD
:10112000059A39F9251003EB020C4D4A059812680F
:10113000084404EB0B01526E6045136801DA624605
:101140002AE00246604627E02846A4464FF0000801
:101150007A1E0BE008B1401E00E0781E09EB800308
:10116000B3F90230634504D108F101089045F1DB81
:101170002346A34248D01A1B39F92500A1EB040CE1
:10118000059B92EA0C0F09D4354A184404EB0B0175
:101190001268526E13680246984735E006F020FD4B
:1011A00032E0A14230D001DBA04203DDA0422BDBC4
:1011B000A14229DCE04688420ADC0346A04223DC47
:1011C0000846A14220DBB8F900C0B2F9001008E0DF
:1011D0000B46A14218DCA04216DBB2F900C0B8F9F8
:1011E0000010E21AA1EB0C0151430029A0EB03020D
:1011F00002DD01EB620102E0A1EB6201491CC01AB1
:1012000091FBF0F06044C9E76D1CBD42FFF674AF7E
:101210000598009004EB0B000190002080460546E5
:1012200013E01149B8F1000F31F915A009D0009968
:1012300001EB0A0208440A490968496E0B680199E2
:10124000984788F0010850466D1C064909688D4290
:10125000E7DB641CB4427FF748AF07B0BDE8F08F0E
:10126000580000206C0200202C85002010B50020C2
:1012700001F02AFD6FF07F4001F028FD012001F010
:1012800069FD002001F06EFD002001F075FD0020D9
:1012900001F02EFD0448006801F02CFDBDE810406F
:1012A000002001F033BD0000540000202DE9F04182
:1012B000024600250026002000230024002791F884
:1012C00003C00CF00F0591F803C00CF0100CBCF13A
:1012D000000F03D091F802C04CEA050591F800C058
:1012E000BCF1000F31D0146800202BE04FF0010C4E
:1012F0000CFA00F3B1F800C00CEA03069E4220D1BC
:1013000083004FF00F0C0CFA03F7BC4305FA03FC03
:101310004CEA040491F803C0BCF1280F06D14FF049
:10132000010C0CFA00FCC2F814C00AE091F803C0EA
:10133000BCF1480F05D14FF0010C0CFA00FCC2F8CB
:1013400010C0401C0828D1D31460B1F800C0BCF113
:10135000FF0F34DD546800202EE000F1080C4FF040
:10136000010808FA0CF3B1F800C00CEA03069E422B
:1013700021D183004FF00F0C0CFA03F7BC4305FAA0
:1013800003FC4CEA040491F803C0BCF1280F05D11A
:1013900000F1080C08FA0CF8C2F8148091F803C0A8
:1013A000BCF1480F07D100F1080C4FF0010808FA12
:1013B0000CF8C2F81080401C0828CED35460BDE859
:1013C000F081416170470161704700002DE9F04FE5
:1013D000DFF828B191B04FF0FF35DBF80030B3F9FA
:1013E00022100691DE69B3F924A0F469A189814233
:1013F00006D8E289824203D3471AD4F8008012E06B
:10140000D4E90181002970D00A8882426DD84D88C4
:1014100085426AD3801A82B2486800EB8200B0F934
:101420000070B0F90250781C5FD0307EA27C01467B
:1014300000FB02F9207CCDE90710B3F92A603046A1
:1014400003F050FDC0B20E90DBF8001007FB0980DE
:10145000A37C8A6B0127CDE90402CDE90273C86938
:10146000089AC17E807ECDE90001DDE90603514680
:1014700002F09AFF681C18D046F0020003F032FD1B
:10148000DBF80000A37C05FB0981826BCDE90273C8
:10149000CDE90412C069089AC17E807ECDE90001C1
:1014A000DDE90603514602F07FFFDBF800005D46F0
:1014B000C069417E007E814214D9022E12D086F08E
:1014C000040003F00FFD2868C069027EC37E857E9C
:1014D00002FB03A1437E089A0698534402FB0502CF
:1014E00003F0EEF80E9803F0FDFCDBF80000627CE0
:1014F000418C1144418411B0BDE8F08F58000020A8
:1015000004480068C069C06909B1027C0A60407C77
:101510007047000058000020022008807047C06912
:1015200082898A4202D8C2898A4210D2806880B1F8
:1015300002888A420DD843888B420AD3406800EB68
:101540008100A0EB8200B0F90000002801DB01203F
:1015500070470020704700002DE9F0432F4C0346F0
:1015600087B020681946B0F92A80C069C06900F0C8
:1015700082F800284ED041680088181A01EBC00597
:101580004046AE7803F0AEFC814620686A680123CD
:10159000816BCDE90236CDE90421C169CB7E8A7E1B
:1015A000CDE900230B7EB0F924102A78B0F922008F
:1015B00002F0FAFE2068C069477E067EB7421DD958
:1015C000C07E47434643B8F1020F17D000F0FDFD3F
:1015D000804600F0DDFD01F079FB21682A78CB69B7
:1015E000B1F92200B1F92410DB7E02FB0302CB1912
:1015F000314403F065F8404601F068FB484603F0CB
:1016000071FC20686A78C369B0F922109B7E02FBE6
:101610000311418407B0BDE8F083000058000020AA
:1016200030B50E4C05460B4620682946C069C06996
:1016300000F021F8002810D04168008824682A1A98
:101640000120E46900EBC200085CA47E6043002B2B
:1016500003D011F832106143196030BD58000020EA
:1016600001200880704700B5C06900F004F8002828
:1016700000D0012000BD06E002888A4202D84288DC
:101680008A4202D280680028F6D17047002801D033
:1016900006F00ABB704738B50546FFF7F7FF0400B0
:1016A00009D000F0D7F82A460021009002F0C7FCCC
:1016B000684600F0FFF8204638BD0000024A10607E
:1016C00021F00300506070474084002010B50028CE
:1016D00014D004460A48406B10F8341000290DD08D
:1016E00002290BD2042101EBC4014158486806F0DD
:1016F00093FA2046BDE8104009F02ABE10BD000054
:1017000080830020002805D0034AD16B016001B11D
:101710004860D063704700008083002010B5044605
:101720000068FFF7D3FF0020206010BD70B50D46A4
:101730000646002405E000BF06EB8400FFF7EEFF3D
:10174000641CAC42F8DB70BD2DE9F041044609F0A1
:1017500029FB2848E41C24F00305016C2D1DA94237
:1017600000D90D46C46B13E054F8042CAA420ED1E4
:1017700084B1216809B162684A60616809B1226870
:101780000A60C26BA24231D12168C1632EE0246895
:10179000002CE9D18046816BC0680F1857F8040C03
:1017A0003E1A306838B1002009F03CFE57F8040CAE
:1017B0003E1A3068D0B97068A84217DB3044441B29
:1017C0003046241D09F0E6FDD8F80C10491BC8F876
:1017D0000C10D8F814102944C8F814107068401B75
:1017E00002D0314606F018FA44F8045C2046BDE801
:1017F000F08100008083002010B5002409F0D2FAA7
:101800000C490F2001EBC002526C1AB101EBC00071
:10181000406C08E0401EF5D508E04168A14200D9BF
:101820000C46806810B180680028F6D1A4F10C0045
:1018300010BD000080830020002138B1044904223B
:1018400002EBC000496B085841680C3908467047E4
:10185000808300200549CA69521CCA61496B01EBAB
:10186000C0010A78521C0A7000F03CB88083002046
:1018700010B5FFF7C1FF64220649B0F5800F04D907
:1018800090FBF2F0096A484310BD096A4143B1FB7D
:10189000F2F010BD808300200549102805D94A6860
:1018A000B0EB520F02D3500800E010208860704760
:1018B000408400200A4902684B6B52F8082C03EB65
:1018C000C2021378022B03D3CB690BB15B1ECB6131
:1018D0001178491E11700021016008467047000010
:1018E00080830020002806D00349042202EBC000B8
:1018F000496B0858083070478083002070B5064651
:101900000D461446104600F067FC0300164804EB31
:1019100084010AD050F8210041688068711A2A1A9F
:10192000BDE87040184601F0EFB900EB8104A268F1
:10193000B24201D0012200E00022E368AB4201D0B4
:10194000012300E000231A430CD0236943B150F86F
:101950002100816840686A1A311A184601F076F948
:10196000C4E9026570BD0000BC85002010B5C2B29C
:10197000CBB2D21A00D5524293B25B43C0F30722D6
:10198000C1F30724121B00D55242000C92B2A0EB07
:10199000114002FB023200B2002801DA404200B2DC
:1019A00080B200FB002010BD10B50021084600F0F9
:1019B00051FC43F6FF725042BDE810401346014609
:1019C000AFF300802DE9FC4107461C4615460E4644
:1019D000042003F087FA80461148C068C16C006D8E
:1019E0000F4406440D440444ADF80070ADF80450B3
:1019F000ADF80260ADF80640684605F0ADFB07E0C3
:101A000023462A463146384602F05AFE05F066FB68
:101A10000028F5D1404603F065FABDE8FC810000DE
:101A20004C0000202DE9F8431C00DDE9089816461B
:101A30000F46054602D104F025FD044600962E68A7
:101A400043464A4621462846B047061E35D004F094
:101A50000DFD8146698A304604F007FA304605F0EC
:101A600015FA484605F012FA4FF000080CE000BFE6
:101A7000CDF8008055F81CCF00231A464946284669
:101A8000E047E0B105F002FA7F1E002FF0DC1D21D7
:101A9000484605F016F9601C0ED004F019FD30B16F
:101AA000FFF720FF8469B44201D02000F8D1B4428E
:101AB00002D0304605F076F93046BDE8F88330466E
:101AC00004F00CFC0020F8E72DE9F0411C46164616
:101AD0000D460746022B02DB0020BDE8F0811C20EA
:101AE000FFF732FE0028F8D00DB105610AE0094A7F
:101AF00052F8241009B905E011460A68002AFBD102
:101B00000969016184618682002101604160C0E948
:101B10000217E2E77000002070B51D46FFF7D4FF02
:101B2000040009D000F00EF8E068006820B903480E
:101B3000006800EB85008465204670BD58000020D9
:101B4000FFF7E0BD70B590B38269022A30DA1E4C0F
:101B500054F8221019B944F8220032E019464B68B3
:101B6000002BFBD106E0CB68C5681B682D68AB4233
:101B700003DD09680029F6D11AE0C1B1CB68C66857
:101B80001B683668B3420CD1838A012B05D008E06C
:101B90001946DB681B68AB4203DB0B68002BF7D1EF
:101BA00029B14B6833B118604A68426004E0FFE72E
:101BB000012070BD44F822004860884200D1002115
:101BC0000160002070BD0000700000200A4A816999
:101BD00052F82130834202D1036842F82130416833
:101BE00009B102680A60016809B142684A600021CF
:101BF000016041607047000070000020022801DB96
:101C000000207047054951F8200004E0C1680968C8
:101C10000029F6D000680028F8D170477000002035
:101C20002DE9F8431D461646884604000CD0FFF700
:101C300011FE0090006807686846FFF73BFE2B46E0
:101C4000324641462046B847BDE8F88370B50446A1
:101C500001F06AFB051908E000F0FAF9052C01DD36
:101C6000052000E0204601F051FB01F05DFB2C1A3D
:101C7000002CF1DC70BD47F6FF73AFF300802DE957
:101C8000FC411F46904606000D464FF0000416D05A
:101C900065B1084605F0EEF8040007D00246294673
:101CA000684602F054F8684605F0E4F83B464246C0
:101CB0002946304601F01AFD204605F0DBF8BDE864
:101CC000FC812DE9FF4F87B090468946070079D007
:101CD0000C68D9F8045021B228B2401A401C029076
:101CE00000F092FA064618F00C0F1ED038460A9AF9
:101CF000029901F0E2FA08F00C01042904D0082945
:101D000002D00C2911D104E0291400FB1610401C4C
:101D100009E02114C1EB254200FB1620401C00EB1A
:101D2000D07001EB600060F31F44484605F0A2F854
:101D30005FEA000B09D00246494604A8CDE90445F4
:101D400002F005F804A805F095F8A6F1010A384656
:101D50000A9A029902F042F903900AEB244060F3D8
:101D60001F45CDE900453846039901F067FF18F09B
:101D700003010ED0012928D002290ED1B9F904207F
:101D8000B9F90010521A101A00EBD07001EB600084
:101D900001E0B9F80000ADF800006A463846039942
:101DA00001F04CFC38460A9A029902F00DF90744FA
:101DB00006EB244060F31F4438780028C7D158460A
:101DC00005F058F80BB0BDE8F08FB9F80410081A08
:101DD000401CE0E77CB5064610480068C36C006D07
:101DE0005D1884183188681E0844ADF80400ADF809
:101DF00000507188601E0844ADF80600ADF802403E
:101E0000684605F0A9F906E0224629463046FEF765
:101E10000FFF05F063F90028F6D17CBD58000020C3
:101E20002DE9F04F174C87B02568DDE91198EC6C6F
:101E3000DDF840A02718286DA5184618C418ADF87D
:101E40001470ADF81850ADF81660ADF81A4005A83A
:101E500005F082F9002812D04FF0010B0A49CDE9B4
:101E600000A9CDE9028123462A46CDF810B03146BB
:101E7000384607F0CAFE05F031F90028EED107B068
:101E8000BDE8F08F58000020AD4500082DE9F04F67
:101E9000164C87B02568DDE91098EC6C2718286D82
:101EA000A5184618C418ADF81070ADF81450ADF868
:101EB0001260ADF8164004A805F04EF9002811D0C4
:101EC000DFF82CB04FF0010ACDE90098CDE902BA55
:101ED00023462A463146384607F0D8FD05F0FEF87D
:101EE0000028F1D107B0BDE8F08F000058000020B5
:101EF000AD4500082DE9FC41104F04463B68D86C05
:101F00004518196DADF800500E198418ADF804404D
:101F1000ADF80260ADF80660684605F01DF908E00E
:101F2000386822463146406E03682846984705F0D7
:101F3000D5F80028F4D1BDE8FC810000580000204D
:101F40002DE9F0410B4C2568EC6C2718286DA5187D
:101F50004618C418002005F0FFF807E023462A467B
:101F600031463846FEF7B2FE05F0B8F80028F5D144
:101F7000BDE8F081580000202DE9FC411C4C24688C
:101F8000E66C94F818C03718206DACF1010C4518B8
:101F9000C418A7EB0C001644ADF8000006EB0C00CB
:101FA000ADF80400A5EB0C00ADF8020004EB0C004A
:101FB000ADF80600684605F0CFF815E03246294630
:101FC000384602F0F3FA32462146384602F0EEFA7D
:101FD000621E691C384602F049FB621E691C3046CD
:101FE00002F044FB05F07AF80028E7D1BDE8FC8157
:101FF000580000207CB50E4B1B68DC6C2618186D51
:10200000ADF8006045188418ADF80460ADF80250D2
:10201000ADF80640684605F09FF806E022462946DE
:10202000304602F023FB05F059F80028F6D17CBDBC
:102030005800002070B50C46054600F0D7F810B1E6
:102040000121C0E900142846BDE8704004F0C8BF73
:1020500010B5002400E0012400F004F80028FAD1B3
:10206000204610BD094810B50068002410B1804713
:1020700000B1012404F0A6F900B10124044800686D
:1020800010B1804700B10124204610BD7C00002023
:10209000780000202DE9FC410F4C2568EC6C2718D6
:1020A000286DA5184618C418ADF80070ADF8045096
:1020B000ADF80260ADF80640684605F04DF807E05F
:1020C00023462A463146384602F0FAFA05F006F869
:1020D0000028F5D1BDE8FC815800002008B50B466A
:1020E000002805D0009281888268C08800F001F83D
:1020F00008BD10B50828029C30D008DC04FB01F4B0
:1021000001280AD0022813D0042804D11CE010288A
:1021100028D020282CD0002010BD04EBD30003F0E1
:102120000701105CC1F10701C84000F0010010BDBB
:1021300004EB93000621105C01EA4301C1F10601A2
:10214000C84000F0030010BD04EB5300D907105C39
:1021500002D000F00F0010BD000910BD04FB0130DB
:10216000105C10BD481004FB003032F8100010BDA8
:10217000881004FB003052F8200010BD034951F8CC
:102180002000C1688A6A0821104700007000002002
:1021900010B502F02FFBBDE8104002F029BC000092
:1021A00002490968C9694A6800211047580000209F
:1021B000024A1268D2695268104700005800002095
:1021C000002801D004F042B9704710B502F01AFBA4
:1021D000BDE8104002F00CBC0021022802D20249E6
:1021E00051F8201008467047700200201FB50021EA
:1021F0000191029103912A210091694604F05CFD4E
:10220000039804B010BD000002480068C069407E19
:10221000704700005800002070B514460D4602F0CB
:102220005DFB002802D000202860206070BD01F016
:102230004BBD0000024951F820000069006870475A
:1022400070000020024951F8200000694068704782
:102250007000002070B50D4608F0D8FC04462846F2
:1022600008F0DCFC204370BD2DE9F04119480168FD
:1022700021F00101016018480125856017490160BE
:1022800000681749884200D0FEE701F009F9154EB1
:102290002E20307001F04EF8134808F035FD0AF09A
:1022A00031FC074602F042FB10B102F053FB38B993
:1022B00002F059FB044602F042FB214602F00CFEFC
:1022C0000021084600F02AFD04F022FB7570384614
:1022D000BDE8F081002000E000300240C2A507F414
:1022E000CDB5E8B54C0000204C8400201CB520B9C9
:1022F0000C480068006E002812D0FFF7ABFA00907F
:1023000044696846FFF7D6FA002C09D02046FFF74B
:10231000A1FA019081688968884701A8FFF7CAFA85
:102320001CBD00005800002001490A4600F002B818
:1023300001F0FFFF2DE9F04387B015460C465FEA38
:10234000000842D0002000F0D3FC814620480068FD
:10235000066E4046FFF77EFA00900068806900F044
:102360008DFC074640F6FF70C44204D10098B0F9D6
:102370000440B0F906500098611E0289ADF804408F
:102380001144ADF808104189681E0844ADF80650A4
:10239000ADF80A0003F076FE6846FFF78BFA01A855
:1023A00004F0DAFE06E02A462146404600F04EFBE5
:1023B00004F094FE0028F6D1384600F05FFC304669
:1023C00000F066F9484600F093FC07B0BDE8F083E2
:1023D000580000202DE9FE4F83461A488A461A49C4
:1023E00000680C9E9846407C9146002751F820409A
:1023F000E1680968042903D02468002CF8D100E0C2
:102400001CB9FFF7FBFB041E19D0E0680121C26A6A
:1024100020469047050011D02469A0688047401CE1
:1024200002D10A4C46F001060096CDE9015443461C
:102430004A465146584600F0AFF907463846BDE8CF
:10244000FE8F00005800002070000020FC8D010865
:1024500038B5040018D00D480068006EA04201D1C4
:1024600000F002FC2046FFF7F5F90090406908B142
:1024700000F011FF00980068FFF762FB6846FFF765
:1024800019FA2046FFF722F938BD00005800002055
:102490002DE9FF4FDFF83891074683B0D9F80000E7
:1024A0009A468B46447C4B4800570128204606DD5F
:1024B00002F042FA0546204602F052FA05E002F028
:1024C00023FA0546204602F025FA04461FB302A966
:1024D00001A8FFF7ACFEB7F90000002800DA0020E1
:1024E000B7F902608046002E00DA002601984119F3
:1024F000B7F90400491E08F0EAFC054602980119E4
:10250000B7F90600491E08F0E2FCA5EB0802841B9F
:10251000521C641C03E04FF0000846462A46BAF1FC
:10252000000F01D1C4F1000A002A4FDD002C4DDD5F
:1025300010980090534631464046FFF74BFF5FEA44
:10254000000A10D000F06AF80746A04206D0D9F879
:102550000000806C10B1322105F08EF9504600F079
:1025600097F8002521E0594605988847012007B0D3
:10257000BDE8F08F611BB94202DA504600F072F8F4
:102580003DB172194146504600F0A4F85046FFF79D
:10259000ADFE5946059888470F48016809B10020EB
:1025A00088475046FFF7C0FE3D44A542E2DB504657
:1025B000FFF74EFF002000F06BF8A74206D0D9F8D5
:1025C0000000806C10B1332105F056F90020CEE7F1
:1025D0005800002090000020BC02002038B50024E4
:1025E00060B1FFF737F900900068006980688047A4
:1025F00002F026FE04466846FFF75CF9204638BD27
:1026000038B5002808D0FFF725F900F1180400902C
:102610006846FFF74FF9204638BD000038B5002462
:1026200018B907480068006E38B1FFF713F9009039
:10263000B0F90A406846FFF73DF9204638BD000072
:102640005800002070B505460024284605F0D6FC49
:10265000641C18B1BDE8704000F068B8052CF4DBCC
:1026600070BD000038B50C4620B908480068006EFF
:1026700000280AD0FFF7EEF80090B0F90A10A14246
:1026800000DD44816846FFF715F938BD5800002089
:10269000F8B50F4E05003068046E16D00CB100F08E
:1026A000E3FA03F0DDFD2846FFF7D4F80090316827
:1026B0000D660068FFF746FA6846FFF7FBF802F080
:1026C0006FFC02F0E9FB2046F8BD00F0CDFAFAE716
:1026D000580000207CB515460C4620B91248006809
:1026E000006E00281FD0FFF7B5F82DB20090C5800E
:1026F00024B2848002F0D0FB0098406980B1FFF7DB
:10270000A9F8009A0190B2F908108180B2F90A2064
:10271000C28011B10AB10480458001A8FFF7CAF850
:102720006846FFF7C7F87CBD5800002001490A46FB
:1027300000F002B801F0FFFF7FB515460C46060019
:1027400028D0FFF787F840F6FF710190CC4203D103
:10275000B0F90440B0F906500289611E1144ADF889
:102760000840ADF80C104189681E0844ADF80E0011
:10277000ADF80A5001A8FFF79DF802A804F0ECFCA0
:1027800006E02A462146304600F048F904F0A6FC4F
:102790000028F6D17FBD00002DE9FF4FDFF8E8B03B
:1027A00083B01C46DBF80010DDE9106092464FF064
:1027B00000084B7C42461299FFF786F9050060D06D
:1027C00028698068804702F03BFD81460AFB09F1D9
:1027D000C91DCF08FFF74CF8F10705D1C11700EB71
:1027E0009170801000EB4000002C09DC1FB11838FC
:1027F000B0FBF7F000E000206442A04200DC044699
:10280000F00707D10090DDE903012346524600F0AE
:10281000CBFC8046002C03DC2846FFF791F930E022
:1028200004FB07F01830F10702D0FEF72FFF01E09C
:10283000FEF731FF06001CD0FFF70CF80190056091
:10284000039981800499C180A0F808A04481C0F850
:102850001480C0E9037901A8FFF72CF81298AE6044
:102860002861DBF80000407CA861304607B0BDE875
:10287000F08F2846FFF764F9B8F1000001D0FEF7A9
:1028800025FF0020F2E70000580000202DE9F74F57
:102890008EB0144689460E98FEF7DCFF0990B0F919
:1028A00008B0B0F90A600068006940680C9009A897
:1028B000FFF700F8564D574F2868407C57F8200026
:1028C000C1688A6A082190470790182801D3202000
:1028D00007902868407C57F820000069069003C8DC
:1028E0000B904D48814201D0012000E000200A9069
:1028F000002000F020FD00287DD1286809EB0B01A5
:10290000B0F90C20891A491E002902DDABEB010544
:1029100000E05D46B0F90810494505DDA1EB09016D
:1029200089446D1A089101E000210891002D6BDDAA
:10293000B0F90E20A119891A491E002902DDA6EB63
:10294000010800E0B046B0F90A00A04204DD061B11
:102950003444A8EB060800E00026B8F1000F53DD70
:10296000089801900DA95F46DDF830A00E980091FF
:10297000FFF746FE774300EB870101982B4601EBFA
:10298000800200994846CDE900A1214600F050FFA1
:102990000090002838D00A98E8B1DDE906322946CF
:1029A000009800F077FDB0B90698009FDA46D0F89D
:1029B00010C0BCF1000F05D004235A4639463846F2
:1029C000E04708E00B993868884701C7AAF1010081
:1029D0005FEA000AF6D100990020079ACDE90301C9
:1029E000059001200090CDE9010221460346641CB8
:1029F0002A46484600E007E001F0D6FCA8F10100B5
:102A0000761C5FEA0008ABD111B0BDE8F08F000082
:102A100058000020700000200F4A0008F8B5154645
:102A20000E460746FEF716FF009000681621C068A4
:102A3000426A0020904704466846FEF73BFF002CA0
:102A400003D02A4631463846A047F8BDF8B51646A9
:102A50000F46050012D0FEF7FDFE0090446968465F
:102A6000FEF728FF2846FFF7B9FD0346082800DDDA
:102A70002CB132463946284609F052FAF8BD3246A2
:102A80003946284609F0ECFBF8BD10B5002821D0E6
:102A900009B30AB3B1F90040B2F900309C4200DA40
:102AA00023460380B1F90240B2F902309C4200DAB9
:102AB00023464380B1F90440B2F904309C4200DD62
:102AC00023468380B1F90610B2F90620914200DC5A
:102AD0001146C18010BD11460A6802604968416014
:102AE00010BD00280BD003880B4403808388194451
:102AF0008180418811444180C1881144C180704760
:102B000070B50E4D0446D5E90001884209D10C4943
:102B1000884201D13C3000E00C3807C884E8070047
:102B200006E090E80E0084E80E0008F08DF82860BA
:102B3000207A002800D0012070BD0000F40200209F
:102B4000E48500200448D0E90010814201D1012031
:102B50007047002070470000F4020020054A10B5BD
:102B60000349116009F0EEF8BDE8104000F00EB91D
:102B7000816500088000002070B5094C0020D4E970
:102B800000218A420AD0D2E90056104608F066F8C1
:102B900020603146284603F0CBFF012070BD0000C5
:102BA000A80000202DE9FC41154DDDE908742D68D1
:102BB000B5F90860864200DD3046B5F90C609642F2
:102BC00000DA3246824219DBB5F90A608E4200DD36
:102BD0003146B5F90E509D4200DA2B468B420DDB93
:102BE00000E02C46E5682D6825B1042D02D025684B
:102BF000002DF6D1CDE9007402F038F8BDE8FC8173
:102C000058000020B0F90220B1F906309A4213DCD6
:102C1000B1F90220B0F906309A420DDCB0F900207B
:102C2000B1F904309A4207DCB1F90010B0F90400A0
:102C3000814201DC012070470020704701460248B4
:102C400070220068FDF7F9BB58000020002801D071
:102C500008F008BE70470000024970220968FDF7BD
:102C6000ECBB00005800002010B502F0CBF802F0D9
:102C700097F9BDE8104003F005BA000070B5094DA2
:102C80000446022C2868467C09D22046FEF7B6FF8F
:102C900028B128684474FFF7E7FF03480460304612
:102CA00070BD000058000020CC01002070B50C461B
:102CB000054603F03DFF002805D121462846BDE822
:102CC000704000F073B870BD02F0BCB802F0F2B80A
:102CD000034A6FF070411268116302F0F1B800000E
:102CE0005800002001498860704700004C00002017
:102CF00002F0F8B803490968CA6900B1C861104612
:102D0000704700005800002002F008B90249096825
:102D10008A7E88761046704758000020094A30B4F1
:102D20001080094A1180094A1268537C084A52F8F7
:102D30002330DA68146A0A46A446014630BC1846B5
:102D400060470000980000209A00002058000020F2
:102D500070000020024909680A7E08761046704714
:102D60005800002003490968B1F92C2088851046D5
:102D7000704700005800002003490968B1F92A2073
:102D8000488510467047000058000020024800683F
:102D9000002800D0004770479802002002498A6846
:102DA00002B98860FFF7F2BFA80000207CB50A4C8A
:102DB0000546CDE900016068019A6E46C0E90052FF
:102DC000216807F033FF6060E16809B13046884749
:102DD000A560FFF7DBFF7CBDA800002010B5040054
:102DE00009D008F0F1FA204609F056F82046BDE86F
:102DF0001040FEF76BBC10BD38B50C4660B1FEF755
:102E000029FD00908089204201D0012400E00024A7
:102E10006846FEF74FFD00E00124204638BD000063
:102E200038B50546002028600648046844B12046AD
:102E3000FEF710FD0090006928606846FEF73AFD35
:102E4000204638BD0003002038B504004FF00000D4
:102E50000D46086011D02046FEF7FCFC0090846807
:102E600044B16846FEF726FD2046FEF7F3FC0090CD
:102E7000006928606846FEF71DFD204638BD000049
:102E800070B5174C06460D463268E16801208A424B
:102E90001EDB2968236999421ADB63699A4217DCB1
:102EA000A269914214DC2946304600F093F80028CC
:102EB0000ED133680022002B01DA326004E0616831
:102EC0008B4201DB491E31602B68002B01DA2A603E
:102ED00070BDA1688B42FBDB491E296070BD0000FC
:102EE0007C02002070B5254C86B06078F8B100F007
:102EF000C1F8E06000F0BCF8E0680390206904903D
:102F000000F03EF88DF8090004A903A8FFF7B8FF08
:102F10000025B0B1A07870B360680090A0680190FF
:102F20008DF80850684600F031F8A57023E000F0F5
:102F3000A3F8206100F09DF86078401C607006B036
:102F400070BD039A6068111A00D54942049BA068BD
:102F5000181A00D54042A67816B1084402280ADDA6
:102F600062600092A360012601938DF808606846B4
:102F700000F00CF8A6706570E1E70000B8000020D2
:102F80000148407A70470000688500203EB504463D
:102F90000C220E49FDF75BF9002813D00B4894E88A
:102FA0000E0080E80E000A48026862B194E80B0047
:102FB0008DE80B00684601A99047002802D16846B9
:102FC000FFF7CCFD3EBD2046FAE700004485002017
:102FD000780200202DE9F047054622480E46006899
:102FE000E0B3D5F8008030680AF06CF91E4C8146D9
:102FF00061680AF07FF9074640460AF063F98046A7
:1030000021680AF077F939460AF0FAF8A1680AF05F
:10301000F7F80AF0C9F8154F00223B4609F0AEFE5A
:1030200009F054FF2860484621690AF063F9054613
:103030004046E1680AF05EF929460AF0E1F8616964
:103040000AF0DEF80AF0B0F800223B4609F096FEDE
:1030500009F03CFF30600020BDE8F087FFE7012069
:10306000FAE700007C020020508500200000E03FCD
:103070007047704700207047002070472DE9F041ED
:10308000084E0446056830680168284688470746A8
:103090003068416828468847284420603846BDE8A3
:1030A000F08100005C0000202DE9F0410C4606464E
:1030B0000025064F05E038684168304688470644D9
:1030C0000544641EF7D22846BDE8F0815C0000206C
:1030D0002DE9F0411E46069C1746884605463A46AD
:1030E000A8687F1C3346D0F804C041462846E04714
:1030F000641EF4D1BDE8F08170B5B0F90040091B41
:10310000B0F904408C422CDD00F11404B0F90250F7
:103110000069521B02FB0040CA1800EBE104521E7A
:10312000D010B0EBE10501F007034FF0FF0102F012
:10313000070221FA03F0C2F1070201FA02F1CEB24E
:1031400021780FD001436D1E04F8011B002D05DD11
:10315000FF2229462046FDF7A2F92C44207830436F
:10316000207070BD30400143217070BD10B5B0F9C2
:103170000030B0F90240C91A00F114030069121BB3
:1031800002FB003000EBE10001F007030278802130
:10319000D9400A43027010BDB0F9061002695143CC
:1031A0001430FDF784B900002DE9F843804602F1A0
:1031B0000F000011470003FB07F01C461546894627
:1031C0001430FEF768FA060013D0FEF743FB0090B8
:1031D000A0F80080A0F802908580C4800649816034
:1031E0000121818107616846FEF764FB3046BDE836
:1031F000F8830020FBE700008896010870B5B0F95D
:103200000660B0F904400B6800F1140596421BDD1E
:103210000069A34202FB005000EBE30214DA641ED3
:10322000E010A0EBE30512F8010B03F00704A04047
:10323000C4B206E045B1083312F8014B23F007038E
:103240006D1E002CF6D004E0002070BD6006040E58
:103250005B1C2006FAD5FF2C07D0184602E0640656
:10326000240E401C6606FAD400E0D81DC44364074F
:1032700005D006E012F8014BFF2C09D108306D1E75
:10328000F8D5C01A401C0B6070BD6206140E401CBD
:103290002206FAD4F5E738B50546FEF7DBFA0090CA
:1032A0008189491E0CB284816846FEF703FB002C1D
:1032B00002D12846FEF70AFA38BD2DE9F04116463C
:1032C0000F460546002432463946284600F07CFE6B
:1032D000054408B1641CF6E72046BDE8F081000013
:1032E00010B54FF4F041002009F02AFD04464FF4D8
:1032F000F0412046FEF7E2F98020FEF7CDFA0248C1
:10330000FFF7F0FC10BD0000205B0108044A1268C2
:10331000111800BF024A12688A1A002AFADC7047A4
:10332000240000207047000001480068704700003A
:103330002400002070470EB508B102AA00E0002268
:10334000002301A9684600F02BFC0EBD074910B50B
:103350000C7818B101200870801E03E0002008706E
:103360006FF07F4001F00AF8204610BD9200002067
:1033700010B5082A0EDC0346012A18D0022A56D0BE
:10338000042A76D010F8042B03F8012B491EF9D13A
:10339000012010BD102A08DC4FEA000230F8043B7F
:1033A00022F8023B491EF9D1F2E7002010BD10F8C7
:1033B000042BD207120E491E34D010F8044B491EBC
:1033C00004F0010442EA84122CD010F8044B491E88
:1033D00004F0010442EA441224D010F8044B491EC0
:1033E00004F0010442EA04121CD010F8044B491EF8
:1033F00004F0010442EAC40214D010F8044B491E40
:1034000004F0010442EA84020CD010F8044B491E77
:1034100004F0010442EA440204D010F8044B04F022
:103420000104224303F8012B0029C0D1B0E710F8B2
:10343000042B9207120E491E15D010F8044B491E9A
:1034400004F0030442EA04120DD010F8044B491EA4
:1034500004F0030442EA840205D010F8044B04F09F
:1034600003042243491E03F8012B0029DFD18FE713
:10347000FFE710F8042B1207120E491E05D010F8B2
:10348000044B04F00F042243491E03F8012B0029CA
:10349000EFD17DE738B50024009400F01BF838BD6B
:1034A0000A4810B5816900290ED101218161FFF719
:1034B00017FF01F087FD054905481C310860BDE88C
:1034C0001040084600F042BD10BD00004C00002036
:1034D00001B000082DE9F0410D460699044601B9F6
:1034E00001461F68082A09DC0E46012A1AD0022A62
:1034F0005BD0042A7DD0082A13D18DE0102A07DC86
:10350000D3F810C00E46BCF1000F04D0022389E0AE
:103510000020BDE8F08101CCB84726F8020B6D1EF3
:10352000F9D189E001CCB847C0074FEA10686D1E99
:1035300036D001CCB84748EA801000F0FF086D1E75
:103540002ED001CCB84748EA401000F0FF086D1EAD
:1035500026D001CCB84748EA001000F0FF086D1EE5
:103560001ED001CCB84748EAC00000F0FF086D1E2D
:1035700016D001CCB84748EA800000F0FF086D1E65
:103580000ED001CCB84748EA400000F0FF086D1E9D
:1035900006D001CCB84740EA080000F0FF086D1ED5
:1035A00006F8018B002DBDD146E001CCB84780075D
:1035B0004FEA10686D1E16D001CCB84748EA0010DB
:1035C00000F0FF086D1E0ED001CCB84748EA80001D
:1035D00000F0FF086D1E06D001CCB84740EA080095
:1035E00000F0FF086D1E06F8018B002DDDD123E0F1
:1035F000FFE701CCB84700074FEA10686D1E06D000
:1036000001CCB84740EA080000F0FF086D1E06F83C
:10361000018B002DEDD10FE0D3F810C0BCF1000FED
:1036200004D001232A462046E04705E001CCB847F4
:1036300006F8010B6D1EF9D101206AE77CB506463C
:1036400028480D46006868B1002003F085FD06E0BB
:103650006A462946304604F099FD03F03FFD0028F4
:10366000F6D17CBD106800901F4C50680190226814
:10367000BDF8000032F84C1F0844ADF80000BDF85A
:10368000020091880844ADF80200BDF804001188DA
:103690000844ADF80400BDF8060091880844ADF870
:1036A0000600684603F058FD0EE000BF2068BDF834
:1036B00000106A464184BDF80210818429463046D4
:1036C00004F064FD03F00AFD0028EFD1206830F813
:1036D000221F428D891A01804188C28D891A41803A
:1036E0007CBD000094000020580000202DE9FF4F11
:1036F00085B09A4690460D46FEF786FD4FF00009CC
:10370000DDF814B006464C4625B12868009068687C
:10371000019002E06846FEF753FD18F00C0F02D04E
:103720005546002713E0BDF902402DE029467F1CD5
:10373000059800F0ADFA01466D1A0598FFF7B4FC44
:1037400005990844059005A800F0D8FA08B9002D9D
:10375000ECD108F00C00042804D0082802D00C2872
:1037600012D105E0BDF9060007FB1604641C0BE04E
:10377000BDF90600BDF90210401A07FB1600401CF7
:1037800000EBD07001EB60045546CDF814B043E077
:103790002946059800F07CFA07460146ED1B05987E
:1037A00000F04CFA18F003010ED0012939D002299B
:1037B0000DD1BDF90410BDF90020891A091A01EBD9
:1037C000D17102EB610101E0BDF900108946174A91
:1037D000401E484412683946A2F822909484ADF8FD
:1037E0000C00A019401EADF80890ADF80E00ADF821
:1037F0000A4002AA0598FFF721FF39460598FFF70E
:1038000053FC059908440590FEF7FEFC044405A806
:1038100000F074FA002801D1002DB9D109B0BDE83B
:10382000F08FBDF90410091A491CCFE75800002099
:103830002DE9FF4F8DB00020DDF86CA016460090FA
:103840001D4604460246CAF8000008AB03A902A8B8
:1038500000F0A6F918B1002011B0BDE8F08F08986B
:10386000854200DD0546614F0B9561493868407C13
:1038700051F82010049109690691FEF77FFC05902C
:103880003868407CFEF7DEFC5A498146884204D005
:103890005949894501D0012000E000200A9001CE5D
:1038A0001A9988478346000E079077D0009870BB1E
:1038B0000D9800EB04084D480068B0F90800404539
:1038C00003DDA0EB0807804600E00027029804997A
:1038D00000EB840000EB8700CDE900010B990D9807
:1038E000421809920E9B40461946521EFFF75AF99C
:1038F00001200090059818280ADA0298DDE90523CE
:1039000000EB840000EB8700E91B00F0A7F812E051
:103910000A9880B1029800EB840000EB87070998B1
:10392000A0EB080849463868884701C7A8F101009C
:103930005FEA0008F6D13148C06980B3DDE90207CB
:1039400000EB840007EB8402CDE902022B4C361F0A
:103950003046E4692B460299A047FF213068B1EB5D
:10396000106F02D10298006804E0029A1268B1EB6D
:10397000126F01D1039A1060029806F10406001D2F
:1039800002900398001D03906D1EE7D10397DAF8AB
:10399000000040F00101CAF8001020E021E0FFE73C
:1039A0000798FF2811D0C0F1FF02029850F82410A8
:1039B000584600F067FA039941F82400DAF800004D
:1039C00040F00101CAF8001005E00298039950F890
:1039D000240041F82400641C6D1E7FF460AF03983E
:1039E0003AE7039941F824B0E8E7000058000020C6
:1039F000700000200F4A00080D4A0008280200202D
:103A00002DE9F04F144C87B02568DDE91298EC6C75
:103A1000DDE910BA2718286DA5184618C418ADF8A6
:103A20001070ADF81450ADF81260ADF8164004A84F
:103A300003F092FB0BE0CDE90298CDE900BA2346F2
:103A40002A463146384606F0B1F903F047FB002814
:103A5000F1D107B0BDE8F08F580000202DE9F05FEC
:103A60000C1E16DD5E68014600EB8405082A12DC98
:103A7000611E012A26D0022A47D0042A6AD0082AC9
:103A800007D1071917F8010DB04745F8040D641E5A
:103A9000F8D1BDE8F09F102AFBDC5F693FB12246F8
:103AA000BC46BDE8F04F02235DF804EB604701EB34
:103AB000440700BF37F8020DB04745F8040D641EF7
:103AC000F8D1E6E700EBE10001F0070710F801A9E3
:103AD0008146802020FA07F8B5F104050AEA0800BB
:103AE000C7F10701C840B04745F804093FB14FEAA4
:103AF00048604FEA10687F1E641EEFD1C9E719F8CD
:103B000001A907274FF00108F6E700EBA10001F03B
:103B1000030710F801A981467900C02020FA01F8B6
:103B20004FF0060BB5F104050AEA0800ABEB4701BC
:103B3000C840B04745F804093FB14FEA88604FEAF2
:103B400010687F1E641EEFD1A3E7032719F801A9AF
:103B5000B846F7E700EB6100012710F801A9A74379
:103B60008146B900F02020FA01F84FF0040B2D1F18
:103B70000AEA0800ABEB8701C840B04745F80409E2
:103B80003FB14FEA08704FEA10687F1E641EEFD104
:103B90007FE719F801A901274FF00F08F6E70000A9
:103BA0002DE9F047224C06461F46A06990468946FB
:103BB000002540B90120A06104F120011D480860E2
:103BC000084600F0C3F9606930B91B4800686061BD
:103BD00010B900F09CFE606107B138604EB1A0687A
:103BE00030B960698000FDF7AFFDA06000B9012524
:103BF0003060B9F1000F0AD0E06830B96069800028
:103C0000FDF7A2FDE06000B90125C9F80000B8F198
:103C1000000F0AD0206930B960698000FDF794FD7B
:103C2000206100B90125C8F800002846BDE8F087EA
:103C30002802002061B000088800002073B5124AF5
:103C400001A900981268904700240090C8B10F495C
:103C500000250968C969496959B10A684AB10199D9
:103C600090477CBD6846FFF709FA0546FEF798FACB
:103C700004440198401E0190F4D5284600F032F823
:103C8000044420467CBD000068020020580000204B
:103C900073B50D460098002490B10A490968C969B6
:103CA000496959B14A684AB1294690477CBD68467E
:103CB000FFF7E4F920B10A2802D0641CAC42F6DB1D
:103CC00020467CBD58000020044AB2F90020026062
:103CD0000348B0F900000860704700009800002019
:103CE0009A00002038B5002469460094FEF760FA77
:103CF0000099814200DD0C1A204638BD016811F898
:103D0000012B12B10A2A02D002E0012070470160A3
:103D100000207047B0F90030B1F90020934200DA7A
:103D20000280B0F90230B1F90220934200DA4280F9
:103D3000B0F90430B1F90420934200DD8280B0F97B
:103D40000620B1F906108A4200DDC180704770B5C7
:103D5000B1F90040B2F900309C4200DD23460380F7
:103D6000B1F90250B2F90240A54200DD2C46448070
:103D7000B1F90460B2F90450AE4200DA35468580EC
:103D8000B1F90610B2F90620914200DB1146C1805C
:103D90009D4201DBA14201DA002070BD012070BD0F
:103DA000014602480068407C00F002B8580000203C
:103DB0002DE9F84301268946044602285DDA304F92
:103DC0007A6802B190472E4D5FEA090005F11005AF
:103DD00032D0012803D0B9F1020F4ED118E055F8C6
:103DE000240088B92046FDF709FF009018B3C06889
:103DF0000D21426A6846904702003ED0494600982D
:103E0000904755F824000026401C45F8240034E073
:103E10002046FDF7F3FE009068B1C0680D21426AAC
:103E200068469047040028D0386800B1804749466A
:103E30000098A047002620E055F82400A846012855
:103E400012D12046FDF7DAFE009068B1C0680D215E
:103E5000426A68469047050006D0386800B180473E
:103E600049460098A847002658F8241009B10122B5
:103E700000E00022891A48F824103046BDE8F88393
:103E80005002002070B5FF23B3EB116F29D0C3B2ED
:103E900000F47F4500F47F04060E5343554354431A
:103EA0005643C2F1FF00CAB202FB003201F47F4365
:103EB00003FB005301F47F0505FB0044090E01FBE1
:103EC0000065C2F307204FF47F4101EA1322090283
:103ED00001EA14214FF07F43104303EA05430843EE
:103EE000184370BD2DE9F04F0646DDE90CB91546C3
:103EF0000C4600208046584519D20B9F4FF0FF0A10
:103F000001CE08CCAAEB106202FB09F2B2FBFAF177
:103F1000CAB21946FFF7B6FF20F07F4001C57F1EE9
:103F2000EED1099804EB800408F10100E2E7BDE856
:103F3000F08F0B88134403808B889B1A83804B88F7
:103F400013444380C988891AC180704702494A696D
:103F500042604861704700004C0000202DE9F843A2
:103F60000768064688460025384600F0CBF840B37F
:103F7000404600F0D7F8441C3846FDF75DFC84420B
:103F80000CD1F4B13846FDF765FC2246414600905D
:103F9000FCF7CCF96846FDF78DFC11E02046FDF7F3
:103FA00075FB04000DD0FDF755FC41460090FCF771
:103FB0007AF96846FDF77EFC3046FDF7AFFB3460CA
:103FC00001252846BDE8F88310B5044600F009F83D
:103FD00001462046BDE81040FFF766B8002307F011
:103FE00083BF77B581B015460E466B46019807F042
:103FF0007BFF044601460198FFF756F801990844F3
:10400000019001A8FFF73AF80A2802D0012D02D04A
:1040100012E0641C10E020280ED1FEF7C1F805461E
:1040200007E02844009001A8641CFFF727F8202827
:1040300002D100988642F4DA04B0204670BD10B573
:1040400002E000F8011B521E0AB18307F9D1930860
:1040500018D001EB014402F0030204EB042406E053
:1040600010C01B1F10C040F8084B40F8044C042B34
:10407000F6DA01E010C05B1E002BFBD102E000F875
:10408000011B521E002AFAD110BD10B5830702D5BC
:1040900020F8021B521E530811D001EB0144042BDF
:1040A00009DB10C01B1F10C0042B40F8084B40F860
:1040B000044CF6DA01E010C05B1E002BFBD1D207E6
:1040C00000D0018010BD024600204FF0804143180F
:1040D000934201D8D21A581840088908F7D170477E
:1040E00000B907A021B906A102E03AB1401C491C61
:1040F00002780B789A42F8D0012070470020704770
:104100000000000038B50D46012448B1FDF7A2FBC0
:1041100029460090FFF7E4FF04466846FDF7CAFB16
:10412000204638BD4FF0FF3128B100BF10F8012BF9
:10413000491C002AFAD10846704700F5806000F05B
:1041400001B8000010B50023C0F30B00B0F5006FFC
:1041500002DD0123A0F50060B0F5806F01DDC0F540
:10416000006081110C4C00F03F00C0F1400234F8B7
:1041700011005043402A08D0102906DA04EB41010F
:10418000C2F14002498801FB020020308009002B67
:1041900000D0404210BD0000D05301082DE9F0418D
:1041A00004460D462A2003F029FC201203F0A0FC4F
:1041B000E0B203F09DFC201203F09AFCE0B203F0A1
:1041C00097FC2B2003F01AFC281203F091FCE8B2B4
:1041D00003F08EFC281203F08BFCE8B203F088FC9D
:1041E0002E2003F00BFC00F09DFC064600F09AFC2C
:1041F000064600F097FC074606F4784006F0FC01FE
:1042000040EAC10040EAE7263046BDE8F08100BF41
:10421000FEE7000008B50121102001F075FA4FF407
:10422000E070ADF8000048208DF8030069460C48A6
:10423000FDF73CF84FF46060ADF8000010208DF8F9
:10424000030069460648FDF731F80120054908607A
:104250000549C1F8A80103490831086008BD0000FC
:1042600000100140A401224200002242024612B185
:1042700001203E4B18703D48007800285BD001209B
:104280003B4B18603B4BC3F8A801394B083318600F
:1042900001214DE0012904D002290AD003291AD1B5
:1042A00010E00020324B18600120324BC3F8AC0103
:1042B00012E000202E4B1B1D186001202D4BC3F86F
:1042C000A40109E000202A4B083318600120294B83
:1042D000C3F8A80100E000BF00BF25488C38006883
:1042E00038B123488838006818B1214884380068FC
:1042F000E0B900201D4B18701D488C38006818B9B3
:10430000481E1D4B185C704719488838006820B952
:10431000481E194BDB1C185CF5E71548843800680B
:1043200020B9481E144B9B1D185CECE7481CC1B219
:104330000429AFDB18E000200D4B18600D4BC3F8CB
:10434000A801C3F8AC011846D0F8180101280BD118
:10435000074888380068012806D105488438006875
:10436000012801D1014B18700020CCE71700002074
:10437000A4012242000022420A00002002490A68E9
:104380000860104670470000A80200200449054A52
:104390000968497C52F8211009690968084700003A
:1043A00058000020700000202DE9F04F05468DB028
:1043B0007B48DDF860901A9C00681E4617464FF057
:1043C000000A78B11B9B199ACDF808900593CDE9A6
:1043D0000324DDE91623CDE90023046833463A4679
:1043E000284680E0DDE9160201EB060805EB070C24
:1043F0001043A8F10108ACF1010C012806D0C9F165
:1044000008000590002002910990C6E06548026806
:10441000B2F90A30581A002806DD361A002E63DD7C
:104420001946199B00FB0344B2F90E00A8EB0000EB
:10443000002802DD361A002E56DDB2F90C00ACEB76
:104440000000002800DD3F1AB2F908300020AB421E
:1044500035DD581B3F1A4B46B9F1080F26D006DC54
:10446000012B0BD0022B11D0042B28D116E0102BDE
:104470001ED0182B1FD0202B21D11CE020F00703C9
:1044800004EBE0041D4400F0070018E020F00303F3
:1044900004EBA0041D4400F0030010E020F0010331
:1044A00004EB60041D4400F0010008E0044404E053
:1044B00004EB400401E004EB800405440020002FDD
:1044C00012DD1B9BDDF864C0CDE90403CDE9006972
:1044D000CDE902C4527C34483B4650F82200C26801
:1044E00054680A462946A0470DB0BDE8F08F1799D9
:1044F000029808440C902B49401E00900A68B2F9BB
:104500000A30834241DCB2F90E10029881423CDB52
:104510004FF0000BD84603950A9434E0BBF1000F2E
:1045200005D10A984FF0080B10F801AB0A900599D5
:10453000ABEB090B3AFA01F00AFA09F101F0FF0AB4
:1045400004D118490968097C890716D415490968F6
:10455000C96B0A680B921B9A0AB152F820000860D6
:1045600016990398009B4218521E029900F0A8F871
:104570000C490B980968C96B08600399169808F1F3
:10458000010808440390B845C8DB0998401C09900D
:104590000C980290199804440998B042A7DBA3E74D
:1045A000940000205800002070000020F0B40C4659
:1045B00012490968B1F90A30A3421CDCB1F90E3086
:1045C000A34218DBB1F90830834200DD1846B1F987
:1045D0000C30934200DA1A4682420CDB4B7C0849CD
:1045E00051F8235013462246E9688E680146284652
:1045F000B446F0BC6047F0BC704700005800002093
:10460000700000200A46174930B40968B1F90A3031
:10461000934225DCB1F90E30934221DBB1F9083029
:1046200083421DDCB1F90C30834219DB0B7C0E4C4C
:10463000DB0709D0497C54F82130D968CC690146A0
:10464000A44630BC18466047CB6B497C1B6854F8C5
:104650002140E1688D6901462046AC4630BC604788
:1046600030BC70475800002070000020124B30B45E
:104670001B68B3F9084084421CDCB3F90C40844247
:1046800018DBB3F90A408C4200DD2146B3F90E4035
:10469000944200DA22468A420CDB5C7C074B53F8DA
:1046A0002440E368DD6813460A4601462046AC46CE
:1046B00030BC604730BC70475800002070000020BC
:1046C00038B5134C2468B4F90850854200DD2846FB
:1046D000B4F90C50954200DA2A46824217DBB4F94D
:1046E0000A508D4200DD2946B4F90E509D4200DA91
:1046F0002B468B420BDB0093647C064B53F8244023
:10470000E3681D6913460A4601462046A84738BD9E
:10471000580000207000002008B501217C2000F026
:10472000F3FF10208DF8030003208DF802004FF4F2
:104730000050ADF8000069462A48FCF7B7FD4FF479
:104740008050ADF8000069462648FCF7AFFD032015
:104750008DF8020010208DF803004CF20370ADF8C4
:10476000000069461F48FCF7A1FD4FF68070ADF8C8
:10477000000069461C48FCF799FD1020ADF80000C8
:1047800069461848FCF792FD2020ADF80000694604
:104790001448FCF78BFD8020ADF8000069461148F5
:1047A000FCF784FD4FF40060ADF8000069460D4849
:1047B000FCF77CFD4FF480510A48FCF704FE102101
:1047C0000848FCF700FE20210648FCF7FCFD4FF4EA
:1047D00000610448FCF7F7FD80210248FCF7F3FD77
:1047E00008BD00000014014000180140082106F037
:1047F00091B8000002480068806B006870470000B4
:104800005800002002480068C06B00687047000034
:1048100058000020024809210068407C06F07AB860
:1048200058000020092106F075B870B500252C4607
:104830002046FDF7E3F900B16D1C641C022CF7DB88
:10484000284670BD02480068407C00F003B80000B4
:104850005800002010B5FDF7D1F9002805D0C16837
:10486000CA6ABDE810400221104710BD10B500F023
:1048700005F8BDE8104000F0BBB800002DE9FC4190
:10488000144E0546144F30680C46407C57F8200003
:10489000C1680A6B69469047BDF90000A8420BDC6D
:1048A000BDF90400A84207DBBDF90200A04203DC09
:1048B000BDF90600A04202DA0020BDE8FC813068A4
:1048C0002246407C57F82000C1684B69294698472A
:1048D000F3E700005800002070000020F8B51546EE
:1048E0000E460124FDF78AF9009058B1C0680421F2
:1048F000426A68469047030004D02A463146009831
:10490000984700242046F8BD032106F003B8032091
:1049100006F08DB8042105F0FDBF0000024801211A
:104920000068407C05F0F6BF580000200148006890
:1049300070470000F8000020012105F0EBBF0120C6
:1049400006F075B8024802210068407C05F0E2BF1D
:10495000580000200148406870470000F80000201F
:10496000022105F0D7BF022006F061B8AFF3008046
:104970002DE9F041002809D0876837B10D4E7168E4
:1049800019B10468B4F5807F02DD0020BDE8F08134
:104990003068844200DD0446002507E057F8250012
:1049A000FFF7F4FC716841F825006D1CA542F5DBAA
:1049B0007068EBE7AC02002008B528208DF80300F2
:1049C00003208DF802004FF68070ADF800006946B4
:1049D0000548FCF76BFC4CF20370ADF8000069462B
:1049E0000248FCF763FC08BD0018014000140140B8
:1049F0000449054A0968497C52F821100969496847
:104A000008470000580000207000002070477047E1
:104A100010B500F01F01074A074BC0F34514C0F35F
:104A2000C4201B5D105C515C00EB032000EB0140D7
:104A300010BD0000F48101081482010810B50A4C71
:104A4000606860B920688000FCF77EFE606040B15D
:104A500004F10801054808600846FFF777FA0020CE
:104A600010BD012010BD0000AC02002089B000087C
:104A70002DE9F047FFF7D9FE07460024DFF86080F4
:104A80002AE02046FDF7BAF828B3D8F8000090F8DD
:104A9000119044742046FFF7A9FE082817DC11483E
:104AA000114950F824000069884210D02046FFF7D1
:104AB000B9FE0646002508E0E8B2FFF799FF024676
:104AC000E9B2204600F014FA6D1CB542F4DBD8F8C8
:104AD000001081F81190641CBC42D2DBBDE8F08765
:104AE0005800002070000020E48D010808B5102057
:104AF0008DF8030003208DF802004FF68070ADF8AA
:104B0000000069460548FCF7D1FB4CF20370ADF894
:104B1000000069460248FCF7C9FB08BD00180140C7
:104B20000014014070B5FFF747FF00204C490860B2
:104B300001204C49C1F8AC01002049490C390860FA
:104B400000257EE0102D78D2DFE805F0080E151C58
:104B5000222930373E454C535A61687040487C38B2
:104B60000068204384B269E03D487838006840EA34
:104B7000440084B262E03A487438006840EA440075
:104B800084B25BE03848006840EA440084B255E0F3
:104B90003548001F006840EA440084B24EE03248C5
:104BA0000838006840EA440084B247E02E480C38D8
:104BB000006840EA440084B240E02B4810380068A6
:104BC00040EA440084B239E027481438006840EADB
:104BD000440084B232E024481838006840EA4400B7
:104BE00084B22BE020481C38006840EA440084B2BC
:104BF00024E01D482038006840EA440084B21DE0EB
:104C000017489838006840EA440084B216E0144817
:104C10009C38006840EA440084B20FE010486038D5
:104C2000006840EA440084B208E006E00C486438BA
:104C3000006840EA440084B200E000BF00BF681C86
:104C4000C5B2102DFFF67EAF012005490C39086072
:104C50000449C1F89C01FFF749FF204670BD0000E0
:104C60009C812242008022423C0123422DE9FF4FD9
:104C700083B01646DDE910408B46C0684769426A3A
:104C80007AB1012111A8904705000AD00698CDE914
:104C9000000433465A4603991198A84707B0BDE867
:104CA000F08F57480068407CFDF768FA8246082874
:104CB00001DC012005E0BAF1100F01DC022000E068
:104CC00004208046002596E04046B8F1010F05D04B
:104CD000022871D0B8F1040F25D17CE0BAF1090F98
:104CE00021D2DFE80AF08605213F3F595959590082
:104CF000039815E001465A461198B847C5F10701D7
:104D000088404FF67F722178EA40114001436D1CC4
:104D1000217004EBE50425F00700054109F10100CD
:104D20008146B042E6DD64E0039817E001465A464A
:104D30001198B8470621A1EB450188406B004FF65A
:104D40003F722178DA40114001436D1C217004EB61
:104D5000A50425F00300054109F101008146B04298
:104D6000E4DD46E0039813E001465A461198B8473F
:104D70000421A1EB850188402178AB000F229A40E5
:104D80001140014321702C4485F0010509F1010017
:104D90008146B042E8DD2CE0DDF80C9007E00146EA
:104DA0005A461198B847207009F101094444484611
:104DB000B145F4DD1DE0FFE7DDF80C9007E00146AA
:104DC0005A461198B847208009F1010944444846E1
:104DD000B145F4DD0DE0DDF80C9007E001465A46E0
:104DE0001198B847206009F1010944444846B1458B
:104DF000F4DD0BF1010B06998B457FF765AF4DE7AD
:104E00005800002010B50D4C0D492068407C51F829
:104E1000200048B1C16811B10968042901D00068B7
:104E2000F7E708B1FCF7D2FE20680021016600F127
:104E300008014161BDE8104000F02EB85800002084
:104E4000700000200149096849680847A402002051
:104E5000044909680A7C520701D5C96B00E0896BD7
:104E600008607047580000207CB5094C0546206852
:104E7000417C084850F82100C1680A6B6946904798
:104E800020686A4629460830FEF761FF7CBD0000B5
:104E900058000020700000200448016804484A7C43
:104EA000083150F82200C268126B104758000020E9
:104EB000700000200149096809680847A402002021
:104EC000044909680A7C520701D5896B00E0C96B67
:104ED0000860704758000020014AC2E9000170478D
:104EE000F80000200149096889680847A4020020E9
:104EF000F8B515460E460124FCF780FE009058B127
:104F0000C0681021426A68469047030004D02A46D0
:104F100031460098984700242046F8BDF8B515465C
:104F20000E460124FCF76AFE009058B1C0680321C8
:104F3000426A68469047030004D02A4631460098EA
:104F4000984700242046F8BDF8B515460E460124C2
:104F5000FCF754FE009058B1C0680B21426A6846C5
:104F60009047030004D02A46314600989847002411
:104F70002046F8BDF8B515460E460124FCF73EFE66
:104F8000009058B1C0680A21426A68469047030001
:104F900004D02A4631460098984700242046F8BDA0
:104FA00010B5074C2068006BFFF7F0F9FFF788FF9A
:104FB0002068406BFFF7EAF9BDE81040FFF748BFF3
:104FC0005800002010B5A0B014211BA8FBF76FFA01
:104FD000682101A8FBF76BFA00231A4609490A4821
:104FE000FCF79AFD0446F0224FF4C8710020FFF749
:104FF000ABFFF0224FF4C8710020FFF7BBFF20B0D9
:1050000010BD0000145401088C5201082DE9F04134
:1050100006460C461746012C04D100F065F9002025
:10502000BDE8F0814FF0FF3500BF00BF2846F7E72D
:105030002DE9FF4F8DB01746674ADDF870901E9E30
:10504000209812681D4600248AB11D9B1F98CDE947
:105050000293CDE90460DDE91A03CDE90003146889
:105060002B463A460D98A04711B0BDE8F08F0D9A37
:1050700001EB050802EB070CDDE91A231A43A8F13E
:105080000108ACF1010C012A06D0C9F108004FF06B
:10509000000B029105909CE0504A1268B2F90A4058
:1050A000631A002B06DDED1A002DDDDD21461D9C67
:1050B00003FB0466B2F90E30A8EB0303002B02DDFC
:1050C000ED1A002DD0DDB2F90C30ACEB0303002B50
:1050D00000DDFF1A0D9B1C1AB2F90830A3420DDD4A
:1050E000A3EB040C0CEB0003181A20F00700044497
:1050F000A7EB0C0706EBE30603F00700002FB3DD78
:10510000DDF874C01F9BCDE902C6CDE90403CDE9EB
:105110000059527C32483B4650F82200C26855681C
:105120000A462146A8479FE71B99029808440C901D
:105130002A49401E00900A68B2F90A30834242DCD4
:10514000B2F90E10029881423DDB4FF0000A0D9833
:105150000A96D046039034E0BAF1000F05D10A98C0
:105160004FF0080A10F8014B0A900599AAEB090ABA
:1051700034FA01F004FA09F4E4B204D117490968D9
:10518000097C890717D415490968C96B0A680B920D
:105190001F9A0AB152F82000086003991A98009BE0
:1051A0000A18DDE90210521EFFF78AFA0B490B9824
:1051B0000968C96B086003991A9808F10108084446
:1051C0000390B845C8DB0C9802901D980BF1010BB9
:1051D0000644AB45A8DB47E79400002058000020B8
:1051E00070000020002818D0410817D0810817D07F
:1051F000C10817D0010917D0410917D0010A17D0EB
:10520000410A17D0010B15D0C10B13D0010C11D0DE
:10521000810C11D0000E11D0202070470120704762
:105220000220704703207047042070470520704714
:1052300008207047102070471220704718207047D0
:1052400000B50022FFF7CEFF012804D0811E0629F9
:1052500003D808220BE0012209E0A0F10901072987
:1052600001D8102203E011380F2800D82022104660
:1052700000BD000010B54FF480510748FCF7A1F8BD
:10528000642007F0FDFB4FF480510348FCF79BF8C6
:10529000642007F0F5FB10BD0014014008B50121A2
:1052A000102000F031FA10208DF8030003208DF853
:1052B00002000F20ADF8000069460A48FBF7F6FF30
:1052C00001210848FCF77FF802210648FCF77BF82B
:1052D00004210448FCF777F808210248FCF773F82A
:1052E00008BD00000010014010B5FFF715FA32208C
:1052F00007F0C6FBFFF7BEFF2A2002F07FFB00206D
:1053000002F0F6FB002002F0F3FB002002F0F0FBBD
:10531000EF2002F0EDFB2B2002F070FB002002F0EA
:10532000E7FB002002F0E4FB012002F0E1FB8F200C
:1053300002F0DEFB352002F061FB002002F0D8FB1A
:10534000B12002F05BFB112002F0D2FB0E2002F034
:10535000CFFBB42002F052FB022002F0C9FBB620C2
:1053600002F04CFB1E2002F0C3FB022002F0C0FB47
:10537000C02002F043FB102002F0BAFBC12002F073
:105380003DFB012002F0B4FB0B2002F0B1FBC52075
:1053900002F034FB172002F0ABFB272002F0A8FB41
:1053A000FA2002F02BFB012002F0A2FBE02002F029
:1053B00025FB002002F09CFB082002F099FB112045
:1053C00002F096FB0D2002F093FB132002F090FBFD
:1053D000172002F08DFB1C2002F08AFB7B2002F0DC
:1053E00087FB2D2002F084FB102002F081FB2F2090
:1053F00002F07EFB292002F07BFB122002F078FBFA
:105400001C2002F075FB2F2002F072FBE12002F05D
:10541000F5FA2B2002F06CFB2E2002F069FB29200C
:1054200002F066FB0D2002F063FB162002F060FB29
:10543000152002F05DFB292002F05AFB572002F0F4
:1054400057FB2F2002F054FB092002F051FB1A20D9
:1054500002F04EFB232002F04BFB312002F048FB10
:10546000372002F045FB3C2002F042FBE22002F034
:10547000C5FA002002F03CFB082002F039FB1120A5
:1054800002F036FB0D2002F033FB132002F030FB5C
:10549000172002F02DFB1C2002F02AFB7B2002F0DB
:1054A00027FB2D2002F024FB102002F021FB2F20EF
:1054B00002F01EFB292002F01BFB122002F018FB59
:1054C0001C2002F015FB2F2002F012FBE32002F05B
:1054D00095FA2B2002F00CFB2E2002F009FB29206C
:1054E00002F006FB0D2002F003FB162002F000FB89
:1054F000152002F0FDFA292002F0FAFA572002F0F6
:10550000F7FA2F2002F0F4FA092002F0F1FA1A203B
:1055100002F0EEFA232002F0EBFA312002F0E8FA72
:10552000372002F0E5FA3C2002F0E2FAE42002F033
:1055300065FA002002F0DCFA082002F0D9FA112006
:1055400002F0D6FA0D2002F0D3FA132002F0D0FABE
:10555000172002F0CDFA1C2002F0CAFA7B2002F0DC
:10556000C7FA2D2002F0C4FA102002F0C1FA2F2051
:1055700002F0BEFA292002F0BBFA122002F0B8FABB
:105580001C2002F0B5FA2F2002F0B2FAE52002F05A
:1055900035FA2B2002F0ACFA2E2002F0A9FA2920CD
:1055A00002F0A6FA0D2002F0A3FA162002F0A0FAEB
:1055B000152002F09DFA292002F09AFA572002F0F5
:1055C00097FA2F2002F094FA092002F091FA1A209B
:1055D00002F08EFA232002F08BFA312002F088FAD2
:1055E000372002F085FA3C2002F082FA3A2002F0DD
:1055F00005FA552002F07CFA362002F0FFF960200F
:1056000002F076FA112002F0F9F9782007F038FA62
:10561000292002F0F3F901200149086010BD0000C3
:10562000B481224210B5042001F05CFBFCF71CFEA3
:10563000FBF762FA044610BD00BFFEE770470000AA
:1056400070B5002100230F22C47804B3154C2468E0
:1056500004F4E064C4F5E064210AC1F10403CA4023
:10566000447804FA03F184781440214309010E4C74
:105670000678A155047804F01F050124AC40057894
:105680006D11AD0005F1E025C5F8004109E0047891
:1056900004F01F050124AC40044D0678761145F84E
:1056A000264070BD0CED00E000E400E080E100E089
:1056B00002490143024A1160704700000000FA05E8
:1056C0000CED00E07047000029B1064A5269024320
:1056D000044B5A6104E0034A52698243014B5A6108
:1056E000704700000010024029B1064AD269024307
:1056F000044BDA6104E0034AD2698243014BDA6168
:10570000704700000010024029B1064A9269024326
:10571000044B9A6104E0034A92698243014B9A6107
:105720007047000000100240704710B500F002F80A
:1057300010BD00000CB500200190009033480068B7
:1057400040F480303149086000BF3048006800F400
:10575000003000900198401C0190009820B94FF64D
:10576000FF7101988842F0D12848006800F40030A9
:1057700010B10120009001E0002000900098012865
:1057800043D12348006840F01000214908600846D2
:10579000006820F0030008600846006840F002003E
:1057A00008601A48406819494860084640684860DF
:1057B0000846406840F4806048600846406820F42D
:1057C0007C1048600846406840F4E810486008468D
:1057D000006840F08070086000BF0C48006800F06E
:1057E00000700028F9D00948406820F003000749FC
:1057F00048600846406840F00200486000BF034827
:10580000406800F00C000828F9D10CBD00100240DF
:1058100000200240042808D14FF0E021096941F03E
:1058200004014FF0E022116107E04FF0E021096927
:1058300021F004014FF0E022116170477047000031
:1058400010B51348006840F001001149086008468F
:105850004068104908400E494860084600680E49F3
:1058600008400B4908600846006820F48020086062
:105870000846406820F4FE0048604FF41F0088602E
:10588000FFF753FF4FF000600449086010BD0000AF
:10589000001002400000FFF8FFFFF6FE08ED00E0F8
:1058A00038B5446805460146204600F04EFA002807
:1058B00028D028680B2816D00F280FD0B0F5107FFD
:1058C0001BD1E86828B1007A08B1012102E0022169
:1058D00000E00321204601F022F90EE02046BDE859
:1058E000384005F03ABC2046FBF7B4FF0090443046
:1058F000FBF714FF6846FBF7DDFF2846BDE838409C
:1059000000F0B8BC38BDF0B587B01446428A0DF13E
:10591000080CB0F90850876946688CE8E400022258
:10592000CDE90012B0F90C10B0F91050B0F90E200A
:10593000B0F90A00194420442B4600F003F807B0E0
:10594000F0BD00002DE9FF470DF13408044698E84A
:105950008102DDE91065DFF87880DDF830C02035A0
:1059600040F00100CDF800C00395CDE901082046C4
:1059700000F0D2FB050026D0002486B13046FAF7AD
:10598000B6FC401CFBF787FE040008D0FBF762FF63
:1059900031460190FAF787FC01A8FBF78BFF2846F8
:1059A000FBF758FF00224946009000F091FA00985A
:1059B0004464A0F84870074C34301ECC80E81E00C8
:1059C0006846FBF777FF04B02846BDE8F087000083
:1059D000A1580008D002002038B50C4605000CD0B4
:1059E000FBF738FF0090416BA14203D04463284687
:1059F00001F033F86846FBF75DFF38BD7CB50E4615
:105A000005004FF001041CD0FBF724FF0090406C10
:105A100001906846FBF74EFF314601A8FEF79EFA5B
:105A200078B100242846FBF715FF0090426C0199DD
:105A30008A4200D041646846FBF73CFF284601F0EB
:105A40000CF820467CBD38B50C4605000AD0FBF7A3
:105A500001FF0090A0F848406846FBF72BFF28465E
:105A600000F0FBFF38BD38B50C4605000CD0FBF745
:105A7000F1FE0090816BA14203D08463284600F0C0
:105A8000ECFF6846FBF716FF38BD000010B501219A
:105A9000064800F05EF820B105480068401C044943
:105AA00008600121014800F045F810BD00040040E5
:105AB000240000207FB504460D4601210220FFF797
:105AC00013FEADF804500020ADF80600ADF8084014
:105AD000ADF80A0001A90E4800F056F8012211465F
