:020000040800F2
:10000000C0A400200D020008CF3F00084D2F0008BB
:10001000CB3F0008EF050008C344000800000000C3
:10002000000000000000000000000000B9400008CF
:10003000F30500080000000055400008CD4100080D
:1000400027020008270200082702000827020008EC
:1000500027020008270200082702000827020008DC
:1000600027020008270200082702000827020008CC
:1000700027020008270200082702000827020008BC
:1000800027020008270200082702000827020008AC
:10009000270200082702000827020008270200089C
:1000A000270200082702000827020008270200088C
:1000B0002702000831420008270200082702000832
:1000C000270200082702000827020008270200086C
:1000D00027020008D1430008270200082702000871
:1000E000270200082702000827020008270200084C
:1000F000270200082702000827020008270200083C
:10010000270200082702000827020008270200082B
:100110002702000827020008B94200082702000849
:10012000270200082702000827020008270200080B
:1001300000F002F800F05AF80AA090E8000C82449F
:100140008344AAF10107DA4501D100F04FF8AFF27C
:10015000090EBAE80F0013F0010F18BFFB1A43F0A5
:100160000103184768F2000088F200000A444FF0CB
:10017000000C10F8013B13F0070408BF10F8014B06
:100180001D1108BF10F8015B641E05D010F8016B4B
:10019000641E01F8016BF9D113F0080F1EBF10F8AF
:1001A000014BAD1C0C1B09D16D1E58BF01F801CBD2
:1001B000FAD505E014F8016B01F8016B6D1EF9D555
:1001C0009142D6D37047000000230024002500266A
:1001D000103A28BF78C1FBD8520728BF30C148BFAA
:1001E0000B6070471FB51FBD10B510BD00F0A6F91C
:1001F0001146FFF7F7FF09F09FFC00F0C4F903B4C4
:10020000FFF7F2FF03BC09F0B1FB0000094880478B
:1002100009480047FEE7FEE7FEE7FEE7FEE7FEE7E8
:10022000FEE7FEE7FEE7FEE704480549054A064B00
:1002300070470000D141000831010008C09A002039
:10024000C0A40020C09C0020C09C0020704740EA51
:10025000010310B59B070FD1042A0DD310C808C99C
:10026000121F9C42F8D020BA19BA884201D9012045
:1002700010BD4FF0FF3010BD1AB1D30703D0521C90
:1002800007E0002010BD10F8013B11F8014B1B1BCB
:1002900007D110F8013B11F8014B1B1B01D1921E35
:1002A000F1D1184610BD032A40F2308010F0030C43
:1002B00000F0158011F8013BBCF1020F624498BFB9
:1002C00011F801CB00F8013B38BF11F8013BA2F156
:1002D000040298BF00F801CB38BF00F8013B11F0D1
:1002E000030300F06780083AC0F0088051F8043B2F
:1002F000083A51F804CBA0E80810F5E7121D5CBFDE
:1003000051F8043B40F8043BAFF30080D20724BF10
:1003100011F8013B11F801CB48BF11F8012B24BFA4
:1003200000F8013B00F801CB48BF00F8012B7047F3
:10033000431A28BF9A427FF6B6AF032A10441144ED
:1003400040F2268010F0030F1EBF11F8013D521E2F
:1003500000F8013D10F0030F7FF4F6AF11F0030336
:1003600000F0A080083AC0F00B8051F8043D083A34
:1003700051F804CD40F8043D40F804CDFFF7F3BF39
:10038000121D5CBF51F8043D40F8043DAFF30080FE
:10039000D20724BF11F8013D11F801CD48BF11F873
:1003A000012C24BF00F8013D00F801CD48BF00F842
:1003B000012C704710B5203AC0F00B80B1E81850FE
:1003C000203AA0E81850B1E81850A0E81850BFF43F
:1003D000F5AF5FEA027C24BFB1E81850A0E81850DE
:1003E00044BF18C918C0BDE810405FEA827C24BF32
:1003F00051F8043B40F8043B08BF7047D20728BFC0
:1004000031F8023B48BF11F8012B28BF20F8023B0E
:1004100048BF00F8012B704702F0FF0343EA0322B4
:1004200042EA024200F06AB84FF0000200B51346FB
:1004300094469646203922BFA0E80C50A0E80C5004
:10044000B1F12001BFF4F7AF090728BFA0E80C50B5
:1004500048BF0CC05DF804EB890028BF40F8042BAE
:1004600008BF704748BF20F8022B11F0804F18BF1B
:1004700000F8012B70477047704770477047431A68
:1004800028BF9A427FF696AF104410F0030F114434
:100490001EBF11F8013D521E00F8013D10F0030F80
:1004A0007FF4F6AF103AC0F00A8010B531E9185069
:1004B000103A20E91850BFF4F9AFBDE810405307D7
:1004C00024BF31E9081020E9081044BF51F8043D69
:1004D00040F8043D12F0030F08BF7047D20728BF51
:1004E00031F8023D48BF11F8012C28BF20F8023D29
:1004F00048BF00F8012C70474FF000020429C0F0FB
:10050000128010F0030C3FF491AFCCF1040CBCF15D
:10051000020F18BF00F8012BA8BF20F8022BA1EB97
:100520000C01FFF783BF5FEAC17C24BF00F8012BF9
:1005300000F8012B48BF00F8012B7047754600F00A
:1005400029F8AE4605006946534620F00700854667
:1005500018B020B5FFF768FEBDE820404FF0000658
:100560004FF000074FF000084FF0000B21F007019B
:10057000AC46ACE8C009ACE8C009ACE8C009ACE8DE
:10058000C0098D4670470446AFF300802046FFF750
:1005900036FE000000487047609A002030B50446DF
:1005A0000D462A2005F06EFAC4F30F2005F06EFA0E
:1005B000E0B205F06BFAC5F30F2005F067FAE8B278
:1005C00005F064FA2B2005F05DFAC2F30F2005F068
:1005D0005DFAD0B205F05AFAC3F30F2005F056FACF
:1005E000D8B205F053FA2C2005F04CFA30BD00BF0C
:1005F000FEE7704770B505460C4616462346224670
:1006000029462846FFF7CAFF01490E8070BD000049
:100610000000026051B18200A2F1C042126842F0B3
:1006200001038200A2F1C042136009E08200A2F13E
:10063000C0421268034B1A408300A3F1C0431A6002
:1006400070470000FEFF0F00D0E901121143C2689D
:100650001143026911434269114382691143C2691E
:100660001143026A1143426A1143826A1143C26A0A
:100670001143026B114302689200A2F1C042116063
:10068000816808290BD101688900A1F1C04109687E
:1006900041F0400201688900A1F1C0410A60416B4C
:1006A0000968426B526841EA0211426B926841EA62
:1006B0000221426B928941EA0241426B128A41EA6D
:1006C0000251426B127D41EA0261426B9269114311
:1006D0000268521C9200A2F1C0421160C16AB1F5D9
:1006E000804F1BD1816B0968826B526841EA02110D
:1006F000826B926841EA0221826B128A41EA0251BE
:10070000826B127D41EA0261826B92691143026839
:100710009200A2F1C042C2F8041107E06FF07042EB
:1007200001688900A1F1C041C1F8042170470000AF
:100730002DE9F0430446C56887B0904689460020FD
:1007400001F054FB064625B1287910B146F00200AD
:1007500001E026F0020001F049FB2069012558B1B3
:10076000D4E902128DE82600039563882288046884
:1007700041464846A0471EE0124F134B21463868B9
:100780001B68427CE068984730B9E088012801D0B6
:10079000002001E03868806BA288E388A16800959A
:1007A000CDE90410CDE902320195638822884146E3
:1007B000484602F0E3FB07B03046BDE8F04301F0E5
:1007C00015BB00007C0000207400002010B5002044
:1007D00001F0F8FA6FF07F4001F0F6FA012001F025
:1007E00037FB002001F03CFB002001F043FB002020
:1007F00001F0FCFA0448006801F0FAFABDE8104084
:10080000002001F001BB0000780000202DE9F0413C
:10081000024600250026002000230024002791F82E
:1008200003C00CF00F0591F803C00CF0100CBCF1E4
:10083000000F03D091F802C04CEA050591F800C002
:10084000BCF1000F31D0146800202BE04FF0010CF8
:100850000CFA00F3B1F800C00CEA03069E4220D166
:1008600083004FF00F0C0CFA03F7BC4305FA03FCAE
:100870004CEA040491F803C0BCF1280F06D14FF0F4
:10088000010C0CFA00FCC2F814C00AE091F803C095
:10089000BCF1480F05D14FF0010C0CFA00FCC2F876
:1008A00010C0401C0828D1D31460B1F800C0BCF1BE
:1008B000FF0F34DD546800202EE000F1080C4FF0EB
:1008C000010808FA0CF3B1F800C00CEA03069E42D6
:1008D00021D183004FF00F0C0CFA03F7BC4305FA4B
:1008E00003FC4CEA040491F803C0BCF1280F05D1C5
:1008F00000F1080C08FA0CF8C2F8148091F803C053
:10090000BCF1480F07D100F1080C4FF0010808FABC
:100910000CF8C2F81080401C0828CED35460BDE803
:10092000F081416170470161704700002DE9F04F8F
:10093000DFF828B191B04FF0FF35DBF80030B3F9A4
:1009400022100691DE69B3F924A0F469A1898142DD
:1009500006D8E289824203D3471AD4F8008012E015
:10096000D4E90181002970D00A8882426DD84D886F
:1009700085426AD3801A82B2486800EB8200B0F9DF
:100980000070B0F90250781C5FD0307EA27C014626
:1009900000FB02F9207CCDE90710B3F92A6030464C
:1009A00002F09AFFC0B20E90DBF8001007FB09803E
:1009B000A37C8A6B0127CDE90402CDE90273C869E3
:1009C000089AC17E807ECDE90001DDE9060351462B
:1009D00002F0D4FA681C18D046F0020002F07CFF46
:1009E000DBF80000A37C05FB0981826BCDE9027373
:1009F000CDE90412C069089AC17E807ECDE900016C
:100A0000DDE90603514602F0B9FADBF800005D4665
:100A1000C069417E007E814214D9022E12D086F038
:100A2000040002F059FF2868C069027EC37E857EFB
:100A300002FB03A1437E089A0698534402FB050279
:100A400002F030FC0E9802F047FFDBF80000627CF9
:100A5000418C1144418411B0BDE8F08F7C0000202E
:100A600004480068C069C06909B1027C0A60407C22
:100A7000704700007C000020022008807047C06999
:100A800082898A4202D8C2898A4210D2806880B1A3
:100A900002888A420DD843888B420AD3406800EB13
:100AA0008100A0EB8200B0F90000002801DB0120EA
:100AB00070470020704700002DE9F0432F4C03469B
:100AC00087B020681946B0F92A80C069C06900F073
:100AD00082F800284ED041680088181A01EBC00542
:100AE0004046AE7802F0F8FE814620686A6801232D
:100AF000816BCDE90236CDE90421C169CB7E8A7EC6
:100B0000CDE900230B7EB0F924102A78B0F9220039
:100B100002F034FA2068C069477E067EB7421DD9CC
:100B2000C07E47434643B8F1020F17D000F0FCFBEC
:100B3000804600F0E1FB01F047F921682A78CB6993
:100B4000B1F92200B1F92410DB7E02FB0302CB19BC
:100B5000314402F0A7FB404601F036F9484602F066
:100B6000BBFE20686A78C369B0F922109B7E02FB45
:100B70000311418407B0BDE8F08300007C00002031
:100B800030B50E4C05460B4620682946C069C06941
:100B900000F021F8002810D04168008824682A1A43
:100BA0000120E46900EBC200085CA47E6043002BD6
:100BB00003D011F832106143196030BD7C00002071
:100BC00001200880704700B5C06900F004F80028D3
:100BD00000D0012000BD06E002888A4202D8428887
:100BE0008A4202D280680028F6D17047024901206B
:100BF000096881F8690070477C0000200249096893
:100C000081F8680004F0E2BF7C000020002801D0D9
:100C100004F07EBF704738B50546FFF7F7FF0400C4
:100C200009D000F0B3F82A460021009002F016F92E
:100C3000684600F0DBF8204638BD0000024A10602C
:100C400021F00300506070477C98002010B5002808
:100C500014D004460A48006B10F8341000290DD057
:100C600002290BD2042101EBC4014158486804F069
:100C700013FF2046BDE8104007F0BEBD10BD0000C8
:100C8000C0970020002805D0034A916B016001B194
:100C90004860906370470000C09700202DE9F04144
:100CA000044607F09BFB2848E41C24F00305C16BB5
:100CB0002D1DA94200D90D46846B13E054F8042C75
:100CC000AA420ED184B1216809B162684A606168A4
:100CD00009B122680A60826BA24231D12168816326
:100CE0002EE02468002CE9D18046416B80680F1803
:100CF00057F8040C3E1A306838B1002007F0E6FDC2
:100D000057F8040C3E1A3068D0B97068A84217DB57
:100D10003044441B3046241D07F090FDD8F80810DD
:100D2000491BC8F80810D8F810102944C8F810104A
:100D30007068401B02D0314604F0AEFE44F8045CFB
:100D40002046BDE8F0810000C097002010B50024C7
:100D500007F044FB0C490F2001EBC002126C1AB1E2
:100D600001EBC000006C08E0401EF5D508E04168CA
:100D7000A14200D90C46806810B180680028F6D1E5
:100D8000A4F10C0010BD0000C097002005498A693D
:100D9000521C8A61096B01EBC0010A78521C0A706F
:100DA00000F03CB8C097002010B5FFF7CFFF6422D9
:100DB0000649B0F5800F04D990FBF2F0C9694843A9
:100DC00010BDC9694143B1FBF2F010BDC0970020CE
:100DD0000549102805D94A68B0EB520F02D35008D4
:100DE00000E01020886070477C9800200A49026863
:100DF0000B6B52F8082C03EBC2021378022B03D3BF
:100E00008B690BB15B1E8B611178491E117000213B
:100E10000160084670470000C0970020002806D0F7
:100E20000349042202EBC000096B085808307047E0
:100E3000C097002070B506460D461446104600F0D7
:100E40007BFA0300164804EB84010AD050F8210015
:100E500041688068711A2A1ABDE87040184600F08F
:100E6000D1BF00EB8104A268B24201D0012200E0B0
:100E70000022E368AB4201D0012300E000231A43C3
:100E80000CD0236943B150F82100816840686A1A88
:100E9000311A184600F06CFFC4E9026570BD00000D
:100EA000CC99002010B5C2B2CBB2D21A00D55242B2
:100EB00093B25B43C0F30722C1F30724121B00D592
:100EC0005242000C92B2A0EB114002FB023200B27F
:100ED000002801DA404200B280B200FB002010BDC1
:100EE00010B50021084600F06FFA43F6FF72504239
:100EF000BDE8104013460146AFF300802DE9FC41E8
:100F000007461C4615460E46042002F0E5FC8046C6
:100F10001148C068C16C006D0F4406440D44044480
:100F2000ADF80070ADF80450ADF80260ADF80640C1
:100F3000684604F055F907E023462A46314638460C
:100F400002F0B0F904F00EF90028F5D1404602F0A5
:100F5000C3FCBDE8FC810000700000202DE9F041D9
:100F60001C4616460D460746022B02DB0020BDE854
:100F7000F0811C20FFF792FE0028F8D00DB105612A
:100F80000AE0094A52F8241009B905E011460A6836
:100F9000002AFBD109690161846186820021016018
:100FA0004160C0E90217E2E79400002070B51D46D9
:100FB000FFF7D4FF040009D000F00EF8E0680068E5
:100FC00020B90348006800EB85008465204670BDA9
:100FD0007C000020FFF756BE70B590B38269022AEC
:100FE00030DA1E4C54F8221019B944F8220032E0CD
:100FF00019464B68002BFBD106E0CB68C5681B681F
:101000002D68AB4203DD09680029F6D11AE0C1B1B1
:10101000CB68C6681B683668B3420CD1838A012B43
:1010200005D008E01946DB681B68AB4203DB0B68A0
:10103000002BF7D129B14B6833B118604A68426080
:1010400004E0FFE7012070BD44F8220048608842B8
:1010500000D100210160002070BD0000940000203C
:1010600008F04EB8022801DB00207047054951F80E
:10107000200004E0C16809680029F6D00068002853
:10108000F8D170479400002070B5044601F08AF949
:10109000051908E000F0BCF8052C01DD052000E092
:1010A000204601F071F901F07DF92C1A002CF1DCD9
:1010B00070BD00002DE9FC4706005BD000F046F94A
:1010C0003B4C81462068B0F9228000F055F9216838
:1010D00007468A8CD01B888441E000BF47F6FF7129
:1010E000304601F03BFD82460146304601F00CFDE2
:1010F0002168054691F82C0000F0030001283FD03C
:10110000022839D000204A8C101A4884ADF800001B
:101110006A1E1044ADF80400888CADF80200A9F1F5
:1011200001010844ADF806006A465146304601F018
:10113000BBFA2168BDF8020088845146304601F0B0
:1011400003F8064430780A281CD00D281AD0BDF8C0
:101150000000216828444884307818B1761C307823
:101160000028BBD12068818C39448184818D21F095
:1011700003018185BDE8FC8705EBD5704010C2E70F
:101180002846C0E7206890F82C1001F003010129DF
:101190000BD0022909D0018C418431780A29DBD196
:1011A000828C02EB09018184D6E7A0F82280F4E763
:1011B0007C000020024B1B6859849A84FFF77ABF99
:1011C0007C0000207CB5064610480068C36C006DAA
:1011D0005D1884183188681E0844ADF80400ADF825
:1011E00000507188601E0844ADF80600ADF802405A
:1011F000684603F0F5FF06E0224629463046FFF731
:1012000097FA03F0AFFF0028F6D17CBD7C000020E8
:1012100010B5002400E0012400F004F80028FAD101
:10122000204610BD064810B50068002410B1804764
:1012300000B1012403F0D4FA00B10124204610BD0E
:101240009C00002008B50B46002805D0009281883C
:101250008268C08800F001F808BD10B50828029C1B
:1012600030D008DC04FB01F401280AD0022813D096
:10127000042804D11CE0102828D020282CD00020DD
:1012800010BD04EBD30003F00701105CC1F10701AE
:10129000C84000F0010010BD04EB93000621105C73
:1012A00001EA4301C1F10601C84000F0030010BD8E
:1012B00004EB5300D907105C02D000F00F0010BD02
:1012C000000910BD04FB0130105C10BD481004FB88
:1012D000003032F8100010BD881004FB003052F8C6
:1012E000200010BD034951F82000C1688A6A082116
:1012F000104700009400002010B502F06DF8BDE822
:10130000104002F03BB9000002490968C9694A6807
:10131000002110477C000020024A1268D2695268FE
:10132000104700007C00002010B502F05DF8BDE819
:10133000104002F023B900000021022802D2024925
:1013400051F8201008467047E80100200248006864
:10135000C069407E704700007C00002070B51446D4
:101360000D4602F0ADF8002802D000202860206071
:1013700070BD01F00FBC00000A490020096891F817
:101380002C2002F00C02042A07D0082A01D00C2AD3
:1013900002D1C869007E40087047C869007E401EBF
:1013A000704700007C000020024951F820000069CD
:1013B0000068704794000020024951F8200000693D
:1013C000406870479400002070B50D4606F03AFF63
:1013D0000446284606F03EFF204370BD124810B573
:1013E000016821F00101016010480121816010496C
:1013F000016000680F49884200D0FEE701F03AF929
:101400000D492E20087000F0D3FF0C4806F098FF1D
:1014100008F02CFB04460021084600F0FDFC03F018
:1014200003FC204610BD0000002000E00030024018
:10143000C2A507F4CDB5E8B570000020889800205B
:101440001CB520B90C480068006E002812D0FFF7C8
:101450009DFC009044696846FFF7C8FC002C09D049
:101460002046FFF793FC019081688968884701A8AE
:10147000FFF7BCFC1CBD00007C00002001490A46AF
:1014800000F002B801F0FFFF2DE9F04387B01546E8
:101490000C465FEA000842D0002000F0A7FC81461D
:1014A00020480068066E4046FFF770FC0090006818
:1014B000806900F075FC074640F6FF70001904D102
:1014C0000098B0F90440B0F906500098611E0289F6
:1014D000ADF804401144ADF808104189681E084475
:1014E000ADF80650ADF80A0002F0EEFF6846FFF7CF
:1014F0007DFC01A803F074FE06E02A462146404622
:1015000000F036FB03F02EFE0028F6D1384600F03E
:1015100047FC304600F052F9484600F067FC07B03F
:10152000BDE8F0837C0000202DE9FE4F834619487A
:101530008A46194900680C9E9846407C91460027CF
:1015400051F82040E1680968042903D02468002C80
:10155000F8D100E014B9FFF785FD04460121E068E9
:10156000C26A20469047050011D02469A0688047D0
:10157000401C02D1094C46F001060096CDE9015409
:1015800043464A465146584600F09CF907463846BD
:10159000BDE8FE8F7C0000209400002028F30008A6
:1015A00038B5040018D00D480068006EA04201D183
:1015B00000F0ECFB2046FFF7E9FB0090406908B122
:1015C00000F0B9FE00980068FFF704FD6846FFF7D9
:1015D0000DFC2046FFF73AFB38BD00007C000020E0
:1015E0002DE9FF4F0746464883B099460068DDF86D
:1015F00040B08A46447C434800570128204606DD17
:1016000001F086FF8046204601F08EFF05E001F0E4
:101610006DFF8046204601F06FFF044617B302A914
:1016200001A8FFF7A6FEB7F90060002E00DA002639
:10163000B7F90250002D00DA00250199B7F904002E
:101640004144491E06F05FFF804602980119B7F930
:101650000600491E06F057FFA8EB0602441B521C69
:10166000641C02E0002635464246B9F1000F01D164
:10167000C4F10009002A01DD002C03DC002007B0C2
:10168000BDE8F08F4B4629463046CDF800B0FFF755
:101690004BFF5FEA000909D000F056F88046484643
:1016A00000F08CF80027DFF860B01FE05146059885
:1016B00088470120E3E7E11B414502DA484600F094
:1016C00067F83FB1EA193146484600F099F84846B4
:1016D000FFF7B6FE514605988847DBF8001009B1C0
:1016E000002088474846FFF7C9FE4744A742E2DB8F
:1016F0004846FFF755FF002000F060F8BEE7000005
:101700007C000020B0000020FC01002038B500243F
:1017100060B1FFF73BFB009000680069806880477C
:1017200002F082FA04466846FFF760FB204638BDA7
:1017300038B5FFF72BFB00F1180400906846FFF75F
:1017400055FB204638BD000038B5002418B90748BD
:101750000068006E38B1FFF719FB0090B0F90A403D
:101760006846FFF743FB204638BD00007C000020A0
:1017700070B505460024284604F03CFB641C18B1F3
:10178000BDE8704000F068B8052CF4DB70BD0000C7
:1017900038B50C4620B908480068006E00280AD009
:1017A000FFF7F4FA0090B0F90A10A14200DD44817D
:1017B0006846FFF71BFB38BD7C000020F8B50F4ED4
:1017C00005003068046E16D00CB100F0DFFA02F0AC
:1017D00067FF2846FFF7DAFA009031680D66006867
:1017E000FFF7FAFB6846FFF701FB02F0D3F802F0BF
:1017F00053F82046F8BD00F0C9FAFAE77C00002053
:101800007CB515460C4620B912480068006E0028C9
:101810001FD0FFF7BBFA2DB20090C58024B28480A0
:1018200002F03AF80098406980B1FFF7AFFA009AE9
:101830000190B2F908108180B2F90A20C28011B17A
:101840000AB10480458001A8FFF7D0FA6846FFF787
:10185000CDFA7CBD7C00002001490A4600F002B8A8
:1018600001F0FFFF7FB515460C46060028D0FFF7B4
:101870008DFA40F6FF710190091903D1B0F90440C7
:10188000B0F906500289611E1144ADF80840ADF868
:101890000C104189681E0844ADF80E00ADF80A50DE
:1018A00001A8FFF7A3FA02A803F09AFC06E02A4673
:1018B0002146304600F044F903F054FC0028F6D1EC
:1018C0007FBD00002DE9FF4FDFF8E0B083B01C467C
:1018D000DBF80010DDE91060924600274B7C3A46A9
:1018E0001299FFF73BFB05005DD0286980688047AF
:1018F00002F09AF981460AFB09F0C01D4FEAD008B0
:10190000FFF752FAF10705D1C11700EB9170801073
:1019100000EB4000002C06DC1838B0FBF8F0644205
:10192000A04200DC0446F00707D10090DDE9030186
:101930002346524600F088FC0746002C03DC28466C
:10194000FFF748FB2FE004FB08F01830F10702D046
:10195000FFF75CF901E0FFF75EF906001CD0FFF726
:1019600015FA01900560039981800499C180A0F85F
:1019700008A04481C0F80C80C0E9049701A8FFF7D3
:1019800035FA1298AE602861DBF80000407CA8614F
:10199000304607B0BDE8F08F2846FFF71BFB17B1B4
:1019A0003846FFF753F90020F3E700007C000020E1
:1019B0002DE9F74F8EB0144689460E98FFF7E6F9E9
:1019C0000990B0F908B0B0F90A6000680069406891
:1019D0000C9009A8FFF70AFA564D574F2868407C2B
:1019E00057F82000C1688A6A082190470790182894
:1019F00001D3202007902868407C57F82000006918
:101A0000069003C80B904D48814201D0012000E0B0
:101A100000200A90002000F0CCFC00287DD128682E
:101A200009EB0B01B0F90C20891A491E002902DDCF
:101A3000ABEB010500E05D46B0F90810494505DD56
:101A4000A1EB090189446D1A089101E00021089178
:101A5000002D6BDDB0F90E20A119891A491E00294D
:101A600002DDA6EB010800E0B046B0F90A00A04292
:101A700004DD061B3444A8EB060800E00026B8F19C
:101A8000000F53DD089801900DA95F46DDF830A0E6
:101A90000E980091FFF74CFE774300EB8701019809
:101AA0002B4601EB800200994846CDE900A1214672
:101AB00000F052FE0090002838D00A98E8B1DDE925
:101AC00006322946009800F023FDB0B90698009F21
:101AD000DA46D0F810C0BCF1000F05D004235A46F6
:101AE00039463846E04708E00B993868884701C70F
:101AF000AAF101005FEA000AF6D100990020079AD6
:101B0000CDE90301059001200090CDE901022146B5
:101B10000346641C2A46484600E007E001F02EFA1E
:101B2000A8F10100761C5FEA0008ABD111B0BDE856
:101B3000F08F00007C000020940000209B350008FE
:101B4000F8B515460E460746FFF720F900900068E5
:101B50001621C068426A0020904704466846FFF795
:101B600045F9002C03D02A4631463846A047F8BD37
:101B7000F8B515460E460746FFF708F90090446988
:101B80006846FFF733F93846FFF7C0FD03460828DB
:101B900000DD2CB12A463146384607F0D1FAF8BDAF
:101BA0002A463146384607F06BFCF8BD10B50028D0
:101BB00021D009B30AB3B1F90040B2F900309C4218
:101BC00000DA23460380B1F90240B2F902309C42A8
:101BD00000DA23464380B1F90440B2F904309C4254
:101BE00000DD23468380B1F90610B2F90620914248
:101BF00000DC1146C18010BD11460A6802604968C8
:101C0000416010BD00280BD003880B4403808388FB
:101C100019448180418811444180C1881144C180A8
:101C20007047000070B50E4D0446D5E900018842AA
:101C300009D10C49884201D13C3000E00C3807C87A
:101C400084E8070006E090E80E0084E80E0006F045
:101C500017FB2860207A002800D0012070BD00000A
:101C600014020020F49900200448D0E900108142B9
:101C700001D10120704700207047000014020020AD
:101C8000054A10B50349116007F058F9BDE8104046
:101C900000F0FAB8B9480008A000002070B5094C5F
:101CA0000020D4E900218A420AD0D2E90056104629
:101CB00006F0F0FA20603146284603F099F801203A
:101CC00070BD0000DC0100202DE9FC41154DDDE96F
:101CD00008742D68B5F90860864200DD3046B5F914
:101CE0000C60964200DA3246824219DBB5F90A608E
:101CF0008E4200DD3146B5F90E509D4200DA2B468A
:101D00008B420DDB00E02C46E5682D6825B1042DE3
:101D100002D02568002DF6D1CDE9007401F0A6FCB3
:101D2000BDE8FC817C000020B0F90220B1F906304A
:101D30009A4213DCB1F90220B0F906309A420DDC68
:101D4000B0F90020B1F904309A4207DCB1F9001073
:101D5000B0F90400814201DC012070470020704787
:101D60000146024870220068FEF724BB7C00002078
:101D7000002801D006F02CBF7047000002497022F5
:101D80000968FEF717BB00007C00002010B501F0C9
:101D900039FD01F0FFFDBDE8104002F095BB0000E9
:101DA00070B504460548022C0068457C02D2447494
:101DB000FFF7ECFF02480460284670BD7C0000205D
:101DC0004001002001F03EBD01F074BD034A6FF0F8
:101DD00070411268116301F073BD00007C000020A7
:101DE00001498860704700007000002001F074BD58
:101DF00003490968CA6900B1C8611046704700000C
:101E00007C00002001F084BD024909688A7E887642
:101E1000104670477C000020094A30B41080094AFF
:101E20001180094A1268537C084A52F82330DA6854
:101E3000146A0A46A446014630BC184660470000B2
:101E4000B8000020BA0000207C0000209400002090
:101E5000024909680A7E0876104670477C00002017
:101E600003490968B1F92C208885104670470000A5
:101E70007C00002003490968B1F92A2048851046F2
:101E8000704700007C00002002480068002800D055
:101E900000477047F001002002498A6802B9886053
:101EA000FFF7F2BFDC01002010B5040009D006F0F6
:101EB000DFFC204607F0FCF82046BDE81040FEF7A6
:101EC000C5BE10BD38B50C4660B1FEF75FFF00908F
:101ED0008089204201D0012400E000246846FEF7FA
:101EE00085FF00E00124204638BD000038B50546D6
:101EF000002028600648046844B12046FEF746FFEB
:101F00000090006928606846FEF770FF204638BDE3
:101F10001C02002038B504004FF000000D46086098
:101F200011D02046FEF732FF0090846844B1684625
:101F3000FEF75CFF2046FEF729FF0090006928604D
:101F40006846FEF753FF204638BD00002DE9F047F4
:101F50004D4D4E4E0024E86950B968683460746095
:101F6000B46010F0060FF46006F0ACFD0120E861EB
:101F70002878C8B100F0CEF8A846286100F0C8F86B
:101F80002969286A81420BDBD8F824204046914217
:101F900006DC836A42699A4202DBC36A9A420DDD1B
:101FA0004FF0FF3001466AE000F0B6F8686100F0DB
:101FB000B0F82878401C2870BDE8F087326898F89F
:101FC0001800334F8D1A40073868407C02D401F066
:101FD0009FFA01E001F0A8FA401E4543D6E900202F
:101FE000B146801A95FBF0F6D8F81420D9F80810FD
:101FF00098F81800551A40073868407C02D401F060
:1020000093FA01E001F084FA401E4543D9E9020148
:10201000081A95FBF0F598F8180040073868407CDE
:1020200017D401F075FA81463868407C01F07CFADB
:10203000D8F818200146D00703D0A9EB0600401EAF
:1020400000E03046920702D5491B491E17E0294699
:1020500015E001F069FA81463868407C01F058FAD1
:10206000D8F81820D10703D0A9EB0601491E00E0DB
:102070003146920702D5401B401E00E0284606F07C
:1020800089FF88F8004097E7BC000020F8980020FE
:102090007C000020074A002806DB002904DB01231E
:1020A0001372C2E9000101E000201072014800F043
:1020B00003B800007899002010B504460C220849A6
:1020C000FEF7C5F8002809D0054894E80E0080E81E
:1020D0000E002046BDE81040FFF7D2BD10BD000045
:1020E0003C9A0020094B30B41A68821A00D552423B
:1020F0005C680C1B00D564422244022A04DDC3E95B
:10210000000130BCFFF7C6BF30BC7047180100208B
:102110007047704700207047002070472DE9F0415C
:10212000084E044605683068016828468847074617
:102130003068416828468847284420603846BDE812
:10214000F0810000800000202DE9F0410C46064699
:102150000025064F05E03868416830468847064448
:102160000544641EF7D22846BDE8F08180000020B7
:102170002DE9F0411E46069C1746884605463A461C
:10218000A8687F1C3346D0F804C041462846E04783
:10219000641EF4D1BDE8F08170B5B0F90040091BB0
:1021A000B0F904408C422CDD00F11404B0F9025067
:1021B0000069521B02FB0040CA1800EBE104521EEA
:1021C000D010B0EBE10501F007034FF0FF0102F082
:1021D000070221FA03F0C2F1070201FA02F1CEB2BE
:1021E00021780FD001436D1E04F8011B002D05DD81
:1021F000FF2229462046FEF70FF92C442078304371
:10220000207070BD30400143217070BD10B5B0F931
:102210000030B0F90240C91A00F114030069121B22
:1022200002FB003000EBE10001F00703027880219F
:10223000D9400A43027010BDB0F90610026951433B
:102240001430FEF7F1B800002DE9F843804602F1A2
:102250000F000011470003FB07F01C461546894696
:102260001430FEF7D8FC060013D0FEF78FFD009067
:10227000A0F80080A0F802908580C48006498160A3
:102280000121818107616846FEF7B0FD3046BDE857
:10229000F8830020FBE70000B4F3000870B5B0F944
:1022A0000660B0F904400B6800F1140596421BDD8E
:1022B0000069A34202FB005000EBE30214DA641E43
:1022C000E010A0EBE30512F8010B03F00704A040B7
:1022D000C4B206E045B1083312F8014B23F00703FE
:1022E0006D1E002CF6D004E0002070BD6006040EC8
:1022F0005B1C2006FAD5FF2C07D0184602E06406C6
:10230000240E401C6606FAD400E0D81DC4436407BE
:1023100005D006E012F8014BFF2C09D108306D1EE4
:10232000F8D5C01A401C0B6070BD6206140E401C2C
:102330002206FAD4F5E738B50546FEF727FD0090EA
:102340008189491E0CB284816846FEF74FFD002C3E
:1023500002D12846FEF77AFC38BD000010B54FF4D4
:102360000C41002007F0A2FC04464FF40C4120462B
:10237000FEF764FC8020FEF72BFD0248FFF730FDDE
:1023800010BD00006CE40008044A1268111800BF78
:10239000024A12688A1A002AFADC70470C000020F0
:1023A0007047000001480068704700000C000020E2
:1023B00070470EB508B102AA00E00022002301A96F
:1023C000684600F053FB0EBD074910B5CC6818B144
:1023D0000120C860801E03E00020C8606FF07F40CD
:1023E00000F0B6FD204610BDF800002010B5082A08
:1023F0000EDC0346012A18D0022A56D0042A76D0D1
:1024000010F8042B03F8012B491EF9D1012010BD4F
:10241000102A08DC4FEA000230F8043B22F8023BA5
:10242000491EF9D1F2E7002010BD10F8042BD207A5
:10243000120E491E34D010F8044B491E04F001045A
:1024400042EA84122CD010F8044B491E04F0010417
:1024500042EA441224D010F8044B491E04F001044F
:1024600042EA04121CD010F8044B491E04F0010487
:1024700042EAC40214D010F8044B491E04F00104CF
:1024800042EA84020CD010F8044B491E04F0010407
:1024900042EA440204D010F8044B04F00104224341
:1024A00003F8012B0029C0D1B0E710F8042B9207E4
:1024B000120E491E15D010F8044B491E04F00304F7
:1024C00042EA04120DD010F8044B491E04F0030434
:1024D00042EA840205D010F8044B04F003042243BE
:1024E000491E03F8012B0029DFD18FE7FFE710F821
:1024F000042B1207120E491E05D010F8044B04F0ED
:102500000F042243491E03F8012B0029EFD17DE778
:102510002DE9F0411E680D460446082A09DC0746ED
:10252000012A1AD0022A5BD0042A7DD0082A13D1AE
:102530008DE0102A07DCD3F810C00746BCF1000F6D
:1025400004D0022389E00020BDE8F08101CCB0472F
:1025500027F8020B6D1EF9D18AE001CCB047C00705
:102560004FEA10686D1E36D001CCB04748EA8010A3
:1025700000F0FF086D1E2ED001CCB04748EA401095
:1025800000F0FF086D1E26D001CCB04748EA0010CD
:1025900000F0FF086D1E1ED001CCB04748EAC00015
:1025A00000F0FF086D1E16D001CCB04748EA80004D
:1025B00000F0FF086D1E0ED001CCB04748EA400085
:1025C00000F0FF086D1E06D001CCB04740EA0800BD
:1025D00000F0FF086D1E07F8018B002DBDD147E00C
:1025E00001CCB04780074FEA10686D1E16D001CCB1
:1025F000B04748EA001000F0FF086D1E0ED001CC75
:10260000B04748EA800000F0FF086D1E06D001CCFC
:10261000B04740EA080000F0FF086D1E07F8018B84
:10262000002DDDD124E0FFE701CCB04700074FEAE1
:1026300010686D1E06D001CCB04740EA080000F0DB
:10264000FF086D1E07F8018B002DEDD110E0D3F8C7
:1026500010C0BCF1000F05D001230A4601463846E0
:10266000E04705E001CCB04707F8010B6D1EF9D13A
:10267000012069E70A4810B5816900290ED10121BE
:102680008161FFF76BFE01F097F9054905481C31A0
:102690000860BDE81040084600F0A0BB10BD000077
:1026A00070000020D18500087CB5064628480D46FC
:1026B000006868B1002002F093FD06E06A462946F2
:1026C000304603F05FFC02F04DFD0028F6D17CBDE2
:1026D000106800901F4C506801902268BDF80000FF
:1026E00032F84C1F0844ADF80000BDF80200918894
:1026F0000844ADF80200BDF8040011880844ADF8A4
:102700000400BDF8060091880844ADF8060068464C
:1027100002F066FD0EE000BF2068BDF800106A46BA
:102720004184BDF8021081842946304603F02AFC1A
:1027300002F018FD0028EFD1206830F8221F428DEA
:10274000891A01804188C28D891A41807CBD0000B0
:10275000B40000207C0000202DE9FF4F8DB0002048
:10276000DDF86CA0164600901D4604460246CAF8E5
:10277000000008AB03A902A800F078F918B1002006
:1027800011B0BDE8F08F0898854200DD0546614F25
:102790000B9561493868407C51F820100491096913
:1027A0000691FEF79FFD05903868407CFEF704FE19
:1027B0005A498146884204D05949894501D00120AF
:1027C00000E000200A9001CE1A9988478346000E47
:1027D000079077D0009870BB0D9800EB04084D4827
:1027E0000068B0F90800404503DDA0EB080780460B
:1027F00000E000270298049900EB840000EB8700BA
:10280000CDE900010B990D98421809920E9B4046A4
:102810001946521EFFF758FA012000900598182813
:102820000ADA0298DDE9052300EB840000EB87005B
:10283000E91B00F079F812E00A9880B1029800EBE9
:10284000840000EB87070998A0EB08084946386820
:10285000884701C7A8F101005FEA0008F6D13148B6
:10286000C06980B3DDE9020700EB840007EB840256
:10287000CDE902022B4C361F3046E4692B46029903
:10288000A047FF213068B1EB106F02D102980068B9
:1028900004E0029A1268B1EB126F01D1039A106042
:1028A000029806F10406001D02900398001D039093
:1028B0006D1EE7D10397DAF8000040F00101CAF875
:1028C000001020E021E0FFE70798FF2811D0C0F1B9
:1028D000FF02029850F82410584600F027FA039996
:1028E00041F82400DAF8000040F00101CAF80010B5
:1028F00005E00298039950F8240041F82400641C74
:102900006D1E7FF460AF03983AE7039941F824B055
:10291000E8E700007C000020940000209B350008C0
:10292000993500089C0100202DE9F05F0C1E16DD92
:102930005E68014600EB8405082A12DC611E012A4C
:1029400026D0022A47D0042A6AD0082A07D10719BC
:1029500017F8010DB04745F8040D641EF8D1BDE825
:10296000F09F102AFBDC5F693FB12246BC46BDE800
:10297000F04F02235DF804EB604701EB440700BF12
:1029800037F8020DB04745F8040D641EF8D1E6E7AC
:1029900000EBE10001F0070710F801A98146802053
:1029A00020FA07F8B5F104050AEA0800C7F10701A3
:1029B000C840B04745F804093FB14FEA48604FEAC4
:1029C00010687F1E641EEFD1C9E719F801A9072717
:1029D0004FF00108F6E700EBA10001F0030710F843
:1029E00001A981467900C02020FA01F84FF0060BBA
:1029F000B5F104050AEA0800ABEB4701C840B0474F
:102A000045F804093FB14FEA88604FEA10687F1E1D
:102A1000641EEFD1A3E7032719F801A9B846F7E729
:102A200000EB6100012710F801A9A7438146B90016
:102A3000F02020FA01F84FF0040B2D1F0AEA0800DD
:102A4000ABEB8701C840B04745F804093FB14FEAF6
:102A500008704FEA10687F1E641EEFD17FE719F8F7
:102A600001A901274FF00F08F6E700002DE9F04714
:102A7000224C06461F46A06990468946002540B96B
:102A80000120A06104F120011D480860084600F003
:102A9000A5F9606930B91B480068606110B900F0A1
:102AA00028FD606107B138604EB1A06830B9606937
:102AB0008000FEF7F3F8A06000B901253060B9F19D
:102AC000000F0AD0E06830B960698000FEF7E6F8D0
:102AD000E06000B90125C9F80000B8F1000F0AD084
:102AE000206930B960698000FEF7D8F8206100B92C
:102AF0000125C8F800002846BDE8F0879C010020A9
:102B000045860008A800002073B5124A01A9009864
:102B10001268904700240090C8B10F490025096849
:102B2000C969496959B10A684AB1019990477CBDA0
:102B30006846FFF7F3FA0546FEF7E6FB0444019802
:102B4000401E0190F4D5284600F032F80444204697
:102B50007CBD0000D80100207C00002073B50D462C
:102B60000098002490B10A490968C969496959B1B6
:102B70004A684AB1294690477CBD6846FFF7CEFABD
:102B800020B10A2802D0641CAC42F6DB20467CBD92
:102B90007C000020044AB2F9002002600348B0F92A
:102BA0000000086070470000B8000020BA00002054
:102BB00038B5002469460094FEF7AEFB00998142C7
:102BC00000DD0C1A204638BDB0F90030B1F9002004
:102BD000934200DA0280B0F90230B1F90220934248
:102BE00000DA4280B0F90430B1F90420934200DDEC
:102BF0008280B0F90620B1F906108A4200DDC1805A
:102C0000704770B5B1F90040B2F900309C4200DD68
:102C100023460380B1F90250B2F90240A54200DD1B
:102C20002C464480B1F90460B2F90450AE4200DA97
:102C300035468580B1F90610B2F90620914200DBD5
:102C40001146C1809D4201DBA14201DA002070BD26
:102C5000012070BD014602480068407C00F002B8C7
:102C60007C0000202DE9F84301260446894602280D
:102C700057DADFF8B480080008F1040530D00128E5
:102C800002D002294DD116E055F8240088B920461B
:102C9000FEF7E8F9009010B3C0680D21426A68465B
:102CA000904702003DD049460098904755F82400CF
:102CB0000026401C33E02046FEF7D4F9009070B1A6
:102CC000C0680D21426A68469047040029D0D8F8B0
:102CD000000000B1804749460098A047002620E048
:102CE00055F82400012813D12046FEF7BBF90090C7
:102CF00070B1C0680D21426A68469047070007D04E
:102D0000D8F8000000B1804749460098B84700262F
:102D100055F8240008B1012100E00021401A45F8CF
:102D200024003046BDE8F883C401002070B5FF23BD
:102D3000B3EB116F29D0C3B200F47F4500F47F04D8
:102D4000060E5343554354435643C2F1FF00CAB2E3
:102D500002FB003201F47F4303FB005301F47F05C3
:102D600005FB0044090E01FB0065C2F307204FF488
:102D70007F4101EA1322090201EA14214FF07F4347
:102D8000104303EA05430843184370BD2DE9F04F93
:102D90000646DDE90CB915460C460020804658452C
:102DA00019D20B9F4FF0FF0A01CE08CCAAEB10629C
:102DB00002FB09F2B2FBFAF1CAB21946FFF7B6FFFD
:102DC00020F07F4001C57F1EEED1099804EB8004FE
:102DD00008F10100E2E7BDE8F08F000002494A690E
:102DE0004260486170470000700000202DE9F0410A
:102DF000184C06460D46206898461746B0F90A104A
:102E0000A94224DCB0F90E10A94220DBB0F9081069
:102E1000B1421CDCB0F90C00B04218DB2946304648
:102E200000F016FB01463A464046FFF77FFF00F0F0
:102E300097F8034620682A46417C074850F821004D
:102E4000C1688C693146A446BDE8F0416047BDE8E1
:102E5000F08100007C0000209400002010B502E00A
:102E600000F8011B521E0AB18307F9D1930818D04C
:102E700001EB014402F0030204EB042406E010C05D
:102E80001B1F10C040F8084B40F8044C042BF6DA26
:102E900001E010C05B1E002BFBD102E000F8011B1B
:102EA000521E002AFAD110BD10B5830702D520F8B2
:102EB000021B521E530811D001EB0144042B09DB05
:102EC00010C01B1F10C0042B40F8084B40F8044CE6
:102ED000F6DA01E010C05B1E002BFBD1D20700D058
:102EE000018010BD30B502460B462A2002F0CAFD13
:102EF000101202F0CBFDD0B202F0C8FD101202F0A9
:102F0000C5FDD0B202F0C2FD2B2002F0BBFD1812AD
:102F100002F0BCFDD8B202F0B9FD181202F0B6FD05
:102F2000D8B202F0B3FD2E2002F0ACFD06480488B2
:102F30000488058804F4784004F0FC0140EAC100EC
:102F400040EAE524204630BD0000026000BFFEE7F5
:102F500002490A68086010467047000024010020FA
:102F60000449054A0968497C52F821100969096831
:102F7000084700007C000020940000202DE9F04F5D
:102F800005468DB07B48DDF860901A9C00681E46AF
:102F900017464FF0000A78B11B9B199ACDF808909C
:102FA0000593CDE90324DDE91623CDE90023046868
:102FB00033463A46284680E0DDE9160201EB060872
:102FC00005EB070C1043A8F10108ACF1010C012836
:102FD00006D0C9F108000590002002910990C6E0D2
:102FE00065480268B2F90A30581A002806DD361A18
:102FF000002E63DD1946199B00FB0344B2F90E0055
:10300000A8EB0000002802DD361A002E56DDB2F9CA
:103010000C00ACEB0000002800DD3F1AB2F90830CC
:103020000020AB4235DD581B3F1A4B46B9F1080F63
:1030300026D006DC012B0BD0022B11D0042B28D17B
:1030400016E0102B1ED0182B1FD0202B21D11CE0F6
:1030500020F0070304EBE0041D4400F0070018E033
:1030600020F0030304EBA0041D4400F0030010E073
:1030700020F0010304EB60041D4400F0010008E0AF
:10308000044404E004EB400401E004EB8004054444
:103090000020002F12DD1B9BDDF864C0CDE9040386
:1030A000CDE90069CDE902C4527C34483B4650F872
:1030B0002200C26854680A462946A0470DB0BDE800
:1030C000F08F1799029808440C902B49401E0090ED
:1030D0000A68B2F90A30834241DCB2F90E10029854
:1030E00081423CDB4FF0000BD84603950A9434E054
:1030F000BBF1000F05D10A984FF0080B10F801AB97
:103100000A900599ABEB090B3AFA01F00AFA09F1BA
:1031100001F0FF0A04D118490968097C890716D40F
:1031200015490968C96B0A680B921B9A0AB152F8D3
:103130002000086016990398009B4218521E0299BD
:1031400000F0B0F80C490B980968C96B0860039946
:10315000169808F1010808440390B845C8DB09989F
:10316000401C09900C980290199804440998B042A8
:10317000A7DBA3E7B40000207C000020940000201F
:10318000F0B40C4612490968B1F90A30A3421CDCBC
:10319000B1F90E30A34218DBB1F90830834200DDEB
:1031A0001846B1F90C30934200DA1A4682420CDB21
:1031B0004B7C084951F8235013462246E9688E6833
:1031C00001462846B446F0BC6047F0BC704700009A
:1031D0007C000020940000200A46174930B409689A
:1031E000B1F90A30934225DCB1F90E30934221DB6C
:1031F000B1F9083083421DDCB1F90C30834219DB90
:103200000B7C0E4CDB0709D0497C54F82130D9687F
:10321000CC690146A44630BC18466047CB6B497C5C
:103220001B6854F82140E1688D6901462046AC4690
:1032300030BC604730BC70477C0000209400002008
:1032400000B597B00121080200F006FF02200190AE
:103250000020029005200390002004900590069025
:103260004FF08050079000200890099008200A90A5
:1032700010200B9000200C900E900F9010904FF4A7
:1032800080501190002012901390149001A8159076
:10329000169008A8FDF7D8F901210020FDF7BAF92A
:1032A00017B000BD38B5134C2468B4F908508542F6
:1032B00000DD2846B4F90C50954200DA2A468242D5
:1032C00017DBB4F90A508D4200DD2946B4F90E50DF
:1032D0009D4200DA2B468B420BDB0093647C064B4D
:1032E00053F82440E3681D6913460A460146204608
:1032F000A84738BD7C0000209400002008B50121BB
:103300007C2000F0C9FE10208DF8030003208DF80A
:1033100002004FF40050ADF8000069462A48FDF75E
:1033200075FA4FF48050ADF8000069462648FDF765
:103330006DFA03208DF8020018208DF803004CF27E
:103340000370ADF8000069461F48FDF75FFA4FF6BD
:103350008070ADF8000069461C48FDF757FA102050
:10336000ADF8000069461848FDF750FA2020ADF886
:10337000000069461448FDF749FA8020ADF80000C6
:1033800069461148FDF742FA4FF40060ADF80000BD
:1033900069460D48FDF73AFA4FF480510A48FDF7A7
:1033A000C2FA10210848FDF7BEFA20210648FDF7B1
:1033B000BAFA4FF400610448FDF7B5FA80210248DB
:1033C000FDF7B1FA08BD00000014014000180140EB
:1033D000082104F059BE000002480068806B0068B4
:1033E000704700007C00002002480068C06B006845
:1033F000704700007C000020024809210068407CE2
:1034000004F042BE7C000020092104F03DBE70B5EE
:1034100000252C462046FDF725FE00B16D1C641CDE
:10342000022CF7DB284670BD02480068407C00F0A3
:1034300003B800007C00002010B5FDF713FE002843
:1034400005D0C168CA6ABDE810400221104710BD0E
:1034500010B500F005F8BDE8104000F08FB800008E
:103460002DE9FC41144E0546144F30680C46407C53
:1034700057F82000C1680A6B69469047BDF9000003
:10348000A8420BDCBDF90400A84207DBBDF902002D
:10349000A04203DCBDF90600A04202DA0020BDE82C
:1034A000FC8130682246407C57F82000C1684B6997
:1034B00029469847F3E700007C0000209400002094
:1034C000F8B515460E460124FDF7CCFD009058B125
:1034D000C0680421426A68469047030004D02A4627
:1034E00031460098984700242046F8BD032104F097
:1034F000CBBD032004F031BE042104F0C5BD0000A3
:10350000024801210068407C04F0BEBD7C00002020
:10351000012104F0B9BD0000024802210068407C8E
:1035200004F0B2BD7C000020022104F0ADBD00F02B
:1035300001B800002DE9F041002809D0876837B1B3
:103540000D4E716819B10468B4F5807F02DD00206A
:10355000BDE8F0813068844200DD0446002507E0C4
:1035600057F82500FFF7FCFC716841F825006D1C39
:10357000A542F5DB7068EBE7280100200449054A05
:103580000968497C52F82110096949680847000018
:103590007C000020940000207047704710B500F0B8
:1035A0001F01074A074BC0F34514C0F3C4201B5D3D
:1035B000105C515C00EB032000EB014010BD0000EB
:1035C0008CEF0008ACEF000810B50A4C606860B9D9
:1035D00020688000FDF762FB606040B104F10801E3
:1035E000054808600846FFF7F9FB002010BD0120E0
:1035F00010BD000028010020FD8500082DE9F041E4
:10360000FFF705FF0746002528E02846FDF72AFDBD
:1036100018B32846FEF7C4FB80462846FFF7D8FEBD
:10362000082817DC0F48104950F825000069884227
:1036300010D02846FFF7E8FE0646002408E0E0B276
:10364000FFF79CFF0246E1B2284600F04BF9641CEC
:10365000B442F4DB4046FEF7A3FB6D1CBD42D4DB55
:10366000BDE8F0819400002010F300082DE9FF4F21
:1036700083B01646DDE910408B46C0684769426A50
:103680007AB1012111A8904705000AD00698CDE92A
:10369000000433465A4603991198A84707B0BDE87D
:1036A000F08F57480068407CFDF71CFE82460828D2
:1036B00001DC012005E0BAF1100F01DC022000E07E
:1036C00004208046002596E04046B8F1010F05D061
:1036D000022871D0B8F1040F25D17CE0BAF1090FAE
:1036E00021D2DFE80AF08605213F3F595959590098
:1036F000039815E001465A461198B847C5F10701ED
:1037000088404FF67F722178EA40114001436D1CDA
:10371000217004EBE50425F00700054109F10100E3
:103720008146B042E6DD64E0039817E001465A4660
:103730001198B8470621A1EB450188406B004FF670
:103740003F722178DA40114001436D1C217004EB77
:10375000A50425F00300054109F101008146B042AE
:10376000E4DD46E0039813E001465A461198B84755
:103770000421A1EB850188402178AB000F229A40FB
:103780001140014321702C4485F0010509F101002D
:103790008146B042E8DD2CE0DDF80C9007E0014600
:1037A0005A461198B847207009F101094444484627
:1037B000B145F4DD1DE0FFE7DDF80C9007E00146C0
:1037C0005A461198B847208009F1010944444846F7
:1037D000B145F4DD0DE0DDF80C9007E001465A46F6
:1037E0001198B847206009F1010944444846B145A1
:1037F000F4DD0BF1010B06998B457FF765AF4DE7C3
:103800007C00002010B50D4C0D492068407C51F81B
:10381000200040B1C1680968042901D00068F8E7B8
:1038200008B1FDF71DFC20680021016600F10801C8
:103830004161BDE8104000F02FB800007C0000207E
:1038400094000020014909684968084720010020C8
:10385000044909680A7C520701D5C96B00E0896BED
:10386000086070477C0000207CB5094C0546206844
:10387000417C084850F82100C1680A6B69469047AE
:1038800020686A4629460830FFF7BBF97CBD000076
:103890007C000020940000200448016804484A7C11
:1038A000083150F82200C268126B10477C000020DB
:1038B0009400002001490968096808472001002098
:1038C000044909680A7C520701D5896B00E0C96B7D
:1038D000086070477C000020014909688968084732
:1038E00020010020F8B515460E460124FDF7BAFB6D
:1038F000009058B1C0681021426A684690470300A2
:1039000004D02A4631460098984700242046F8BD46
:10391000F8B515460E460124FDF7A4FB009058B1FA
:10392000C0680321426A68469047030004D02A46D3
:1039300031460098984700242046F8BDF8B5154652
:103940000E460124FDF78EFB009058B1C0680B2194
:10395000426A68469047030004D02A4631460098E0
:10396000984700242046F8BDF8B515460E460124B8
:10397000FDF778FB009058B1C0680A21426A68469A
:103980009047030004D02A46314600989847002407
:103990002046F8BD10B5074C2068006BFFF7E0FA31
:1039A000FFF78EFF2068406BFFF7DAFABDE81040A2
:1039B000FFF74EBF7C00002000B59FB014211AA86D
:1039C000FCF732FD68216846FCF72EFD00231A46FD
:1039D00008490948FDF7EAFAF0224FF4C8710020BF
:1039E000FFF7ACFFF0224FF4C8710020FFF7BCFFD7
:1039F0001FB000BD60DD0008FCDC000810B5034608
:103A00001446012901D1002010BD4FF0FF3200BF44
:103A100000BF1046F8E700002DE9FF4F8DB01746B4
:103A2000674ADDF870901E9E209812681D4600249B
:103A30008AB11D9B1F98CDE90293CDE90460DDE9B1
:103A40001A03CDE9000314682B463A460D98A047A7
:103A500011B0BDE8F08F0D9A01EB050802EB070CE1
:103A6000DDE91A231A43A8F10108ACF1010C012A7F
:103A700006D0C9F108004FF0000B029105909CE0C0
:103A8000504A1268B2F90A40631A002B06DDED1A9B
:103A9000002DDDDD21461D9C03FB0466B2F90E30CE
:103AA000A8EB0303002B02DDED1A002DD0DDB2F9E7
:103AB0000C30ACEB0303002B00DDFF1A0D9B1C1A2E
:103AC000B2F90830A3420DDDA3EB040C0CEB0003AC
:103AD000181A20F007000444A7EB0C0706EBE306D6
:103AE00003F00700002FB3DDDDF874C01F9BCDE9A4
:103AF00002C6CDE90403CDE90059527C32483B4669
:103B000050F82200C26855680A462146A8479FE738
:103B10001B99029808440C902A49401E00900A689C
:103B2000B2F90A30834242DCB2F90E1002988142A7
:103B30003DDB4FF0000A0D980A96D046039034E022
:103B4000BAF1000F05D10A984FF0080A10F8014B9E
:103B50000A900599AAEB090A34FA01F004FA09F46B
:103B6000E4B204D117490968097C890717D41549BB
:103B70000968C96B0A680B921F9A0AB152F82000B3
:103B8000086003991A98009B0A18DDE90210521E7A
:103B9000FFF788FB0B490B980968C96B086003990C
:103BA0001A9808F1010808440390B845C8DB0C983E
:103BB00002901D980BF1010B0644AB45A8DB47E7CB
:103BC000B40000207C00002094000020002818D0C1
:103BD000410817D0810817D0C10817D0010917D0A4
:103BE000410917D0010A17D0410A17D0010B15D08F
:103BF000C10B13D0010C11D0810C11D0000E11D0CB
:103C00002020704701207047022070470320704732
:103C10000420704705207047082070471020704727
:103C2000122070471820704700B50022FFF7CEFF22
:103C3000012804D0811E062903D808220BE00122A6
:103C400009E0A0F10901072901D8102203E0113889
:103C50000F2800D82022104600BD000010B54FF4F8
:103C600080510748FCF75DFE642005F0BDFE4FF46F
:103C700080510348FCF757FE642005F0B5FE10BDE7
:103C80000014014010B5FFF739FBFFF7D9FA3220D5
:103C900005F0AAFEFFF7E2FF2A2001F0F3FE002064
:103CA00001F0F4FE002001F0F1FE002001F0EEFE34
:103CB000EF2001F0EBFE2B2001F0E4FE002001F0EC
:103CC000E5FE002001F0E2FE012001F0DFFE8F2082
:103CD00001F0DCFE352001F0D5FE002001F0D6FE1B
:103CE000B12001F0CFFE112001F0D0FE0E2001F036
:103CF000CDFEB42001F0C6FE022001F0C7FEB620C2
:103D000001F0C0FE1E2001F0C1FE022001F0BEFE47
:103D1000C02001F0B7FE102001F0B8FEC12001F074
:103D2000B1FE012001F0B2FE0B2001F0AFFEC52074
:103D300001F0A8FE172001F0A9FE272001F0A6FE41
:103D4000FA2001F09FFE012001F0A0FEE02001F02A
:103D500099FE002001F09AFE082001F097FE112044
:103D600001F094FE0D2001F091FE132001F08EFE73
:103D7000172001F08BFE1C2001F088FE7B2001F053
:103D800085FE2D2001F082FE102001F07FFE2F2005
:103D900001F07CFE292001F079FE122001F076FE70
:103DA0001C2001F073FE2F2001F070FEE12001F0D5
:103DB00069FE2B2001F06AFE2E2001F067FE29200B
:103DC00001F064FE0D2001F061FE162001F05EFEA0
:103DD000152001F05BFE292001F058FE572001F06C
:103DE00055FE2F2001F052FE092001F04FFE1A204F
:103DF00001F04CFE232001F049FE312001F046FE87
:103E0000372001F043FE3C2001F040FEE22001F0AB
:103E100039FE002001F03AFE082001F037FE1120A3
:103E200001F034FE0D2001F031FE132001F02EFED2
:103E3000172001F02BFE1C2001F028FE7B2001F052
:103E400025FE2D2001F022FE102001F01FFE2F2064
:103E500001F01CFE292001F019FE122001F016FECF
:103E60001C2001F013FE2F2001F010FEE32001F0D2
:103E700009FE2B2001F00AFE2E2001F007FE29206A
:103E800001F004FE0D2001F001FE162001F0FEFD00
:103E9000152001F0FBFD292001F0F8FD572001F06D
:103EA000F5FD2F2001F0F2FD092001F0EFFD1A20B1
:103EB00001F0ECFD232001F0E9FD312001F0E6FDE9
:103EC000372001F0E3FD3C2001F0E0FDE42001F0AB
:103ED000D9FD002001F0DAFD082001F0D7FD112006
:103EE00001F0D4FD0D2001F0D1FD132001F0CEFD35
:103EF000172001F0CBFD1C2001F0C8FD7B2001F054
:103F0000C5FD2D2001F0C2FD102001F0BFFD2F20C6
:103F100001F0BCFD292001F0B9FD122001F0B6FD31
:103F20001C2001F0B3FD2F2001F0B0FDE52001F0D1
:103F3000A9FD2B2001F0AAFD2E2001F0A7FD2920CC
:103F400001F0A4FD0D2001F0A1FD162001F09EFD61
:103F5000152001F09BFD292001F098FD572001F06C
:103F600095FD2F2001F092FD092001F08FFD1A2010
:103F700001F08CFD232001F089FD312001F086FD48
:103F8000372001F083FD3C2001F080FD3A2001F054
:103F900079FD552001F07AFD362001F073FD602097
:103FA00001F074FD112001F06DFD782005F01CFD7D
:103FB000292001F067FD10BDFDF710FA05F09CFD0A
:103FC00002E06420FDF760F8FBE700BFFEE7704702
:103FD00070B5002100230F22C47804B3154C246867
:103FE00004F4E064C4F5E064210AC1F10403CA40AA
:103FF000447804FA03F184781440214309010E4CFB
:104000000678A155047804F01F050124AC4005781A
:104010006D11AD0005F1E025C5F8004109E0047817
:1040200004F01F050124AC40044D0678761145F8D4
:10403000264070BD0CED00E000E400E080E100E00F
:1040400002490143024A1160704700000000FA056E
:104050000CED00E07047000029B1064A52690243A6
:10406000044B5A6104E0034A52698243014B5A618E
:10407000704700000010024029B1064AD26902438D
:10408000044BDA6104E0034AD2698243014BDA61EE
:10409000704700000010024029B1064A92690243AD
:1040A000044B9A6104E0034A92698243014B9A618E
:1040B0007047000000100240704710B500F002F891
:1040C00010BD00000CB5002001900090334800683E
:1040D00040F480303149086000BF3048006800F487
:1040E000003000900198401C0190009820B94FF6D4
:1040F000FF7101988842F0D12848006800F4003030
:1041000010B10120009001E00020009000980128EB
:1041100043D12348006840F0100021490860084658
:10412000006820F0030008600846006840F00200C4
:1041300008601A4840681949486008464068486065
:104140000846406840F4806048600846406820F4B3
:104150007C1048600846406840F4E8104860084613
:10416000006840F08070086000BF0C48006800F0F4
:1041700000700028F9D00948406820F00300074982
:1041800048600846406840F00200486000BF0348AD
:10419000406800F00C000828F9D10CBD0010024066
:1041A00000200240042808D14FF0E021096941F0C5
:1041B00004014FF0E022116107E04FF0E0210969AE
:1041C00021F004014FF0E0221161704770470000B8
:1041D00010B51348006840F0010011490860084616
:1041E0004068104908400E494860084600680E497A
:1041F00008400B4908600846006820F480200860E9
:104200000846406820F4FE0048604FF41F008860B4
:10421000FFF753FF4FF000600449086010BD000035
:10422000001002400000FFF8FFFFF6FE08ED00E07E
:1042300010B50121064800F05EF820B1054800687D
:10424000401C044908600121014800F045F810BDF8
:10425000000400400C0000207FB504460D460121FB
:104260000220FFF709FFADF804500020ADF806006A
:10427000ADF80840ADF80A0001A90E4800F056F864
:10428000012211460B4800F047F81D208DF8000070
:1042900000208DF8010003208DF8020001208DF828
:1042A00003006846FFF794FE0121024800F017F86A
:1042B0007FBD00000004004010B50121054800F05A
:1042C0001AF808B1FDF742FE0121024800F004F897
:1042D00010BD000000100040CA430282704721B1A7
:1042E000028842F00102028004E002884FF6FE7369
:1042F0001A400280704730B5024600200023002497
:10430000158A05EA0103958905EA010413B10CB188
:10431000012000E0002030BD1AB183890B43838166
:1043200002E083898B43838170470000002202886A
:104330001D4B98420ED01D4B98420BD0B0F1804FD0
:1043400008D01B4B984205D01A4B984202D01A4B0A
:10435000984204D14FF68F731A404B881A43174B7B
:10436000984207D0164B984204D04FF6FF431A40AC
:10437000CB881A4302808B8883850B8803850A4B80
:1043800098420BD0094B984208D00E4B984205D06A
:104390000D4B984202D00D4B984201D10B7A038607
:1043A0000123838270470000002C0140003401404B
:1043B0000004004000080040000C004000100040D5
:1043C000001400400040014000440140004801400A
:1043D00010B540F22551204800F044F8A8B31E481B
:1043E00000F06AF8C4B21D48008800F4004058BBD1
:1043F0001A48008800F4804060B10A2C03D00020E5
:104400001649088026E01548008840F4004013490A
:1044100008801FE00D2C06D11048008840F4804031
:104420000E49088016E00D480088C0F30D000C49C5
:104430000C540A480088401C084908800846008837
:10444000C72807DD0020088004E0FFE7024800F0ED
:1044500033F8C4B210BD000000380140080000204D
:104460003002002070B50246002400230025002001
:1044700040F66A16B14200D100BFC1F3421501F007
:104480001F03012606FA03F3012D02D1968933405A
:1044900006E0022D02D1168A334001E0968A3340AD
:1044A0000C12012606FA04F41688344013B10CB13C
:1044B000012000E0002070BD01468888C0F308009C
:1044C000704700BFFEE7000002490120096881F83B
:1044D000540070477C0000202DE9F0418AB00400B0
:1044E00036D0FCF753FC0190D0E90012CDE904125C
:1044F000876A056A01A8FCF779FC204600F052FEA5
:10450000060025D0204600F0C4F98046B80704D53F
:104510002A46414604A800F0ABFF2046FCF736FCD3
:1045200001904046FCF732FC06903046FCF72EFC2A
:10453000039005620698019AC1691162C46101A8DD
:10454000FCF754FC06A8FCF751FC03A8FCF74EFC52
:104550000AB0BDE8F08100002DE9FC5FDFF834A16E
:104560000746DDE90C54DAF81400DDF83CB0984653
:1045700091460E4604434DB9BAF8020048B3464886
:104580000AF140010068407C51F82050681C0ED0B0
:10459000FDB12846FCF7FAFB0190B0F90010B0F924
:1045A00002200F441644B9F1000F02D006E00025A6
:1045B0000FE0B0F90430591A01F10109B8F1000F08
:1045C00004D1B0F90600801A00F1010801A8FCF737
:1045D0000DFC0BF12C00FCF71EFB5FEA000B56D024
:1045E000BAF80200401CAAF802005846FCF7CEFBBD
:1045F0000090078007EB09014680491E818006EB89
:104600000801491EC1800E990161244A816A224035
:10461000114381626846FCF7E9FBDAF80C005E465C
:1046200050B1FCF7FBFB07463046FCF7F7FB0146B1
:10463000786948617E6101E0CAF80CB029465846A5
:1046400000F046FEA00602D5584600F077FCE007D1
:1046500004D0DAF82010491CCAF82010600602D5F0
:104660005846FFF739FFA0070DD55846FCF78EFBDB
:104670000090816A41F0020181626846FCF7B6FB56
:10468000584600F076FB0121584601F04CF9584697
:10469000BDE8FC9F380100207C0000209F3F3F00C8
:1046A00003490020096881F85400FFF7F5B80000BD
:1046B0007C00002010B50446C168D4E90020172A08
:1046C0000DD004DC0E2A0CD0142A07D104E0222AD3
:1046D0000CD0282A02D10CE000F01EFD0020E06082
:1046E00010BD2146BDE8104000F048BC6FF070409E
:1046F000F5E7BDE8104000F03CBB38B504000BD036
:10470000FCF744FB00900068FDF7CEFB6846FCF721
:104710006DFB2046FCF79AFA38BD0000F8B505009D
:104720005BD000F011FF002857D0284600F04CFD68
:1047300006460B21284601F0F6F8284600F0B3FCA7
:104740002846FCF723FB0090406A08B1FCF728FFDD
:10475000224C002104F158022163A06852F8203055
:10476000AB4201D142F820101C4A503252F820309E
:10477000AB4201D142F82010206904E04368AB420B
:1047800000D1416000680028F8D10721284600F0D8
:1047900026FB009801F0DCFB284600F0A9FC284627
:1047A00001F040F80098806AC10702D0216A491ED2
:1047B0002162800602D5A088401EA0806846FCF7D2
:1047C00015FB6088401E60802846FCF73FFA0348CE
:1047D000403050F8260000F0B1FBF8BD3801002051
:1047E0002DE9F0411A4C0025E06A10B1804700E045
:1047F000012503F0E3F80028FAD1164E306890F84E
:10480000540038B1A08828B1E069012720B10068C0
:10481000804704E0002702E00120FEF71BFA306821
:1048200090F8540038B1A08828B102F089FFA08820
:1048300008B10125F3E73FB1E06910B14068804756
:1048400002E00020FEF706FA2846BDE8F0810000ED
:10485000380100207C000020034804490068407CA7
:1048600051F82000704700007C00002078010020F3
:104870000021022802D2024951F820100846704750
:104880007801002010B5002802D0FCF7C7FAC069F3
:1048900010BD10B5002802D0FCF7C0FA806910BD29
:1048A00010B501004FF0000004D00846FCF7B6FA3E
:1048B000B0F9000010BD00002DE9F04F9BB04FF0A3
:1048C000000B5E46CDF820B0CDF824B0CDF828B06E
:1048D000FDF7CAF918B100201BB0BDE8F08F68469B
:1048E000FDF7A0F90098C94DC94C401C11D00098A3
:1048F00000281DDB019800281ADBC6490098B1F991
:1049000000100844C44900900198B1F9001008440F
:104910001DE00198401C0BD120689DF8081000EBA9
:10492000400005EB8000007A884201D15846D3E769
:104930000098401C0CD10198401C09D1206800EB64
:10494000400055F8201005EB800000914068019070
:1049500005A800F071FB9DF80900022800D2206034
:1049600007AA12A92068FCF7F9FC12990098401ACE
:10497000009007990198009A401A0190206800EB76
:10498000400055F8201091420AD105EB8000019AB1
:104990004168914204D1007A9DF8081088427DD088
:1049A000DDE900019DF80920FCF744FA9B4F7A6885
:1049B00012B10021684690479948216850F82100BB
:1049C00018B9DDE9000100F0B3FA0690BA6812B137
:1049D0000699684690478D4F2068383707EBC0012D
:1049E0004868069A824201D0012200E000220DF1BF
:1049F0002009F8B1F2B1486800F05AFDD0B1206842
:104A000007EBC000406800F048FD98B19DE8070042
:104A100008AB83E807001220CDF844900E90206880
:104A200007EBC00040680EA900F0A3FF206807EB69
:104A3000C0004660069800F03BFD00287DD0069936
:104A4000206807EBC002516000EB400005EB8000DE
:104A50009DF80810007ADFF8B4A188420AF1280A0C
:104A60005ED00698C0B30698FCF790F99DF8081040
:104A700013908DF83410216801EB410105EB8101A1
:104A8000097A8DF83510B0F900200099891A0B9138
:104A9000B0F902000199081A0C9000E0B1E013A8E7
:104AA000FCF7A4F90BA8119011200E90206800EBE0
:104AB000400105EB810191E88C000492CDE91437A7
:104AC0009DF808200A729DF8281031B10AEBC00148
:104AD0004F68069A4A6001E022E000270AEBC00016
:104AE000D0F8048006980EA900F0FCFE21680AEBBD
:104AF000C1004368434501D04068069001EB410086
:104B000005EB8003DDE91412049883E807003FB148
:104B1000384600F060F918B121680AEBC10047601F
:104B200020689DF8081000EB400805EB8802137A16
:104B30000B434CD04FF4107300E056E00AEBC0007A
:104B40000E9343684FF0010B5746DDF818C09C45A3
:104B500015D043689BB109B1119608E055F82810AB
:104B60000891516809918DF82860CDF8449040680B
:104B70000EA900F0FEFE206807EBC000466020682A
:104B80009DF8081000EB400205EB820211720699B5
:104B900059B39DE80E000DF1200888E80E009DF83D
:104BA000281021B1069907EBC000416008E01D48BC
:104BB000007808B100F044F9206807EBC0004660B7
:104BC0000698CDF844900EA900F0D3FE0DE00698AB
:104BD00058B1069800F061FC38B19DE8070008ABB9
:104BE00083E8070010200E90EAE721689DE81C008A
:104BF00001EB410005EB800080E81C00684600F0F6
:104C000013F905A800F0F8FD90E600008499002053
:104C100040010020B8000020BA0000200802002057
:104C200088010020980100202DE9FF5F2C4D687855
:104C3000002853D100272B48EF602F630068DFF86E
:104C4000A8903C464764AF806F804FF0020A4FF057
:104C5000FF3B43F6FF7805F140062046FCF702FAD9
:104C600098B1CDE90297CDE900BA0021424643460A
:104C70000846FFF771FC1A4A46F8240048326FF0E4
:104C8000704142F8241000F074F8641C022CE4DB3C
:104C9000164FDFF85C80DFF85C90002407EBC4005F
:104CA00000F0CAF908EBC40000F0C6F909EBC40033
:104CB00000F0C2F9641C022CF0DB306800F03EF911
:104CC000FFF702FC01200649687038310A48086085
:104CD00004B00846BDE8F05FFEF780B8BDE8FF9F6E
:104CE000380100207C000020759900089C99002064
:104CF000AC990020BC9900201186000870B586B0E0
:104D00000D4606002CD0FCF741F80090846AA107FC
:104D100023D5D0E90010CDE90110E00302D53046DB
:104D200000F02CFB5DB1286803906868049003A92B
:104D3000009800F089F903A901A8FDF745FF314665
:104D400001A800F089F940B140F601000440012CAF
:104D500008D001A9304600F00DFB6846FCF746F884
:104D600006B070BD0098026A816901A800F080FB5E
:104D7000F3E70021FFF7C2BFFEB515460E4604005B
:104D80001CD0FCF703F80246009090F8280080073A
:104D900011D5314601A8FDF734FF60B16846FCF734
:104DA00025F82A4601A9204603F06CFB2046FFF7B0
:104DB00069FD04460CE06846FCF718F8FEBD2A467B
:104DC00001A92046FFF7D8FF2046FCF727F8046A20
:104DD000002CF4D1FEBD00F0B7BB00F0C7BB1FB57F
:104DE000262203910092694600F0C8F81FBD00001A
:104DF00010B50C4C0A4A03462468002086B052F8CD
:104E00002420002A0AD00E200090CDE9043104A805
:104E100003906946104600F047FD012006B010BD22
:104E20009001002040010020044A01EB410102EB07
:104E300081010DC881E80D0070470000489A0020EC
:104E400000F0C4BC70B5154606468AB00C4651EA5F
:104E500005006BD0002E69D03046FBF797FF059018
:104E6000D0E90012CDE90212CDE906127CB1816AC7
:104E70000A0607D5890505D4BDF81810091BADF839
:104E8000181004E0BDF81C102144ADF81C107DB1D1
:104E9000816ACA0507D5490505D4BDF81A10491B12
:104EA000ADF81A1004E0BDF81E102944ADF81E102C
:104EB000806AC00302D5304600F060FA05AB93E883
:104EC0000700C0E9001290F8280080070AD506AA5A
:104ED00002A908A8FCF76AFE0598026A816908A879
:104EE00000F0C6FABDF91E00BDF90E10401A009080
:104EF000BDF91C00BDF90C10431ABDF91A00BDF92B
:104F00000A10421ABDF91800BDF90810411A059897
:104F100000F04AFD059901F10800FDF755FE052155
:104F2000304600F000FD05A8FBF760FF0AB070BD39
:104F30000A460146002003F047BD000070B50C4D45
:104F400004002868866C01D10A49CC688464204634
:104F500000F0A0FCFEF7A0FC2046FBF75FFF2968ED
:104F6000B0F90020CA64B0F902000865304670BD8F
:104F70007C0000203801002000F0C2BC70B50C009D
:104F8000054609D0FFF785FC002805D02146A5601D
:104F9000BDE8704000F088BC70BD000010B5FBF7A4
:104FA00015FC024900200968486410BD7C000020FF
:104FB000F8B516460C46050018D0FBF7E7FE009042
:104FC000B0F90410B0F90020891A641AB0F906107B
:104FD000B0F90200641E081A361A6846761EFBF7FE
:104FE00005FF324621462846FFF72CFFF8BD00009A
:104FF0000EB50E48006890F8541009B10C4811E045
:10500000806CFBF7C3FE0090D0E90010CDE90110E1
:105010006846FBF7EBFE0748416A11B101A800F0B2
:105020001BF801A803F0F2FC0EBD00007C0000207C
:10503000109900203801002002490A6802600860C7
:1050400070470000480100200B46B0F90220B0F97B
:1050500000101846FCF7D6BD38B50C46054620466C
:10506000FBF794FE0146009090F82800800703D4D7
:105070006846FBF7BBFE12E02846FDF7A5FD009849
:10508000806920B104466846FBF7B0FEE7E7684652
:10509000FBF7ACFE204600F065FF002801DA002097
:1050A00038BD012038BDF8B505466846FCF71EFF3F
:1050B0001AE001212046FCF705FF009981B178B183
:1050C0000846FBF7ABFE4068A84209D16946204676
:1050D000009EFCF71FFF04463046FFF70EFB04E07E
:1050E00069462046FCF716FF0446002CE1D1F8BDC6
:1050F00038B50446FBF74AFE0090816941B1026A67
:1051000000F0B6F9204600F0A5FB00990020886168
:105110006846FBF76BFE38BD38B50C4600280AD050
:10512000002C08D0FBF732FE2146009000F004F876
:105130006846FBF75BFE38BD00224A800A80828801
:105140000388D21A8A80C2884088101AC8807047A3
:1051500010B5FFF79EFB002802D0FBF75FFEC06989
:1051600010BD00000D4810B5006890F854000028EC
:1051700006D00B4C6069012803DD401E60610020F1
:1051800010BD2069401C206102F01EFD18B1FFF720
:105190002FFF012010BD6069EFE700007C000020B8
:1051A0000899002070B50546FFF7D2FF08E0AC4231
:1051B00001D1002406E0FBF731FE006AA84201D0CD
:1051C0000400F4D1204670BD10B50446FBF726FE5E
:1051D00080690028F9D12046BDE8104000F0C2BE29
:1051E000F0B5384E074687B0306890F8541041B19A
:1051F000354C6169491C6161012905DD012007B059
:10520000F0BDFFF7F5FEF9E7806CFBF7BFFD2F4D12
:105210004FF0FF3100902161297821B1816802911E
:10522000C068039007E090F8281089073CD5D0E9C2
:105230000010CDE902101FB1394602A8FDF7C4FCE9
:105240003068406C78B3009804903068406C016816
:10525000059140680690686A30B104A8FBF7C6FD66
:10526000686AFBF793FD049005A90498FFF7ECFE2C
:1052700005A902A8FDF7A8FC0DF11000FBF7B6FD8B
:10528000696A19B102A8FFF7E7FEB0B13068816C16
:1052900002A8FFF7E1FE80B1DDE90201C4E90001E7
:1052A000FFF760FFABE706E06069401E606168469B
:1052B000FBF79CFD04E06846E0E76069401E606122
:1052C00000209CE77C000020089900203801002085
:1052D000FEB50D00044647D0FBF758FD00900021B5
:1052E000856101622846FBF751FD00990290C5696E
:1052F00091F8281001F008062DB12846FBF746FD6D
:10530000019036B115E0C4616846FBF76FFD02A855
:1053100028E090F8280000070BD500980562029855
:10532000C4616846FBF762FD02A8FBF75FFD01A8B8
:1053300018E002A8FBF75AFD01A8FBF757FD284625
:10534000FBF76CFD11E004620BE02846FBF766FDFD
:105350005EB990F82810090707D5019804620098F3
:1053600005626846FBF742FDFEBD0190056A002D0F
:10537000EBD1E8E7202203F085B8000038B504003F
:1053800022D0FBF703FD009090F82810890718D56C
:10539000406A40B10D49896AA14204D0FCF700F986
:1053A0000099002048622046FFF76CFA044606E0A8
:1053B0002046FFF7E3FF2046FBF730FD046A002C90
:1053C000F6D16846FBF712FD38BD00003801002019
:1053D00070B5064615460C460846FBF71FFD806A69
:1053E000C00302D54FF4804300E020232A46214623
:1053F0003046BDE87040AFF300802DE9FF4198468C
:10540000164607460D0031D00846FBF7BFFC00905A
:10541000846A0246A00726D5394601A8FDF7F1FBAC
:1054200008B340F601000440012C07D0424601A910
:10543000284603F027F80098C46912E00098434614
:10544000026A816901A8FFF7D8FFF4E7B4420AD0E5
:10545000424601A92046FFF78FFC2046FBF7DEFC01
:10546000046A002CF2D16846FBF7C0FCBDE8FF815E
:105470002023FFF7C2BF000070B50C46002550B1D5
:105480004CB100BFFBF7CAFC8069A04201D10125E5
:1054900001E00028F6D1284670BD10B50124FBF7C5
:1054A000BDFC90F82800C00600D50024204610BDA1
:1054B00070B5064614480068002807DB134951F808
:1054C00020103046FFF7D8FF00281AD0114D104C9D
:1054D000286804EBC00041683046FFF7CDFF29681B
:1054E00004EBC102516829B100215268B24203D1D4
:1054F000012202E00121F8E700220143114301D01B
:10550000012070BD002070BD08020020780100203D
:105510009C9900204001002090F828309B0711D56D
:10552000B0F900308B420DDCB0F904308B4209DB5E
:10553000B0F90210914205DCB0F90600904201DB9F
:10554000012070470020704710B504460648C06827
:1055500006E0A04201D1012010BDFBF75FFC4069CD
:105560000028F6D110BD000038010020F0B58BB046
:1055700006004FF0000015460C460490059006907A
:1055800007903ED054EA05003BD03046FBF7FEFBC7
:105590000090D0E90012CDE902122A462146FCF71C
:1055A00031FB00982A4621460830FCF72BFB009877
:1055B000C7696846FBF71AFC2A462146384602F0BE
:1055C000A6FF3046FBF7E2FB009090F82810890711
:1055D0000AD5816941B1026AFFF7FAFE0098026AB2
:1055E000816902A8FFF7F4FE6846FBF7FFFB032082
:1055F000049007AA08A882E8310004A9304600F008
:1056000053F90BB0F0BD00002DE9F14187B0002542
:105610000798FBF7BBFB0190D0E90212CDE903121A
:1056200007698669846A01A8FBF7E0FB44F2200859
:1056300014EA080F30D0DFB103A80799FFF70CFD7B
:10564000B0B10798FFF77AFC60070DD556B144F367
:105650000000401C0090002307AA114903A8FBF793
:10566000BFFF05E00120F5E7079800F063F801258A
:105670000798FBF78BFB0190816A21EA08018162A0
:105680008A0402D541F00401816201A8FBF7AEFB58
:1056900004498888401E888008B02846BDE8F0810B
:1056A0002999000838010020F0B589B00546FBF7BC
:1056B0006DFB0290866A0469D0E90210CDE9001002
:1056C00002A8FBF793FB002C30D0B0072ED52E217B
:1056D0002846FFF751FC164C6F462078401C20707E
:1056E000F0044FF00F0609D5CDE904650797FFF7E1
:1056F00055FC04A9284600F0D7F810E03846FFF71B
:105700006FFD0AE0CDE904650797FFF747FC04A9A0
:10571000284600F0C9F8FFF725FD0028F2D12078CF
:105720002F21401E20702846FFF726FC09B0F0BD4F
:105730003801002038B50446FBF728FB0090806A4A
:1057400040F601010840012805D06846FBF74EFBF2
:10575000204602F08BFF1448006A002823D0204620
:1057600002F0DCFF2046FBF759FB8569046A18E06C
:105770002046FBF753FB90F82800C043800702D176
:10578000204602F085FF204602F0C8FF2046FBF7C6
:1057900045FB046A002CEBD12846FBF73FFB8569EB
:1057A000046A002DF6D138BD38010020B0F9001090
:1057B000B0F90420914205DCB0F90210B0F90600FE
:1057C000814201DD00207047012070477FB5094DFF
:1057D000074C286854F82000002808D018210091B0
:1057E000694600F061F82968002044F821007FBD77
:1057F0008801002040010020094B1968002905D0CC
:105800000022814206D108680AB110607047002862
:10581000186070470A4609680029F2D170470000F5
:105820004801002070B505460948C0680CE000BF7B
:10583000FBF7F4FA04464069A84205D12846FBF775
:10584000EDFA4069606170BD0028F1D170BD0000C3
:105850003801002070B50646FBF7E0FA054680697E
:10586000002809D0FBF7DAFA0446C069B0420ED12D
:10587000FBF7D4FA006AE06170BD00BFFBF7CEFA17
:105880000146006AB04202D1286A086270BD002851
:10589000F4D170BD10B5FFF797FC002803DBBDE81D
:1058A0001040FCF77DBA10BD70B50D4C06460D4694
:1058B000206814280DDA3046FBF7B0FA01696E60F3
:1058C00041B12068401C2060284688472068401E5F
:1058D000206070BD2846BDE87040FEF7EBBE0000BA
:1058E0000402002070B50C460546FFF7D6FD0028DF
:1058F00005D021462846BDE87040FFF7D5BF70BDF2
:105900007FB50546002000900190029003900C4660
:105910002846FBF783FA0269002A03D06846CDE9DE
:10592000004590477FBD1FB5CDE900106946FFF7E0
:10593000BBFF1FBD7FB505460E464868C968039189
:10594000CDE901050D202C46009008E02046FEF729
:10595000A0FF040003D069460396FFF7C3FF20466B
:10596000FFF739FA0028F1D131462846FFF7BAFF90
:105970007FBDF8B5CC680D46064684B1FBF706FA44
:105980000090B0F900002168081A20600099606852
:10599000B1F90210401A60606846FBF727FA294601
:1059A0003046FFF7C7FFF8BD2DE9FF4F81B09B469A
:1059B000C66962E03046FBF7E9F901460090D1E99B
:1059C0000004896A254601F420730246802B09D021
:1059D000B3F5207F029B134406D063F30F02029BB2
:1059E000234405E002EB0B0363F30F0204EB0B030C
:1059F00001F4A06163F30F04B1F5807F0BD0B1F522
:105A0000A06F03994FEA224307D0194461F31F4264
:105A10002314039906E00E991314194461F31F42ED
:105A20000E99231419440FFA82FA61F31F440FFAF6
:105A300080F917144FEA2048AAEB0901A7EB0802E6
:105A400051EA020002D03046FFF7C7F92AB221B26C
:105A5000A2EB0900A1EB0A01091AC7EB2440C8EB2D
:105A60002542821A51EA020002D03046FFF7EAF9D5
:105A70000098066A6846FBF7B9F9002E9AD105B07E
:105A8000BDE8F08F4FF0C0410880704701490880A1
:105A900070470000000002602DE9F0411B4D0C46EC
:105AA0000646A968686B0144A019491E884205D8BA
:105AB000016819B941680E4402F0C0FE686BA0424B
:105AC0000AD254F8040C271A386828B978680644B2
:105AD000384602F0B3FE3C46304602F04DFB05EB83
