:020000040800F2
:10000000589600200D020008A9860008816A0008A1
:10001000A5860008970B0008D3A600080000000082
:10002000000000000000000000000000DFA0000849
:100030000D14000800000000A98B0008F1A10008C1
:1000400027020008270200082702000827020008EC
:1000500027020008270200082702000827020008DC
:1000600027020008270200082702000827020008CC
:1000700027020008270200082702000827020008BC
:1000800027020008270200082702000827020008AC
:10009000270200082702000827020008270200089C
:1000A000270200082702000827020008270200088C
:1000B0002702000841A400082702000827020008C0
:1000C000270200082702000827020008270200086C
:1000D00027020008E1A500082702000827020008FF
:1000E000270200082702000827020008270200084C
:1000F000270200082702000827020008270200083C
:10010000270200082702000827020008270200082B
:100110002702000827020008C9A4000827020008D7
:10012000270200082702000827020008270200080B
:1001300000F002F800F05AF80AA090E8000C82449F
:100140008344AAF10107DA4501D100F04FF8AFF27C
:10015000090EBAE80F0013F0010F18BFFB1A43F0A5
:10016000010318470C5603002C5603000A444FF0B5
:10017000000C10F8013B13F0070408BF10F8014B06
:100180001D1108BF10F8015B641E05D010F8016B4B
:10019000641E01F8016BF9D113F0080F1EBF10F8AF
:1001A000014BAD1C0C1B09D16D1E58BF01F801CBD2
:1001B000FAD505E014F8016B01F8016B6D1EF9D555
:1001C0009142D6D37047000000230024002500266A
:1001D000103A28BF78C1FBD8520728BF30C148BFAA
:1001E0000B6070471FB51FBD10B510BD00F0E9F9D9
:1001F0001146FFF7F7FF1AF0CBF800F007FA03B447
:10020000FFF7F2FF03BC1AF031F8000009488047FD
:1002100009480047FEE7FEE7FEE7FEE7FEE7FEE7E8
:10022000FEE7FEE7FEE7FEE704480549054A064B00
:1002300070470000F5A1000831010008588C00202B
:1002400058960020588E0020588E0020704740EAB3
:10025000010310B59B070FD1042A0DD310C808C99C
:10026000121F9C42F8D020BA19BA884201D9012045
:1002700010BD4FF0FF3010BD1AB1D30703D0521C90
:1002800007E0002010BD10F8013B11F8014B1B1BCB
:1002900007D110F8013B11F8014B1B1B01D1921E35
:1002A000F1D1184610BD40EA0103024630B59B0764
:1002B00010D14FF0013400E008C208C91D1B9D4356
:1002C00015EAC41FF8D013F0FF0102F8011B0DD08E
:1002D0001B0AF8E711F8013B002B02F8013B05D09F
:1002E00011F8013B002B02F8013BF3D130BD10B5F2
:1002F000431C02E010F8011B71B18107FAD14FF0E5
:10030000013202C88C1A8C4314EAC211F9D0C01A07
:100310000A0603D0C01E10BDC01A10BD0A0401D0C9
:10032000801E10BD0902FCD0401E10BD032A40F201
:10033000308010F0030C00F0158011F8013BBCF187
:10034000020F624498BF11F801CB00F8013B38BF9F
:1003500011F8013BA2F1040298BF00F801CB38BFAD
:1003600000F8013B11F0030300F06780083AC0F089
:10037000088051F8043B083A51F804CBA0E8081073
:10038000F5E7121D5CBF51F8043B40F8043BAFF3A6
:100390000080D20724BF11F8013B11F801CB48BF00
:1003A00011F8012B24BF00F8013B00F801CB48BF36
:1003B00000F8012B7047431A28BF9A427FF6B6AF68
:1003C000032A1044114440F2268010F0030F1EBF90
:1003D00011F8013D521E00F8013D10F0030F7FF4AB
:1003E000F6AF11F0030300F0A080083AC0F00B80D4
:1003F00051F8043D083A51F804CD40F8043D40F866
:1004000004CDFFF7F3BF121D5CBF51F8043D40F867
:10041000043DAFF30080D20724BF11F8013D11F86D
:1004200001CD48BF11F8012C24BF00F8013D00F8B0
:1004300001CD48BF00F8012C704710B5203AC0F03C
:100440000B80B1E81850203AA0E81850B1E81850D5
:10045000A0E81850BFF4F5AF5FEA027C24BFB1E812
:100460001850A0E8185044BF18C918C0BDE8104083
:100470005FEA827C24BF51F8043B40F8043B08BF8C
:100480007047D20728BF31F8023B48BF11F8012B53
:1004900028BF20F8023B48BF00F8012B704702F04C
:1004A000FF0343EA032242EA024200F06AB84FF037
:1004B000000200B5134694469646203922BFA0E8B4
:1004C0000C50A0E80C50B1F12001BFF4F7AF0907C0
:1004D00028BFA0E80C5048BF0CC05DF804EB8900B1
:1004E00028BF40F8042B08BF704748BF20F8022BF4
:1004F00011F0804F18BF00F8012B7047704770470C
:1005000070477047431A28BF9A427FF696AF10444F
:1005100010F0030F11441EBF11F8013D521E00F8E8
:10052000013D10F0030F7FF4F6AF103AC0F00A80DF
:1005300010B531E91850103A20E91850BFF4F9AF5E
:10054000BDE81040530724BF31E9081020E9081026
:1005500044BF51F8043D40F8043D12F0030F08BFBA
:100560007047D20728BF31F8023D48BF11F8012C6F
:1005700028BF20F8023D48BF00F8012C70474FF01B
:1005800000020429C0F0128010F0030C3FF491AF78
:10059000CCF1040CBCF1020F18BF00F8012BA8BF6E
:1005A00020F8022BA1EB0C01FFF783BF5FEAC17CAF
:1005B00024BF00F8012B00F8012B48BF00F8012BE5
:1005C0007047754600F028F8AE4605006946534668
:1005D00020F00700854618B020B5FFF725FEBDE8DE
:1005E00020404FF000064FF000074FF000084FF09A
:1005F000000B21F00701AC46ACE8C009ACE8C0092B
:10060000ACE8C009ACE8C0098D4670470446AFF3BA
:1006100000802046FFF7F3FD00487047F48B002070
:10062000002800DC4042704738B545680446014662
:1006300028460AF06CF800282BD02068304A112890
:100640000DD006DC0B2825D00E2833D00F2852D130
:1006500012E0282849D0B0F5107F4CD108E092680C
:10066000002A16D02146284601B0BDE83040104788
:10067000214628465268F7E7284603F00FF8009015
:10068000406E0468684603F061F8002C01D02846EB
:10069000A04738BD284603F001F80090683002F00A
:1006A00057FF009803216C3002F05AFF684603F0B0
:1006B0004DF820E0E168486809680D2902D020293A
:1006C00013D105E0002810DD284611F019FE06E0E0
:1006D000002804DD2846BDE8384011F011BE284648
:1006E000BDE83840022111F021BEE06818B90021B0
:1006F000284600F0B8F92046BDE838400AF04EBC64
:10070000200200202DE9FF410AAF97E87000002782
:1007100003958DE8D00000F003F804B0BDE8F08147
:10072000F0B585B00DF1280C9CE8F0004FF0000CFE
:100730008DE8F01000F024F805B0F0BDF0B50446E7
:1007400085B08069B4F90850668A0027CDE9026552
:10075000CDE900170490B4F90C00B4F91060C11889
:10076000B4F90A00B4F90E50104433462A4600F09A
:1007700007F80546616800F0A3F905B02846F0BD0A
:10078000F0B585B00C46DDE90D51DFF854C04C31B1
:10079000DDE90A67CDE902C12146CDE900670AF02B
:1007A0004FFB040018D002F079FF10222946049074
:1007B0000AF08CF9049830220A493430FFF73DFEE4
:1007C000084D04990C3D2868486604A802F0BEFF55
:1007D000286841682046884705B02046F0BD0000E3
:1007E000290600082C020020F0B5044680688B49D9
:1007F00089B051F82050606800287DD0052804D0C9
:1008000006287AD0122879D1AEE0E86900284FD0C6
:1008100095E80E008DE80F0004F110010FC905F0F6
:10082000A7FC002655F8260004F0AAFCA169E86997
:100830000A1A216901446069304403F007FDA16987
:10084000E8690A1A21690144E069801B03F0FEFC93
:10085000E169E8690A1A616901442069304403F0DA
:1008600095FDE169E8690A1A61690144A069801B84
:1008700003F08CFD761C022ED4DBA86804F080FC0B
:10088000E069E9696669431A206942183144801CAD
:10089000521E03F0CBFDE169E869A2690B1A616998
:1008A0000144101A401C921E03F0C0FDEE6913E0D3
:1008B0005FF0000655F8260004F062FCE069831B37
:1008C000A069821B606981192069304403F020FD12
:1008D000761C022EEEDB0226D5E90301CDE90001EC
:1008E0006169E06908444310A069891C821B206982
:1008F000304403F077FC02E089E012E08AE0D5E9B9
:100900000501CDE90001E36960690121184401EBAB
:100910006001A0699B1E821B2069304403F062FCC9
:1009200078E0206802F0BAFE049020680BF0A6FE82
:1009300040B1A06808B1002008E00498006F28B119
:10094000012003E00498406F00B10220049901EBFC
:100950008000C56E04A802F0F9FE00231A4628465E
:10096000216803F025FA55E0206802F097FE049014
:10097000866EEEB3B0F95C70A168D1B3032942D0A2
:100980005FF0000100EB8101406D0C6C04F00CFC89
:10099000204604F0F5FB05A803F0E8FDBDF81410AF
:1009A000A88B0144ADF81410BDF81810081AADF862
:1009B0001800BDF81600801CADF81600BDF81A002E
:1009C000801EADF81A000498B0F96020B0F95E10EE
:1009D00005A804F0E0FA04A802F0B8FE022004F032
:1009E00025FC304602F05AFE3A4605A9079001E080
:1009F0000BE006E003F09AFA0DF11C0002F0A6FEEF
:100A000008E00121BEE70221BCE704A8F6E7206860
:100A10000BF09AFA09B00020F0BD0000A8D9020836
:100A2000042905D2034A52F821102022FFF705BD00
:100A300070470000A8D9020800294FF0100101D02A
:100A400009F0F5BE09F047BE38B50D46040009D0DF
:100A500002F024FE00904565684602F077FE2046CD
:100A60000AF09BFF38BD4FF480720029114601D077
:100A700009F0DDBE09F02FBE08B50023009300F099
:100A800001F808BD70B516460C46054619463046B5
:100A9000049A03F075F9024621462846BDE87040E5
:100AA00000F036B8042907D2044A52F82130014632
:100AB00020221846FFF7C1BC70470000A8D90208E1
:100AC0002DE9FF410E4605004FF001041CD002F055
:100AD000E5FD0190876E01A8009702F037FE3146D0
:100AE000684605F055FE78B100980024B84208D059
:100AF000284602F0D3FD01900099816601A802F01A
:100B000025FE28460AF049FF04B02046BDE8F081E2
:100B1000F8B515460C46060013D002F0BFFD009054
:100B2000032C0BD200EB84006C3002F011FD009816
:100B300000EB8400C56630460AF02FFF684602F0DD
:100B400005FEF8BD30B504460D462A200CF09CF891
:100B5000C4F30F200CF09CF8E0B20CF099F8C5F348
:100B60000F200CF095F8E8B20CF092F82B200CF066
:100B70008BF8C2F30F200CF08BF8D0B20CF088F891
:100B8000C3F30F200CF084F8D8B20CF081F82C20BD
:100B90000CF07AF830BD00BFFEE700B589B0012146
:100BA00001A8FFF73DFF4FF47F4001900020029025
:100BB000FF2003900690FF210791049005910121E9
:100BC00001A8FFF76FFF09B000BDF8B544680546FE
:100BD0000146204609F09BFD002836D028680B28E6
:100BE00039D00E2805D00F2821D0B0F5107F3CD188
:100BF0002CE0204602F052FD009010F8746F477808
:100C0000684602F0A3FD20460BF038FD10B3E868FB
:100C10004168002929DD0068202826D17F1CB7FB08
:100C2000F6F006FB1071204600F02FF91DE0254676
:100C3000204602F033FD0090006F0468684602F021
:100C400085FD002C01D02846A047F8BD2946204646
:100C500011F064FE09E0204602F020FD009078309B
:100C600002F076FC684602F071FD2846BDE8F840C7
:100C70000AF094B9F0B585B0B0F90850468A846995
:100C80000296CDE903540027CDE90017B0F90C1006
:100C9000B0F91050B0F90E40B0F90A0019441044F0
:100CA0002B46224600F002F805B0F0BD2DE9F04FCA
:100CB00085B0284CDDE90E97DDF848801D4616000A
:100CC0008A46834601D035B10AE020688068006812
:100CD00080470646F7E72068806800688047054639
:100CE0001C486FF07041001DC068884201D147F078
:100CF000010708F15400184ACDE90220CDE9009718
:100D00002B463246514658460AF09AF805001CD048
:100D100002F0C4FC10220490119909F0D7FE0D498D
:100D200004983C22091D3430FFF787FB04982168A2
:100D30000167022180F874100F21C16704A802F036
:100D400005FD206841682846884705B02846BDE86B
:100D5000F08F0000B0050020CB0B00082DE9FF4705
:100D60000446006810B10BF089FC68B100223148DC
:100D700050F8221060680A2841D007DCF0B306283A
:100D80000DD0072854D106E00122F0E712280AD03E
:100D900019284DD137E020460DF00EF848E02046E6
:100DA0000EF0F8FB44E0206802F078FC0290B0F905
:100DB000548090F85650476C466B02A802F0C6FC6F
:100DC000206800F039F8814668460AF00BFABDF851
:100DD000001009EB05000844ADF80000246A304615
:100DE00004F0E2F9022004F021FA384604F0C8F9D0
:100DF00042466946204603F099F819E007E020468C
:100E00000EF057FD14E0886904B0BDE8F087206853
:100E10000BF09AF8206802F041FC0390B0F906103C
:100E2000B0F90220891A491CC16703A802F08EFCA0
:100E30000020E9E70054030838B502F02FFC0090C9
:100E4000C46F684602F082FC204638BD38B50024E5
:100E500038B102F023FC009090F87540684602F02B
:100E600075FC204638BD38B50C4605000CD002F0A4
:100E700015FC0090416BA14203D0446328460AF060
:100E80008CFD684602F062FC38BD38B50C460500A2
:100E900012D002F003FC009090F87410A1420CD91B
:100EA00080F87540684602F051FC28460AF075FD4E
:100EB000052128460AF006FE38BD684602F046FCC9
:100EC00038BDFEB50D4604001ED0002D1CD002F02A
:100ED000E5FB0190866F01A8009602F037FC2946D9
:100EE000684605F055FC00280ED00098B04208D0A6
:100EF000204602F0D3FB01900099816701A802F01F
:100F000025FC20460AF049FDFEBD38B50C4605001B
:100F10000CD002F0C3FB0090416CA14203D04464AA
:100F200028460AF03AFD684602F010FC38BD000081
:100F300000B589B024216846FFF7B9FA192001905D
:100F400003480068806841686846884709B000BD6A
:100F5000B00500207CB50AF061F90546002000903C
:100F60002B46044A09210190034802F00BFE044677
:100F700020467CBD3D780108403702087CB50AF068
:100F80004DF90546002000902B46044A05210190AA
:100F9000034802F0F7FD044620467CBD5563010876
:100FA000A03102087CB50AF039F90546002000900E
:100FB0002B46044A07210190034802F0E3FD044652
:100FC00020467CBD05610108DC3002087CB50AF0D2
:100FD00025F90546002000902B46064A072101907E
:100FE000054802F0CFFD044620460AF00BF90446FE
:100FF00020467CBDF17901083C3802087CB50AF036
:101000000DF90546002000902B46044A022101906C
:10101000034802F0B7FD044620467CBD2183010849
:101020006C3A02087CB50AF0F9F8054600200090F9
:101030002B46044A02210190034802F0A3FD044616
:1010400020467CBD61890108483C02087CB50AF055
:10105000E5F80546002000902B46044A0221019045
:10106000034802F08FFD044620467CBD997D0108AF
:10107000003902087CB50AF0D1F80646002000903D
:101080003346064A07210190054802F07BFD0446DD
:1010900020460AF0B7F8054628467CBD1D9E01088B
:1010A000342D02087CB50AF0B9F8054600200090FE
:1010B0002B46044A07210190034802F063FD0446D1
:1010C00020467CBD0D520108702C02087CB50AF048
:1010D000A5F80546002000902B46064A07210190FE
:1010E000054802F04FFD044620460AF08BF80446FE
:1010F00020467CBD859B0108E04002087CB50AF0D3
:101100008DF80546002000902B46044A0A210190E4
:10111000034802F037FD044620467CBD416D0108BE
:10112000C03302087CB50AF079F80546002000902B
:101130002B46064A09210190054802F023FD04468A
:1011400020460AF05FF8044620467CBDFD64010895
:101150002C3202087CB50AF061F8054600200090A8
:101160002B46044A09210190034802F00BFD044676
:1011700020467CBD5D7201080C3602087CB50AF081
:101180004DF80546002000902B46044A0B210190A3
:10119000034802F0F7FC044620467CBDB96F010805
:1011A000D83402087CB50AF039F8054600200090D2
:1011B0002B46044A02210190034802F0E3FC044656
:1011C00020467CBD51690108883302087CB50AF0CD
:1011D00025F80546002000902B46044A0221019084
:1011E000034802F0CFFC044620467CBD5D8E01081A
:1011F0007C3D02087CB50AF011F8054600200090FD
:101200002B46044A06210190034802F0BBFC044629
:1012100020467CBDA1910108B43D02087CB509F0CF
:10122000FDFF0546002000902B46044A0F21019047
:10123000034802F0A7FC044620467CBD1586010841
:10124000A43A02087CB509F0E9FF054600200090A9
:101250002B46044A09210190034802F093FC0446FE
:1012600020467CBD315C01081C2F02087CB509F0CA
:10127000D5FF0546002000902B46044A0B21019023
:10128000034802F07FFC044620467CBD69800108CB
:10129000383902087CB509F0C1FF054600200090EE
:1012A0002B46044A09210190034802F06BFC0446D6
:1012B00020467CBDA58C0108803C02087CB509F065
:1012C000ADFF0546002000902B46064A07210190FD
:1012D000054802F057FC0446204609F093FF0446F7
:1012E00020467CBDFD9801081C4002087CB509F031
:1012F00095FF0546002000902B46044A07210190E7
:10130000034802F03FFC044620467CBDB55E010860
:10131000183002087CB509F081FF054600200090D6
:101320002B46044A02210190034802F02BFC04469C
:1013300020467CBD65930108E83E02087CB509F0B3
:101340006DFF0546002000902B46044A05210190C0
:10135000034802F017FC044620467CBDAD9201080C
:101360005C3E02087CB509F059FF0546002000905C
:101370002B46044A09210190034802F003FC04466D
:1013800020467CBDA9960108203F02087CB509F0E3
:1013900045FF0546002000902B46054A0621019096
:1013A000044802F0EFFB04460348046020467CBD7D
:1013B000815A0108742E0208C80000207CB509F08B
:1013C0002DFF0546002000902B46044A0221019083
:1013D000034802F0D7FB044620467CBDE5730108B4
:1013E000083702087CB509F019FF05460020009077
:1013F0002B46044A02210190034802F0C3FB044635
:1014000020467CBDB55501083C2E020870470000FF
:1014100070B505460C461646234622462946284600
:10142000FFF790FB01490E8070BD000000000260D4
:101430002DE9FC470E465FEA000978D002F02EF94C
:10144000009090F85470D0F85880456BC46C684692
:1014500002F07CF9B8F1000F04D03146484642460C
:10146000904761E0122E18D006DC082E43D0102ED3
:101470003CD0112E06D112E0132E21D01D2E43D0C8
:101480001E2E3DD0202E4FDB17B148460CF021FA1E
:10149000B1B2484610F08EFC60B3611C27E04DB33A
:1014A000284602F0FBF805462146019004F024F995
:1014B0004419204604F0E2F801462346012210E0D8
:1014C000C5B1284602F0EAF805462146019004F02D
:1014D00013F94419204604F0D1F8014623464FF091
:1014E000FF3248460BF065FF01A81BE0611E48462D
:1014F00000F04CFA18E0BCB1611E484600F046FA14
:1015000048460CF0E6F90FE0484602F0C7F80090B4
:10151000012F0ED0012180F854102146484600F0DA
:1015200035FA684602F012F948460AF036FABDE884
:10153000FC87002180F85410F3E77CB54568044629
:1015400028460BF09BF806462146284609F0DFF8AE
:10155000002844D020680F283DD004DC0B283FD061
:101560000E2860D147E0A0F58070133804D0A0F5B4
:1015700080702D3857D11DE028460AF065FB2846BB
:1015800002F08CF8009010F8561F81F004010170F1
:10159000684602F0DBF80021284611F073FC28466B
:1015A00002F07CF80090D0F8840000210AF032FBB1
:1015B00068461DE0E06860B1017A29B101682846FB
:1015C00000F0BEF8012100E0022128460AF07AFA74
:1015D00029E00321F9E70121284611F053FC7CBDE5
:1015E000284602F05BF80190343001F0B1FF01A809
:1015F00002F0ACF817E0B6B1E0684168002912DDEE
:1016000001681B290FD006DC09290CD00A290AD051
:101610000D2904D107E0212905D0222903D028462D
:10162000FFF706FF7CBD204609F0B8FC7CBDF0B595
:1016300087B00DF1300E9EE8F0104FF0000E8DE8EF
:10164000F05000F003F807B0F0BD0000F0B585B031
:101650000D46DDE90D640F9FDDE90AC141F48051BB
:10166000DFF870E0CDE900C16037CDE902E7294637
:1016700009F0E6FB05002AD002F010F810223146EE
:10168000049009F023FA0498242213496030FEF7ED
:10169000D4FE0499012081F85500601C00D001207F
:1016A00081F88800002C00DC082424B20C8700207C
:1016B0004887486304A8641C02F048F8214628467D
:1016C00010F039FA18B9284609F09CFC002505B03D
:1016D0002846F0BD3B150008F00500200148806851
:1016E00070470000F005002038B5002430B101F04B
:1016F000D5FF0090846C684602F028F8204638BD7B
:10170000F8B515460C4606000ED001F0C7FF009054
:1017100038B1032C05D200EB8400856730460AF00F
:101720003CF9684602F012F8F8BD10B5040006D086
:1017300000F02CF92046BDE810400AF02EB910BD8B
:101740002DE9F04186B00C46060050D001F0A6FF0E
:101750000090406B98B301F0A1FF03900098806E59
:1017600003F022FD8046304609F063FE07460398E9
:1017700002F049FF0546009890F8601001F003015F
:10178000012916D002290DD0416EC06A00680844B4
:10179000241A641E039804F0A3FE0146002C0FDAFD
:1017A000002115E0781B401C00EBD070A4EB600416
:1017B000F0E7406E791B081A241A641CEAE713E06C
:1017C000AC4205DC02462146039804F029FE01469E
:1017D000304600F0DBF803A801F0B8FF404603F004
:1017E000E3FC30460AF0D9F8684601F0AFFF06B0D6
:1017F000BDE8F0812DE9F8431D46DDE908491646AC
:101800000F465FEA000840D001F048FF20490090F1
:1018100081652049C1650021C0E91271E0E90F65C9
:101820000121047280F81A90017690F84C70684695
:1018300001F08CFF87B128460FF072FD0546304657
:101840000FF06EFD0CB1401C6D1C854200DD28467A
:101850000146404600F039F8404612F091FF4046FC
:1018600001F01CFF009000F07CF80B4909788842D9
:1018700005D10098C16C4046491C00F087F86846C5
:1018800001F064FF40460AF088F8BDE8F8830000E4
:1018900051CE0008814701086C01002000294FF05B
:1018A000100101D008F0C3BF08F015BF38B50D46D0
:1018B000040009D001F0F2FE0090856620460AF08F
:1018C0006CF8684601F042FF38BD7CB50C46060056
:1018D0002ED001F0E3FE0090B0F93810458FA14200
:1018E00023D012DD406B80B101F0D8FE019004F0EE
:1018F000F7FDA04206DD2146019803F0FDFE019AA6
:101900000021115401A801F021FF684601F01EFFDB
:10191000611B3046491C10F00EF9304601F0BEFE46
:101920000090048730460AF038F8684601F00EFF50
:101930007CBDF8B515460C4606000ED001F0AEFE93
:10194000009038B1032C05D200EB8400C566304608
:101950000AF023F8684601F0F9FEF8BD002212F003
:10196000C9BC38B50546406B002468B101F096FE4D
:1019700000900446E96C03F0BFFE204403F07EFEB5
:101980000446684601F0E2FE204638BD1CB50C4610
:1019900001F084FE0090406BF0B101F07FFE0190F9
:1019A00004F09EFD009991F8542002B10122002C10
:1019B00000DA0024844200DD0446B1F93800801AC0
:1019C000A04200DA0446C86CA04200D0CC640020DB
:1019D000086501A801F0BAFE684601F0B7FE1CBD1B
:1019E0002DE9F04100250026002700242848007832
:1019F00030B928480068264908700020BDE8F08109
:101A00002448006830B10027002023494870084668
:101A10004078F3E7012018F04FFC1E48006830B111
:101A2000002700201C49487008464078E6E719481E
:101A3000001F0068C6B205E01648001F0068C5B266
:101A40000127641C1348006810B914488442F3D37A
:101A5000104800680E490870BFB11048844214D283
:101A600000272EB9012D03D102200B49487009E04F
:101A7000012E04D11DB901200749487002E0002061
:101A80000549487004484078B8E70020B6E70000F0
:101A900031000020180123422C00002020A1070063
:101AA0002DE9F04100250026002700242848007871
:101AB00030B928480068264908700020BDE8F08148
:101AC0002448006830B1002700202349C870084628
:101AD000C078F3E7012018F0EFFB1E48006830B132
:101AE000002700201C49C8700846C078E6E719485E
:101AF000001F0068C6B205E01648001F0068C5B2A6
:101B00000127641C1348006810B914488442F3D3B9
:101B1000104800680E490870BFB11048844214D2C2
:101B200000272EB9012D03D106200B49C87009E00A
:101B3000012E04D11DB905200749C87002E000201C
:101B40000549C8700448C078B8E70020B6E700002F
:101B500033000020080123422C00002020A10700B0
:101B60002DE9F041002500260027002428480078B0
:101B700030B928480068264908700020BDE8F08187
:101B80002448006830B100270020234988700846A7
:101B90008078F3E7012018F08FFB1E48006830B111
:101BA000002700201C49887008468078E6E719481D
:101BB000001F0068C6B205E01648001F0068C5B2E5
:101BC0000127641C1348006810B914488442F3D3F9
:101BD000104800680E490870BFB11048844214D202
:101BE00000272EB9012D03D104200B49887009E08C
:101BF000012E04D11DB903200749887002E000209E
:101C00000549887004488078B8E70020B6E70000EE
:101C100032000020100123422C00002020A10700E8
:101C200008B50121402007F01DFA03208DF80200BD
:101C30007E20ADF8000048208DF803006946024878
:101C400001F032FA08BD00000018014010B5FEF79F
:101C5000A4FF10BD2DE9F04389B0984615460F4604
:101C600006004FF0000428D000F090FB04463046F8
:101C700000F078FB814603A9304600F055FCF807D8
:101C800006D0BDF91C008221001B401B401C08E04F
:101C9000B807BDF91800284402D540F2022100E03F
:101CA00002210096CDE9018123461A464946FEF7F6
:101CB00029FD04460021FEF7BFFE09B02046BDE81D
:101CC000F083000010B50523FFF7C4FF0446054A62
:101CD0000021FEF7D1FE0449204609F0E9FF204625
:101CE00010BD000095DA0008F95101082DE9F04710
:101CF000044640688EB00027804601F0CFFC00907B
:101D0000B0F87CA0D0F86890D0F88060D0F8885007
:101D1000C06D00B10768684601F018FD05E069680C
:101D200020468847002843D12D68002DF7D1206830
:101D3000172853D00CDC0F283DD004DC0B2877D0BB
:101D40000D2825D18BE0112810D0142820D13BE09C
:101D5000262846D004DC1E2851D0202818D18AE03D
:101D60002A2816D0B0F5107F12D128E04046E56849
:101D700001F094FC0290697A39B9297A012904D1D9
:101D800030F87C1F41F48071018002A801F0DEFC74
:101D900075E0404601F082FC0090E16811B1C0F8A6
:101DA000841002E0D0F88400E060684601F0CEFCC8
:101DB0000EB0BDE8F087D7B34046B8475FE0214694
:101DC000404610F0BFFCF3E705A9404600F0ACFB2D
:101DD000E0680699016007994160E9E7C4F80C9052
:101DE000E6E7E0680228E3D1CDF83080E0680D90A6
:101DF00027200A900AA9A0680AF050FED8E7E068F8
:101E0000012804D00021404600F0D8FAD0E730463F
:101E100009F029FE68B130460AF020F8304609F092
:101E2000F3FC98B10121304608F001FD0EE026E0F8
:101E30002FE048460AF060F80646404601F02EFCC6
:101E40000090C0F88060684601F080FC01214046A7
:101E500000F0B4FA002EABD10020E060A8E75FEA02
:101E60000A700CD4E068C06848B1007A38B14046C6
:101E700009F0F4FF03E02146404610F09EFA2146A7
:101E8000404608F044FC002892D0204609F086F82D
:101E90008EE7404601F002FC0090703001F058FBE4
:101EA000684673E7F0B587B0B0F908400DF10C0C47
:101EB0000C9E876945688CE8F000448A0025CDE9CE
:101EC00000150294B0F90C10B0F91050B0F90E40A2
:101ED000B0F90A00194410442B46224600F002F8DB
:101EE00007B0F0BD2DE9F0478AB00DF14C0CDDE9EB
:101EF00017849CE86006129F45F48055DFF8BCC04B
:101F00006034CDE902C4CDE9007508F099FF040002
:101F10004FD001F0C3FB30224946049008F0D6FDB3
:101F20000498282226493430FEF787FA0498244F73
:101F3000C0F86480A0F87C600026C0F88060C666A7
:101F4000083FC0F888607968C16504A801F0FEFB0D
:101F500005A9204600F0E8FA1A4841F2827103967A
:101F60000094CDE90110BDF91E00BDF91A10BDF9AC
:101F70001C20431ABDF918005B1C121A521C08F0F1
:101F80005FFF06467868416820468847204601F092
:101F900085FB0490866604A801F0D8FB42F2040099
:101FA000054202D1204609F0C0F85146204600F013
:101FB0003AFA0AB02046BDE8F0870000ED1C0008A0
:101FC000E4020020312800082DE9F041044694B0D5
:101FD000006800F0B7F908B1D94D01E0D84D2C35B3
:101FE000606815281ED00CDC0B281FD004DC0028EC
:101FF0007ED005287DD12FE10E287BD01228F9D183
:1020000041E1162806D0172808D0182808D01C2827
:10201000F0D109E0E86914B0BDE8F081286AFAE778
:10202000686AF8E7A86AF6E76869F4E720680B9041
:102030001C200C90206801F031FB0390016D0BA86F
:102040008847064603A801F081FB022E0FDB95E8C6
:1020500007008DE80700D4E904023346A16904F0C3
:1020600055F820698719A069A0EB06082CE02868BC
:1020700003F086F82169E8690A18521E606902F0C7
:10208000E5F8A269E869111A491C606902F0DEF8F6
:10209000D4E904077F1C394602F01AF93946A069D1
:1020A00002F016F9686803F06BF820693946401CA5
:1020B00002F00EF9A0693946401E02F009F9A06944
:1020C0002769A0F10208BF1C286803F059F84246AE
:1020D0003946606902F0BAF8686803F051F860693F
:1020E00042463946401C02F0B1F8686A022802E014
:1020F00015E1B0E000E10BDDA86803F041F861698B
:102100006A6A881C8B180146424638465B1E27E0E7
:10211000296AB14226DD6069022E074600F10208F5
:1021200001DB374401E007F10207206901DB30449D
:1021300001E000F1020022693B460A444146A2F157
:10214000010202F073F9022E02DBA069821B01E09A
:10215000A269921EA069E9693B46401A4146401CAB
:1021600002F064F9022E02DB6069064401E0666950
:10217000B61CE76928687F1E03F002F83A4631462C
:10218000206902F003F93A463146A06902F0FEF8F0
:10219000E7696868BF1E02F0F3FF20693A463146DE
:1021A000401C02F0F3F8A0693A463146401E02F0A6
:1021B000EDF8E869022802DC286A022823DDA86A13
:1021C000022802DDE1690F1A01E0E769BF1EA86875
:1021D00002F0D6FFE969022909DD20693B46421871
:1021E00000F1020C31466046521E02F01FF9286AC7
:1021F000022808DDA269E8693B46101A3146401CF6
:10220000921E02F013F9286802F0BAFFD4E9062002
:10221000216902F01BF8686802F0B2FFD4E90620D9
:102220002169401E491C521E02F010F8A86A0228BB
:1022300011DDA1692669E469A1F10208271AA41E2B
:10224000B61C7F1CA86802F09BFF23464246394615
:10225000304602F0EBF871E0208A00B2ADF81400CD
:10226000A18A09B2ADF81610228B12B2ADF818206F
:10227000A38B1BB2ADF81A302C69ED68CDE9005480
:1022800001F0B0FF5AE0208A298B0844ADF8140011
:10229000A08AADF81600208B298B401AADF81800E3
:1022A000A08BADF81A00206801F0F8F90390006FD8
:1022B000F0B1022002F0BAFF039890F87C10C1F34D
:1022C000C00100EB8100006C02F05AFF0398406BE4
:1022D00002F06AFF0398006F01F0E0F9039909909A
:1022E000B1F95A2005A901F021FE09A801F02EFA42
:1022F00003A801F02BFA21E0208AADF81400A08A8F
:10230000ADF81600208BADF81800A08BADF81A00C0
:10231000A86802F035FF05A802F0ACF80EE02068CE
:1023200001F0BCF9039030F85A1F41F00C01018014
:1023300003A801F00BFA206809F006FE00206AE607
:102340000C03002038B5002450B101F0A7F900902B
:1023500090F87C00000700D50124684601F0F6F9EA
:10236000204638BD38B505004FF000040CD001F010
:1023700095F90090C06D002180680268284690475A
:102380000446684601F0E2F9204638BD30B587B012
:1023900005004FF000040ED001A900F0C5F8284652
:1023A00001F07CF90090B0F95440684601F0CEF994
:1023B0000CB9BDF9044007B0204630BD002801D05B
:1023C00011F030BB70472DE9FC410D46070028D0C5
:1023D00001F064F90190C16D8C6800F00CF9804641
:1023E0000198456301A801F0B1F92268012138463E
:1023F00090470646226803213846904705462268E2
:102400000021384690470446384600F0DAF92B465A
:10241000324641463846009400F063F9384609F0E8
:10242000BCFABDE8FC817CB50D46040019D001F072
:1024300035F90090006F0190684601F087F9294650
:1024400001A804F0A5F900280BD0204601F026F9D8
:10245000009001990167684601F078F9204609F07B
:102460009CFA7CBD38B50C4605000ED001F016F97B
:102470000090B0F95A10A14204D0A0F85A40284662
:1024800009F08BFA684601F061F938BD38B50C46A1
:1024900005000FD001F002F90022009000EB82014C
:1024A000521C0C64022AF9D3684601F04FF9284601
:1024B00009F073FA38BD2DE9FC470D465FEA0009C3
:1024C0004FF000042DD001F0E9F80190B0F954402C
:1024D000A54223D000F08FF8804601980121A0F892
:1024E0005450C06D856848462A68904707462A6858
:1024F00003214846904706462A68002148469047EF
:102500000546484600F05DF933463A46414648469E
:10251000009500F0E6F8484609F03FFA01A801F0FE
:1025200015F92046BDE8FC872DE9F34F85B000275B
:102530000C46B846059801F0B1F80090C06D012135
:10254000856805982A68904782462A68032105987D
:10255000904704902A6802210598904703902A68C2
:102560000021059890470646009809F005FF83462C
:10257000009809F008FF8146009890F8321089060B
:1025800001D5B0F9588000F036F805460098C06EC5
:1025900010B108F05FFF074625806780A4F804A00B
:1025A000049AABEB020006EB0802401E2A4420818D
:1025B0003A44E280039BA9EB0302521E6281A4F815
:1025C0000CA020827019E681401E6082684601F0EE
:1025D000BDF8B4F90C000190B4F91000029002AA01
:1025E00001A9059800F03AF80198A081029820828C
:1025F00007B0BDE8F08F10B50146002091F83220F9
:10260000920607D5B1F95400002803D1486B02F0B7
:1026100021F8801C10BD70B58AB00C46054601F04B
:102620003DF80990C06D866809A801F08FF8009503
:1026300034B1012C06D0022C0BD0032C04D10AE0BB
:10264000182000E0162001907168684688470AB09B
:1026500070BD1520F7E71720F5E700002DE9FC41D4
:1026600017468846044601F019F80090C16D0568C8
:1026700068468E6801F06AF832680021204690476B
:102680000646204608F0E8FD27E000BF01F006F806
:102690000190B0F900102AB2B0F90430891A9A1AE0
:1026A000B0F90230A3EB2543B34210D190F82800D3
:1026B000000605D53868884209DB491E396006E006
:1026C000D8F80000904202DC521CC8F8002001A893
:1026D00001F03CF8204608F057FE0400D6D1BDE8D2
:1026E000FC812DE9FF4F83B00E460746DDF8409090
:1026F00000F0D4FF0190C16D8D68FFF77CFF0446A8
:1027000001A801F023F82A68012138469047834642
:102710002A6803213846904782462A6800213846B5
:1027200090470546B44207D105998B4504D10699D7
:102730008A4501D14D4541D0A41B0026B0463846FC
:1027400008F08AFD38E000F0A9FF0090806A0106D9
:1027500001D5800502E0810528D50006002825DB8B
:1027600024B122461146384609F0DEF9009890F867
:10277000280000060AD50698A5EB0902A0EB0A007E
:1027800004FB16013846761C09F09AF90098008D72
:1027900080050BD50599A5EB0902ABEB010004FB05
:1027A000080108F10108384609F08AF9684600F086
:1027B000CDFF384608F0E8FD0700C4D107B0BDE8FA
:1027C000F08F70B586B0064600F068FF0590D0E93E
:1027D0001A4505A800F0BAFF54EA050026D069465C
:1027E0003046FFF7A1FEACB1BDF90620BDF90410DB
:1027F000204609F03AF9BDF90A00BDF90610421A5F
:10280000BDF90800BDF90410521C411A2046491CAC
:1028100009F0D3FB002D09D0BDF90600BDF9021067
:10282000421ABDF90410284609F01FF906B070BD20
:102830002DE9F0430446406889B0054608F0ABFD39
:10284000814600F02BFF0290D0F84880D0F88070CD
:10285000466E02A800F07AFF2068172853D008DCE3
:102860000E283AD00F2811D014284CD015283DD16D
:1028700049E01E281ED01F282AD0222840D0312807
:1028800034D10020E06009B0BDE8F0836FF0704102
:102890004046884503D004F07FFE01F02BF9002E5E
:1028A000F1D0D4E902122068CDE90405CDE9061281
:1028B00004A81FE0E0680028E5D02FB1AF4203D0A4
:1028C000384609F0CBFADEE7284609F015FBDAE7CF
:1028D0002146484607F01BFFD5E7E068416800291C
:1028E00004DD00680928EFD00A2805D05EB1204633
:1028F000C4F80490B047C6E7284609F005FBC2E7D4
:10290000C4F80C80BFE7204608F048FBBBE7000096
:1029100051B18200A2F1C042126842F0010382006C
:10292000A2F1C042136009E08200A2F1C042126825
:10293000034B1A408300A3F1C0431A6070470000A4
:10294000FEFF0F00D0E901121143C2681143026972
:1029500011434269114382691143C2691143026AFA
:102960001143426A1143826A1143C26A1143026BE6
:10297000114302689200A2F1C042116081680829E7
:102980000BD101688900A1F1C041096841F0400202
:1029900001688900A1F1C0410A60416B0968426B7E
:1029A000526841EA0211426B926841EA0221426B8D
:1029B000928941EA0241426B128A41EA0251426B1A
:1029C000127D41EA0261426B926911430268521C16
:1029D0009200A2F1C0421160C16AB1F5804F1BD1D3
:1029E000816B0968826B526841EA0211826B9268BE
:1029F00041EA0221826B128A41EA0251826B127D06
:102A000041EA0261826B9269114302689200A2F16D
:102A1000C042C2F8041107E06FF0704201688900FB
:102A2000A1F1C041C1F80421704700002DE9F04335
:102A30000446C56887B090468946002002F0B2FB84
:102A4000064625B1287910B146F0020001E026F0D3
:102A5000020002F0A7FB2069012558B1D4E9021257
:102A60008DE826000395638822880468414648461D
:102A7000A0471EE0124F134B214638681B68427C6A
:102A8000E068984730B9E088012801D0002001E0D3
:102A90003868806BA288E388A1680095CDE90410AE
:102AA000CDE902320195638822884146484604F008
:102AB000BFF807B03046BDE8F04302F073BB00003A
:102AC00078010020700100201CB50024019401ACA5
:102AD000009400F0E7F81CBD2DE9FF4F83B081465C
:102AE00006988A46A0EB0A08109E00200090A2EBF0
:102AF00009043568934654EA080018D02046FDF7CB
:102B00008FFD07464046FDF78BFD87420BDA2046D6
:102B1000444680464846D14682465846DDF818B0BD
:102B2000069001200090002C07DD204606E007B04B
:102B30004846BDE8F04F00F03BB96042A0420AD0E1
:102B40004846D9466442C8F1000883464FF0FF3733
:102B5000DDF818A000E001275148B8F1000F11D0AE
:102B600004EBD4714FEA610B01DACBF1000B4C4856
:102B70000068807E88B3002F02DA3068204430601D
:102B800000257BE000990029016821D0897E11B1E0
:102B90000027804615E007B05A4649465046BDE832
:102BA000F04F04F0A7B928466D1C11F029F838B988
:102BB000D8F8000009EB0701406E42685046904784
:102BC0007F1CA742EFDD6D1E356007B0BDE8F08FBA
:102BD0008A7E1AB10027804617E019E0486E5A46EF
:102BE0005146036807B04846BDE8F04F18472846ED
:102BF0006D1C11F005F838B9D8F8001009EB070082
:102C0000496E4A68514690477F1CA742EFDDDAE7DC
:102C100000250FE008FB05B090FBF4F101EB0A0082
:102C2000009951B11E4A09EB05011268526E5268B3
:102C300090476D1CA542EDDDC7E7194909EB050377
:102C40000968496E4A6801461846F1E708FB05B075
:102C500090FBF4F101EB0A000190306838443060D9
:102C600010F0CEFF48B9009890B10D4809EB05016E
:102C70000068406E4268019890476D1CA542E5DDF2
:102C80003068002F01DA20443060C01B30609CE7C0
:102C9000034909EB05000968496E4A680199EBE7A9
:102CA000780100202DE9FF470F464049164680462F
:102CB00009680C981D460A7E012A1CD0A8EB060064
:102CC000791B50EA01031CD0A2F1010912F02AFA83
:102CD00000F58060824603F04AFE00FB09F450468E
:102CE00003F04AFE00FB09F1002C0CDAC4F5007079
:102CF000801240420AE00090324639464046FFF7D3
:102D0000EBFEBDE8FF8704F50074A012002904DA89
:102D1000C1F5007189124C4202E001F500718C127C
:102D2000002804DD411C01EBD171491003E000EBE8
:102D3000D0714910401E00EBD0704210002C04DD11
:102D4000601C00EBD070401003E004EBD470401026
:102D5000641E04EBD47308EB0104ADF800403C188A
:102D6000ADF80240A8EB02045B10B21AADF80440C3
:102D7000ADF808203144FC1AEA1AADF80C102844CA
:102D8000ADF80A20ADF80E000023ADF806401A4653
:102D90000421684600F07AF8394640460CF0E8FF16
:102DA000294630460CF0E4FFABE700007801002034
:102DB000064A13681A7E012A05D0521E02EBD2720F
:102DC000521000F005B85A6E526810477801002082
:102DD0002DE9F05F0646884640F2C32002FB00F171
:102DE0004FF47A7091FBF0F702FB02F102EBD27024
:102DF00001EB600B1446B118234A301B7F1C12688C
:102E0000526E13680A4641469847012538E000BFD4
:102E100005FB05F004FB040159451CDDBC4219DD2E
:102E2000194B06EB050AA6EB05091B68AAF101027E
:102E300008EB04015B6E09F101001B689847124B17
:102E4000AAF10102A8EB04011B6809F101005B6E05
:102E50001B689847641E0C4B3219301B1B68924646
:102E600008EB05015B6E81461B689847064B52468E
:102E7000A8EB05011B6848465B6E1B6898476D1CF4
:102E8000BD42C5DDBDE8F09F780100202DE9FF4F70
:102E900043F6FF740F46664283B09B46814600218D
:102EA0000BE000BF09EB8100B0F90200A04200DA9C
:102EB0000446B04200DD0646491CB942F2DB6748D1
:102EC0000068406900280DD0B0F906101A46A1EB41
:102ED0000B01B14200DA0E46B0F90200801AA0429E
:102EE00000DD0446B4E0DFF878A100200546CAF80A
:102EF000000088E0781E854201DA6B1C00E00023A8
:102F000009EB850C09EB8302BCF90200B2F902104F
:102F1000A04244D1A14215D139F92330059A39F99B
:102F2000251003EB020C4D4A05981268084404EB87
:102F30000B01526E6045136801DA62462AE00246D0
:102F4000604627E02846A4464FF000087A1E0BE0B2
:102F500008B1401E00E0781E09EB8003B3F902308F
:102F6000634504D108F101089045F1DB2346A342F3
:102F700048D01A1B39F92500A1EB040C059B92EAF5
:102F80000C0F09D4354A184404EB0B011268526E39
:102F900013680246984735E009F080FE32E0A1420E
:102FA00030D001DBA04203DDA0422BDBA14229DCB3
:102FB000E04688420ADC0346A04223DC0846A142E0
:102FC00020DBB8F900C0B2F9001008E00B46A142BE
:102FD00018DCA04216DBB2F900C0B8F90010E21A02
:102FE000A1EB0C0151430029A0EB030202DD01EB30
:102FF000620102E0A1EB6201491CC01A91FBF0F0F2
:103000006044C9E76D1CBD42FFF674AF059800909F
:1030100004EB0B00019000208046054613E01149A7
:10302000B8F1000F31F915A009D0009901EB0A029F
:1030300008440A490968496E0B680199984788F065
:10304000010850466D1C064909688D42E7DB641C87
:10305000B4427FF748AF07B0BDE8F08F7801002099
:103060004C050020DC8A002010B5002002F086F814
:103070006FF07F4002F084F8012002F0C5F80020D4
:1030800002F0CAF8002002F0D1F8002002F08AF81D
:103090000448006802F088F8BDE81040002002F003
:1030A0008FB80000740100202DE9F0410246002590
:1030B0000026002000230024002791F803C00CF014
:1030C0000F0591F803C00CF0100CBCF1000F03D0F9
:1030D00091F802C04CEA050591F800C0BCF1000F60
:1030E00031D0146800202BE04FF0010C0CFA00F3F3
:1030F000B1F800C00CEA03069E4220D183004FF0D5
:103100000F0C0CFA03F7BC4305FA03FC4CEA040469
:1031100091F803C0BCF1280F06D14FF0010C0CFA56
:1031200000FCC2F814C00AE091F803C0BCF1480FDB
:1031300005D14FF0010C0CFA00FCC2F810C0401C85
:103140000828D1D31460B1F800C0BCF1FF0F34DD02
:10315000546800202EE000F1080C4FF0010808FA36
:103160000CF3B1F800C00CEA03069E4221D18300A3
:103170004FF00F0C0CFA03F7BC4305FA03FC4CEAC2
:10318000040491F803C0BCF1280F05D100F1080C2C
:1031900008FA0CF8C2F8148091F803C0BCF1480F8B
:1031A00007D100F1080C4FF0010808FA0CF8C2F83A
:1031B0001080401C0828CED35460BDE8F0814161E6
:1031C00070470161704700002DE9F04FDFF828B12A
:1031D00091B04FF0FF35DBF80030B3F922100691C3
:1031E000DE69B3F924A0F469A189814206D8E28995
:1031F000824203D3471AD4F8008012E0D4E9018157
:10320000002970D00A8882426DD84D8885426AD3E1
:10321000801A82B2486800EB8200B0F90070B0F901
:103220000250781C5FD0307EA27C014600FB02F980
:10323000207CCDE90710B3F92A60304604F0FCF990
:10324000C0B20E90DBF8001007FB0980A37C8A6BEC
:103250000127CDE90402CDE90273C869089AC17E4D
:10326000807ECDE90001DDE90603514603F0E0FC74
:10327000681C18D046F0020004F0DEF9DBF800000C
:10328000A37C05FB0981826BCDE90273CDE90412B1
:10329000C069089AC17E807ECDE90001DDE90603A0
:1032A000514603F0C5FCDBF800005D46C069417E75
:1032B000007E814214D9022E12D086F0040004F060
:1032C000BBF92868C069027EC37E857E02FB03A12C
:1032D000437E089A0698534402FB050203F066FEFB
:1032E0000E9804F0A9F9DBF80000627C418C1144CF
:1032F000418411B0BDE8F08F7801002004480068D7
:10330000C069C06909B1027C0A60407C7047000056
:1033100078010020022008807047C06982898A42B3
:1033200002D8C2898A4210D2806880B102888A425B
:103330000DD843888B420AD3406800EB8100A0EB94
:103340008200B0F90000002801DB01207047002056
:10335000704700002DE9F0432F4C034687B02068EA
:103360001946B0F92A80C069C06900F082F80028C7
:103370004ED041680088181A01EBC0054046AE786F
:1033800004F05AF9814620686A680123816BCDE90F
:103390000236CDE90421C169CB7E8A7ECDE90023C6
:1033A0000B7EB0F924102A78B0F9220003F040FC1B
:1033B0002068C069477E067EB7421DD9C07E47435C
:1033C0004643B8F1020F17D001F0D5F8804601F05E
:1033D000B5F801F0D5FE21682A78CB69B1F9220051
:1033E000B1F92410DB7E02FB0302CB19314403F058
:1033F000DDFD404601F0C4FE484604F01DF920689A
:103400006A78C369B0F922109B7E02FB03114184E4
:1034100007B0BDE8F08300007801002030B50E4C05
:1034200005460B4620682946C069C06900F021F8AE
:10343000002810D04168008824682A1A0120E46915
:1034400000EBC200085CA47E6043002B03D011F89F
:1034500032106143196030BD7801002001200880DE
:10346000704700B5C06900F004F8002800D00120C2
:1034700000BD06E002888A4202D842888A4202D20F
:1034800080680028F6D17047F8B505460C000DD0CD
:10349000084600F015F8060010D000F0FFF82246AC
:1034A00000902DB12946FCF741FF04E00020F8BD53
:1034B000002103F0DEF9684600F048F93046F8BD17
:1034C000002801D009F07EBD704738B50546FFF7EA
:1034D000F7FF040009D000F0E1F82A46002100902F
:1034E00003F0C7F9684600F031F9204638BD000006
:1034F000024A106021F0030050607047F0890020FC
:1035000010B5002814D004460A48406B10F8341057
:1035100000290DD002290BD2042101EBC40141582E
:10352000486809F0D7FB2046BDE8104010F080B98C
:1035300010BD000030890020002805D0034AD16B5F
:10354000016001B14860D0637047000030890020FD
:1035500010B504460068FFF7D3FF0020206010BDBF
:1035600070B50D460646002405E000BF06EB84005A
:10357000FFF7EEFF641CAC42F8DB70BD2DE9F041B3
:1035800004460EF0C3FB2848E41C24F00305016C3C
:103590002D1DA94200D90D46C46B13E054F8042C2C
:1035A000AA420ED184B1216809B162684A6061689B
:1035B00009B122680A60C26BA24231D12168C1639D
:1035C0002EE02468002CE9D18046816BC0680F187A
:1035D00057F8040C3E1A306838B1002010F092F908
:1035E00057F8040C3E1A3068D0B97068A84217DB4F
:1035F0003044441B3046241D10F03CF9D8F80C1020
:10360000491BC8F80C10D8F814102944C8F8141035
:103610007068401B02D0314609F05CFB44F8045C42
:103620002046BDE8F08100003089002010B500245C
:103630000EF06CFB0C490F2001EBC002526C1AB16A
:1036400001EBC000406C08E0401EF5D508E0416881
:10365000A14200D90C46806810B180680028F6D1DC
:10366000A4F10C0010BD0000308900200348006860
:103670000C38002800DC0020704700003089002052
:10368000002138B10449042202EBC000496B0858FC
:1036900041680C3908467047308900200549CA69DD
:1036A000521CCA61496B01EBC0010A78521C0A70B6
:1036B00000F064B8308900207CB506460C46084608
:1036C000FFF7FEFE05001CD0DEB13046FFF7D8FF45
:1036D000A04200DA04462846FFF7E0FF009030469B
:1036E000FFF7DCFF0146019022460098FCF71EFE22
:1036F000684600F02BF801A800F028F83046FFF7E4
:10370000FFFE28467CBD000010B5FFF78FFF642246
:103710000649B0F5800F04D990FBF2F0096A4843DE
:1037200010BD096A4143B1FBF2F010BD30890020A1
:103730000549102805D94A68B0EB520F02D350084A
:1037400000E0102088607047F08900200A49026874
:103750004B6B52F8082C03EBC2021378022B03D3F5
:10376000CB690BB15B1ECB611178491E1170002132
:10377000016008467047000030890020002806D00C
:103780000349042202EBC000496B08580830704717
:10379000308900202DE9FC414FF000060B465FEA1E
:1037A000000834462BD032B111461846FFF76CFEA4
:1037B000060000D101244046FFF770FF0090078803
:1037C00045686846FFF7C2FFCCB9B9002846091D15
:1037D000FFF772FF050015D0FFF760FF019040F87A
:1037E000276001A8FFF7B2FF4046FFF757FF0090A0
:1037F00045600188491C01806846FFF7A7FF204605
:10380000BDE8FC813046FFF77BFE0124F7E7082086
:10381000FFF75BBE7CB5050023D0FFF73FFF0090AC
:103820004068C0B1FFF73AFF0024019005E001981D
:1038300000EB8400FFF78CFE641C00980088A04217
:10384000F5DC01A8FFF782FF0098001DFFF780FE5E
:103850000099002008806846FFF778FF2846FFF7A8
:103860004FFE7CBD38B5002430B1FFF717FF009044
:1038700004886846FFF76AFF204638BD38B50D4614
:10388000002448B1FFF70AFF2946009000F05BF8DA
:1038900004466846FFF75AFF204638BD38B50D4646
:1038A000002448B1FFF7FAFE2946009000F05DF8C9
:1038B00004466846FFF74AFF204638BD2DE9FE431F
:1038C000984691460D460024D0B3FFF7E7FE0190DD
:1038D0000788466801A8FFF739FFBD4230D27EB3A2
:1038E0003046FFF7DBFE009050F825406846FFF7B2
:1038F0002DFF24B12046FFF7C3FE404511D04046BE
:10390000FFF7E3FD04000CD03046FFF7C7FE00EBE5
:10391000850500902846FFF71BFE68462C60FFF7E0
:1039200015FFB9F1000F0BD054B12046FFF7B6FEDA
:10393000424649460290FCF7F9FC02A8FFF706FF51
:103940002046BDE8FE8338B50D4601880024A94213
:1039500009D9406838B1FFF7A1FE009050F8254022
:103960006846FFF7F3FE204638BD10B50024FFF788
:10397000EAFF10B1FFF792FE0446204610BD70B575
:103980000C46054600F0F6FEC1B223462846BDE8C7
:1039900070400022AFF30080F0B52D271C68B0F115
:1039A000004F08D0002600280DDA651C1D60277026
:1039B0004042012408E0651C01261D606FF00040B4
:1039C0002770491E01E00024091BC9B22AB3491E11
:1039D000C9B222E00C46491EC9B2944205D1124C2C
:1039E00027781C68651C1D602770104C54F8215006
:1039F00090FBF5F4E4B20A2C11D804FB150011B9C0
:103A00000EB1641CE4B20A2C02D10124491CC9B2D3
:103A10001D686F1C30341F602C700029DAD11968C2
:103A200000200870F0BD00006C01002018DC0208C6
:103A300010B5002807DD0A682B24531C0B60147096
:103A4000096800220A7010BD70B506460D4614467E
:103A5000104600F097FD0300164804EB84010AD0DD
:103A600050F8210041688068711A2A1ABDE8704038
:103A7000184601F0A3BB00EB8104A268B24201D05A
:103A8000012200E00022E368AB4201D0012300E004
:103A900000231A430CD0236943B150F821008168F8
:103AA00040686A1A311A184601F02AFBC4E9026517
:103AB00070BD00006C8B002010B5C2B2CBB2D21A20
:103AC00000D5524293B25B43C0F30722C1F30724EF
:103AD000121B00D55242000C92B2A0EB114002FB27
:103AE000023200B2002801DA404200B280B200FB8C
:103AF000002010BD10B50021084600F0BFFD43F6C0
:103B0000FF725042BDE8104013460146AFF30080FB
:103B10002DE9FC4107461C4615460E46042003F0DD
:103B20008BFD80461148C068C16C006D0F4406448F
:103B30000D440444ADF80070ADF80450ADF80260D7
:103B4000ADF80640684608F025FC07E023462A4603
:103B50003146384603F02AFA08F0D0FB0028F5D1A8
:103B6000404603F069FDBDE8FC8100006C010020C7
:103B7000B0F90630B0F90420B0F90210B0F9000035
:103B8000FFF7C6BF2DE9F8431C00DDE9089816468B
:103B90000F46054602D107F041FB044600962E6809
:103BA00043464A4621462846B047061E35D007F010
:103BB00029FB8146698A304606F039FE304608F016
:103BC00076FA484608F073FA4FF000080CE000BFA0
:103BD000CDF8008055F81CCF00231A4649462846E8
:103BE000E047E0B108F063FA7F1E002FF0DC1D21F2
:103BF000484608F04CF8601C0ED007F03FFB30B18F
:103C0000FFF7BCFD8469B44201D02000F8D1B44272
:103C100002D0304608F070F93046BDE8F8833046EF
:103C200007F0F0F90020F8E72DE9F0411C461646B0
:103C30000D460746022B02DB0020BDE8F0811C2068
:103C4000FFF79CFC0028F8D00DB105610AE0094A95
:103C500052F8241009B905E011460A68002AFBD180
:103C60000969016184618682002101604160C0E9C7
:103C70000217E2E79001002070B51D46FFF7D4FF60
:103C8000040009D000F00EF8E068006820B903488D
:103C9000006800EB85008465204670BD7801002037
:103CA000FFF74ABC70B590B38269022A30DA1E4C25
:103CB00054F8221019B944F8220032E019464B6832
:103CC000002BFBD106E0CB68C5681B682D68AB42B2
:103CD00003DD09680029F6D11AE0C1B1CB68C668D6
:103CE0001B683668B3420CD1838A012B05D008E0EB
:103CF0001946DB681B68AB4203DB0B68002BF7D16E
:103D000029B14B6833B118604A68426004E0FFE7AC
:103D1000012070BD44F822004860884200D1002193
:103D20000160002070BD0000900100200A4A8169F6
:103D300052F82130834202D1036842F821304168B1
:103D400009B102680A60016809B142684A6000214D
:103D5000016041607047000090010020022801DBF3
:103D600000207047054951F8200004E0C168096847
:103D70000029F6D000680028F8D170479001002093
:103D8000F8B5074615460E460C20FFF79EFB0400CB
:103D90000AD0FFF783FC05490090C0E900170681AF
:103DA00045816846FFF7D2FC2046F8BD0854030859
:103DB0002DE9F8431D461646884604000CD0FFF74F
:103DC0006DFC0090006807686846FFF7BFFC2B4653
:103DD000324641462046B847BDE8F88370B50446F0
:103DE00001F0CAFD051908E000F0FEFA052C01DD1E
:103DF000052000E0204601F0B1FD01F0BDFD2C1AC8
:103E0000002CF1DC70BD1FB503A9CDF80CD0FFF775
:103E1000B6FD684600F002F81FBD00002DE9FC4722
:103E200006005BD000F0C6FB3B4C81462068B0F931
:103E3000228000F0F5FB216807468A8CD01B88841D
:103E400041E000BF47F6FF71304602F02DFB82468D
:103E50000146304602F0FEFA2168054691F82C0032
:103E600000F0030001283FD0022839D000204A8CFE
:103E7000101A4884ADF800006A1E1044ADF8040022
:103E8000888CADF80200A9F101010844ADF80600E4
:103E90006A465146304601F049FF2168BDF80200EC
:103EA00088845146304601F027FC064430780A28C1
:103EB0001CD00D281AD0BDF8000021682844488481
:103EC000307818B1761C30780028BBD12068818CFE
:103ED00039448184818D21F003018185BDE8FC870F
:103EE00005EBD5704010C2E72846C0E7206890F87F
:103EF0002C1001F0030101290BD0022909D0018CFB
:103F0000418431780A29DBD1828C02EB090181845A
:103F1000D6E7A0F82280F4E778010020024B1B6866
:103F200059849A84FFF77ABF7801002047F6FF731F
:103F3000AFF300802DE9FC411F46904606000D4678
:103F40004FF0000416D065B1084608F055F804009B
:103F500007D002462946684602F013FB684608F07F
:103F60004BF83B4642462946304601F037FF204693
:103F700008F042F8BDE8FC812DE9FF4F87B090467C
:103F80008946070079D00C68D9F8045021B228B2CC
:103F9000401A401C029000F00DFB064618F00C0F72
:103FA0001ED038460A9A029901F0AFFC08F00C01C5
:103FB000042904D0082902D00C2911D104E02914C5
:103FC00000FB1610401C09E02114C1EB254200FB48
:103FD0001620401C00EBD07001EB600060F31F4422
:103FE000484608F009F85FEA000B09D00246494646
:103FF00004A8CDE9044502F0C4FA04A807F0FCFFC8
:10400000A6F1010A38460A9A029902F001FC0390CF
:104010000AEB244060F31F45CDE90045384603997B
:1040200002F018FA18F003010ED0012928D0022955
:104030000ED1B9F90420B9F90010521A101A00EB88
:10404000D07001EB600001E0B9F80000ADF80000AD
:104050006A463846039901F069FE38460A9A029981
:1040600002F0CCFB074406EB244060F31F44387891
:104070000028C7D1584607F0BFFF0BB0BDE8F08F4E
:10408000B9F80410081A401CE0E700007CB50646A9
:1040900010480068C36C006D5D1884183188681E74
:1040A0000844ADF80400ADF800507188601E084463
:1040B000ADF80600ADF80240684608F06BF906E07E
:1040C000224629463046FEF7B1FC08F017F90028D1
:1040D000F6D17CBD780100201CB50A460146684631
:1040E00002F041FB2448BDF80010006830F84C2F66
:1040F0001144ADF80010BDF8021082881144ADF8EB
:104100000210BDF8041002881144ADF80410BDF887
:10411000061080880844ADF80600684608F03AF9B1
:1041200027E000BFBDF900400BE000BFBDF9021061
:10413000204602F0ABFEBDF90610204602F0A6FEB6
:10414000A41CBDF90400A042F0DABDF902400AE067
:10415000BDF90000214602F099FEBDF90400214698
:1041600002F094FEA41CBDF90600A042F0DA08F0AB
:10417000C5F80028D6D11CBD780100202DE9F04FEC
:104180000C46164987B00D68DDE91098E96C0F18E8
:10419000286D8D180619C418ADF81070ADF81450BC
:1041A000ADF81260ADF8164004A808F0F3F8002846
:1041B00011D0DFF82CB04FF0000ACDE90098CDE91E
:1041C00002BA2B462246394630460BF09FFC08F0D7
:1041D00095F80028F1D107B0BDE8F08F78010020F4
:1041E000F56E00082DE9F04F164C87B02568DDE923
:1041F0001098EC6C2718286DA5184618C418ADF84F
:104200001070ADF81450ADF81260ADF8164004A867
:1042100008F0C0F8002811D0DFF82CB04FF0010AE8
:10422000CDE90098CDE902BA23462A463146384600
:104230000BF06CFC08F062F80028F1D107B0BDE883
:10424000F08F000078010020356E00082DE9FC4158
:10425000104F04463B68D86C4518196DADF80050F6
:104260000E198418ADF80440ADF80260ADF8066090
:10427000684608F08FF808E0386822463146406EFC
:1042800003682846984708F039F80028F4D1BDE8BB
:10429000FC810000780100202DE9F0410B4C2568DD
:1042A000EC6C2718286DA5184618C418002008F0D3
:1042B00071F807E023462A4631463846FEF704FCEB
:1042C00008F01CF80028F5D1BDE8F0817801002045
:1042D0007CB50E4D2A68D36C1E18106DADF80460C5
:1042E0004418ADF80060ADF80640ADF802406846ED
:1042F00008F050F807E028682146406E42683046D2
:10430000904707F0FBFF0028F5D17CBD7801002025
:104310002DE9FC411C4C2468E66C94F818C0371851
:10432000206DACF1010C4518C418A7EB0C00164425
:10433000ADF8000006EB0C00ADF80400A5EB0C0096
:10434000ADF8020004EB0C00ADF80600684608F07A
:1043500021F815E032462946384602F06BFD324618
:104360002146384602F066FD621E691C384602F09E
:10437000C1FD621E691C304602F0BCFD07F0BEFFA5
:104380000028E7D1BDE8FC81780100207CB50E4B08
:104390001B68DC6C2618186DADF800604518841891
:1043A000ADF80460ADF80250ADF80640684607F07D
:1043B000F1FF06E022462946304602F09BFD07F059
:1043C0009DFF0028F6D17CBD7801002070B50C4619
:1043D000054600F0E1F810B10121C0E900142846BB
:1043E000BDE8704007F00CBF10B5002400E00124C8
:1043F00000F004F80028FAD1204610BD094810B595
:104400000068002410B1804700B1012406F098FE36
:1044100000B101240448006810B1804700B10124B4
:10442000204610BD9C010020980100202DE9FC4190
:104430000F4C2568EC6C2718286DA5184618C41871
:10444000ADF80070ADF80450ADF80260ADF806406C
:10445000684607F09FFF07E023462A463146384664
:1044600002F0A4FD07F04AFF0028F5D1BDE8FC8169
:1044700078010020B0F90630B0F90420B0F902103C
:10448000B0F90000FFF7D2BF08B50B46002805D0F1
:10449000009281888268C08800F001F808BD10B5DC
:1044A0000828029C30D008DC04FB01F401280AD063
:1044B000022813D0042804D11CE0102828D020287A
:1044C0002CD0002010BD04EBD30003F00701105CDA
:1044D000C1F10701C84000F0010010BD04EB9300DA
:1044E0000621105C01EA4301C1F10601C84000F059
:1044F000030010BD04EB5300D907105C02D000F09C
:104500000F0010BD000910BD04FB0130105C10BD90
:10451000481004FB003032F8100010BD881004FB76
:10452000003052F8200010BD034951F82000C16846
:104530008A6A0821104700009001002010B502F09F
:10454000DFFDBDE8104002F0BDBE00000249096871
:10455000C9694A680021104778010020024A1268A0
:10456000D26952681047000078010020002801D06D
:1045700006F038BE704710B502F0CAFDBDE8104025
:1045800002F0A0BE0021022802D2024951F82010F8
:1045900008467047500500201FB500210191029187
:1045A00003912A210091694607F06CFB039804B03F
:1045B00010BD000002480068C069407E70470000DE
:1045C0007801002010B907480068C06990F82020E1
:1045D0008A7090F822200A7190F82120CA708268AF
:1045E000104700007801002001F02ABF70B5144682
:1045F0000D4602F0F9FD002802D00020286020605E
:1046000070BD01F07BBF10B5044601F069FF0146A3
:104610002046BDE8104001F01DBF01F0ADB900001B
:104620000A490020096891F82C2002F00C02042AA3
:1046300007D0082A01D00C2A02D1C869007E4008A0
:104640007047C869007E401E704700007801002056
:10465000407E7047017EC07E48437047024951F852
:10466000200000690068704790010020024951F85D
:1046700020000069406870479001002070B50D4629
:104680000DF0CEF9044628460DF0D2F9204370BD56
:104690002DE9F0411948016821F001010160184835
:1046A000012585601749016000681749884200D0DC
:1046B000FEE701F06DFA154E2E20307001F062F920
:1046C00013480DF0D5FA15F01DFE074602F0B4FDB3
:1046D00010B102F0C5FD38B902F0CBFD044602F07E
:1046E000B4FD214602F0A2FF0021084600F070FD53
:1046F00007F0AEF875703846BDE8F081002000E0A4
:1047000000300240C2A507F4CDB5E8B56C01002029
:10471000FC8900202DE9FC4107461C4615460E4643
:10472000012000F03FFD804611480068C16C006D1B
:104730000F4406440D440444ADF80070ADF8045035
:10474000ADF80260ADF80640684607F023FE07E0CA
:1047500023462A463146384602F028FC07F0CEFDB3
:104760000028F5D1404600F01DFDBDE8FC810000A9
:104770007801002010B5011E01DD024600E04A422A
:10478000064B012053F82040944202D8401C0A28CE
:10479000F8DB002900DA401C10BD000018DC02081C
:1047A0001CB520B90C480068006E002812D0FEF736
:1047B00075FF009044696846FEF7C8FF002C09D0D9
:1047C0002046FEF76BFF019081688968884701A841
:1047D000FEF7BCFF1CBD00007801002001490A461D
:1047E00000F002B801F0FFFF2DE9F04387B0154655
:1047F0000C465FEA000842D0002000F0D3FC81465E
:1048000020480068066E4046FEF748FF00900068AA
:10481000806900F08DFC074640F6FF70C44204D169
:104820000098B0F90440B0F906500098611E028962
:10483000ADF804401144ADF808104189681E0844E1
:10484000ADF80650ADF80A0006F03CFA6846FEF7EF
:104850007DFF01A807F09EFD06E02A46214640465E
:1048600000F04EFB07F04AFD0028F6D1384600F074
:104870005FFC304600F066F9484600F093FC07B054
:10488000BDE8F083780100202DE9FE4F83461A48E9
:104890008A461A4900680C9E9846407C914600273B
:1048A00051F82040E1680968042903D02468002CED
:1048B000F8D100E01CB9FFF751FA041E19D0E068E6
:1048C0000121C26A20469047050011D02469A068E2
:1048D0008047401C02D10A4C46F001060096CDE903
:1048E000015443464A465146584600F0AFF9074640
:1048F0003846BDE8FE8F00007801002090010020BE
:10490000F44A030838B5040018D00D480068006E5A
:10491000A04201D100F002FC2046FEF7BFFE00904D
:10492000406908B100F0DFFF00980068FFF7B8F9B0
:104930006846FEF70BFF2046FEF7E2FD38BD00009B
:10494000780100202DE9FF4FDFF83891074683B04A
:10495000D9F800009A468B46447C4B480057012802
:10496000204606DD02F06EFC0546204602F07EFC85
:1049700005E002F04FFC0546204602F051FC0446DB
:104980001FB302A901A8FFF73CFEB7F900000028F9
:1049900000DA0020B7F902608046002E00DA002617
:1049A00001984119B7F90400491E0DF09DFB054619
:1049B00002980119B7F90600491E0DF095FBA5EB09
:1049C0000802841B521C641C03E04FF0000846469A
:1049D0002A46BAF1000F01D1C4F1000A002A4FDDC6
:1049E000002C4DDD10980090534631464046FFF7AD
:1049F0004BFF5FEA000A10D000F06AF80746A042B9
:104A000006D0D9F80000806C10B1322108F072F89D
:104A1000504600F097F8002521E059460598884750
:104A2000012007B0BDE8F08F611BB94202DA5046A1
:104A300000F072F83DB172194146504600F0A4F8FA
:104A40005046FFF7ADFE5946059888470F48016864
:104A500009B1002088475046FFF7C0FE3D44A542FB
:104A6000E2DB5046FFF74EFF002000F06BF8A74254
:104A700006D0D9F80000806C10B1332108F03AF864
:104A80000020CEE778010020B00100209C05002026
:104A900038B5002460B1FEF701FE0090006800699F
:104AA0008068804702F076FF04466846FEF74EFEB7
:104AB000204638BD38B5002808D0FEF7EFFD00F1DC
:104AC000180400906846FEF741FE204638BD0000FD
:104AD00038B5002418B907480068006E38B1FEF7F1
:104AE000DDFD0090B0F90A406846FEF72FFE204633
:104AF00038BD00007801002070B505460024284626
:104B000008F02AFE641C18B1BDE8704000F068B8D7
:104B1000052CF4DB70BD000038B50C4620B9084800
:104B20000068006E00280AD0FEF7B8FD0090B0F9CA
:104B30000A10A14200DD44816846FEF707FE38BD39
:104B400078010020F8B50F4E05003068046E16D0CD
:104B50000CB100F0E3FA06F017FA2846FEF79EFDC6
:104B6000009031680D660068FFF79CF86846FEF714
:104B7000EDFD02F0BFFD02F039FD2046F8BD00F06A
:104B8000CDFAFAE7780100207CB515460C4620B92D
:104B900012480068006E00281FD0FEF77FFD2DB27E
:104BA0000090C58024B2848002F020FD0098406906
:104BB00080B1FEF773FD009A0190B2F90810818070
:104BC000B2F90A20C28011B10AB10480458001A85F
:104BD000FEF7BCFD6846FEF7B9FD7CBD78010020FC
:104BE00001490A4600F002B801F0FFFF7FB5154603
:104BF0000C46060028D0FEF751FD40F6FF710190EB
:104C0000CC4203D1B0F90440B0F906500289611ECC
:104C10001144ADF80840ADF80C104189681E0844F5
:104C2000ADF80E00ADF80A5001A8FEF78FFD02A8FE
:104C300007F0B0FB06E02A462146304600F048F96E
:104C400007F05CFB0028F6D17FBD00002DE9FF4F87
:104C5000DFF8E8B083B01C46DBF80010DDE9106037
:104C600092464FF000084B7C42461299FEF7DCFF5B
:104C7000050060D028698068804702F08BFE81467D
:104C80000AFB09F1C91DCF08FEF73EFDF10705D16A
:104C9000C11700EB9170801000EB4000002C09DC84
:104CA0001FB11838B0FBF7F000E000206442A042CA
:104CB00000DC0446F00707D10090DDE9030123463C
:104CC000524600F099FD8046002C03DC2846FEF792
:104CD000E7FF30E004FB07F01830F10702D0FEF7E1
:104CE000EFFB01E0FEF7F1FB06001CD0FEF7D6FC5F
:104CF00001900560039981800499C180A0F808A003
:104D00004481C0F81480C0E9037901A8FEF71EFDB4
:104D10001298AE602861DBF80000407CA861304644
:104D200007B0BDE8F08F2846FEF7BAFFB8F10000E3
:104D300001D0FEF7E5FB0020F2E70000780100203B
:104D40002DE9F74F8EB0144689460E98FEF7A6FC63
:104D50000990B0F908B0B0F90A60006800694068CD
:104D60000C9009A8FEF7F2FC564D574F2868407C7E
:104D700057F82000C1688A6A0821904707901828D0
:104D800001D3202007902868407C57F82000006954
:104D9000069003C80B904D48814201D0012000E0ED
:104DA00000200A90002000F0EEFD00287DD1286848
:104DB00009EB0B01B0F90C20891A491E002902DD0C
:104DC000ABEB010500E05D46B0F90810494505DD93
:104DD000A1EB090189446D1A089101E000210891B5
:104DE000002D6BDDB0F90E20A119891A491E00298A
:104DF00002DDA6EB010800E0B046B0F90A00A042CF
:104E000004DD061B3444A8EB060800E00026B8F1D8
:104E1000000F53DD089801900DA95F46DDF830A022
:104E20000E980091FFF746FE774300EB870101984B
:104E30002B4601EB800200994846CDE900A12146AE
:104E400001F07CF80090002838D00A98E8B1DDE93C
:104E500006322946009800F095FEB0B90698009FEA
:104E6000DA46D0F810C0BCF1000F05D004235A4632
:104E700039463846E04708E00B993868884701C74B
:104E8000AAF101005FEA000AF6D100990020079A12
:104E9000CDE90301059001200090CDE901022146F2
:104EA0000346641C2A46484600E007E001F0C0FEC5
:104EB000A8F10100761C5FEA0008ABD111B0BDE893
:104EC000F08F00007801002090010020E3720008BC
:104ED000F8B515460E460746FEF7E0FB0090006861
:104EE0001621C068426A0020904704466846FEF7D3
:104EF0002DFC002C03D02A4631463846A047F8BD89
:104F0000F8B516460F46050012D0FEF7C7FB009015
:104F100044696846FEF71AFC2846FFF7B9FD0346C8
:104F2000082800DD2CB13246394628460FF00EFD28
:104F3000F8BD3246394628460FF0A8FEF8BD10B538
:104F4000002821D009B30AB3B1F90040B2F900300A
:104F50009C4200DA23460380B1F90240B2F90230E4
:104F60009C4200DA23464380B1F90440B2F9043090
:104F70009C4200DD23468380B1F90610B2F9062079
:104F8000914200DC1146C18010BD11460A680260E2
:104F90004968416010BD00280BD003880B44038092
:104FA000838819448180418811444180C18811441B
:104FB000C180704770B50E4D0446D5E900018842A6
:104FC00009D10C49884201D13C3000E00C3807C8B7
:104FD00084E8070006E090E80E0084E80E000CF07C
:104FE0009DFD2860207A002800D0012070BD0000BF
:104FF00070070020948B00200448D0E90010814203
:1050000001D1012070470020704700007007002088
:10501000054A10B5034911600FF0A4FABDE810402D
:1050200000F00EB979B40008A001002070B5094C59
:105030000020D4E900218A420AD0D2E90056104665
:105040000CF076FD20603146284606F043FD012035
:1050500070BD0000C80100202DE9FC41154DDDE9BF
:1050600008742D68B5F90860864200DD3046B5F950
:105070000C60964200DA3246824219DBB5F90A60CA
:105080008E4200DD3146B5F90E509D4200DA2B46C6
:105090008B420DDB00E02C46E5682D6825B1042D20
:1050A00002D02568002DF6D1CDE9007402F088F910
:1050B000BDE8FC8178010020B0F90220B1F906308A
:1050C0009A4213DCB1F90220B0F906309A420DDCA5
:1050D000B0F90020B1F904309A4207DCB1F90010B0
:1050E000B0F90400814201DC0120704700207047C4
:1050F0000146024870220068FBF79FB97801002042
:10510000002801D00EF04ABE70470000024970220C
:105110000968FBF792B900007801002010B502F091
:105120001BFA02F0E7FABDE8104005F0CBBD000025
:1051300070B5094D0446022C2868467C09D22046E9
:10514000FEF70CFE28B128684474FFF7E7FF034818
:105150000460304670BD000078010020AC040020DF
:1051600070B50C46054606F0B5FC002805D1214671
:105170002846BDE8704000F073B870BD02F00CBA6C
:1051800002F042BA034A6FF070411268116302F0F4
:1051900041BA000078010020014988607047000092
:1051A0006C01002002F048BA03490968CA6900B1DD
:1051B000C8611046704700007801002002F058BA1C
:1051C000024909688A7E8876104670477801002077
:1051D000094A30B41080094A1180094A1268537C88
:1051E000084A52F82330DA68146A0A46A44601468F
:1051F00030BC184660470000B8010020BA0100200A
:105200007801002090010020024909680A7E087692
:10521000104670477801002003490968B1F92C2035
:10522000888510467047000078010020034909680E
:10523000B1F92A2048851046704700007801002007
:1052400002480068002800D0004770477805002019
:1052500002498A6802B98860FFF7F2BFC8010020DE
:105260007CB50A4C0546CDE900016068019A6E469E
:10527000C0E9005221680CF043FC6060E16809B1AC
:1052800030468847A560FFF7DBFF7CBDC8010020E2
:105290002DE9FC410746984616460D461C20FEF7B0
:1052A00014F904002DD01B49194808602046FEF768
:1052B000F5F9009015B9FFF7B0F9054600980760B9
:1052C000C0E90465A0F80C806846FEF73FFA204666
:1052D0000CF060FE104DA86840B90120A86005F1EF
:1052E0000C010E480860084601F04AFA2046FEF715
:1052F000D5F90190296839B181602C6001A8FEF7C9
:1053000025FA2046BDE8FC8100212C608160F5E78C
:105310003D5300089C0100207C070020E92401087F
:1053200010B5040009D00EF0BFFA20460FF000FAC5
:105330002046BDE81040FEF7E3B810BD2DE9F0416E
:10534000184C88B00025676825E000BFFFF765F9B5
:1053500006466068FEF7A2F901904169891B0029A1
:1053600015DC6168029604910169039146686660E4
:10537000D0F8008001A8FEF7E9F902A84146884765
:1053800066B160680125B84205D1002506E001A894
:10539000FEF7DCF902E060680028D7D108B02846A3
:1053A000BDE8F0817C07002038B50C4660B1FEF7FF
:1053B00075F900908089204201D0012400E000248A
:1053C0006846FEF7C3F900E00124204638BD38B531
:1053D000040012D0FEF762F90090FFF71EF90146B3
:1053E00000988269114441616846FEF7AFF9204692
:1053F0000FF09EF920460CF0CDFD38BD38B50C46B7
:10540000002806D0FEF74AF9009084616846FEF74E
:105410009DF938BD38B50546002028600648046867
:1054200044B12046FEF73AF90090006928606846CA
:10543000FEF78CF9204638BD7C07002038B5040003
:105440004FF000000D46086011D02046FEF726F907
:105450000090846844B16846FEF778F92046FEF76C
:105460001DF90090006928606846FEF76FF9204634
:1054700038BD000070B5174C06460D463268E1682D
:1054800001208A421EDB2968236999421ADB63697D
:105490009A4217DCA269914214DC2946304600F09A
:1054A00093F800280ED133680022002B01DA326015
:1054B00004E061688B4201DB491E31602B68002BE0
:1054C00001DA2A6070BDA1688B42FBDB491E2960AE
:1054D00070BD00005C05002070B5254C86B060787A
:1054E000F8B100F0C1F8E06000F0BCF8E0680390AB
:1054F0002069049000F03EF88DF8090004A903A883
:10550000FFF7B8FF0025B0B1A07870B360680090D5
:10551000A06801908DF80850684600F031F8A57039
:1055200023E000F0A3F8206100F09DF86078401CB3
:10553000607006B070BD039A6068111A00D54942C8
:10554000049BA068181A00D54042A67816B10844FA
:1055500002280ADD62600092A360012601938DF8A3
:105560000860684600F00CF8A6706570E1E700007E
:10557000D80100200148407A70470000188B0020B5
:105580003EB504460C220E49FAF761FE002813D0FE
:105590000B4894E80E0080E80E000A48026862B1E9
:1055A00094E80B008DE80B00684601A9904700289D
:1055B00002D16846FFF72CFD3EBD2046FAE7000009
:1055C000F48A0020580500202DE9F04705462248BE
:1055D0000E460068E0B3D5F80080306815F03EFB59
:1055E0001E4C8146616815F051FB0746404615F098
:1055F00035FB8046216815F049FB394615F0CCFA99
:10560000A16815F0C9FA15F09BFA154F00223B4628
:1056100015F080F815F026F928604846216915F044
:1056200035FB05464046E16815F030FB294615F08C
:10563000B3FA616915F0B0FA15F082FA00223B4620
:1056400015F068F815F00EF930600020BDE8F0871D
:10565000FFE70120FAE700005C050020008B002036
:105660000000E03F704770470020704700207047FF
:10567000014A1268D26810477C010020014909687C
:10568000096808477C010020014909684968084702
:105690007C01002001490968896808477C010020D5
:1056A0002DE9F041084E0446056830680168284637
:1056B0008847074630684168284688472844206064
:1056C0003846BDE8F08100007C0100202DE9F04162
:1056D00000250E4680462C46064F06E0396808EB4A
:1056E00004004968884704446D1CA642F6DC28463D
:1056F000BDE8F0817C0100202DE9F0410C46064612
:105700000025064F05E03868416830468847064462
:105710000544641EF7D22846BDE8F0817C010020D4
:105720002DE9F0411E46069C1746884605463A4636
:10573000A8687F1C3346D0F804C041462846E0479D
:10574000641EF4D1BDE8F08170B5B0F90040091BCA
:10575000B0F904408C422CDD00F11404B0F9025081
:105760000069521B02FB0040CA1800EBE104521E04
:10577000D010B0EBE10501F007034FF0FF0102F09C
:10578000070221FA03F0C2F1070201FA02F1CEB2D8
:1057900021780FD001436D1E04F8011B002D05DD9B
:1057A000FF2229462046FAF77AFE2C44207830431F
:1057B000207070BD30400143217070BD10B5B0F94C
:1057C0000030B0F90240C91A00F114030069121B3D
:1057D00002FB003000EBE10001F0070302788021BA
:1057E000D9400A43027010BDB0F906100269514356
:1057F0001430FAF75CBE00002DE9F843804602F150
:105800000F000011470003FB07F01C4615468946B0
:105810001430FDF75AFE060013D0FDF73FFF00904D
:10582000A0F80080A0F802908580C48006498160BD
:105830000121818107616846FDF788FF3046BDE898
:10584000F8830020FBE700008053030870B5B0F92F
:105850000660B0F904400B6800F1140596421BDDA8
:105860000069A34202FB005000EBE30214DA641E5D
:10587000E010A0EBE30512F8010B03F00704A040D1
:10588000C4B206E045B1083312F8014B23F0070318
:105890006D1E002CF6D004E0002070BD6006040EE2
:1058A0005B1C2006FAD5FF2C07D0184602E06406E0
:1058B000240E401C6606FAD400E0D81DC4436407D9
:1058C00005D006E012F8014BFF2C09D108306D1EFF
:1058D000F8D5C01A401C0B6070BD6206140E401C47
:1058E0002206FAD4F5E738B50546FDF7D7FE009055
:1058F0008189491E0CB284816846FDF727FF002C80
:1059000002D12846FDF7FCFD38BD2DE9F0411646D1
:105910000F460546002432463946284600F06EFF01
:10592000054408B1641CF6E72046BDE8F08100009C
:1059300010B54FF4F041002014F0CEFE04464FF4B1
:10594000F0412046FDF7D4FD8020FDF7F1FE02482E
:10595000FFF722FC10BD00000C490208044A12683F
:10596000111800BF024A12688A1A002AFADC70472E
:1059700034000020704700000148006870470000B4
:105980003400002070470EB508B102AA00E00022E2
:10599000002301A9684600F0EDFC0EBD074910B5D3
:1059A0000C7818B101200870801E03E000200870F8
:1059B0006FF07F4001F026F9204610BDB2010020B3
:1059C0002DE9F041984616460C4688B3FEF71BFEBB
:1059D000074608F00300012825D0022817D0B4F9A3
:1059E000005000BFFEF7E6FD014608F00C00042859
:1059F0002BD00C281DD0B4F9020035807080EA1934
:105A0000521E0844B280401EF080BDE8F081B4F917
:105A10000400B4F90010401AC01B401C00EBD07009
:105A200001EB6005DEE7B4F90400C51B6D1CD9E786
:105A300010E0B4F90600B4F90220801A401A401CA4
:105A400000EBD07002EB6000D7E7B4F90600401A13
:105A5000401CD2E72068306060687060D5E70000C5
:105A600010B5082A0EDC0346012A18D0022A56D0A7
:105A7000042A76D010F8042B03F8012B491EF9D123
:105A8000012010BD102A08DC4FEA000230F8043B68
:105A900022F8023B491EF9D1F2E7002010BD10F8B0
:105AA000042BD207120E491E34D010F8044B491EA5
:105AB00004F0010442EA84122CD010F8044B491E71
:105AC00004F0010442EA441224D010F8044B491EA9
:105AD00004F0010442EA04121CD010F8044B491EE1
