:020000040800F2
:10000000708F00200D0200081D400008D72D000849
:1000100019400008F305000813450008000000001F
:10002000000000000000000000000000094100087E
:10003000F705000800000000A54000081D42000868
:1000400027020008270200082702000827020008EC
:1000500027020008270200082702000827020008DC
:1000600027020008270200082702000827020008CC
:1000700027020008270200082702000827020008BC
:1000800027020008270200082702000827020008AC
:10009000270200082702000827020008270200089C
:1000A000270200082702000827020008270200088C
:1000B00027020008814200082702000827020008E2
:1000C000270200082702000827020008270200086C
:1000D0002702000821440008270200082702000820
:1000E000270200082702000827020008270200084C
:1000F000270200082702000827020008270200083C
:10010000270200082702000827020008270200082B
:1001100027020008270200080943000827020008F8
:10012000270200082702000827020008270200080B
:1001300000F002F800F05AF80AA090E8000C82449F
:100140008344AAF10107DA4501D100F04FF8AFF27C
:10015000090EBAE80F0013F0010F18BFFB1A43F0A5
:100160000103184750C2000070C200000A444FF05B
:10017000000C10F8013B13F0070408BF10F8014B06
:100180001D1108BF10F8015B641E05D010F8016B4B
:10019000641E01F8016BF9D113F0080F1EBF10F8AF
:1001A000014BAD1C0C1B09D16D1E58BF01F801CBD2
:1001B000FAD505E014F8016B01F8016B6D1EF9D555
:1001C0009142D6D37047000000230024002500266A
:1001D000103A28BF78C1FBD8520728BF30C148BFAA
:1001E0000B6070471FB51FBD10B510BD00F0A6F91C
:1001F0001146FFF7F7FF09F041FC00F0C4F903B422
:10020000FFF7F2FF03BC09F09BFB000009488047A1
:1002100009480047FEE7FEE7FEE7FEE7FEE7FEE7E8
:10022000FEE7FEE7FEE7FEE704480549054A064B00
:10023000704700002142000831010008708500204D
:10024000708F00207087002070870020704740EA80
:10025000010310B59B070FD1042A0DD310C808C99C
:10026000121F9C42F8D020BA19BA884201D9012045
:1002700010BD4FF0FF3010BD1AB1D30703D0521C90
:1002800007E0002010BD10F8013B11F8014B1B1BCB
:1002900007D110F8013B11F8014B1B1B01D1921E35
:1002A000F1D1184610BD032A40F2308010F0030C43
:1002B00000F0158011F8013BBCF1020F624498BFB9
:1002C00011F801CB00F8013B38BF11F8013BA2F156
:1002D000040298BF00F801CB38BF00F8013B11F0D1
:1002E000030300F06780083AC0F0088051F8043B2F
:1002F000083A51F804CBA0E80810F5E7121D5CBFDE
:1003000051F8043B40F8043BAFF30080D20724BF10
:1003100011F8013B11F801CB48BF11F8012B24BFA4
:1003200000F8013B00F801CB48BF00F8012B7047F3
:10033000431A28BF9A427FF6B6AF032A10441144ED
:1003400040F2268010F0030F1EBF11F8013D521E2F
:1003500000F8013D10F0030F7FF4F6AF11F0030336
:1003600000F0A080083AC0F00B8051F8043D083A34
:1003700051F804CD40F8043D40F804CDFFF7F3BF39
:10038000121D5CBF51F8043D40F8043DAFF30080FE
:10039000D20724BF11F8013D11F801CD48BF11F873
:1003A000012C24BF00F8013D00F801CD48BF00F842
:1003B000012C704710B5203AC0F00B80B1E81850FE
:1003C000203AA0E81850B1E81850A0E81850BFF43F
:1003D000F5AF5FEA027C24BFB1E81850A0E81850DE
:1003E00044BF18C918C0BDE810405FEA827C24BF32
:1003F00051F8043B40F8043B08BF7047D20728BFC0
:1004000031F8023B48BF11F8012B28BF20F8023B0E
:1004100048BF00F8012B704702F0FF0343EA0322B4
:1004200042EA024200F06AB84FF0000200B51346FB
:1004300094469646203922BFA0E80C50A0E80C5004
:10044000B1F12001BFF4F7AF090728BFA0E80C50B5
:1004500048BF0CC05DF804EB890028BF40F8042BAE
:1004600008BF704748BF20F8022B11F0804F18BF1B
:1004700000F8012B70477047704770477047431A68
:1004800028BF9A427FF696AF104410F0030F114434
:100490001EBF11F8013D521E00F8013D10F0030F80
:1004A0007FF4F6AF103AC0F00A8010B531E9185069
:1004B000103A20E91850BFF4F9AFBDE810405307D7
:1004C00024BF31E9081020E9081044BF51F8043D69
:1004D00040F8043D12F0030F08BF7047D20728BF51
:1004E00031F8023D48BF11F8012C28BF20F8023D29
:1004F00048BF00F8012C70474FF000020429C0F0FB
:10050000128010F0030C3FF491AFCCF1040CBCF15D
:10051000020F18BF00F8012BA8BF20F8022BA1EB97
:100520000C01FFF783BF5FEAC17C24BF00F8012BF9
:1005300000F8012B48BF00F8012B7047754600F00A
:1005400029F8AE4605006946534620F00700854667
:1005500018B020B5FFF768FEBDE820404FF0000658
:100560004FF000074FF000084FF0000B21F007019B
:10057000AC46ACE8C009ACE8C009ACE8C009ACE8DE
:10058000C0098D4670470446AFF300802046FFF750
:1005900036FE0000004870470C850020F0B5044688
:1005A0000D4616461F462A2005F08EFAC4F30F208A
:1005B00005F004FBE0B205F001FBC5F30F2005F0E8
:1005C000FDFAE8B205F0FAFA2B2005F07DFAC6F341
:1005D0000F2005F0F3FAF0B205F0F0FAC7F30F20A0
:1005E00005F0ECFAF8B205F0E9FA2C2005F06CFA07
:1005F000F0BD00BFFEE7704770B505460C461646D5
:100600002346224629462846FFF7C8FFB0B205F028
:10061000D5FA70BD10B5002001F032FB6FF07F40BD
:1006200001F030FB012001F067FB002001F06CFBC2
:10063000002001F073FB002001F02CFB044800684F
:1006400001F02AFBBDE81040002001F031BB0000A2
:100650003C0000202DE9F041024600250026002044
:1006600000230024002791F803C00CF00F0591F837
:1006700003C00CF0100CBCF1000F03D091F802C0C5
:100680004CEA050591F800C0BCF1000F31D01468A8
:1006900000202BE04FF0010C0CFA00F3B1F800C081
:1006A0000CEA03069E4220D183004FF00F0C0CFA97
:1006B00003F7BC4305FA03FC4CEA040491F803C0B9
:1006C000BCF1280F06D14FF0010C0CFA00FCC2F867
:1006D00014C00AE091F803C0BCF1480F05D14FF0F7
:1006E000010C0CFA00FCC2F810C0401C0828D1D341
:1006F0001460B1F800C0BCF1FF0F34DD5468002075
:100700002EE000F1080C4FF0010808FA0CF3B1F8E4
:1007100000C00CEA03069E4221D183004FF00F0C6B
:100720000CFA03F7BC4305FA03FC4CEA040491F805
:1007300003C0BCF1280F05D100F1080C08FA0CF831
:10074000C2F8148091F803C0BCF1480F07D100F142
:10075000080C4FF0010808FA0CF8C2F81080401C91
:100760000828CED35460BDE8F08141617047016133
:10077000704700002DE9F04FDFF828B191B04FF03D
:10078000FF35DBF80030B3F922100691DE69B3F9CA
:1007900024A0F469A189814206D8E289824203D368
:1007A000471AD4F8008012E0D4E90181002970D002
:1007B0000A8882426DD84D8885426AD3801A82B2F7
:1007C000486800EB8200B0F90070B0F90250781C64
:1007D0005FD0307EA27C014600FB02F9207CCDE98F
:1007E0000710B3F92A60304603F076F8C0B20E90D5
:1007F000DBF8001007FB0980A37C8A6B0127CDE999
:100800000402CDE90273C869089AC17E807ECDE9F1
:100810000001DDE90603514602F022FB681C18D0F6
:1008200046F0020003F058F8DBF80000A37C05FB5B
:100830000981826BCDE90273CDE90412C069089A7F
:10084000C17E807ECDE90001DDE90603514602F05C
:1008500007FBDBF800005D46C069417E007E8142F7
:1008600014D9022E12D086F0040003F035F828685F
:10087000C069027EC37E857E02FB03A1437E089A87
:100880000698534402FB050202F04CFC0E9803F05C
:1008900023F8DBF80000627C418C1144418411B0E4
:1008A000BDE8F08F4000002004480068C069C069BE
:1008B00009B1027C0A60407C7047000040000020C3
:1008C000022008807047C06982898A4202D8C289A2
:1008D0008A4210D2806880B102888A420DD843884B
:1008E0008B420AD3406800EB8100A0EB8200B0F994
:1008F0000000002801DB0120704700207047000045
:100900002DE9F0432F4C034687B020681946B0F913
:100910002A80C069C06900F082F800284ED0416882
:100920000088181A01EBC0054046AE7802F0D4FFEB
:10093000814620686A680123816BCDE90236CDE9E2
:100940000421C169CB7E8A7ECDE900230B7EB0F9FC
:1009500024102A78B0F9220002F082FA2068C069D7
:10096000477E067EB7421DD9C07E47434643B8F155
:10097000020F17D000F008FC804600F0EDFB01F0FC
:1009800081F921682A78CB69B1F92200B1F92410E4
:10099000DB7E02FB0302CB19314402F0C3FB40466D
:1009A00001F070F9484602F097FF20686A78C36941
:1009B000B0F922109B7E02FB0311418407B0BDE811
:1009C000F08300004000002030B50E4C05460B4679
:1009D00020682946C069C06900F021F8002810D0BD
:1009E0004168008824682A1A0120E46900EBC200EB
:1009F000085CA47E6043002B03D011F832106143E1
:100A0000196030BD4000002001200880704700B50B
:100A1000C06900F004F8002800D0012000BD06E005
:100A200002888A4202D842888A4202D2806800281C
:100A3000F6D17047002801D005F080B9704738B56D
:100A40000546FFF7F7FF040009D000F0B3F82A4687
:100A50000021009002F042F9684600F0DBF82046E1
:100A600038BD0000024A106021F00300506070475A
:100A70002083002010B5002814D004460A48406B9B
:100A800010F8341000290DD002290BD2042101EBFB
:100A9000C4014158486805F009F92046BDE81040F6
:100AA00007F0D2BD10BD000060820020002805D0F4
:100AB000034AD16B016001B14860D0637047000008
:100AC000608200202DE9F041044607F0AFFB284882
:100AD000E41C24F00305016C2D1DA94200D90D462C
:100AE000C46B13E054F8042CAA420ED184B12168DF
:100AF00009B162684A60616809B122680A60C26B24
:100B0000A24231D12168C1632EE02468002CE9D1D2
:100B10008046816BC0680F1857F8040C3E1A306885
:100B200038B1002007F0FAFD57F8040C3E1A30687F
:100B3000D0B97068A84217DB3044441B3046241DEE
:100B400007F0A4FDD8F80C10491BC8F80C10D8F811
:100B500014102944C8F814107068401B02D03146A4
:100B600005F0A4F844F8045C2046BDE8F0810000DC
:100B70006082002010B5002407F058FB0C490F20BC
:100B800001EBC002526C1AB101EBC000406C08E0EE
:100B9000401EF5D508E04168A14200D90C468068A6
:100BA00010B180680028F6D1A4F10C0010BD00003F
:100BB000608200200549CA69521CCA61496B01EB79
:100BC000C0010A78521C0A7000F03CB86082002014
:100BD00010B5FFF7CFFF64220649B0F5800F04D9A6
:100BE00090FBF2F0096A484310BD096A4143B1FB2A
:100BF000F2F010BD608200200549102805D94A682E
:100C0000B0EB520F02D3500800E01020886070470C
:100C1000208300200A4902684B6B52F8082C03EB32
:100C2000C2021378022B03D3CB690BB15B1ECB61DD
:100C30001178491E117000210160084670470000BC
:100C400060820020002806D00349042202EBC00085
:100C5000496B0858083070476082002010B513684F
:100C600008290DD85C18146000222270054A04E09F
:100C700000F00F040009145D5C54491EC9B2F7D29C
:100C800010BD0000C4C1000870B506460D461446EC
:100C9000104600F081FA0300164804EB84010AD0E4
:100CA00050F8210041688068711A2A1ABDE8704026
:100CB000184600F0FBBF00EB8104A268B24201D0ED
:100CC000012200E00022E368AB4201D0012300E0F2
:100CD00000231A430CD0236943B150F821008168E6
:100CE00040686A1A311A184600F09AFFC4E9026592
:100CF00070BD00008484002010B5C2B2CBB2D21AFD
:100D000000D5524293B25B43C0F30722C1F30724DC
:100D1000121B00D55242000C92B2A0EB114002FB14
:100D2000023200B2002801DA404200B280B200FB79
:100D3000002010BD10B50021084600F075FA43F6FA
:100D4000FF725042BDE8104013460146AFF30080E9
:100D50002DE9FC4107461C4615460E46042002F0CC
:100D6000BBFD80461148C068C16C006D0F4406444D
:100D70000D440444ADF80070ADF80450ADF80260C5
:100D8000ADF80640684604F065FA07E023462A46B7
:100D90003146384602F0C6F904F01EFA0028F5D1B3
:100DA000404602F099FDBDE8FC81000034000020BF
:100DB0002DE9F0411C4616460D460746022B02DB84
:100DC0000020BDE8F0811C20FFF77CFE0028F8D051
:100DD0000DB105610AE0094A52F8241009B905E08D
:100DE00011460A68002AFBD1096901618461868283
:100DF000002101604160C0E90217E2E758000020CD
:100E000070B51D46FFF7D4FF040009D000F00EF8BE
:100E1000E068006820B90348006800EB850084653D
:100E2000204670BD40000020FFF740BE70B590B373
:100E30008269022A30DA1E4C54F8221019B944F89B
:100E4000220032E019464B68002BFBD106E0CB684C
:100E5000C5681B682D68AB4203DD09680029F6D11F
:100E60001AE0C1B1CB68C6681B683668B3420CD1C2
:100E7000838A012B05D008E01946DB681B68AB426A
:100E800003DB0B68002BF7D129B14B6833B1186035
:100E90004A68426004E0FFE7012070BD44F8220088
:100EA0004860884200D100210160002070BD000030
:100EB000580000200A4A816952F82130834202D149
:100EC000036842F82130416809B102680A6001688C
:100ED00009B142684A60002101604160704700002A
:100EE00058000020022801DB00207047054951F816
:100EF000200004E0C16809680029F6D000680028D5
:100F0000F8D170475800002070B5044601F0B4F9DC
:100F1000051908E000F0A4F8052C01DD052000E02B
:100F2000204601F09BF901F0A7F92C1A002CF1DC06
:100F300070BD7FB514460D46CDF80CD003AA1946F6
:100F4000FFF78CFE22462946684600F081F87FBDF7
:100F50002DE9FC4706005BD000F028F93B4C8146A8
:100F60002068B0F9228000F037F9216807468A8CA2
:100F7000D01B888441E000BF47F6FF71304601F086
:100F80005FFD82460146304601F030FD216805468E
:100F900091F82C0000F0030001283FD0022839D03E
:100FA00000204A8C101A4884ADF800006A1E1044D4
:100FB000ADF80400888CADF80200A9F101010844E5
:100FC000ADF806006A465146304601F0DFFA216866
:100FD000BDF8020088845146304601F01FF80644EF
:100FE00030780A281CD00D281AD0BDF800002168DE
:100FF00028444884307818B1761C30780028BBD15A
:101000002068818C39448184818D21F003018185A0
:10101000BDE8FC8705EBD5704010C2E72846C0E765
:10102000206890F82C1001F0030101290BD002294F
:1010300009D0018C418431780A29DBD1828C02EB02
:1010400009018184D6E7A0F82280F4E7400000205F
:10105000024B1B6859849A84FFF77ABF4000002036
:1010600010B5002400E0012400F004F80028FAD1B3
:10107000204610BD094810B50068002410B1804713
:1010800000B1012403F0E6FB00B10124044800682C
:1010900010B1804700B10124204610BD640000203B
:1010A0006000002008B50B46002805D0009281881A
:1010B0008268C08800F001F808BD10B50828029CBD
:1010C00030D008DC04FB01F401280AD0022813D038
:1010D000042804D11CE0102828D020282CD000207F
:1010E00010BD04EBD30003F00701105CC1F1070150
:1010F000C84000F0010010BD04EB93000621105C15
:1011000001EA4301C1F10601C84000F0030010BD2F
:1011100004EB5300D907105C02D000F00F0010BDA3
:10112000000910BD04FB0130105C10BD481004FB29
:10113000003032F8100010BD881004FB003052F867
:10114000200010BD034951F82000C1688A6A0821B7
:10115000104700005800002010B502F07DF8BDE8EF
:10116000104002F03FB9000002490968C9694A68A5
:101170000021104740000020024A1268D2695268DC
:10118000104700004000002010B502F06DF8BDE8E7
:10119000104002F027B900000021022802D20249C3
:1011A00051F820100846704760010020024800688E
:1011B000C069407E704700004000002070B51446B2
:1011C0000D4602F085F8002802D00020286020603B
:1011D00070BD01F051BC00000A490020096891F877
:1011E0002C2002F00C02042A07D0082A01D00C2A75
:1011F00002D1C869007E40087047C869007E401E61
:101200007047000040000020024951F820000069AA
:101210000068704758000020024951F8200000691A
:10122000406870475800002070B50D4606F032FF48
:101230000446284606F036FF204370BD2DE9F041F4
:101240001948016821F001010160184801258560F5
:101250001749016000681749884200D0FEE701F095
:10126000C7F8154E2E20307001F00CF8134806F028
:101270008FFF08F0BDFB074602F052F810B102F0F4
:1012800063F838B902F069F8044602F052F82146D2
:1012900002F01CFB0021084600F012FD03F0FEFCEA
:1012A00075703846BDE8F081002000E00030024053
:1012B000C2A507F4CDB5E8B5340000202C8300208A
:1012C0001CB520B90C480068006E002812D0FFF74A
:1012D00071FC009044696846FFF79CFC002C09D023
:1012E0002046FFF767FC019081688968884701A85C
:1012F000FFF790FC1CBD00004000002001490A4699
:1013000000F002B801F0FFFF2DE9F04387B0154669
:101310000C465FEA000842D0002000F0BBFC81468A
:1013200020480068066E4046FFF744FC00900068C5
:10133000806900F08DFC074640F6FF70C44204D17E
:101340000098B0F90440B0F906500098611E028977
:10135000ADF804401144ADF808104189681E0844F6
:10136000ADF80650ADF80A0003F0D6F86846FFF76E
:1013700051FC01A803F06EFF06E02A4621464046D4
:1013800000F04EFB03F028FF0028F6D1384600F0AD
:101390005FFC304600F066F9484600F07BFC07B081
:1013A000BDE8F083400000202DE9FE4F83461A4837
:1013B0008A461A4900680C9E9846407C9146002750
:1013C00051F82040E1680968042903D02468002C02
:1013D000F8D100E01CB9FFF785FD041E19D0E068C4
:1013E0000121C26A20469047050011D02469A068F7
:1013F0008047401C02D10A4C46F001060096CDE918
:10140000015443464A465146584600F0AFF9074654
:101410003846BDE8FE8F0000400000205800002044
:1014200010C3000838B5040018D00D480068006EDD
:10143000A04201D100F002FC2046FFF7BBFB009068
:10144000406908B100F0E1FE00980068FFF7ECFC8D
:101450006846FFF7DFFB2046FFF70CFB38BD0000B6
:10146000400000202DE9FF4FDFF83891074683B098
:10147000D9F800009A468B46447C4B480057012817
:10148000204606DD01F052FF0546204601F062FFCE
:1014900005E001F033FF0546204601F035FF044624
:1014A0001FB302A901A8FFF794FEB7F900000028B6
:1014B00000DA0020B7F902608046002E00DA00262C
:1014C00001984119B7F90400491E06F044FF05468A
:1014D00002980119B7F90600491E06F03CFFA5EB7A
:1014E0000802841B521C641C03E04FF000084646AF
:1014F0002A46BAF1000F01D1C4F1000A002A4FDDDB
:10150000002C4DDD10980090534631464046FFF7C1
:101510004BFF5FEA000A10D000F06AF80746A042CD
:1015200006D0D9F80000806C10B1322104F00AFA1C
:10153000504600F097F8002521E059460598884765
:10154000012007B0BDE8F08F611BB94202DA5046B6
:1015500000F072F83DB172194146504600F0A4F80F
:101560005046FFF7ADFE5946059888470F48016879
:1015700009B1002088475046FFF7C0FE3D44A54210
:10158000E2DB5046FFF74EFF002000F06BF8A74269
:1015900006D0D9F80000806C10B1332104F0D2F9E4
:1015A0000020CEE74000002078000020A8010020A5
:1015B00038B5002460B1FFF7FDFA009000680069BB
:1015C0008068804702F036FB04466846FFF722FB3E
:1015D000204638BD38B5002808D0FFF7EBFA00F1F7
:1015E000180400906846FFF715FB204638BD000040
:1015F00038B5002418B907480068006E38B1FFF705
:10160000D9FA0090B0F90A406846FFF703FB20467C
:1016100038BD00004000002070B505460024284673
:1016200004F0E6FC641C18B1BDE8704000F068B836
:10163000052CF4DB70BD000038B50C4620B9084815
:101640000068006E00280AD0FFF7B4FA0090B0F9E5
:101650000A10A14200DD44816846FFF7DBFA38BD7D
:1016600040000020F8B50F4E05003068046E16D01B
:101670000CB100F0E3FA03F03BF82846FFF79AFAC2
:10168000009031680D660068FFF7D0FB6846FFF7F1
:10169000C1FA02F07FF902F0F9F82046F8BD00F037
:1016A000CDFAFAE7400000207CB515460C4620B97B
:1016B00012480068006E00281FD0FFF77BFA2DB299
:1016C0000090C58024B2848002F0E0F80098406960
:1016D00080B1FFF76FFA009A0190B2F9081081808B
:1016E000B2F90A20C28011B10AB10480458001A874
:1016F000FFF790FA6846FFF78DFA7CBD40000020A6
:1017000001490A4600F002B801F0FFFF7FB5154617
:101710000C46060028D0FFF74DFA40F6FF71019005
:10172000CC4203D1B0F90440B0F906500289611EE1
:101730001144ADF80840ADF80C104189681E08440A
:10174000ADF80E00ADF80A5001A8FFF763FA02A841
:1017500003F080FD06E02A462146304600F048F9B5
:1017600003F03AFD0028F6D17FBD00002DE9FF4FC0
:10177000DFF8E8B083B01C46DBF80010DDE910604C
:1017800092464FF000084B7C42461299FFF710FB3F
:10179000050060D028698068804702F04BFA8146D6
:1017A0000AFB09F1C91DCF08FFF712FAF10705D1AD
:1017B000C11700EB9170801000EB4000002C09DC99
:1017C0001FB11838B0FBF7F000E000206442A042DF
:1017D00000DC0446F00707D10090DDE90301234651
:1017E000524600F09BFC8046002C03DC2846FFF7A5
:1017F0001BFB30E004FB07F01830F10702D0FFF7C5
:1018000019F901E0FFF71BF906001CD0FFF7D2F928
:1018100001900560039981800499C180A0F808A017
:101820004481C0F81480C0E9037901A8FFF7F2F9F8
:101830001298AE602861DBF80000407CA861304659
:1018400007B0BDE8F08F2846FFF7EEFAB8F10000C8
:1018500001D0FFF70FF90020F2E700004000002060
:101860002DE9F74F8EB0144689460E98FFF7A2F97E
:101870000990B0F908B0B0F90A60006800694068E2
:101880000C9009A8FFF7C6F9564D574F2868407CC1
:1018900057F82000C1688A6A0821904707901828E5
:1018A00001D3202007902868407C57F82000006969
:1018B000069003C80B904D48814201D0012000E002
:1018C00000200A90002000F0DEFC00287DD128686E
:1018D00009EB0B01B0F90C20891A491E002902DD21
:1018E000ABEB010500E05D46B0F90810494505DDA8
:1018F000A1EB090189446D1A089101E000210891CA
:10190000002D6BDDB0F90E20A119891A491E00299E
:1019100002DDA6EB010800E0B046B0F90A00A042E3
:1019200004DD061B3444A8EB060800E00026B8F1ED
:10193000000F53DD089801900DA95F46DDF830A037
:101940000E980091FFF746FE774300EB8701019860
:101950002B4601EB800200994846CDE900A12146C3
:1019600000F06CFE0090002838D00A98E8B1DDE95C
:1019700006322946009800F035FDB0B90698009F60
:10198000DA46D0F810C0BCF1000F05D004235A4647
:1019900039463846E04708E00B993868884701C760
:1019A000AAF101005FEA000AF6D100990020079A27
:1019B000CDE90301059001200090CDE90102214607
:1019C0000346641C2A46484600E007E001F048FA56
:1019D000A8F10100761C5FEA0008ABD111B0BDE8A8
:1019E000F08F000040000020580000200334000861
:1019F000F8B515460E460746FFF7DCF8009000687C
:101A00001621C068426A0020904704466846FFF7E6
:101A100001F9002C03D02A4631463846A047F8BDCC
:101A2000F8B516460F46050012D0FFF7C3F8009030
:101A300044696846FFF7EEF82846FFF7B9FD03460C
:101A4000082800DD2CB132463946284607F042FB13
:101A5000F8BD32463946284607F0DCFCF8BD10B523
:101A6000002821D009B30AB3B1F90040B2F900301F
:101A70009C4200DA23460380B1F90240B2F90230F9
:101A80009C4200DA23464380B1F90440B2F90430A5
:101A90009C4200DD23468380B1F90610B2F906208E
:101AA000914200DC1146C18010BD11460A680260F7
:101AB0004968416010BD00280BD003880B440380A7
:101AC000838819448180418811444180C188114430
:101AD000C180704770B50E4D0446D5E900018842BB
:101AE00009D10C49884201D13C3000E00C3807C8CC
:101AF00084E8070006E090E80E0084E80E0006F097
:101B0000E7FA2860207A002800D0012070BD00008C
:101B1000E8010020AC8400200448D0E90010814294
:101B200001D101207047002070470000E80100202B
:101B3000054A10B50349116007F0F2F9BDE81040FD
:101B400000F0F6B82D4900086800002070B5094C77
:101B50000020D4E900218A420AD0D2E9005610467A
:101B600006F0C0FA20603146284603F07BF90120D8
:101B700070BD0000500100202DE9FC41154DDDE94C
:101B800008742D68B5F90860864200DD3046B5F965
:101B90000C60964200DA3246824219DBB5F90A60DF
:101BA0008E4200DD3146B5F90E509D4200DA2B46DB
:101BB0008B420DDB00E02C46E5682D6825B1042D35
:101BC00002D02568002DF6D1CDE9007401F048FD62
:101BD000BDE8FC8140000020B0F90220B1F90630D8
:101BE0009A4213DCB1F90220B0F906309A420DDCBA
:101BF000B0F90020B1F904309A4207DCB1F90010C5
:101C0000B0F90400814201DC0120704700207047D8
:101C10000146024870220068FEF7CCBB400000205D
:101C2000002801D006F00CBF704700000249702266
:101C30000968FEF7BFBB00004000002010B501F0AE
:101C4000DBFD01F0A7FEBDE8104002F065BC00001E
:101C500070B5094D0446022C2868467C09D22046FE
:101C6000FFF740F928B128684474FFF7E7FF0348FD
:101C70000460304670BD000040000020D800002005
:101C800001F0DABD01F010BE014988607047000024
:101C90003400002001F020BE03490968CA6900B180
:101CA000C8611046704700004000002001F030BEBF
:101CB000024909688A7E88761046704740000020F5
:101CC000094A30B41080094A1180094A1268537CCD
:101CD000084A52F82330DA68146A0A46A4460146D4
:101CE00030BC1846604700008000002082000020C1
:101CF0004000002058000020024909680A7E08764A
:101D0000104670474000002003490968B1F92C20B3
:101D1000888510467047000040000020034909688C
:101D2000B1F92A2048851046704700004000002085
:101D300002480068002800D0004770478801002052
:101D400002498A6802B98860FFF7F2BF500100209B
:101D500010B5040009D006F0B3FC204607F08AF95C
:101D60002046BDE81040FEF785BE10BD38B50C46D4
:101D700060B1FEF71FFF00908089204201D001244E
:101D800000E000246846FEF745FF00E001242046FD
:101D900038BD000038B505460020286006480468B4
:101DA00044B12046FEF706FF0090006928606846AF
:101DB000FEF730FF204638BDF401002038B504009E
:101DC0004FF000000D46086011D02046FEF7F2FEED
:101DD0000090846844B16846FEF71CFF2046FEF779
:101DE000E9FE0090006928606846FEF713FF204670
:101DF00038BD000070B5174C06460D463268E168E4
:101E000001208A421EDB2968236999421ADB636933
:101E10009A4217DCA269914214DC2946304600F050
:101E200093F800280ED133680022002B01DA3260CB
:101E300004E061688B4201DB491E31602B68002B96
:101E400001DA2A6070BDA1688B42FBDB491E296064
:101E500070BD00006C01002070B5254C86B0607824
:101E6000F8B100F0C1F8E06000F0BCF8E068039061
:101E70002069049000F03EF88DF8090004A903A839
:101E8000FFF7B8FF0025B0B1A07870B3606800908C
:101E9000A06801908DF80850684600F031F8A570F0
:101EA00023E000F0A3F8206100F09DF86078401C6A
:101EB000607006B070BD039A6068111A00D549427F
:101EC000049BA068181A00D54042A67816B10844B1
:101ED00002280ADD62600092A360012601938DF85A
:101EE0000860684600F00CF8A6706570E1E7000035
:101EF000840000200148407A7047000030840020B0
:101F00003EB504460C220E49FEF7A1F9002813D075
:101F10000B4894E80E0080E80E000A48026862B19F
:101F200094E80B008DE80B00684601A99047002853
:101F300002D16846FFF7FCFD3EBD2046FAE70000EF
:101F40000C840020680100202DE9F0470546224856
:101F50000E460068E0B3D5F80080306808F02CF930
:101F60001E4C8146616808F03FF90746404608F07C
:101F700023F98046216808F037F9394608F0BAF8A5
:101F8000A16808F0B7F808F089F8154F00223B4621
:101F900007F06EFE07F014FF28604846216908F03C
:101FA00023F905464046E16808F01EF9294608F085
:101FB000A1F8616908F09EF808F070F800223B462D
:101FC00007F056FE07F0FCFE30600020BDE8F08709
:101FD000FFE70120FAE700006C01002018840020D0
:101FE0000000E03F704770470020704700207047B6
:101FF0002DE9F041084E044605683068016828461E
:10200000884707463068416828468847284420604A
:102010003846BDE8F0810000440000202DE9F04181
:102020000C4606460025064F05E0386841683046F4
:10203000884706440544641EF7D22846BDE8F0816F
:10204000440000202DE9F0411E46069C17468846B4
:1020500005463A46A8687F1C3346D0F804C041467E
:102060002846E047641EF4D1BDE8F08170B5B0F9B0
:102070000040091BB0F904408C422CDD00F114042F
:10208000B0F902500069521B02FB0040CA1800EB75
:10209000E104521ED010B0EBE10501F007034FF050
:1020A000FF0102F0070221FA03F0C2F1070201FA70
:1020B00002F1CEB221780FD001436D1E04F8011B4E
:1020C000002D05DDFF2229462046FEF7A5F92C4408
:1020D00020783043207070BD30400143217070BDC6
:1020E00010B5B0F90030B0F90240C91A00F114037C
:1020F0000069121B02FB003000EBE10001F0070356
:1021000002788021D9400A43027010BDB0F9061050
:10211000026951431430FEF787B900002DE9F843F6
:10212000804602F10F000011470003FB07F01C4638
:10213000154689461430FEF782FC060013D0FEF7E0
:1021400039FD0090A0F80080A0F802908580C4803E
:10215000064981600121818107616846FEF75AFDC9
:102160003046BDE8F8830020FBE700009CC3000870
:1021700070B5B0F90660B0F904400B6800F11405C1
:1021800096421BDD0069A34202FB005000EBE30214
:1021900014DA641EE010A0EBE30512F8010B03F063
:1021A0000704A040C4B206E045B1083312F8014B61
:1021B00023F007036D1E002CF6D004E0002070BD54
:1021C0006006040E5B1C2006FAD5FF2C07D01846CB
:1021D00002E06406240E401C6606FAD400E0D81D16
:1021E000C443640705D006E012F8014BFF2C09D167
:1021F00008306D1EF8D5C01A401C0B6070BD620619
:10220000140E401C2206FAD4F5E738B50546FEF751
:10221000D1FC00908189491E0CB284816846FEF78A
:10222000F9FC002C02D12846FEF724FC38BD000042
:1022300010B54FF4F041002007F0FCFC04464FF4C9
:10224000F0412046FEF70EFC8020FEF7D5FC024848
:10225000FFF71AFD10BD0000CCAB0008044A12685D
:10226000111800BF024A12688A1A002AFADC704765
:102270000C00002070470000014800687047000013
:102280000C00002070470EB508B102AA00E0002241
:10229000002301A9684600F05BFB0EBD074910B59D
:1022A0000C7818B101200870801E03E0002008702F
:1022B0006FF07F4000F0BEFD204610BD7A00002088
:1022C00010B5082A0EDC0346012A18D0022A56D07F
:1022D000042A76D010F8042B03F8012B491EF9D1FB
:1022E000012010BD102A08DC4FEA000230F8043B40
:1022F00022F8023B491EF9D1F2E7002010BD10F888
:10230000042BD207120E491E34D010F8044B491E7C
:1023100004F0010442EA84122CD010F8044B491E48
:1023200004F0010442EA441224D010F8044B491E80
:1023300004F0010442EA04121CD010F8044B491EB8
:1023400004F0010442EAC40214D010F8044B491E00
:1023500004F0010442EA84020CD010F8044B491E38
:1023600004F0010442EA440204D010F8044B04F0E3
:102370000104224303F8012B0029C0D1B0E710F873
:10238000042B9207120E491E15D010F8044B491E5B
:1023900004F0030442EA04120DD010F8044B491E65
:1023A00004F0030442EA840205D010F8044B04F060
:1023B00003042243491E03F8012B0029DFD18FE7D4
:1023C000FFE710F8042B1207120E491E05D010F873
:1023D000044B04F00F042243491E03F8012B00298B
:1023E000EFD17DE738B50024009400F01BF838BD2C
:1023F0000A4810B5816900290ED101218161FFF7DA
:1024000017FF01F0D9FA054905481C310860BDE8FD
:102410001040084600F05ABC10BD000034000020F7
:10242000218400082DE9F0410D460699044601B9C2
:1024300001461F68082A09DC0E46012A1AD0022A22
:102440005BD0042A7DD0082A13D18DE0102A07DC46
:10245000D3F810C00E46BCF1000F04D0022389E06F
:102460000020BDE8F08101CCB84726F8020B6D1EB4
:10247000F9D189E001CCB847C0074FEA10686D1E5A
:1024800036D001CCB84748EA801000F0FF086D1E36
:102490002ED001CCB84748EA401000F0FF086D1E6E
:1024A00026D001CCB84748EA001000F0FF086D1EA6
:1024B0001ED001CCB84748EAC00000F0FF086D1EEE
:1024C00016D001CCB84748EA800000F0FF086D1E26
:1024D0000ED001CCB84748EA400000F0FF086D1E5E
:1024E00006D001CCB84740EA080000F0FF086D1E96
:1024F00006F8018B002DBDD146E001CCB84780071E
:102500004FEA10686D1E16D001CCB84748EA00109B
:1025100000F0FF086D1E0ED001CCB84748EA8000DD
:1025200000F0FF086D1E06D001CCB84740EA080055
:1025300000F0FF086D1E06F8018B002DDDD123E0B1
:10254000FFE701CCB84700074FEA10686D1E06D0C0
:1025500001CCB84740EA080000F0FF086D1E06F8FD
:10256000018B002DEDD10FE0D3F810C0BCF1000FAE
:1025700004D001232A462046E04705E001CCB847B5
:1025800006F8010B6D1EF9D101206AE77CB50646FD
:1025900028480D46006868B1002002F05BFE06E0A6
:1025A0006A462946304603F0EBFD02F015FE00288E
:1025B000F6D17CBD106800901F4C506801902268D5
:1025C000BDF8000032F84C1F0844ADF80000BDF81B
:1025D000020091880844ADF80200BDF8040011889B
:1025E0000844ADF80400BDF8060091880844ADF831
:1025F0000600684602F02EFE0EE000BF2068BDF81F
:1026000000106A464184BDF8021081842946304694
:1026100003F0B6FD02F0E0FD0028EFD1206830F8AD
:10262000221F428D891A01804188C28D891A4180FA
:102630007CBD00007C000020400000202DE9FF4F01
:102640008DB00020DDF86CA0164600901D460446B3
:102650000246CAF8000008AB03A902A800F078F906
:1026600018B1002011B0BDE8F08F0898854200DD58
:102670000546614F0B9561493868407C51F8201040
:10268000049109690691FEF75DFD05903868407C6C
:10269000FEF7C2FD5A498146884204D0594989450E
:1026A00001D0012000E000200A9001CE1A9988474D
:1026B0008346000E079077D0009870BB0D9800EB12
:1026C00004084D480068B0F90800404503DDA0EB60
:1026D0000807804600E000270298049900EB840078
:1026E00000EB8700CDE900010B990D984218099283
:1026F0000E9B40461946521EFFF73EFA01200090FD
:10270000059818280ADA0298DDE9052300EB840011
:1027100000EB8700E91B00F079F812E00A9880B11D
:10272000029800EB840000EB87070998A0EB0808EB
:1027300049463868884701C7A8F101005FEA0008E8
:10274000F6D13148C06980B3DDE9020700EB8400AF
:1027500007EB8402CDE902022B4C361F3046E469B8
:102760002B460299A047FF213068B1EB106F02D1D0
:102770000298006804E0029A1268B1EB126F01D16E
:10278000039A1060029806F10406001D0290039857
:10279000001D03906D1EE7D10397DAF8000040F0AA
:1027A0000101CAF8001020E021E0FFE70798FF28A8
:1027B00011D0C0F1FF02029850F82410584600F0E2
:1027C0002DFA039941F82400DAF8000040F00101E5
:1027D000CAF8001005E00298039950F8240041F867
:1027E0002400641C6D1E7FF460AF03983AE70399E0
:1027F00041F824B0E8E70000400000205800002025
:102800000334000801340008C00100202DE9F05F06
:102810000C1E16DD5E68014600EB8405082A12DCFA
:10282000611E012A26D0022A47D0042A6AD0082A2B
:1028300007D1071917F8010DB04745F8040D641EBC
:10284000F8D1BDE8F09F102AFBDC5F693FB122465A
:10285000BC46BDE8F04F02235DF804EB604701EB96
:10286000440700BF37F8020DB04745F8040D641E59
:10287000F8D1E6E700EBE10001F0070710F801A945
:102880008146802020FA07F8B5F104050AEA08001D
:10289000C7F10701C840B04745F804093FB14FEA06
:1028A00048604FEA10687F1E641EEFD1C9E719F82F
:1028B00001A907274FF00108F6E700EBA10001F09E
:1028C000030710F801A981467900C02020FA01F819
:1028D0004FF0060BB5F104050AEA0800ABEB47011F
:1028E000C840B04745F804093FB14FEA88604FEA55
:1028F00010687F1E641EEFD1A3E7032719F801A912
:10290000B846F7E700EB6100012710F801A9A743DB
:102910008146B900F02020FA01F84FF0040B2D1F7A
:102920000AEA0800ABEB8701C840B04745F8040944
:102930003FB14FEA08704FEA10687F1E641EEFD166
:102940007FE719F801A901274FF00F08F6E700000B
:102950002DE9F047224C06461F46A069904689465D
:10296000002540B90120A06104F120011D48086044
:10297000084600F0ABF9606930B91B480068606137
:1029800010B900F0BEFC606107B138604EB1A068BC
:1029900030B960698000FEF795F8A06000B90125A4
:1029A0003060B9F1000F0AD0E06830B9606980008A
:1029B000FEF788F8E06000B90125C9F80000B8F119
:1029C000000F0AD0206930B960698000FEF77AF8FC
:1029D000206100B90125C8F800002846BDE8F0874D
:1029E000C0010020958400087000002073B5124AD1
:1029F00001A900981268904700240090C8B10F49BF
:102A000000250968C969496959B10A684AB101993B
:102A100090477CBD6846FFF7EBFA0546FEF7A4FB3E
:102A200004440198401E0190F4D5284600F032F885
:102A3000044420467CBD00004C01002040000020E2
:102A400073B50D460098002490B10A490968C96918
:102A5000496959B14A684AB1294690477CBD6846E0
:102A6000FFF7C6FA20B10A2802D0641CAC42F6DB9C
:102A700020467CBD40000020044AB2F900200260DC
:102A80000348B0F900000860704700008000002093
:102A90008200002038B5002469460094FEF76CFBE4
:102AA0000099814200DD0C1A204638BDB0F9003093
:102AB000B1F90020934200DA0280B0F90230B1F996
:102AC0000220934200DA4280B0F90430B1F90420C8
:102AD000934200DD8280B0F90620B1F906108A42E7
:102AE00000DDC180704770B5B1F90040B2F9003027
:102AF0009C4200DD23460380B1F90250B2F9024046
:102B0000A54200DD2C464480B1F90460B2F90450BE
:102B1000AE4200DA35468580B1F90610B2F90620DA
:102B2000914200DB1146C1809D4201DBA14201DAE6
:102B3000002070BD012070BD014602480068407C45
:102B400000F002B8400000202DE9F8430126894634
:102B5000044602285DDA304F7A6802B190472E4D64
:102B60005FEA090005F1100532D0012803D0B9F160
:102B7000020F4ED118E055F8240088B92046FEF720
:102B8000B1F9009018B3C0680D21426A68469047B9
:102B900002003ED049460098904755F82400002690
:102BA000401C45F8240034E02046FEF79BF90090D5
:102BB00068B1C0680D21426A68469047040028D079
:102BC000386800B1804749460098A047002620E0B9
:102BD00055F82400A846012812D12046FEF782F9B4
:102BE000009068B1C0680D21426A684690470500B0
:102BF00006D0386800B1804749460098A8470026AB
:102C000058F8241009B1012200E00022891A48F87E
:102C100024103046BDE8F8833401002070B5FF234E
:102C2000B3EB116F29D0C3B200F47F4500F47F04E9
:102C3000060E5343554354435643C2F1FF00CAB2F4
:102C400002FB003201F47F4303FB005301F47F05D4
:102C500005FB0044090E01FB0065C2F307204FF499
:102C60007F4101EA1322090201EA14214FF07F4358
:102C7000104303EA05430843184370BD2DE9F04FA4
:102C80000646DDE90CB915460C460020804658453D
:102C900019D20B9F4FF0FF0A01CE08CCAAEB1062AD
:102CA00002FB09F2B2FBFAF1CAB21946FFF7B6FF0E
:102CB00020F07F4001C57F1EEED1099804EB80040F
:102CC00008F10100E2E7BDE8F08F000002494A691F
:102CD00042604861704700003400002010B502E0F7
:102CE00000F8011B521E0AB18307F9D1930818D0CE
:102CF00001EB014402F0030204EB042406E010C0DF
:102D00001B1F10C040F8084B40F8044C042BF6DAA7
:102D100001E010C05B1E002BFBD102E000F8011B9C
:102D2000521E002AFAD110BD10B5830702D520F833
:102D3000021B521E530811D001EB0144042B09DB86
:102D400010C01B1F10C0042B40F8084B40F8044C67
:102D5000F6DA01E010C05B1E002BFBD1D20700D0D9
:102D6000018010BD2DE9F04104460D462A2002F0F5
:102D7000ABFE201202F022FFE0B202F01FFF201291
:102D800002F01CFFE0B202F019FF2B2002F09CFEC3
:102D9000281202F013FFE8B202F010FF281202F02E
:102DA0000DFFE8B202F00AFF2E2002F08DFE00F0C7
:102DB000B3FB064600F0B0FB064600F0ADFB07464D
:102DC00006F4784006F0FC0140EAC10040EAE7263C
:102DD0003046BDE8F08100BFFEE7000008B50121E4
:102DE000102001F081F94FF4E070ADF800004820A8
:102DF0008DF8030069460C48FDF72CFC4FF4606029
:102E0000ADF8000010208DF8030069460648FDF774
:102E100021FC0120054908600549C1F8A8010349C2
:102E20000831086008BD000000100140A4012242E2
:102E30000000224202490A680860104670470000FC
:102E4000080200200449054A0968497C52F821100B
:102E50000969096808470000400000205800002068
:102E60002DE9F04F05468DB07B48DDF860901A9C47
:102E700000681E4617464FF0000A78B11B9B199A4E
:102E8000CDF808900593CDE90324DDE91623CDE9BB
:102E90000023046833463A46284680E0DDE91602FE
:102EA00001EB060805EB070C1043A8F10108ACF193
:102EB000010C012806D0C9F10800059000200291FC
:102EC0000990C6E065480268B2F90A30581A00282D
:102ED00006DD361A002E63DD1946199B00FB0344FC
:102EE000B2F90E00A8EB0000002802DD361A002E11
:102EF00056DDB2F90C00ACEB0000002800DD3F1AF3
:102F0000B2F908300020AB4235DD581B3F1A4B4662
:102F1000B9F1080F26D006DC012B0BD0022B11D003
:102F2000042B28D116E0102B1ED0182B1FD0202BDD
:102F300021D11CE020F0070304EBE0041D4400F065
:102F4000070018E020F0030304EBA0041D4400F088
:102F5000030010E020F0010304EB60041D4400F0C6
:102F6000010008E0044404E004EB400401E004EB49
:102F7000800405440020002F12DD1B9BDDF864C097
:102F8000CDE90403CDE90069CDE902C4527C34489F
:102F90003B4650F82200C26854680A462946A047BA
:102FA0000DB0BDE8F08F1799029808440C902B499A
:102FB000401E00900A68B2F90A30834241DCB2F93F
:102FC0000E10029881423CDB4FF0000BD84603956F
:102FD0000A9434E0BBF1000F05D10A984FF0080BBA
:102FE00010F801AB0A900599ABEB090B3AFA01F026
:102FF0000AFA09F101F0FF0A04D118490968097CAD
:10300000890716D415490968C96B0A680B921B9A7F
:103010000AB152F82000086016990398009B4218E4
:10302000521E029900F07EF80C490B980968C96B92
:1030300008600399169808F1010808440390B84500
:10304000C8DB0998401C09900C9802901998044418
:103050000998B042A7DBA3E77C00002040000020D5
:1030600058000020F0B40C4612490968B1F90A3042
:10307000A3421CDCB1F90E30A34218DBB1F90830D1
:10308000834200DD1846B1F90C30934200DA1A464B
:1030900082420CDB4B7C084951F8235013462246F0
:1030A000E9688E6801462846B446F0BC6047F0BC2B
:1030B0007047000040000020580000200A461749D1
:1030C00030B40968B1F90A30934225DCB1F90E3009
:1030D000934221DBB1F9083083421DDCB1F90C3099
:1030E000834219DB0B7C0E4CDB0709D0497C54F87A
:1030F0002130D968CC690146A44630BC18466047E7
:10310000CB6B497C1B6854F82140E1688D6901460E
:103110002046AC4630BC604730BC704740000020C1
:103120005800002038B5134C2468B4F90850854283
:1031300000DD2846B4F90C50954200DA2A46824256
:1031400017DBB4F90A508D4200DD2946B4F90E5060
:103150009D4200DA2B468B420BDB0093647C064BCE
:1031600053F82440E3681D6913460A460146204689
:10317000A84738BD400000205800002008B50121B4
:103180007C2000F0B1FF10208DF8030003208DF8A3
:1031900002004FF40050ADF8000069462A48FDF7E0
:1031A00059FA4FF48050ADF8000069462648FDF703
:1031B00051FA03208DF8020010208DF803004CF224
:1031C0000370ADF8000069461F48FDF743FA4FF65B
:1031D0008070ADF8000069461C48FDF73BFA1020EE
:1031E000ADF8000069461848FDF734FA2020ADF824
:1031F000000069461448FDF72DFA8020ADF8000064
:1032000069461148FDF726FA4FF40060ADF800005A
:1032100069460D48FDF71EFA4FF480510A48FDF744
:10322000A6FA10210848FDF7A2FA20210648FDF76A
:103230009EFA4FF400610448FDF799FA8021024894
:10324000FDF795FA08BD0000001401400018014088
:10325000082104F03DBE000002480068806B006851
:10326000704700004000002002480068C06B006802
:103270007047000040000020024809210068407C9F
:1032800004F026BE40000020092104F021BE70B5E4
:1032900000252C462046FDF725FE00B16D1C641C60
:1032A000022CF7DB284670BD02480068407C00F025
:1032B00003B800004000002010B5FDF713FE002801
:1032C00005D0C168CA6ABDE810400221104710BD90
:1032D000F8B515460E460124FDF704FE009058B1DE
:1032E000C0680421426A68469047030004D02A4619
:1032F00031460098984700242046F8BD032104F089
:10330000E7BD032004F051BE042104F0E1BD00003C
:10331000024801210068407C04F0DABD4000002032
:103320000148006870470000C4000020012104F03B
:10333000CFBD012004F039BE024802210068407C64
:1033400004F0C6BD400000200148406870470000FE
:10335000C4000020022104F0BBBD022004F025BE01
:10336000AFF300802DE9F041002809D0876837B11C
:103370000D4E716819B10468B4F5807F02DD00203C
:10338000BDE8F0813068844200DD0446002507E096
:1033900057F82500FFF756FD716841F825006D1CB0
:1033A000A542F5DB7068EBE79801002008B52820FE
:1033B0008DF8030003208DF802004FF68070ADF801
:1033C000000069460548FDF745F94CF20370ADF879
:1033D000000069460248FDF73DF908BD00180140AC
:1033E000001401400449054A0968497C52F821103B
:1033F0000969496808470000400000205800002083
:103400007047704710B500F01F01074A074BC0F323
:103410004514C0F3C4201B5D105C515C00EB03201D
:1034200000EB014010BD000064BF000884BF00082D
:1034300010B50A4C606860B920688000FDF742FB57
:10344000606040B104F10801054808600846FFF7D4
:103450003DFC002010BD012010BD0000980100209F
:10346000818400082DE9F047FFF711FF074600248B
:10347000DFF860802AE02046FDF734FD28B3D8F855
:10348000000090F8119044742046FFF7E1FE0828F0
:1034900017DC1148114950F824000069884210D007
:1034A0002046FFF7F1FE0646002508E0E8B2FFF7E8
:1034B00099FF0246E9B2204600F014FA6D1CB542AD
:1034C000F4DBD8F8001081F81190641CBC42D2DB08
:1034D000BDE8F0874000002058000020F8C2000836
:1034E00008B510208DF8030003208DF802004FF678
:1034F0008070ADF8000069460548FDF7ABF84CF266
:103500000370ADF8000069460248FDF7A3F808BD56
:10351000001801400014014070B5FFF747FF00207C
:103520004C49086001204C49C1F8AC0100204949D0
:103530000C39086000257EE0102D78D2DFE805F018
:10354000080E151C222930373E454C535A616870CD
:1035500040487C380068204384B269E03D487838B0
:10356000006840EA440084B262E03A487438006877
:1035700040EA440084B25BE03848006840EA440016
:1035800084B255E03548001F006840EA440084B228
:103590004EE032480838006840EA440084B247E010
:1035A0002E480C38006840EA440084B240E02B48C2
:1035B0001038006840EA440084B239E027481438E3
:1035C000006840EA440084B232E0244818380068B9
:1035D00040EA440084B22BE020481C38006840EAEE
:1035E000440084B224E01D482038006840EA4400CA
:1035F00084B21DE017489838006840EA440084B25D
:1036000016E014489C38006840EA440084B20FE099
:1036100010486038006840EA440084B208E006E0E0
:103620000C486438006840EA440084B200E000BFFF
:1036300000BF681CC5B2102DFFF67EAF0120054902
:103640000C3908600449C1F89C01FFF749FF204686
:1036500070BD00009C812242008022423C01234236
:103660002DE9FF4F83B01646DDE910408B46C06858
:103670004769426A7AB1012111A8904705000AD032
:103680000698CDE9000433465A4603991198A84795
:1036900007B0BDE8F08F57480068407CFDF752FD49
:1036A0008246082801DC012005E0BAF1100F01DC98
:1036B000022000E004208046002596E04046B8F154
:1036C000010F05D0022871D0B8F1040F25D17CE09C
:1036D000BAF1090F21D2DFE80AF08605213F3F59F0
:1036E00059595900039815E001465A461198B847B0
:1036F000C5F1070188404FF67F722178EA401140FA
:1037000001436D1C217004EBE50425F00700054121
:1037100009F101008146B042E6DD64E0039817E05C
:1037200001465A461198B8470621A1EB4501884049
:103730006B004FF63F722178DA40114001436D1C57
:10374000217004EBA50425F00300054109F10100F7
:103750008146B042E4DD46E0039813E001465A4654
:103760001198B8470421A1EB850188402178AB006E
:103770000F229A401140014321702C4485F001052D
:1037800009F101008146B042E8DD2CE0DDF80C9043
:1037900007E001465A461198B847207009F101091F
:1037A00044444846B145F4DD1DE0FFE7DDF80C90E8
:1037B00007E001465A461198B847208009F10109EF
:1037C00044444846B145F4DD0DE0DDF80C9007E0D7
:1037D00001465A461198B847206009F1010944444E
:1037E0004846B145F4DD0BF1010B06998B457FF797
:1037F00065AF4DE74000002010B50D4C0D49206825
:10380000407C51F8200048B1C16811B10968042911
:1038100001D00068F7E708B1FDF74CFB20680021F4
:10382000016600F108014161BDE8104000F02EB8CA
:1038300040000020580000200149096849680847F5
:1038400094010020044909680A7C520701D5C96B1C
:1038500000E0896B08607047400000207CB5094C8F
:1038600005462068417C084850F82100C1680A6B71
:103870006946904720686A4629460830FFF733F9C1
:103880007CBD000040000020580000200448016872
:1038900004484A7C083150F82200C268126B104775
:1038A00040000020580000200149096809680847C5
:1038B00094010020044909680A7C520701D5896BEC
:1038C00000E0C96B0860704740000020014AC2E96F
:1038D00000017047C4000020014909688968084751
:1038E00094010020F8B515460E460124FDF7FAFABA
:1038F000009058B1C0681021426A684690470300A2
:1039000004D02A4631460098984700242046F8BD46
:10391000F8B515460E460124FDF7E4FA009058B1BB
:10392000C0680321426A68469047030004D02A46D3
:1039300031460098984700242046F8BDF8B5154652
:103940000E460124FDF7CEFA009058B1C0680B2155
:10395000426A68469047030004D02A4631460098E0
:10396000984700242046F8BDF8B515460E460124B8
:10397000FDF7B8FA009058B1C0680A21426A68465B
:103980009047030004D02A46314600989847002407
:103990002046F8BD10B5074C2068006BFFF752FABF
:1039A000FFF788FF2068406BFFF74CFABDE8104036
:1039B000FFF748BF4000002010B5A0B014211BA89D
:1039C000FCF732FD682101A8FCF72EFD00231A4602
:1039D00009490A48FDF714FA0446F0224FF4C87169
:1039E0000020FFF7ABFFF0224FF4C8710020FFF773
:1039F000BBFF20B010BD0000C0A400086CA40008EC
:103A00002DE9F04106460C461746012C04D100F082
:103A100065F90020BDE8F0814FF0FF3500BF00BF21
:103A20002846F7E72DE9FF4F8DB01746674ADDF8C6
:103A300070901E9E209812681D4600248AB11D9B1E
:103A40001F98CDE90293CDE90460DDE91A03CDE9C1
:103A5000000314682B463A460D98A04711B0BDE804
:103A6000F08F0D9A01EB050802EB070CDDE91A2334
:103A70001A43A8F10108ACF1010C012A06D0C9F1E2
:103A800008004FF0000B029105909CE0504A12682C
:103A9000B2F90A40631A002B06DDED1A002DDDDDB8
:103AA00021461D9C03FB0466B2F90E30A8EB03030C
:103AB000002B02DDED1A002DD0DDB2F90C30ACEB9D
:103AC0000303002B00DDFF1A0D9B1C1AB2F908300E
:103AD000A3420DDDA3EB040C0CEB0003181A20F03D
:103AE00007000444A7EB0C0706EBE30603F007000E
:103AF000002FB3DDDDF874C01F9BCDE902C6CDE910
:103B00000403CDE90059527C32483B4650F822006C
:103B1000C26855680A462146A8479FE71B99029844
:103B200008440C902A49401E00900A68B2F90A30F5
:103B3000834242DCB2F90E10029881423DDB4FF025
:103B4000000A0D980A96D046039034E0BAF1000FAF
:103B500005D10A984FF0080A10F8014B0A90059910
:103B6000AAEB090A34FA01F004FA09F4E4B204D128
:103B700017490968097C890717D415490968C96B71
:103B80000A680B921F9A0AB152F820000860039944
:103B90001A98009B0A18DDE90210521EFFF7C2FABC
:103BA0000B490B980968C96B086003991A9808F1CA
:103BB000010808440390B845C8DB0C9802901D9892
:103BC0000BF1010B0644AB45A8DB47E77C00002066
:103BD0004000002058000020002818D0410817D0CD
:103BE000810817D0C10817D0010917D0410917D093
:103BF000010A17D0410A17D0010B15D0C10B13D001
:103C0000010C11D0810C11D0000E11D02020704772
:103C1000012070470220704703207047042070473E
:103C20000520704708207047102070471220704709
:103C30001820704700B50022FFF7CEFF012804D0FE
:103C4000811E062903D808220BE0012209E0A0F119
:103C50000901072901D8102203E011380F2800D8E4
:103C60002022104600BD000010B54FF480510748D7
:103C7000FCF77BFD642005F079FE4FF4805103488A
:103C8000FCF775FD642005F071FE10BD00140140C5
:103C900008B50121102000F027FA10208DF803004C
:103CA00003208DF802000F20ADF8000069460A4895
:103CB000FCF7D0FC01210848FCF759FD0221064819
:103CC000FCF755FD04210448FCF751FD082102488A
:103CD000FCF74DFD08BD00000010014010B5FFF7D6
:103CE0004DFA322005F042FEFFF7BEFF2A2001F018
:103CF000EBFE002001F062FF002001F05FFF0020DA
:103D000001F05CFFEF2001F059FF2B2001F0DCFEF9
:103D1000002001F053FF002001F050FF012001F0CE
:103D20004DFF8F2001F04AFF352001F0CDFE00202D
:103D300001F044FFB12001F0C7FE112001F03EFF69
:103D40000E2001F03BFFB42001F0BEFE022001F086
:103D500035FFB62001F0B8FE1E2001F02FFF022033
:103D600001F02CFFC02001F0AFFE102001F026FF73
:103D7000C12001F0A9FE012001F020FF0B2001F07D
:103D80001DFFC52001F0A0FE172001F017FF27201E
:103D900001F014FFFA2001F097FE012001F00EFF60
:103DA000E02001F091FE002001F008FF082001F062
:103DB00005FF112001F002FF0D2001F0FFFE13208E
:103DC00001F0FCFE172001F0F9FE1C2001F0F6FEC8
:103DD0007B2001F0F3FE2D2001F0F0FE102001F019
:103DE000EDFE2F2001F0EAFE292001F0E7FE12206F
:103DF00001F0E4FE1C2001F0E1FE2F2001F0DEFEC8
:103E0000E12001F061FE2B2001F0D8FE2E2001F010
:103E1000D5FE292001F0D2FE0D2001F0CFFE1620A4
:103E200001F0CCFE152001F0C9FE292001F0C6FEEC
:103E3000572001F0C3FE2F2001F0C0FE092001F041
:103E4000BDFE1A2001F0BAFE232001F0B7FE31209A
:103E500001F0B4FE372001F0B1FE3C2001F0AEFECF
:103E6000E22001F031FE002001F0A8FE082001F060
:103E7000A5FE112001F0A2FE0D2001F09FFE1320EF
:103E800001F09CFE172001F099FE1C2001F096FE27
:103E90007B2001F093FE2D2001F090FE102001F018
:103EA0008DFE2F2001F08AFE292001F087FE1220CE
:103EB00001F084FE1C2001F081FE2F2001F07EFE27
:103EC000E32001F001FE2B2001F078FE2E2001F00E
:103ED00075FE292001F072FE0D2001F06FFE162004
:103EE00001F06CFE152001F069FE292001F066FE4C
:103EF000572001F063FE2F2001F060FE092001F041
:103F00005DFE1A2001F05AFE232001F057FE3120F9
:103F100001F054FE372001F051FE3C2001F04EFE2E
:103F2000E42001F0D1FD002001F048FE082001F05E
:103F300045FE112001F042FE0D2001F03FFE13204E
:103F400001F03CFE172001F039FE1C2001F036FE86
:103F50007B2001F033FE2D2001F030FE102001F017
:103F60002DFE2F2001F02AFE292001F027FE12202D
:103F700001F024FE1C2001F021FE2F2001F01EFE86
:103F8000E52001F0A1FD2B2001F018FE2E2001F00C
:103F900015FE292001F012FE0D2001F00FFE162063
:103FA00001F00CFE152001F009FE292001F006FEAB
:103FB000572001F003FE2F2001F000FE092001F040
:103FC000FDFD1A2001F0FAFD232001F0F7FD31205C
:103FD00001F0F4FD372001F0F1FD3C2001F0EEFD91
:103FE0003A2001F071FD552001F0E8FD362001F086
:103FF0006BFD602001F0E2FD112001F065FD7820ED
:1040000005F0B4FC292001F05FFD012001490860A2
:1040100010BD0000B481224200BFFEE770470000DF
:1040200070B5002100230F22C47804B3154C246816
:1040300004F4E064C4F5E064210AC1F10403CA4059
:10404000447804FA03F184781440214309010E4CAA
:104050000678A155047804F01F050124AC400578CA
:104060006D11AD0005F1E025C5F8004109E00478C7
:1040700004F01F050124AC40044D0678761145F884
:10408000264070BD0CED00E000E400E080E100E0BF
:1040900002490143024A1160704700000000FA051E
:1040A0000CED00E07047000029B1064A5269024356
:1040B000044B5A6104E0034A52698243014B5A613E
:1040C000704700000010024029B1064AD26902433D
:1040D000044BDA6104E0034AD2698243014BDA619E
:1040E000704700000010024029B1064A926902435D
:1040F000044B9A6104E0034A92698243014B9A613E
:104100007047000000100240704710B500F002F840
:1041100010BD00000CB500200190009033480068ED
:1041200040F480303149086000BF3048006800F436
:10413000003000900198401C0190009820B94FF683
:10414000FF7101988842F0D12848006800F40030DF
:1041500010B10120009001E000200090009801289B
:1041600043D12348006840F0100021490860084608
:10417000006820F0030008600846006840F0020074
:1041800008601A4840681949486008464068486015
:104190000846406840F4806048600846406820F463
:1041A0007C1048600846406840F4E81048600846C3
:1041B000006840F08070086000BF0C48006800F0A4
:1041C00000700028F9D00948406820F00300074932
:1041D00048600846406840F00200486000BF03485D
:1041E000406800F00C000828F9D10CBD0010024016
:1041F00000200240042808D14FF0E021096941F075
:1042000004014FF0E022116107E04FF0E02109695D
:1042100021F004014FF0E022116170477047000067
:1042200010B51348006840F00100114908600846C5
:104230004068104908400E494860084600680E4929
:1042400008400B4908600846006820F48020086098
:104250000846406820F4FE0048604FF41F00886064
:10426000FFF753FF4FF000600449086010BD0000E5
:10427000001002400000FFF8FFFFF6FE08ED00E02E
:1042800010B50121064800F05EF820B1054800682D
:10429000401C044908600121014800F045F810BDA8
:1042A000000400400C0000207FB504460D460121AB
:1042B0000220FFF709FFADF804500020ADF806001A
:1042C000ADF80840ADF80A0001A90E4800F056F814
:1042D000012211460B4800F047F81D208DF8000020
:1042E00000208DF8010003208DF8020001208DF8D8
:1042F00003006846FFF794FE0121024800F017F81A
:104300007FBD00000004004010B50121054800F009
:104310001AF808B1FDF7A0FD0121024800F004F8E9
:1043200010BD000000100040CA430282704721B156
:10433000028842F00102028004E002884FF6FE7318
:104340001A400280704730B5024600200023002446
:10435000158A05EA0103958905EA010413B10CB138
:10436000012000E0002030BD1AB183890B43838116
:1043700002E083898B43838170470000002202881A
:104380001D4B98420ED01D4B98420BD0B0F1804F80
:1043900008D01B4B984205D01A4B984202D01A4BBA
:1043A000984204D14FF68F731A404B881A43174B2B
:1043B000984207D0164B984204D04FF6FF431A405C
:1043C000CB881A4302808B8883850B8803850A4B30
:1043D00098420BD0094B984208D00E4B984205D01A
:1043E0000D4B984202D00D4B984201D10B7A0386B7
:1043F0000123838270470000002C014000340140FB
:104400000004004000080040000C00400010004084
:1044100000140040004001400044014000480140B9
:1044200010B540F22551204800F044F8A8B31E48CA
:1044300000F06AF8C4B21D48008800F4004058BB80
:104440001A48008800F4804060B10A2C03D0002094
:104450001649088026E01548008840F400401349BA
:1044600008801FE00D2C06D11048008840F48040E1
:104470000E49088016E00D480088C0F30D000C4975
:104480000C540A480088401C0849088008460088E7
:10449000C72807DD0020088004E0FFE7024800F09D
:1044A00033F8C4B210BD00000038014008000020FD
:1044B0000C02002070B502460024002300250020D5
:1044C00040F66A16B14200D100BFC1F3421501F0B7
:1044D0001F03012606FA03F3012D02D1968933400A
:1044E00006E0022D02D1168A334001E0968A33405D
:1044F0000C12012606FA04F41688344013B10CB1EC
:10450000012000E0002070BD01468888C0F308004B
:10451000704700BFFEE7000002490120096881F8EA
:1045200054007047400000202DE9F0418AB004009B
:1045300036D0FCF73FFB0190D0E90012CDE9041220
:10454000876A056A01A8FCF765FB204600F064FE57
:10455000060025D0204600F0D6F98046B80704D5DD
:104560002A46414604A800F0BDFF2046FCF722FB86
:1045700001904046FCF71EFB06903046FCF71AFB04
:10458000039005620698019AC1691162C46101A88D
:10459000FCF740FB06A8FCF73DFB03A8FCF73AFB41
:1045A0000AB0BDE8F08100002DE9FC5FDFF834A11E
:1045B0000746DDE90C54DAF81800DDF83CB09846FF
:1045C00091460E4604434DB9BAF8020048B3464836
:1045D0000AF144010068407C51F82050681C0ED05C
:1045E000FDB12846FCF7E6FA0190B0F90010B0F9E9
:1045F00002200F441644B9F1000F02D006E0002556
:104600000FE0B0F90430591A01F10109B8F1000FB7
:1046100004D1B0F90600801A00F1010801A8FCF7E6
:10462000F9FA0BF12C00FCF70AFA5FEA000B56D0FE
:10463000BAF80200401CAAF802005846FCF7BAFA81
:104640000090078007EB09014680491E818006EB38
:104650000801491EC1800E990161244A816A2240E5
:10466000114381626846FCF7D5FADAF810005E461D
:1046700050B1FCF7E7FA07463046FCF7E3FA01468B
:10468000786948617E6101E0CAF810B02946584651
:1046900000F058FEA00602D5584600F089FCE0075D
:1046A00004D0DAF82410491CCAF82410600602D598
:1046B0005846FFF739FFA0070DD55846FCF77AFAA0
:1046C0000090816A41F0020181626846FCF7A2FA1B
:1046D000584600F088FB0121584601F046F958463B
:1046E000BDE8FC9FCC000020400000209F3F3F0021
:1046F00003490020096881F85400FFF7C7B800009B
:104700004000002010B50446C168D4E90020172AF3
:104710000DD004DC0E2A0CD0142A07D104E0222A82
:104720000CD0282A02D10CE000F030FD0020E0601F
:1047300010BD2146BDE8104000F05ABC6FF070403B
:10474000F5E7BDE8104000F04EBB38B504000BD0D3
:10475000FCF730FA00900068FDF7FAFA6846FCF7BB
:1047600059FA2046FCF786F938BD0000F8B5050077
:104770006CD000F023FF002868D0284600F05EFDD2
:1047800007460B21284601F0F0F8284600F0C5FC4A
:104790002846FCF70FFA0090406A08B1FCF742FE89
:1047A0002B4C002104F15C026163E06852F8203078
:1047B000AB4201D142F82010254A543252F8203041
:1047C000AB4201D142F82010606904E04368AB427B
:1047D00000D1416000680028F8D10721284600F088
:1047E00038FB009801F0B2FC284600F0BBFC2069C1
:1047F0000DE000BFFCF726FA064640692946A842AC
:1048000005D10846FCF71EFA4069706101E00028F6
:10481000F0D10098806AC10702D0616A491E6162C6
:10482000800602D5A088401EA0806846FCF7F2F9F9
:104830006088401E60802846FCF71CF9002F05DBCD
:104840000348443050F8270000F0B2FBF8BD0000E8
:10485000CC0000202DE9F0411A4C0025206B10B14E
:10486000804700E0012502F089FF0028FAD1164EAA
:10487000306890F8540038B1A08828B1206A012728
:1048800020B10068804704E0002702E00120FEF725
:1048900053F9306890F8540038B1A08828B102F07C
:1048A0002FFEA08808B10125F3E73FB1206A10B1BF
:1048B0004068804702E00020FEF73EF92846BDE848
:1048C000F0810000CC000020400000200348044993
:1048D0000068407C51F82000704700004000002034
:1048E000100100200021022802D2024951F82010B4
:1048F000084670471001002010B5002802D0FCF7D0
:10490000A1F9C06910BD10B5002802D0FCF79AF9D2
:10491000806910BD10B501004FF0000004D00846BA
:10492000FCF790F9B0F9000010BD00002DE9F04F40
:104930009BB04FF0000B5E46CDF820B0CDF824B010
:10494000CDF828B0FDF7E8F818B100201BB0BDE89D
:10495000F08F6846FDF7BEF80098C94DC94C401C61
:1049600011D0009800281DDB019800281ADBC649E9
:104970000098B1F900100844C44900900198B1F9B9
:10498000001008441DE00198401C0BD120689DF8E0
:10499000081000EB400005EB8000007A884201D14E
:1049A0005846D3E70098401C0CD10198401C09D10F
:1049B000206800EB400055F8201005EB80000091C6
:1049C0004068019005A800F071FB9DF809000228DD
:1049D00000D2206007AA12A92068FCF7EFFB129909
:1049E0000098401A009007990198009A401A019087
:1049F000206800EB400055F8201091420AD105EBE9
:104A00008000019A4168914204D1007A9DF8081013
:104A100088427DD0DDE900019DF80920FCF734F9DA
:104A20009B4F7A6812B100216846904799482168E7
:104A300050F8210018B9DDE9000100F0B3FA069042
:104A4000BA6812B10699684690478D4F206838378A
:104A500007EBC0014868069A824201D0012200E0BB
:104A600000220DF12009F8B1F2B1486800F05AFDBA
:104A7000D0B1206807EBC000406800F048FD98B155
:104A80009DE8070008AB83E807001220CDF84490AA
:104A90000E90206807EBC00040680EA900F08BFF65
:104AA000206807EBC0004660069800F03BFD002838
:104AB0007DD00699206807EBC002516000EB4000F2
:104AC00005EB80009DF80810007ADFF8B4A1884259
:104AD0000AF1280A5ED00698C0B30698FCF76AF877
:104AE0009DF8081013908DF83410216801EB4101F6
:104AF00005EB8101097A8DF83510B0F90020009995
:104B0000891A0B91B0F902000199081A0C9000E083
:104B1000B1E013A8FCF77EF80BA8119011200E90BD
:104B2000206800EB400105EB810191E88C000492C4
:104B3000CDE914379DF808200A729DF8281031B18C
:104B40000AEBC0014F68069A4A6001E022E00027A4
:104B50000AEBC000D0F8048006980EA900F0E4FE2D
:104B600021680AEBC1004368434501D040680690C4
:104B700001EB410005EB8003DDE91412049883E8A2
:104B800007003FB1384600F060F918B121680AEB20
:104B9000C100476020689DF8081000EB400805EB55
:104BA0008802137A0B434CD04FF4107300E056E0A8
:104BB0000AEBC0000E9343684FF0010B5746DDF837
:104BC00018C09C4515D043689BB109B1119608E007
:104BD00055F828100891516809918DF82860CDF892
:104BE000449040680EA900F0E6FE206807EBC00084
:104BF000466020689DF8081000EB400205EB820239
:104C00001172069959B39DE80E000DF1200888E84D
:104C10000E009DF8281021B1069907EBC0004160F5
:104C200008E01D48007808B100F044F9206807EB5F
:104C3000C00046600698CDF844900EA900F0BBFE77
:104C40000DE0069858B1069800F061FC38B19DE877
:104C5000070008AB83E8070010200E90EAE7216800
:104C60009DE81C0001EB410005EB800080E81C0082
:104C7000684600F013F905A800F0F8FD90E6000082
:104C80003C840020D800002080000020820000200A
:104C9000B401002020010020300100202DE9FF5F39
:104CA0002C4D6878002853D100272B482F616F6363
:104CB0000068DFF8A8903C464764AF806F804FF0F3
:104CC000020A4FF0FF3B43F6FF7805F14406204609
:104CD000FCF708F998B1CDE90297CDE900BA0021B7
:104CE000424643460846FFF75FFC1A4A46F824004E
:104CF0004C326FF0704142F8241000F074F8641CDC
:104D0000022CE4DB164FDFF85C80DFF85C900024B7
:104D100007EBC40000F0CAF908EBC40000F0C6F9C4
:104D200009EBC40000F0C2F9641C022CF0DB30680F
:104D300000F03EF9FFF7F0FB0120064968703C31B6
:104D40000A48086004B00846BDE8F05FFDF7BEBF42
:104D5000BDE8FF9FCC00002040000020AD98000877
:104D60005484002064840020748400204D84000852
:104D700070B586B00D4606002CD0FBF71BFF0090E7
:104D8000846AA10723D5D0E90010CDE90110E00322
:104D900002D5304600F02CFB5DB1286803906868AE
:104DA000049003A9009800F089F903A901A8FDF770
:104DB0007DFE314601A800F089F940B140F60100BE
:104DC0000440012C08D001A9304600F00DFB6846D4
:104DD000FBF720FF06B070BD0098026A816901A848
:104DE00000F080FBF3E70021FFF7C2BFFEB51546D8
:104DF0000E4604001CD0FBF7DDFE0246009090F842
:104E00002800800711D5314601A8FDF76CFE60B17E
:104E10006846FBF7FFFE2A4601A9204603F05AFA2E
:104E20002046FFF769FD04460CE06846FBF7F2FEFA
:104E3000FEBD2A4601A92046FFF7D8FF2046FBF712
:104E400001FF046A002CF4D1FEBD00F0B7BB00F0F6
:104E5000C7BB1FB5262203910092694600F0C8F82F
:104E60001FBD000010B50C4C0A4A03462468002000
:104E700086B052F82420002A0AD00E200090CDE9F6
:104E8000043104A803906946104600F02FFD01206C
:104E900006B010BD28010020D8000020044A01EB14
:104EA000410102EB81010DC881E80D00704700004F
:104EB000F484002000F0C4BC70B5154606468AB0E4
:104EC0000C4651EA05006BD0002E69D03046FBF746
:104ED00071FE0590D0E90012CDE90212CDE906126B
:104EE0007CB1816A0A0607D5890505D4BDF818107A
:104EF000091BADF8181004E0BDF81C102144ADF8F2
:104F00001C107DB1816ACA0507D5490505D4BDF8D5
:104F10001A10491BADF81A1004E0BDF81E10294400
:104F2000ADF81E10806AC00302D5304600F060FA6A
:104F300005AB93E80700C0E9001290F8280080074D
:104F40000AD506AA02A908A8FCF789FD0598026AF5
:104F5000816908A800F0C6FABDF91E00BDF90E105F
:104F6000401A0090BDF91C00BDF90C10431ABDF9A0
:104F70001A00BDF90A10421ABDF91800BDF908104F
:104F8000411A059800F032FD059901F10800FDF77E
:104F90008DFD0521304600F0E8FC05A8FBF73AFE40
:104FA0000AB070BD0A460146002003F035BC00007F
:104FB00070B50C4D04002868866C01D10A490C6953
:104FC0008464204600F088FCFEF760FC2046FBF776
:104FD00039FE2968B0F90020CA64B0F902000865FA
:104FE000304670BD40000020CC00002000F0AABC7C
:104FF00070B50C00054609D0FFF785FC002805D0E8
:105000002146A560BDE8704000F070BC70BD000096
:1050100010B5FBF7FFFA024900200968486410BD8B
:1050200040000020F8B516460C46050018D0FBF7E6
:10503000C1FD0090B0F90410B0F90020891A641A7B
:10504000B0F90610B0F90200641E081A361A684654
:10505000761EFBF7DFFD324621462846FFF72CFF80
:10506000F8BD00000EB50E48006890F8541009B164
:105070000C4811E0806CFBF79DFD0090D0E900101A
:10508000CDE901106846FBF7C5FD0748816A11B1FB
:1050900001A800F01BF801A803F006FC0EBD0000FB
:1050A00040000020A4830020CC00002002490A68B0
:1050B0000260086070470000E00000200B46B0F975
:1050C0000220B0F900101846FCF7F5BC38B50C46C4
:1050D00005462046FBF76EFD0146009090F828003B
:1050E000800703D46846FBF795FD12E02846FDF7DC
:1050F000DDFC0098806920B104466846FBF78AFD14
:10510000E7E76846FBF786FD204601F029F800280E
:1051100001DA002038BD012038BDF8B505466846E3
:10512000FCF738FE1AE001212046FCF71FFE00992B
:1051300081B178B10846FBF785FD4068A84209D1E6
:1051400069462046009EFCF739FE04463046FFF7CC
:10515000FCFA04E069462046FCF730FE0446002CC9
:10516000E1D1F8BD38B50446FBF724FD0090816914
:1051700041B1026A00F0B6F9204600F08DFB0099BB
:10518000002088616846FBF745FD38BD38B50C4600
:1051900000280AD0002C08D0FBF70CFD2146009017
:1051A00000F004F86846FBF735FD38BD00224A8060
:1051B0000A8082880388D21A8A80C2884088101A9E
:1051C000C880704710B5FFF79EFB002802D0FBF7A0
:1051D00039FDC06910BD00000D4810B5006890F899
:1051E0005400002806D00B4C6069012803DD401EE6
:1051F0006061002010BD2069401C206102F0C4FBEA
:1052000018B1FFF72FFF012010BD6069EFE7000024
:10521000400000209C83002070B50546FFF7D2FFB8
:1052200008E0AC4201D1002406E0FBF70BFD006A68
:10523000A84201D00400F4D1204670BD10B5044648
:10524000FBF700FD80690028F9D12046BDE8104039
:1052500000F086BFF0B5384E074687B0306890F84A
:10526000541041B1354C6169491C6161012905DD6A
:10527000012007B0F0BDFFF7F5FEF9E7806CFBF702
:1052800099FC2F4D4FF0FF3100902161297821B119
:1052900081680291C068039007E090F828108907A0
:1052A0003CD5D0E90010CDE902101FB1394602A863
:1052B000FDF7FCFB3068406C78B3009804903068D0
:1052C000406C0168059140680690A86A30B104A856
:1052D000FBF7A0FCA86AFBF76DFC049005A90498F5
:1052E000FFF7ECFE05A902A8FDF7E0FB0DF11000A9
:1052F000FBF790FCA96A19B102A8FFF7E7FEB0B16D
:105300003068816C02A8FFF7E1FE80B1DDE902019F
:10531000C4E90001FFF760FFABE706E06069401EEB
:1053200060616846FBF776FC04E06846E0E7606988
:10533000401E606100209CE7400000209C8300200C
:10534000CC000020FEB50D00044647D0FBF732FC30
:1053500000900021856101622846FBF72BFC009933
:105360000290C56991F8281001F008062DB1284671
:10537000FBF720FC019036B115E0C4616846FBF7ED
:1053800049FC02A828E090F8280000070BD50098F7
:1053900005620298C4616846FBF73CFC02A8FBF773
:1053A00039FC01A818E002A8FBF734FC01A8FBF7C0
:1053B00031FC2846FBF746FC11E004620BE028466E
:1053C000FBF740FC5EB990F82810090707D5019853
:1053D0000462009805626846FBF71CFCFEBD019064
:1053E000056A002DEBD1E8E7202202F073BF000030
:1053F00038B5040022D0FBF7DDFB009090F82810B0
:10540000890718D5406A40B10D49C96AA14204D044
:10541000FCF708F80099002048622046FFF76CFA74
:10542000044606E02046FFF7E3FF2046FBF70AFCB0
:10543000046A002CF6D16846FBF7ECFB38BD00008F
:10544000CC00002070B5064615460C460846FBF712
:10545000F9FB806AC00302D54FF4804300E02023AB
:105460002A4621463046BDE87040AFF300802DE962
:10547000FF419846164607460D0031D00846FBF717
:1054800099FB0090846A0246A00726D5394601A8F8
:10549000FDF729FB08B340F601000440012C07D0BA
:1054A000424601A9284602F015FF0098C46912E09F
:1054B00000984346026A816901A8FFF7D8FFF4E724
:1054C000B4420AD0424601A92046FFF78FFC20468D
:1054D000FBF7B8FB046A002CF2D16846FBF79AFB95
:1054E000BDE8FF812023FFF7C2BF000070B50C4666
:1054F000002550B14CB100BFFBF7A4FB8069A0426E
:1055000001D1012501E00028F6D1284670BD10B573
:105510000124FBF797FB90F82800C00600D5002473
:10552000204610BD70B5064614480068002807DB09
:10553000134951F820103046FFF7D8FF00281AD041
:10554000114D104C286804EBC00041683046FFF74D
:10555000CDFF296804EBC102516829B100215268CE
:10556000B24203D1012202E00121F8E70022014307
:10557000114301D0012070BD002070BDB401002096
:105580001001002054840020D800002090F828301A
:105590009B0711D5B0F900308B420DDCB0F9043017
:1055A0008B4209DBB0F90210914205DCB0F906002C
:1055B000904201DB012070470020704710B504467F
:1055C0000648006906E0A04201D1012010BDFBF7AA
:1055D00039FB40690028F6D110BD0000CC00002046
:1055E000F0B58BB006004FF0000015460C46049055
:1055F0000590069007903ED054EA05003BD0304617
:10560000FBF7D8FA0090D0E90012CDE902122A4641
:105610002146FCF750FA00982A4621460830FCF74C
:105620004AFA0098C7696846FBF7F4FA2A46214609
:10563000384602F094FE3046FBF7BCFA009090F832
:10564000281089070AD5816941B1026AFFF7FAFE7D
:105650000098026A816902A8FFF7F4FE6846FBF72A
:10566000D9FA0320049007AA08A882E8310004A907
:10567000304600F03BF90BB0F0BD00002DE9F141E0
:1056800087B000250798FBF795FA0190D0E9021240
:10569000CDE9031207698669846A01A8FBF7BAFAA3
:1056A00044F2200814EA080F30D0DFB103A80799AC
:1056B000FFF70CFDB0B10798FFF77AFC60070DD536
:1056C00056B144F30000401C0090002307AA114982
:1056D00003A8FBF7C7FE05E00120F5E7079800F0F7
:1056E00063F801250798FBF765FA0190816A21EAC2
:1056F000080181628A0402D541F00401816201A897
:10570000FBF788FA04498888401E888008B028463C
:10571000BDE8F081FD980008CC000020F0B589B00C
:105720000546FBF747FA0290866A0469D0E9021041
:10573000CDE9001002A8FBF76DFA002C30D0B007BD
:105740002ED52E212846FFF751FC164C6F462078A7
:10575000401C2070F0044FF00F0609D5CDE9046518
:105760000797FFF755FC04A9284600F0BFF810E0A2
:105770003846FFF76FFD0AE0CDE904650797FFF7AC
:1057800047FC04A9284600F0B1F8FFF725FD0028E2
:10579000F2D120782F21401E20702846FFF726FCEA
:1057A00009B0F0BDCC00002038B50446FBF702FA82
:1057B0000090806A40F601010840012805D0684643
:1057C000FBF728FA204602F079FE1448406A0028C8
:1057D00023D0204602F0CAFE2046FBF733FA856943
:1057E000046A18E02046FBF72DFA90F82800C04321
:1057F000800702D1204602F073FE204602F0B6FE7A
:105800002046FBF71FFA046A002CEBD12846FBF771
:1058100019FA8569046A002DF6D138BDCC00002044
:10582000B0F90010B0F90420914205DCB0F9021083
:10583000B0F90600814201DD002070470120704769
:105840007FB5094D074C286854F82000002808D07F
:1058500018210091694600F049F82968002044F8B1
:1058600021007FBD20010020D8000020094B1968CD
:10587000002905D00022814206D108680AB11060D3
:1058800070470028186070470A4609680029F2D15D
:1058900070470000E000002070B50646FBF7D2F923
:1058A00005468069002809D0FBF7CCF90446C06999
:1058B000B0420ED1FBF7C6F9006AE06170BD00BFCF
:1058C000FBF7C0F90146006AB04202D1286A0862BB
:1058D00070BD0028F4D170BD10B5FFF7AFFC0028F3
:1058E00003DBBDE81040FCF7B3B910BD70B50D4C3B
:1058F00006460D46206814280DDA3046FBF7A2F95B
:1059000001696E6041B12068401C206028468847CC
:105910002068401E206070BD2846BDE87040FEF73C
:10592000F1BE0000B001002070B50C460546FFF73F
:10593000EEFD002805D021462846BDE87040FFF75F
:10594000D5BF70BD7FB50546002000900190029044
:1059500003900C462846FBF775F90269002A03D02C
:105960006846CDE9004590477FBD1FB5CDE90010E1
:105970006946FFF7BBFF1FBD7FB505460E46486869
:10598000C9680391CDE901050D202C46009008E07F
:105990002046FEF7B8FF040003D069460396FFF7E0
:1059A000C3FF2046FFF751FA0028F1D131462846BF
:1059B000FFF7BAFF7FBDF8B5CC680D46064684B147
:1059C000FBF7F8F80090B0F900002168081A206091
:1059D00000996068B1F90210401A60606846FBF7F0
:1059E00019F929463046FFF7C7FFF8BD2DE9FF4FEB
:1059F00081B09B46C66962E03046FBF7DBF80146A2
:105A00000090D1E90004896A254601F4207302461A
:105A1000802B09D0B3F5207F029B134406D063F39B
:105A20000F02029B234405E002EB0B0363F30F021A
:105A300004EB0B0301F4A06163F30F04B1F5807F65
:105A40000BD0B1F5A06F03994FEA224307D0194458
:105A500061F31F422314039906E00E9913141944AD
:105A600061F31F420E99231419440FFA82FA61F36D
:105A70001F440FFA80F917144FEA2048AAEB0901D6
:105A8000A7EB080251EA020002D03046FFF7DFF927
:105A90002AB221B2A2EB0900A1EB0A01091AC7EB55
:105AA0002440C8EB2542821A51EA020002D0304657
:105AB000FFF702FA0098066A6846FBF7ABF8002E7B
:105AC0009AD105B0BDE8F08F10B502460023384CDE
:105AD00023600123374CC4F890310023344C103C30
